:10000000AC270020D14400003D4500003D450000E4
:100010003D4500003D4500003D450000000000005A
:10002000000000000000000000000000F14B000094
:100030003D45000000000000F54C0000314D00007F
:100040003D450000D90B00003D450000090D0000B2
:10005000D14100003D4500003D4500003D45000008
:100060003D4500003D4500003D4500003D45000088
:100070003D4500003D4500003D4500003D45000078
:100080003D4500003D4500003D4500003D45000068
:100090003D4500003D4500003D4500003D45000058
:1000A0003D4500003D4500003D4500003D45000048
:1000B0003D4500003D450000ED4200003D4500008B
:1000C0003D4500003D4500003D4500003D45000028
:1000D0003D4500003D4500003D4500003D45000018
:1000E0003D4500003D4500003D4500003D45000008
:1000F0003D4500003D4500003D4500003D450000F8
:1001000080B582B000AF00F059FB0346FB71FB796C
:10011000184607F10807BD4680BD00BF80B500AF97
:1001200001F038F9024641F6C033C2F200031A600A
:1001300041F6BC33C2F200031A6841F6C033C2F282
:1001400000031B68D21A40F2FC53C2F200031B6882
:100150004FF4FA5101FB03F3D2184FF67F43C0F27C
:100160000A039A4202D84FF0010301E04FF0000366
:10017000184680BD80B582B000AF00F01FFB03467B
:10018000FB7101F007F9024641F6C033C2F20003E9
:100190001A6041F6BC33C2F200031A6841F6C0335C
:1001A000C2F200031B68D21A40F2FC53C2F20003F1
:1001B0001B684FF4FA5101FB03F3D2184FF680434A
:1001C000C0F20A039A421CD941F6BC33C2F20003C2
:1001D0001A6841F6C033C2F200031B68D21A40F21B
:1001E000FC53C2F200031B684FF4FA5101FB03F306
:1001F000D2184BF69F33C0F20D039A4201D8FB7917
:1002000001E04FF00003184607F10807BD4680BD26
:1002100080B500AF01F0BEF8024641F6C033C2F22D
:1002200000031A6041F6BC33C2F200031A6841F6BB
:10023000C033C2F200031B68D21A40F2FC53C2F270
:1002400000031B684FF4FA5101FB03F3D21843F289
:100250007F13C0F217039A4202D84FF0010301E066
:100260004FF00003184680BD80B582B000AF00F0AB
:10027000A5FA0346FB7101F08DF8024641F6C03342
:10028000C2F200031A6041F6BC33C2F200031A68DE
:1002900041F6C033C2F200031B68D21A40F2FC538D
:1002A000C2F200031B684FF4FA5101FB03F3D218AA
:1002B0004FF44653C0F217039A421CD941F6BC339F
:1002C000C2F200031A6841F6C033C2F200031B6891
:1002D000D21A40F2FC53C2F200031B684FF4FA51E9
:1002E00001FB03F3D21847F23F73C0F21B039A429B
:1002F00001D8FB7901E04FF00003184607F1080729
:10030000BD4680BD80B582B000AF00F06FFA0346F5
:10031000FB71FB79184607F10807BD4680BD00BF99
:1003200080B582B000AF00F061FA0346FB7101F0C6
:1003300031F8024641F6C033C2F200031A6041F6BA
:10034000BC33C2F200031A6841F6C033C2F20003A4
:100350001B68D21A40F2FC53C2F200031B684FF430
:10036000FA5101FB03F3D2184FF68043C0F20A039F
:100370009A421CD941F6BC33C2F200031A6841F616
:10038000C033C2F200031B68D21A40F2FC53C2F21F
:1003900000031B684FF4FA5101FB03F3D2184BF62C
:1003A0009F33C0F20D039A4201D8FB7901E04FF070
:1003B0000003184607F10807BD4680BD80B582B02E
:1003C00000AF00F013FA0346FB7100F0E3FF0246B2
:1003D00041F6C033C2F200031A6041F6BC33C2F2E8
:1003E00000031A6841F6C033C2F200031B68D21A38
:1003F00040F2FC53C2F200031B684FF4FA5101FBB8
:1004000003F3D2184FF44653C0F217039A421CD993
:1004100041F6BC33C2F200031A6841F6C033C2F29F
:1004200000031B68D21A40F2FC53C2F200031B689F
:100430004FF4FA5101FB03F3D21847F23F73C0F2B5
:100440001B039A4201D8FB7901E04FF000031846E4
:1004500007F10807BD4680BD80B483B000AF41F608
:100460008233C2F200031B78FB7141F68233C2F281
:1004700000034FF000021A70FB79184607F10C07D1
:10048000BD4680BC704700BF80B483B000AF41F66A
:100490008333C2F200031B78FB7141F68333C2F24F
:1004A00000034FF000021A70FB79184607F10C07A1
:1004B000BD4680BC704700BF80B500AF40F204630A
:1004C000C2F200034FF001021A6000F045F900F09B
:1004D00069F980BD80B500AF40F20463C2F2000349
:1004E0004FF002021A6000F037F900F04FF980BDBA
:1004F00080B500AF40F20463C2F200034FF0030284
:100500001A6000F029F900F041F980BD80B500AF14
:1005100040F20463C2F200034FF004021A6000F0DC
:100520001BF900F03FF980BD80B500AF40F20463D5
:10053000C2F200034FF00A021A6000F00DF900F059
:1005400031F980BD80B500AF40F20463C2F2000310
:100550004FF007021A6000F0FFF800F023F980BDA9
:1005600080B500AF40F20463C2F200034FF008020E
:100570001A6000F0F1F800F009F980BD80B500AF15
:1005800040F20463C2F200034FF009021A6000F067
:10059000E3F800F0FBF880BD80B500AF40F20863DF
:1005A000C2F200034FF000021A6040F20463C2F28C
:1005B00000034FF006021A6040F20063C2F200032B
:1005C0004FF001021A704FF4A040C4F202004FF045
:1005D00001014FF0010202F0ADF880BD80B500AF1F
:1005E00040F20463C2F200034FF000021A6040F2CE
:1005F0000063C2F200034FF000021A704FF4A040F3
:10060000C4F202004FF001014FF0000202F092F834
:1006100041F6C833C2F200031B68184602F094FB8F
:1006200080BD00BF80B500AF00F0B4FE024641F6C9
:10063000C033C2F200031A6041F6BC33C2F20003B9
:100640001A6841F6C033C2F200031B68D21A40F2A6
:10065000FC53C2F200031B684FF4FA5101FB03F391
:10066000D2184BF6A033C0F20D039A4202D94FF0D4
:10067000010301E04FF00003184680BD80B500AFD4
:1006800000F088FE024641F6C033C2F200031A6051
:1006900041F6BC33C2F200031A6841F6C033C2F21D
:1006A00000031B68D21A40F2FC53C2F200031B681D
:1006B0004FF4FA5101FB03F3D21847F24073C0F232
:1006C0001B039A4202D94FF0010301E04FF00003EF
:1006D000184680BD80B500AF40F20863C2F2000347
:1006E0004FF000021A6040F20463C2F200034FF0C0
:1006F00000021A6041F6C833C2F200031B681846B4
:1007000002F022FB80BD00BF80B400AF41F6813310
:10071000C2F200034FF000021A7041F68033C2F2B9
:1007200000034FF000021A70BD4680BC704700BF46
:1007300080B400AF40F20463C2F200034FF0050240
:100740001A6040F20863C2F200034FF001021A601F
:10075000BD4680BC704700BF80B500AF00F01AFEF8
:10076000024641F6BC33C2F200031A6040F2FC5369
:10077000C2F200034FF000021A6002F0B9FC024618
:1007800041F6C433C2F200031A6080BD80B500AFE9
:1007900041F6C430C2F200004FF0BF0102F07CFA13
:1007A00080BD00BF80B500AF41F6C430C2F200008A
:1007B0004FF05B0102F070FA80BD00BF80B483B0DF
:1007C00000AF41F68033C2F200031B78FB7141F6A3
:1007D0008033C2F200034FF000021A70FB79184612
:1007E00007F10C07BD4680BC704700BF80B483B0E2
:1007F00000AF41F68133C2F200031B78FB7141F672
:100800008133C2F200034FF000021A70FB791846E0
:1008100007F10C07BD4680BC704700BF80B400AF35
:1008200040F20063C2F200031B781846BD4680BC4C
:10083000704700BF80B500AF4FF4C040C4F2020063
:100840004FF001014FF0000201F074FF4FF4C0407F
:10085000C4F200004FF020014FF0000201F06AFFE7
:100860004FF4C040C4F200004FF080014FF000028E
:1008700001F060FF03F06CFD024640F21863C2F223
:1008800000031A6003F0C4FD024640F20C63C2F29A
:1008900000031A604FF4C040C4F200004FF0200182
:1008A0004FF0200201F046FF03F052FD024640F2F5
:1008B0001C63C2F200031A6003F0AAFD024640F274
:1008C0001063C2F200031A604FF4C040C4F200008B
:1008D0004FF020014FF0000201F02CFF4FF4C04018
:1008E000C4F200004FF080014FF0800201F022FFBF
:1008F00003F02EFD024640F22063C2F200031A60AC
:1009000003F086FD024640F21463C2F200031A604F
:100910004FF4C040C4F202004FF001014FF0010259
:1009200001F008FF80BD00BF80B586B000AF7860E1
:1009300039603B68072B33D801A252F823F000BF7F
:1009400061090000690900007109000079090000CF
:10095000810900008909000091090000990900003F
:100960004FF00103FB731BE04FF00203FB7317E032
:100970004FF00403FB7313E04FF00803FB730FE029
:100980004FF01003FB730BE04FF02003FB7307E005
:100990004FF04003FB7303E04FF08003FB7300BF95
:1009A0007B6803F1FF33062B5DD801A252F823F0D8
:1009B000CD090000E3090000F90900000F0A00005A
:1009C000250A00003B0A0000510A00004FF0010315
:1009D000C2F200033B614FF48043C4F200037B6129
:1009E00041E04FF00203C2F200033B614FF4A04329
:1009F000C4F200037B6136E04FF00403C2F200034F
:100A00003B614FF4C043C4F200037B612BE04FF025
:100A10000803C2F200033B614FF4E043C4F2000359
:100A20007B6120E04FF01003C2F200033B614FF402
:100A30008043C4F202037B6115E04FF02003C2F251
:100A400000033B614FF4A043C4F202037B610AE060
:100A50004FF04003C2F200033B614FF4C043C4F2C5
:100A600002037B6100BF386901F0CEF8FB7B786937
:100A7000194601F08FFEFB7B786919464FF00102A1
:100A80004FF00C0301F0E8FC07F11807BD4680BDEC
:100A900080B586B000AF786039603B68072B33D8EB
:100AA00001A252F823F000BFC90A0000D10A0000D9
:100AB000D90A0000E10A0000E90A0000F10A00007A
:100AC000F90A0000010B00004FF00103FB731BE06B
:100AD0004FF00203FB7317E04FF00403FB7313E0C6
:100AE0004FF00803FB730FE04FF01003FB730BE0B4
:100AF0004FF02003FB7307E04FF04003FB7303E06C
:100B00004FF08003FB7300BF7B6803F1FF33062BBC
:100B10004FD801A252F823F0350B0000470B00001C
:100B2000590B00006B0B00007D0B00008F0B0000C9
:100B3000A10B00004FF010033B614FF48043C4F25F
:100B400000037B6135E04FF011033B614FF4A0439C
:100B5000C4F200037B612CE04FF012033B614FF4C1
:100B6000C043C4F200037B6123E04FF013033B61F9
:100B70004FF4E043C4F200037B611AE04FF014032A
:100B80003B614FF48043C4F202037B6111E04FF0FC
:100B90002E033B614FF4A043C4F202037B6108E0E3
:100BA0004FF02F033B614FF4C043C4F202037B615B
:100BB00000BF386902F06AFEFB7B786919464FF086
:100BC000010201F0DFFBFB7B7869194601F05CFD57
:100BD00007F11807BD4680BD684620F007018D4625
:100BE00081B587B000AF4FF4A040C4F200004FF0D1
:100BF000010101F05FFDF860FB6803F00103DBB267
:100C0000002B37D04FF4A043C4F200037B614FF0B8
:100C10000103FB74FB7C7869194601F077FD0346FC
:100C2000BB60BB6803F01F03BB60BB68012B1AD11C
:100C300041F68033C2F200034FF001021A7041F610
:100C4000C833C2F200031B68184602F0DDF8034601
:100C5000012B0FD141F6C833C2F200031B681846BE
:100C600002F0FAF806E041F68133C2F200034FF0D9
:100C700001021A70FB6803F00203002B37D04FF417
:100C8000A043C4F200037B614FF00203FB74FB7CC2
:100C90007869194601F03AFD03467B607B6803F0F2
:100CA0001F037B607B68012B1AD141F68033C2F2AF
:100CB00000034FF001021A7041F6C833C2F200037C
:100CC0001B68184602F0A0F80346012B0FD141F62D
:100CD000C833C2F200031B68184602F0BDF806E0F4
:100CE00041F68133C2F200034FF001021A70FB7C1F
:100CF0007869194601F0F8FC07F11C07BD46BDE80C
:100D000081408546704700BF684620F007018D4648
:100D100081B587B000AF4FF4E040C4F200004FF05F
:100D2000010101F0C7FCF860FB6803F04003002BF1
:100D300033D04FF4E043C4F200037B614FF0400333
:100D4000FB74FB7C7869194601F0E0FC0346BB604C
:100D5000BB68402B1AD141F68033C2F200034FF03A
:100D600001021A7041F6C833C2F200031B6818462C
:100D700002F04AF80346012B0FD141F6C833C2F204
:100D800000031B68184602F067F806E041F681335D
:100D9000C2F200034FF001021A70FB6803F08003F7
:100DA000002B33D04FF4E043C4F200037B614FF0DB
:100DB0008003FB74FB7C7869194601F0A7FC0346AD
:100DC0007B607B68802B1AD141F68033C2F200032E
:100DD0004FF001021A7041F6C833C2F200031B68DB
:100DE000184602F011F80346012B0FD141F6C83323
:100DF000C2F200031B68184602F02EF806E041F626
:100E00008133C2F200034FF001021A70FB7C786953
:100E1000194601F069FC07F11C07BD46BDE8814099
:100E20008546704780B584B000AF42F6D223C0F249
:100E30008E03BB6042F61003C0F280037B604FF468
:100E40006043C4F20F0342F61002C0F280721A67C8
:100E50004FF46043C4F20F0343F6D122C0F28E7206
:100E60001A664FF46043C4F20F0342F6D222C0F276
:100E70008E021A664FF46043C4F20F0342F610026A
:100E8000C0F280021A674FF00003FB6003E0FB68CA
:100E900003F10103FB60FA6840F2E7339A42F6D9A6
:100EA0004FF46043C4F20F0342F6D222C0F28E0226
:100EB0001A664FF46043C4F20F0342F61002C0F208
:100EC00080021A674FF00003FB6003E0FB6803F148
:100ED0000103FB60FA6840F2E7339A42F6D94FF417
:100EE0006043C4F20F0342F6D222C0F28E021A66A9
:100EF0004FF46043C4F20F0342F6D222C0F28E02D6
:100F00001A664FF46043C4F20F0342F61002C0F2B7
:100F100080021A674FF00003FB6003E0FB6803F1F7
:100F20000103FB60FA6842F20F739A42F6D94FF45C
:100F30006043C4F20F031B6EBB604FF46043C4F206
:100F40000F031B6F7B607B68002B56DA7B6803F412
:100F50000063002B14D0BB684FEA931303F00F0219
:100F60007B684FEA131303F007031046194600F09D
:100F700075F8024640F23003C2F200031A6008E03E
:100F800040F23003C2F200034FF44242C0F6EB32AB
:100F90001A60BB6803F48003002B5AD07B6803F40B
:100FA0000063002B13D040F23003C2F200031A6832
:100FB0007B684FEAD35303F03F0303F10103B2FB15
:100FC000F3F240F23003C2F200031A6041E040F253
:100FD0003003C2F200031A687B684FEAD35303F070
:100FE0003F0303F10103B2FBF3F34FEA530240F274
:100FF0003003C2F200031A602BE0BB684FEA931380
:1010000003F00F02BB684FEA131303F0030310460B
:10101000194600F023F8024640F23003C2F2000302
:101020001A60BB6803F48003002B12D040F2300337
:10103000C2F200031A68BB684FEAD35303F00F03F0
:1010400003F10103B2FBF3F240F23003C2F20003FA
:101050001A6007F11007BD4680BD00BF80B485B09F
:1010600000AF786039604FF4D853C0F2B703FB602B
:101070003B68032B00F2988001A252F823F000BFD6
:101080009110000087110000931100009F110000D3
:101090007B680F2B00F2878001A252F823F000BF7B
:1010A000E1100000ED100000F5100000011100003B
:1010B00009110000151100001D1100002911000088
:1010C00031110000391100004511000051110000DC
:1010D0005D11000069110000711100007D11000018
:1010E00044F24023C0F20F03FB604BE04FF4E113E6
:1010F000FB6047E048F28043C0F21E03FB6041E022
:101100004FF41613FB603DE049F69963C0F23603D5
:10111000FB6037E04FF46113FB6033E04FF4106382
:10112000C0F23D03FB602DE04FF47A13FB6029E031
:101130004FF49603FB6025E044F64033C0F24C03C5
:10114000FB601FE04FF40053C0F24E03FB6019E058
:1011500048F68053C0F25B03FB6013E04FF440435A
:10116000C0F25D03FB600DE04FF4E103FB6009E0BA
:101170004FF49053C0F27A03FB6003E04FF4FA039C
:10118000FB6000BF10E04FF4D853C0F2B703FB6020
:101190000AE04CF2C063C0F22D03FB6004E047F2AA
:1011A0003053FB6000E000BFFB68184607F11407EE
:1011B000BD4680BC704700BF80B485B000AFF8600A
:1011C000B9607A60BA68FB68D318BB60BA68BB685C
:1011D00019684FF00103CFF6F87301EA0303796849
:1011E0000B4313607B6803F00203002B0CD0BB6839
:1011F00003F120034FF0B0021A60BB6803F124032F
:101200004FF430621A600BE0BB6803F120034FF02B
:101210008C021A60BB6803F1240340F60C021A60CA
:1012200007F11407BD4680BC704700BF80B485B08D
:1012300000AFF860B9607A60BA68FB68D318BB6029
:10124000BB681B6803F00203002B07D0BB6803F1E7
:1012500010037A684FEA52021A6006E0BB6803F195
:1012600010037A6802F1FF321A6007F11407BD46D5
:1012700080BC704780B483B000AF786039607A6812
:101280003B68D31879683A688A18126842F00102FC
:101290001A6007F10C07BD4680BC704780B487B068
:1012A00000AFF860B9607A60BB6823F03F02FB686A
:1012B000D3187B617B691B6803F00203002B03D00A
:1012C0007B684FEA53037B607B6903F110031B6863
:1012D0003B613A697B68D31A3B61BB6803F0010349
:1012E000DBB2002B05D07B6903F11C033A691A605D
:1012F00004E07B6903F118033A691A6007F11C07DF
:10130000BD4680BC704700BF80B485B000AFF860B8
:10131000B9601346FB71FB79012B0BD1FB6803F11C
:101320000803FA6802F108021168BA6841EA020289
:101330001A600CE0FB6803F10803FA6802F1080286
:101340001168BA686FEA020201EA02021A6007F144
:101350001407BD4680BC704780B586B000AF78608A
:101360007B683B6101F0C4FE0346FB604FF0000365
:101370007B6103E07B6903F101037B617A6943F6DA
:101380007F639A42F6DD07F10C031846396901F0D4
:1013900083FCEBE780B582B000AF4FF000037B60C9
:1013A00003F0BAFF78607B68184607F10807BD466E
:1013B00080BD00BF80B584B004AF04F091F802F0A6
:1013C00067FE4FF00800C2F2000000F01DFC4FF075
:1013D00004004FF00601FFF7A7FA4FF004004FF0AA
:1013E0000701FFF7A1FA4FF02000C2F2000000F061
:1013F0000BFC4FF4A040C4F202004FF0010101F0D9
:10140000E3F94FF4A040C4F202004FF001014FF0A5
:10141000000201F08FF94FF00400C2F2000000F06A
:10142000F3FB4FF4C040C4F200004FF0200101F084
:10143000CBF94FF4C040C4F200004FF0800101F03E
:10144000C3F94FF4C040C4F200004FF0A0014FF0C8
:1014500001024FF00C0300F0FFFF4FF4C040C4F254
:1014600000004FF020014FF0000201F063F94FF44B
:10147000C040C4F200004FF080014FF0000201F0C4
:1014800059F94FF04000C2F2000000F0BDFB4FF4EC
:10149000C040C4F202004FF0010101F095F94FF491
:1014A000C040C4F202004FF001014FF0000201F011
:1014B00041F94FF00100C0F2100000F0A5FB4FF021
:1014C000000000F0F3FE4FF48040C4F202004FF041
:1014D000800101F045F94FF48040C4F202004FF062
:1014E000400101F03DF94FF40040C4F203004FF019
:1014F00003014FF000024FF0000303F02DFA4FF408
:101500000040C4F203004FF0030103F00FFA4FF064
:1015100004004FF00601FFF7BBFA4FF004004FF054
:101520000701FFF7B5FA4CF2F033C0F200034FF0B9
:101530000402009241F6C832C2F2000201924FF05A
:10154000000202924FF00002039245F2F540C0F211
:10155000000019464FF0C8024FF00A0301F0C6FA26
:101560004CF20C43C0F200034FF0010200924FF026
:10157000000201924FF0000202924FF0000203922B
:1015800045F2D540C0F2000019464FF0C8024FF4B2
:101590007A7301F0ABFA4CF21843C0F200034FF03B
:1015A000020200924FF0000201924FF000020292FC
:1015B0004FF00002039241F25930C0F20000194688
:1015C0004FF0C8024FF47A7301F090FA4CF22843BE
:1015D000C0F200034FF0050200924FF000020192AA
:1015E0004FF0000202924FF00002039243F2956026
:1015F000C0F2000019464FF0C8024FF47A7301F0B0
:1016000075FA4CF23843C0F200034FF00302009227
:101610004FF0000201924FF0000202924FF00002E0
:10162000039244F6DD70C0F2000019464FF0C80284
:101630004FF0010301F05AFA41F6C833C2F2000339
:101640001B68184601F080FB01F05CFCFEE700BF60
:1016500080B582B000AF4FF000037B6001F03CFA30
:101660004FF000037B6071E041F6CC32C2F2000221
:1016700079680B464FEAC3035B184FEA8303D3181C
:101680007A681A6041F6CC32C2F2000279680B46E1
:101690004FEAC3035B184FEA8303D31803F1040333
:1016A0007A681A6041F6CC32C2F2000279680B46C1
:1016B0004FEAC3035B184FEA8303D31803F108030F
:1016C0007A681A6041F6CC32C2F2000279680B46A1
:1016D0004FEAC3035B184FEA8303D31803F11403E3
:1016E0007A681A6041F6CC32C2F2000279680B4681
:1016F0004FEAC3035B184FEA8303D31803F11803BF
:101700007A681A60786841F6CC32C2F200027968D1
:101710000B464FEAC3035B184FEA8303D31803F168
:101720001C03186041F6CC32C2F2000279680B4605
:101730004FEAC3035B184FEA8303D31803F1200376
:101740007A681A607B6803F101037B607B68132B66
:101750008ADD07F10807BD4680BD00BF80B485B0B3
:1017600000AFF860B9607A6040F22463C2F200030F
:101770001B68132B00F39D8040F22463C2F2000328
:10178000196840F22463C2F20003186841F6CC32B3
:10179000C2F200020B464FEAC3035B184FEA830311
:1017A000D318186040F22463C2F20003196841F6AE
:1017B000CC32C2F200020B464FEAC3035B184FEA79
:1017C0008303D31803F11C03FA681A6040F2246300
:1017D000C2F20003196841F6CC32C2F200020B4695
:1017E0004FEAC3035B184FEA8303D31803F12003C6
:1017F0004FF001021A6040F22463C2F2000319683C
:1018000041F6CC32C2F200020B464FEAC3035B182A
:101810004FEA8303D31803F10403BA681A6040F255
:101820002463C2F20003196841F6CC32C2F200020E
:101830000B464FEAC3035B184FEA8303D31803F147
:1018400008037A681A6040F22463C2F20003196840
:1018500041F6CC32C2F200020B464FEAC3035B18DA
:101860004FEA8303D31803F114034FF000021A6008
:1018700040F22463C2F20003196841F6CC32C2F28E
:1018800000020B464FEAC3035B184FEA8303D318E9
:1018900003F118034FF000021A6040F22463C2F211
:1018A00000031B6803F1010240F22463C2F200034B
:1018B0001A6040F22463C2F200031B68184607F165
:1018C0001407BD4680BC704780B483B000AF786019
:1018D000396041F6CC32C2F2000239680B464FEA59
:1018E000C3035B184FEA8303D31803F11C037A6820
:1018F0001A6041F6CC32C2F2000239680B464FEA58
:10190000C3035B184FEA8303D31803F120034FF09E
:1019100001021A6007F10C07BD4680BC704700BF8A
:10192000F0B58FB002AF4FF00003FB624FF0000341
:101930007B624FF00003BB624FF00003FB6255E196
:1019400041F6CC32C2F20002F96A0B464FEAC303F9
:101950005B184FEA8303D31803F10C03186841F6B0
:10196000CC32C2F20002F96A0B464FEAC3035B189D
:101970004FEA8303D31803F104031B68984220D174
:1019800041F6CC32C2F20002F96A0B464FEAC303B9
:101990005B184FEA8303D31803F11003186841F66C
:1019A000CC32C2F20002F96A0B464FEAC3035B185D
:1019B0004FEA8303D31803F108031B68984200F031
:1019C000118141F6CC32C2F20002F96A0B464FEAAD
:1019D000C3035B184FEA8303D31803F120031B688A
:1019E000012B62D141F6CC32C2F20002F96A0B46F9
:1019F0004FEAC3035B184FEA8303D31803F11C03B8
:101A00001B68184604F0E8FD03467B624FF00003B4
:101A1000BB620AE007F10402BB6AD3184FF0200250
:101A20001A70BB6A03F10103BB62BA6A7B6A9A420D
:101A3000F0DB07F10402BB6AD3184FF000021A7002
:101A400041F6CC32C2F20002F96A0B464FEAC303F8
:101A50005B184FEA8303D31803F11C03186841F69F
:101A6000CC32C2F20002F96A0B464FEAC3035B189C
:101A70004FEA8303D31803F104031B681C4641F6A5
:101A8000CC32C2F20002F96A0B464FEAC3035B187C
:101A90004FEA8303D31803F108031B6821461A4653
:101AA0004FF00F0300F0F2FF9CE041F6CC32C2F29F
:101AB0000002F96A0B464FEAC3035B184FEA83033F
:101AC000D31803F10C031B681E4641F6CC32C2F258
:101AD0000002F96A0B464FEAC3035B184FEA83031F
:101AE000D31803F110031B681D4641F6CC32C2F235
:101AF0000002F96A0B464FEAC3035B184FEA8303FF
:101B0000D31803F114031B681C4641F6CC32C2F211
:101B10000002F96A0B464FEAC3035B184FEA8303DE
:101B2000D31803F118031B6800934CF28440C0F2F1
:101B3000000031462A46234600F0BAFF41F6CC3277
:101B4000C2F20002F96A0B464FEAC3035B184FEA80
:101B50008303D31803F11C03186841F6CC32C2F298
:101B60000002F96A0B464FEAC3035B184FEA83038E
:101B7000D31803F104031B681E4641F6CC32C2F2AF
:101B80000002F96A0B464FEAC3035B184FEA83036E
:101B9000D31803F108031B681D4641F6CC32C2F28C
:101BA0000002F96A0B464FEAC3035B184FEA83034E
:101BB000D31803F114031B681C4641F6CC32C2F261
:101BC0000002F96A0B464FEAC3035B184FEA83032E
:101BD000D31803F118031B68009331462A462346A5
:101BE00000F066FFFB6A03F10103FB6240F224632D
:101BF000C2F200031B68FA6A9A42FFF6A1AE07F12F
:101C00003407BD46F0BD00BF80B483B000AF78603C
:101C10007B684FEA13724CF2DC43C0F2000353F8C6
:101C200022301A467B684FEA13714CF2DC43C0F253
:101C3000000353F8213019687B684FEA03434FEAE9
:101C40001343786800F4F8104FEA104003FA00F3E9
:101C500041EA0303136007F10C07BD4680BC7047DF
:101C60000138FDD1704700BF80B586B000AF786005
:101C70004FF46043C4F20F031B6803F0E043002BF2
:101C80000DD04FF46043C4F20F031A684FF0000305
:101C9000C7F2FF0302EA0303B3F1805F03D17B685D
:101CA000002BC0F223814EF26003C4F20F031B68C5
:101CB0003B614EF27003C4F20F031B68FB603B698B
:101CC00043F400633B613B6923F480033B61FB68A1
:101CD00043F40063FB604EF26003C4F20F033A6901
:101CE0001A604EF27003C4F20F03FA681A603B697F
:101CF00003F00203002B04D07B6803F00203002BE7
:101D00000AD03B6903F00103DBB2002B2FD07B68C4
:101D100003F00103002B2AD17B6863F003033A69C7
:101D200002EA03033B614EF26003C4F20F033A6917
:101D30001A60FB68002B09DAFB6803F07003302B94
:101D40000CD0FB6803F07003702B07D0FB68002BEE
:101D500009DB3B6903F03003302B04D14FF4805092
:101D6000FFF77EFF03E04FF40020FFF779FF3B69A8
:101D700023F45E5323F070033B617A6843F2F073FF
:101D800002EA03033A6942EA03033B61FA684DF64B
:101D90008F73C7F6FF7302EA0303FB607A6842F2AF
:101DA0003003C8F2000302EA0303FA6842EA0303BD
:101DB000FB607B6803F008034FEAC303FA6842EA5A
:101DC0000303FB604EF25803C4F20F034FF04002CE
:101DD0001A60FB68002B0CDA4EF27003C4F20F039A
:101DE000FA681A604EF26003C4F20F033A691A608F
:101DF0000BE04EF26003C4F20F033A691A604EF230
:101E00007003C4F20F03FA681A604FF01000FFF776
:101E100027FF3B6923F0F86323F003033B617A68F3
:101E20004FF00303C0F2C07302EA03033A6942EAC7
:101E300003033B61FB6823F0FC53FB607B6803F00A
:101E4000FC53FA6842EA0303FB607B6803F08043BB
:101E5000002B13D03B6943F480033B61FB6823F400
:101E60008003FB607A684FF00003C4F2400302EA8B
:101E70000303FA6842EA0303FB6003E0FB6823F014
:101E80008043FB607B6803F40063002B1DD14FF49B
:101E900000437B610CE04EF25003C4F20F031B6859
:101EA00003F04003002B07D17B6903F1FF337B6113
:101EB0007B69002BEFD100E000BF3B6923F4006396
:101EC0003B61FB6823F40063FB604EF26003C4F2E5
:101ED0000F033A691A604EF27003C4F20F03FA68F6
:101EE0001A604FF01000FFF7BBFE00E000BF07F1E3
:101EF0001807BD4680BD00BF80B485B000AF4EF26C
:101F00006003C4F20F031B68FB604EF27003C4F25F
:101F10000F031B687B607B68002B03DA7B6803F090
:101F2000700302E0FB6803F03003202B7FD0202BEE
:101F300004D8002B0CD0102B17D0E6E0602B00F05B
:101F4000DC80702B00F0DD80302B00F0D280DCE0F4
:101F5000FB6803F4F8634FEA93124CF20053C0F2AB
:101F6000000353F82230BB60D2E04FF46043C4F268
:101F70000F031B6803F0E043002B0DD04FF46043C8
:101F8000C4F20F031A684FF00003C7F2FF0302EA1E
:101F90000303B3F1805F05D14EF2C013C0F2E40336
:101FA000BB6043E04FF46043C4F20F031A684FF084
:101FB0000003C7F2FF0302EA03034FF00002C1F27D
:101FC000010293420AD14FF46043C4F20F031B682D
:101FD0004FEA03434FEA1343022B1BD04FF46043F5
:101FE000C4F20F031A684FF00003C7F2FF0302EABE
:101FF00003034FF00002C1F20302934210D14FF4E9
:102000006043C4F20F031B684FEA03434FEA1343D4
:10201000002B05D14FF4D853C0F2B703BB6005E0E5
:102020004FF41053C0F2F403BB6071E070E04FF462
:102030006043C4F20F031B6803F0E043002B0DD094
:102040004FF46043C4F20F031A684FF00003C7F265
:10205000FF0302EA0303B3F1805F05D143F6700387
:10206000C0F23903BB6043E04FF46043C4F20F0396
:102070001A684FF00003C7F2FF0302EA03034FF0B0
:102080000002C1F2010293420AD14FF46043C4F24C
:102090000F031B684FEA03434FEA1343022B1BD085
:1020A0004FF46043C4F20F031A684FF00003C7F205
:1020B000FF0302EA03034FF00002C1F2030293425E
:1020C00010D14FF46043C4F20F031B684FEA03437F
:1020D0004FEA1343002B05D14CF2C063C0F22D032D
:1020E000BB6005E04FF41063C0F23D03BB600FE03E
:1020F0000EE047F23053BB600AE04FF48003BB6050
:1021000006E04FF40043BB6002E04FF00003AEE096
:102110007B68002B04DA7B6803F40063002B07D094
:102120007B68002B60DBFB6803F40063002B5BD152
:102130004EF26403C4F20F031B683B604FF460432C
:10214000C4F20F031B6803F0E043002B0DD04FF4E3
:102150006043C4F20F031A684FF00003C7F2FF0395
:1021600002EA0303B3F1805F14D13A6843F6E073E7
:1021700002EA03034FEA531303F10203BA6802FBB6
:1021800003F23B6803F01F0303F10203B2FBF3F316
:10219000BB6013E03A6843F6E07302EA03034FEAD8
:1021A0005313BA6802FB03F23B6803F01F0303F109
:1021B00001034FEA4303B2FBF3F3BB603B6803F454
:1021C0008043002B03D0BB684FEA5303BB603B68DE
:1021D00003F40043002B03D0BB684FEA9303BB60BA
:1021E000FB6843F48003FB60FB6803F48003002B6F
:1021F0003CD07B68002B2EDA7B6803F08043002BF9
:102200001DD07B68002B04DA7B6803F40063002B8D
:1022100007D07B68002B12DBFB6803F40063002B04
:102220000DD1BB684FEA43027B6803F0FE534FEACF
:10223000935303F10103B2FBF3F3BB6016E07B6839
:1022400003F0FC534FEAD35303F10103BA68B2FB26
:10225000F3F3BB600AE0FB6803F0F0634FEAD3538B
:1022600003F10103BA68B2FBF3F3BB60BB68184625
:1022700007F11407BD4680BC704700BF80B483B02F
:1022800000AF78604EF26003C4F20F034EF26002BA
:10229000C4F20F02126822F4F0117A6841EA0202D5
:1022A0001A6007F10C07BD4680BC704780B483B04C
:1022B00000AF78604FF46143C4F20F034FF4614202
:1022C000C4F20F02126822F470617A6841EA0202D5
:1022D0001A604EF21013C4F20F034EF21012C4F241
:1022E0000F02126822F470617A6841EA02021A60F1
:1022F00007F10C07BD4680BC704700BF80B485B0B5
:1023000000AFF8600B467A60FB72FB6803F58063F0
:102310001A467B6803F00103DBB2002B07D0FB6891
:1023200003F580631968FB7A41EA030308E0FB6860
:1023300003F580631968FB7A6FEA030301EA03037C
:102340001360FB6803F584631A467B6803F002039D
:10235000002B07D0FB6803F584631968FB7A41EA18
:10236000030308E0FB6803F584631968FB7A6FEAEE
:10237000030301EA0303136007F11407BD4680BCA1
:10238000704700BF80B485B000AFF8600B467A603C
:10239000FB72FB6803F581631A467B6803F0010357
:1023A000DBB2002B07D0FB6803F581631968FB7A69
:1023B00041EA030308E0FB6803F581631968FB7ACF
:1023C0006FEA030301EA03031360FB6803F580630C
:1023D00003F104031A467B6803F00203002B09D0C3
:1023E000FB6803F5806303F104031968FB7A41EA93
:1023F00003030AE0FB6803F5806303F10403196833
:10240000FB7A6FEA030301EA03031360FB6803F539
:10241000806303F10C031A467B6803F00403002B6E
:1024200009D0FB6803F5806303F10C031968FB7A9C
:1024300041EA03030AE0FB6803F5806303F10C0340
:102440001968FB7A6FEA030301EA0303136007F1DB
:102450001407BD4680BC704780B485B000AFF860FB
:102460007A603B600B46FB72FB6803F5A0631A467B
:102470007B6803F00103DBB2002B07D0FB6803F598
:10248000A0631968FB7A41EA030308E0FB6803F5DF
:10249000A0631968FB7A6FEA030301EA0303136080
:1024A000FB6803F5A06303F104031A467B6803F09D
:1024B0000203002B09D0FB6803F5A06303F10403BA
:1024C0001968FB7A41EA03030AE0FB6803F5A0639D
:1024D00003F104031968FB7A6FEA030301EA0303BB
:1024E0001360FB6803F5A1631A467B6803F00403DD
:1024F000002B07D0FB6803F5A1631968FB7A41EA5A
:10250000030308E0FB6803F5A1631968FB7A6FEA2F
:10251000030301EA03031360FB6803F5A3631A4690
:102520007B6803F00803002B07D0FB6803F5A36367
:102530001968FB7A41EA030308E0FB6803F5A3632B
:102540001968FB7A6FEA030301EA03031360FB686F
:1025500003F5A06303F10C031A463B6803F0010383
:10256000DBB2002B09D0FB6803F5A06303F10C0379
:102570001968FB7A41EA03030AE0FB6803F5A063EC
:1025800003F10C031968FB7A6FEA030301EA030302
:102590001360FB6803F5A2631A463B6803F002036D
:1025A000002B07D0FB6803F5A2631968FB7A41EAA8
:1025B000030308E0FB6803F5A2631968FB7A6FEA7E
:1025C000030301EA03031360FB6803F5A26303F14D
:1025D00004031A463B6803F00403002B09D0FB6890
:1025E00003F5A26303F104031968FB7A41EA0303CC
:1025F0000AE0FB6803F5A26303F104031968FB7AA0
:102600006FEA030301EA03031360FB6803F5A263A7
:1026100003F10C031A463B6803F00803002B09D0B2
:10262000FB6803F5A26303F10C031968FB7A41EA26
:1026300003030AE0FB6803F5A26303F10C031968C6
:10264000FB7A6FEA030301EA03031360FB6803F5F7
:10265000A5631A463B68002B07D1FB6803F5A56309
:102660001968FB7A41EA030308E0FB6803F5A563F8
:102670001968FB7A6FEA030301EA0303136007F1A9
:102680001407BD4680BC704780B483B000AF78604B
:102690000B46FB707B6803F582637A6802F5826201
:1026A0001168FA7841EA02021A6007F10C07BD4688
:1026B00080BC704780B483B000AF78600B46FB707D
:1026C000FB78002B04D07B6803F583631B6805E06F
:1026D0007B6803F5826303F104031B68184607F166
:1026E0000C07BD4680BC704780B483B000AF7860F3
:1026F0000B46FB707B6803F5826303F10C03FA78E9
:102700001A6007F10C07BD4680BC704780B483B0E7
:1027100000AF78600B46FB70FB784FEA83031A46E4
:102720007B68D3181B68184607F10C07BD4680BCB0
:10273000704700BF80B483B000AF786013460A468C
:10274000FA70BB70FB784FEA83031A467B68D31894
:10275000BA781A6007F10C07BD4680BC704700BF0D
:1027600080B582B000AF78600B46FB70FB7878686C
:1027700019464FF00002FFF7C1FDFB787868194653
:102780004FF001024FF00003FFF766FE07F1080764
:10279000BD4680BD80B582B000AF78600B46FB704F
:1027A000FB78786819464FF00002FFF7A7FDFB7829
:1027B000786819464FF001024FF00803FFF74CFE0E
:1027C00007F10807BD4680BD80B582B000AF7860D4
:1027D0000B46FB70FB78786819464FF00102FFF753
:1027E0008DFDFB78786819464FF001024FF0080321
:1027F000FFF732FE07F10807BD4680BD80B582B005
:1028000000AF78600B46FB70FB78786819464FF094
:102810000202FFF773FDFB78786819464FF001025A
:102820004FF00803FFF718FE07F10807BD4680BD0B
:1028300080B582B000AF78600B46FB70FB7878689B
:1028400019464FF00202FFF759FDFB7878681946E8
:102850004FF001024FF00803FFF7FEFD07F10807F4
:10286000BD4680BD80B500AFFEF7F2FE4CF25C5075
:10287000C0F200004FF019014FF00102FEF76EFFA9
:102880004CF26850C0F200004FF001014FF00A0214
:10289000FEF764FF4CF26C50C0F200004FF00101F3
:1028A0004FF01402FEF75AFF4CF26C50C0F20000D9
:1028B0004FF001014FF01E02FEF750FF4CF26C503A
:1028C000C0F200004FF001014FF02802FEF746FF72
:1028D0004CF27050C0F200004FF001014FF0320294
:1028E000FEF73CFF4CF27050C0F200004FF00101C7
:1028F0004FF03C02FEF732FF4CF27050C0F2000085
:102900004FF001014FF04602FEF728FF4CF27850DD
:10291000C0F200004FF041014FF03202FEF71EFFFF
:102920004CF27850C0F200004FF041014FF03C02F1
:10293000FEF714FF4CF27850C0F200004FF0410156
:102940004FF04602FEF70AFF4CF27850C0F200004A
:102950004FF001014FF05002FEF700FF4CF27850AB
:10296000C0F200004FF041014FF05002FEF7F6FEBA
:10297000FEF7D6FF80BD00BF80B584B000AF7860A1
:102980007B680A2B5AD801A252F823F0B92900001B
:10299000C5290000D1290000DD290000E929000037
:1029A000F5290000012A00000D2A0000192A000064
:1029B000252A0000312A00004CF28053C0F20003A7
:1029C000FB603BE04CF29453C0F20003FB6035E047
:1029D0004CF2A853C0F20003FB602FE04CF2BC5352
:1029E000C0F20003FB6029E04CF2D053C0F20003B8
:1029F000FB6023E04CF2E453C0F20003FB601DE0F7
:102A00004CF2F453C0F20003FB6017E04CF2046395
:102A1000C0F20003FB6011E04CF21863C0F2000347
:102A2000FB600BE04CF22C63C0F20003FB6005E09E
:102A30004CF24063C0F20003FB6000BFF8684FF047
:102A40000101FEF741FFFEF76BFF07F11007BD46DE
:102A500080BD00BF80B500AF4CF25460C0F20000F2
:102A60004FF00201FEF730FF4CF26C60C0F2000044
:102A70004FF00301FEF728FF4CF28460C0F2000023
:102A80004FF00401FEF720FF80BD00BF80B584B089
:102A900000AFF860B9607A60FB70FB78F868B968DD
:102AA0007A6801F0A9F807F11007BD4680BD00BFA4
:102AB00080B586B002AFF860B9607A603B60BB69F0
:102AC0000093F868B9687A683B6801F085F907F106
:102AD0001007BD4680BD00BF80B500AF44F2402066
:102AE000C0F20F0001F040FA80BD00BF80B58AB08F
:102AF00002AFF860B9603B601346FB80FB88184664
:102B0000396B00F029FDB861BB69002B00F0A6808D
:102B1000BB691A6BFB8803F1FF334FEA8303D318B9
:102B20007B617B6923F007037B61FB880093B869B5
:102B3000B968BA6A7B6B00F03BFC7869F9683A685F
:102B400002F026F803461A46BB691A60FB6A002B9E
:102B500002D0FB6ABA691A6002F09AF840F2FC638C
:102B6000C2F200031B6803F1010240F2FC63C2F2EF
:102B700000031A6040F22863C2F200031B68002BB6
:102B80000FD140F22863C2F20003BA691A6040F222
:102B9000FC63C2F200031B68012B18D100F044FC57
:102BA00015E040F20C73C2F200031B68002B0ED13B
:102BB00040F22863C2F200031B68DA6ABB6A9A42D9
:102BC00005D840F22863C2F20003BA691A60BB69F3
:102BD000DA6A40F20473C2F200031B689A4206D913
:102BE000BB69DA6A40F20473C2F200031A6040F271
:102BF0002073C2F200031B6803F1010240F220734C
:102C0000C2F200031A60BB69DA6A40F20873C2F2CA
:102C100000031B689A4206D9BB69DA6A40F208735E
:102C2000C2F200031A60BB69DA6A13464FEA8303F3
:102C30009B184FEA83031A4640F22C63C2F200034A
:102C4000D218BB6903F104031046194601F0ACFC2D
:102C50004FF00103FB6102F031F802E04FF0FF3367
:102C6000FB61FB69012B11D140F20C73C2F200032E
:102C70001B68002B0AD040F22863C2F200031B68D5
:102C8000DA6ABB6A9A4201D201F0F6FFFB69184684
:102C900007F12007BD4680BD80B586B000AF7860E3
:102CA00039604FF000037B6100F066F97B681A68B9
:102CB0003B68D3183B617B681A6840F20073C2F22C
:102CC00000031B689A4210D97B681A683B699A42D4
:102CD0001BD940F20073C2F200031B683A699A42A2
:102CE00013D94FF001037B610FE07B681A683B69E1
:102CF0009A4207D840F20073C2F200031B683A6997
:102D00009A4202D94FF001037B617B683A691A60ED
:102D10007B69002B0CD040F22863C2F200031B68D1
:102D200003F10403184601F0A5FC386900F0CEFB5E
:102D300000F034F9F860FB68002B01D101F09CFF32
:102D400007F11807BD4680BD80B584B000AF78603C
:102D500001F09EFF40F22863C2F200031B687A680C
:102D60009A4202D14FF000037B607B68002B05D1B3
:102D700040F22863C2F200031B6800E07B68FB603E
:102D8000FB6803F10403184601F074FCFB689B6ABE
:102D9000002B05D0FB6803F11803184601F06AFC0C
:102DA000FB6803F1040340F2E860C2F20000194638
:102DB00001F0FAFB01F082FF7B68002B20D140F28A
:102DC0000C73C2F200031B68002B02D001F054FF09
:102DD00016E040F2E863C2F200031B681A4640F2B4
:102DE000FC63C2F200031B689A4207D140F22863D9
:102DF000C2F200034FF000021A6001E000F068FA2E
:102E000007F11007BD4680BD80B485B000AF786083
:102E10004FF00003FB607B68BB60BB685A6940F2FF
:102E2000E863C2F200039A420ED1BB689A6A40F28C
:102E3000D463C2F200039A4206D0BB689B6A002B9F
:102E400002D14FF00103FB60FB68184607F114073D
:102E5000BD4680BC704700BF80B584B000AF7860CD
:102E60007B68FB60FB68002B48D040F22863C2F20D
:102E700000031B68FA689A4240D001F009FFF86825
:102E8000FFF7C2FF0346012B36D1FB6803F10403B1
:102E9000184601F0EFFBFB68DA6A40F20873C2F2F1
:102EA00000031B689A4206D9FB68DA6A40F208738D
:102EB000C2F200031A60FB68DA6A13464FEA830322
:102EC0009B184FEA83031A4640F22C63C2F20003B8
:102ED000D218FB6803F104031046194601F064FBA5
:102EE000FB68DA6A40F22863C2F200031B68DB6AFF
:102EF0009A4201D301F0C0FE01F0E0FE07F1100795
:102F0000BD4680BD80B586B004AF4CF29C63C0F274
:102F100000034FF0000200924FF0000201924FF0C8
:102F2000000202924FF00002039243F2A130C0F27D
:102F3000000019464FF064024FF00003FFF7D6FD82
:102F400078607B68012B13D14FF0A00080F31188CB
:102F500040F20C73C2F200034FF001021A6040F21B
:102F60000073C2F200034FF000021A6001F05AFE33
:102F700007F10807BD4680BD80B400AF40F2107372
:102F8000C2F200031B6803F1010240F21073C2F2A7
:102F900000031A60BD4680BC704700BF90B583B087
:102FA00000AF4FF000037B6001F072FE40F210733F
:102FB000C2F200031B6803F1FF3240F21073C2F249
:102FC00000031A6040F21073C2F200031B68002B6A
:102FD00040F0868040F2FC63C2F200031B68002BC5
:102FE0007ED04FF000033B603DE040F2D463C2F27C
:102FF0000003DB68DB681C4604F11803184601F087
:1030000039FB04F10403184601F034FBE26A40F294
:103010000873C2F200031B689A4205D9E26A40F2C3
:103020000873C2F200031A60E26A13464FEA830390
:103030009B184FEA83031A4640F22C63C2F2000346
:10304000D21804F104031046194601F0ADFAE26A01
:1030500040F22863C2F200031B68DB6A9A4202D383
:103060004FF001033B6040F2D463C2F200031B68DF
:10307000002BBAD140F21473C2F200031B68002B7C
:1030800018D00DE000F048F840F21473C2F20003CB
:103090001B6803F1FF3240F21473C2F200031A609E
:1030A00040F21473C2F200031B68002BEAD14FF008
:1030B00001033B603B68012B06D040F21873C2F25B
:1030C00000031B68012B0BD14FF001037B6040F222
:1030D0001873C2F200034FF000021A6001F0CCFD39
:1030E00001F0ECFD7B68184607F10C07BD4690BD6A
:1030F00080B582B000AF01F0CBFD40F20073C2F2A8
:1031000000031B687B6001F0D9FD7B68184607F15E
:103110000807BD4680BD00BF80B584B000AF40F257
:103120001073C2F200031B68002B40F0C08040F215
:103130000073C2F200031B6803F1010240F2007346
:10314000C2F200031A6040F20073C2F200031B686F
:10315000002B40D140F2CC63C2F200031B68FB603D
:1031600040F2D063C2F200031A6840F2CC63C2F2AC
:1031700000031A6040F2D063C2F20003FA681A60DA
:1031800040F21C73C2F200031B6803F1010240F21B
:103190001C73C2F200031A6040F2CC63C2F2000357
:1031A0001B681B68002B07D140F24003C2F20003EA
:1031B0004FF0FF321A600EE040F2CC63C2F200031F
:1031C0001B68DB68DB68BB60BB685A6840F2400381
:1031D000C2F200031A6040F20073C2F200031A68E0
:1031E00040F24003C2F200031B689A426BD340F2E4
:1031F000CC63C2F200031B681B68002B07D140F2AE
:103200004003C2F200034FF0FF321A605BE040F26D
:10321000CC63C2F200031B68DB68DB68BB60BB6881
:103220005B687B6040F20073C2F200031A687B683F
:103230009A4206D240F24003C2F200037A681A6052
:1032400041E0BB6803F10403184601F013FABB68C0
:103250009B6A002B05D0BB6803F11803184601F0E8
:1032600009FABB68DA6A40F20873C2F200031B680D
:103270009A4206D9BB68DA6A40F20873C2F20003C8
:103280001A60BB68DA6A13464FEA83039B184FEA59
:1032900083031A4640F22C63C2F20003D218BB68C3
:1032A00003F104031046194601F07EF99FE740F24E
:1032B0001473C2F200031B6803F1010240F214739D
:1032C000C2F200031A6007F11007BD4680BD00BFBF
:1032D00080B483B000AF40F21073C2F200031B68E9
:1032E000002B14D040F21873C2F200034FF0010219
:1032F0001A604FE040F20873C2F200031B6803F14A
:10330000FF3240F20873C2F200031A6000E000BF0F
:1033100040F20873C2F200031A6813464FEA8303AF
:103320009B184FEA83031A4640F22C63C2F2000353
:10333000D3181B68002BDDD040F20873C2F20003E3
:103340001A6813464FEA83039B184FEA83031A4611
:1033500040F22C63C2F20003D3187B607B685B6889
:103360005B681A467B685A607B685A687B6803F121
:1033700008039A4205D17B685B685B681A467B68E4
:103380005A607B685B68DB681A4640F22863C2F2C9
:1033900000031A6007F10C07BD4680BC704700BFF0
:1033A00080B582B000AF786000F08AF8FCE700BF1B
:1033B00080B584B000AFF860B9607A603B60FB68AC
:1033C00003F134031A46BB68104619464FF00C024D
:1033D00003F032F9FB684FF0000283F83F207B686E
:1033E000052B02D94FF005037B60FB687A68DA622F
:1033F000FB6803F10403184601F0C8F8FB6803F109
:103400001803184601F0C2F8FB68FA681A617B6875
:10341000C3F10602FB689A61FB68FA685A6207F119
:103420001007BD4680BD00BF80B582B000AF4FF031
:1034300000037B6013E07A6813464FEA83039B180E
:103440004FEA83031A4640F22C63C2F20003D318FA
:10345000184601F077F87B6803F101037B607B6815
:10346000052BE8D940F2A460C2F2000001F06AF82E
:1034700040F2B860C2F2000001F064F840F2D4609B
:10348000C2F2000001F05EF840F2E860C2F2000013
:1034900001F058F840F2CC63C2F2000340F2A4629B
:1034A000C2F200021A6040F2D063C2F2000340F29E
:1034B000B862C2F200021A6007F10807BD4680BD7B
:1034C00080B400AFBD4680BC704700BF80B582B0FD
:1034D00000AF786040F22863C2F200031B687A688C
:1034E0005A6040F20073C2F200031B687A689A4285
:1034F00010D240F2D063C2F200031A6840F228638F
:10350000C2F200031B6803F104031046194601F0E0
:1035100075F81DE040F2CC63C2F200031A6840F275
:103520002863C2F200031B6803F104031046194626
:1035300001F064F840F24003C2F200031B687A68AD
:103540009A4205D240F24003C2F200037A681A6040
:1035500007F10807BD4680BD80B584B000AF0346C3
:103560003960FB804FF0400001F0E2FE0346FB6053
:10357000FB68002B23D03B68002B07D1FB884FEA68
:103580008303184601F0D4FE034600E03B68FA6866
:103590001363FB681B6B002B06D1F86801F014FF66
:1035A0004FF00003FB600AE0FB681A6BFB884FEAF0
:1035B000830310464FF0A5011A4602F069FFFB682D
:1035C000184607F11007BD4680BD00BF80B584B026
:1035D00000AF78607B68DB68FB607B68DB68FB6062
:1035E00013E0FB681B681A7840F22473C2F20003F0
:1035F0001B789A4205D1FB681B68184600F00EF84C
:1036000007E0FB6803F10403FB60FB681B68002B09
:10361000E7D107F11007BD4680BD00BF80B584B07B
:1036200000AF78607B68DB68FB602BE0FB689B6821
:1036300098470346012B21D1FB68DB68002B02D0A1
:10364000FB68DB689847FB681A7840F22473C2F283
:1036500000031B789A4211D040F22473C2F2000397
:103660001A7840F22573C2F200031A70FB681A78C8
:1036700040F22473C2F200031A7007E0FB6803F102
:103680001003FB60FB689B68002BCFD107F110078C
:10369000BD4680BD90B585B000AF78607B68FB60AB
:1036A000FFF726FD0346BB6000F0EAF840F23473F2
:1036B000C2F200031B6803F1010240F23473C2F24C
:1036C00000031A6041F67A33C2F200031B78012B23
:1036D00025D140F22873C2F200031B68184601F09E
:1036E000B5FE03461A4640F24073C2F200031A7058
:1036F00040F22873C2F200031B6818465E4902F0CC
:10370000EDFC03461A4640F23873C2F200031A6019
:1037100041F67A33C2F200034FF000021A7041F60C
:103720007B33C2F200031B78012B25D140F22C73AE
:10373000C2F200031B68184601F0AAFE03461A46AF
:1037400040F24173C2F200031A7040F22C73C2F2CD
:1037500000031B681846484902F0C0FC03461A469D
:1037600040F23C73C2F200031A6041F67B33C2F2AE
:1037700000034FF000021A704FF4C040C4F2020080
:103780004FF001014FF00002FEF7D4FF4FF4C040AC
:10379000C4F200004FF020014FF00002FEF7CAFF14
:1037A0004FF4C040C4F200004FF080014FF000021F
:1037B000FEF7C0FF00F0CCFD024640F23073C2F2CB
:1037C00000031A6040F23073C2F200031B684FF02E
:1037D000010214461846294902F074FD0346002BE5
:1037E00002D14FF000031C46E3B2002B07D040F299
:1037F0004273C2F200034FF001021A7006E040F279
:103800004273C2F200034FF000021A704FF4C0403E
:10381000C4F202004FF001014FF00102FEF78AFFEF
:1038200040F24073C2F200031B78012B0DD040F22E
:103830004173C2F200031B78012B06D040F24273A1
:10384000C2F200031B78012B07D140F24373C2F28E
:1038500000034FF001021A7006E040F24373C2F217
:1038600000034FF000021A7007F108031846F968C8
:10387000FFF712FA1AE700BF000068420000A040FC
:1038800080B500AF01F0AAFD80BD00BF80B483B059
:1038900000AF78607B68042B0CD14EF62453CEF237
:1038A00000034EF62452CEF20002126842F4803237
:1038B0001A6051E07B68052B0CD14EF62453CEF2F2
:1038C00000034EF62452CEF20002126842F4003297
:1038D0001A6041E07B68062B0CD14EF62453CEF2E1
:1038E00000034EF62452CEF20002126842F4802207
:1038F0001A6031E07B680F2B0CD14EF21003CEF230
:1039000000034EF21002CEF20002126842F00202F0
:103910001A6021E07B680F2B0FD97B682F2B0CD806
:103920004FF46143CEF200037A68A2F110024FF027
:10393000010101FA02F21A600EE07B682F2B0BD90D
:103940004EF20413CEF200037A68A2F130024FF077
:10395000010101FA02F21A6007F10C07BD4680BCB2
:10396000704700BF80B582B000AF7860396040F228
:103970004473C2F2000303F0704240F24473C2F297
:10398000000323F07F4323F470034FEA431342EA1A
:10399000030343F000731B68002B5BD040F24473B9
:1039A000C2F2000303F0704240F24473C2F200031B
:1039B00023F07F4323F470034FEA431342EA0303E7
:1039C00043F0007343F004031B68002B3ED000BF9C
:1039D0004FF40040C4F2000000F03EFF0346002B0D
:1039E000F6D14FF48040C4F200004FF040014FF098
:1039F0000002FEF79FFE40F24473C2F2000303F0A0
:103A0000704240F24473C2F2000323F07F4323F478
:103A100070034FEA431342EA030343F0007343F099
:103A200004034FF000021A6010E07B681B787A688C
:103A300002F101027A604FF40040C4F2000019461E
:103A400000F0F2FE3B6803F1FF333B603B68002B64
:103A5000EBD100E000BF07F10807BD4680BD00BF05
:103A600080B582B000AF7860396040F24473C2F232
:103A7000000303F0704240F24473C2F2000323F0EB
:103A80007F4323F470034FEA431342EA030343F0F6
:103A900000731B68002B5BD040F24473C2F200033A
:103AA00003F0704240F24473C2F2000323F07F43FC
:103AB00023F470034FEA431342EA030343F0007315
:103AC00043F004031B68002B3ED100BF4FF40040BD
:103AD000C4F2000000F0C0FE0346002BF6D14FF404
:103AE0008040C4F200004FF040014FF04002FEF76A
:103AF00021FE40F24473C2F2000303F0704240F230
:103B00004473C2F2000323F07F4323F470034FEAAF
:103B1000431342EA030343F0007343F004034FF0FE
:103B200001021A6010E07B681B787A6802F10102DA
:103B30007A604FF40040C4F20000194600F074FEB1
:103B40003B6803F1FF333B603B68002BEBD100E0A7
:103B500000BF07F10807BD4680BD00BF80B582B039
:103B600000AF40F24873C2F200034FF000021A6047
:103B700040F24873C2F2000303F104034FF0000265
:103B80001A604CF6E000C0F200004FF00301FFF7AE
:103B9000E9FE4CF6E400C0F200004FF00301FFF72D
:103BA000E1FE4CF2A860C0F200004FF00201FFF706
:103BB000D9FE4FF000037B6016E04FF000033B603E
:103BC0000BE040F24870C2F200004FF00801FFF72E
:103BD00047FF3B6803F110033B603B687F2BF0D944
:103BE0007B6803F101037B607B685F2BE5D907F1FC
:103BF0000807BD4680BD00BF80B588B000AFF86043
:103C0000B9607A60FB7040F24873C2F200034FF073
:103C100015021A70BB684FEA5303DAB240F24873D8
:103C2000C2F200035A7040F24873C2F200034FF030
:103C30003F029A7040F24870C2F200004FF0030158
:103C4000FFF790FE40F24873C2F200034FF0750296
:103C50001A707B68DAB240F24873C2F200035A70FD
:103C60007B68DBB203F10703DAB240F24873C2F2B9
:103C700000039A7040F24870C2F200004FF0030156
:103C8000FFF770FE4CF2A460C0F200004FF002019A
:103C9000FFF768FE94E0FB681B7803F07F03FB7579
:103CA000FB6803F10103FB60FB7D1F2B03D84FF082
:103CB0000003FB7503E0FB7DA3F12003FB754FF0D0
:103CC0000003FB6179E04FF00003BB615FE040F26D
:103CD0004873C2F20003BA699B184FF000021A70D1
:103CE000F97D4CF2AC62C0F200020B464FEA83034E
:103CF0005B18F9695B18D3181B781A46BB6942FA3E
:103D000003F303F00103DBB2002B0AD0FB784FEA88
:103D10000313DAB240F24873C2F20003B9695B18C8
:103D20001A70FB69032B2ED8F97DFB6903F10100A2
:103D30004CF2AC62C0F200020B464FEA83035B1800
:103D40001B18D3181B781A46BB6942FA03F303F019
:103D50000103DBB2002B16D040F24873C2F200031D
:103D6000BA699B181B78DAB2FB7803F00F03DBB259
:103D700042EA0303DBB2DAB240F24873C2F2000354
:103D8000B9695B181A70BB6903F10103BB61BB69B8
:103D9000072B9CD940F24870C2F200004FF0080196
:103DA000FFF75EFEBB6803F10203BB60BB68802BBC
:103DB0000CD0FB6903F10203FB61FB69052B82D97F
:103DC000FB681B78002B7FF466AF00E000BF07F1B3
:103DD0002007BD4680BD00BF80B584B000AFF8604D
:103DE000B9607A603B6040F24873C2F200034FF062
:103DF00015021A70BB684FEA5303DAB240F24873F7
:103E0000C2F200035A70BA683B68D318A3F10203E8
:103E10004FEA5303DAB240F24873C2F200039A70D9
:103E200040F24870C2F200004FF00301FFF79AFD24
:103E300040F24873C2F200034FF075021A707B68BB
:103E4000DAB240F24873C2F200035A707B68DAB209
:103E5000BB69DBB2D318DBB203F1FF33DAB240F255
:103E60004873C2F200039A7040F24870C2F2000038
:103E70004FF00301FFF776FD4CF2A860C0F200009E
:103E80004FF00201FFF76EFD0CE03B684FEA530371
:103E9000F8681946FFF7E4FD3B684FEA5303FA68F8
:103EA000D318FB60BB69002B0CBF00230123DBB2DE
:103EB000BA6902F1FF32BA61002BE6D107F11007AF
:103EC000BD4680BD80B584B002AF78604FF400403D
:103ED000C4F2000000F094FCFEF70EF803467A6886
:103EE00000924FF0080201924FF40040C4F200002B
:103EF00019464FF003024FF0000300F013FC4FF49B
:103F00008040C4F200004FF00801FEF791FC4FF42E
:103F10008040C4F200004FF008014FF004024FF05F
:103F20000A03FEF799FA4FF40040C4F2000000F0D3
:103F300053FC40F24473C2F2000303F0704240F2BB
:103F40004473C2F2000323F07F4323F470034FEA6B
:103F5000431342EA030343F000734FF001021A6077
:103F600007F10807BD4680BD80B584B000AF78601A
:103F70004FF01000C1F20000FDF746FE4FF00100C7
:103F8000C2F20000FDF740FE4FF00100C2F2000057
:103F9000FDF73AFE4FF48040C4F200004FF02C01D0
:103FA000FEF746FC4FF48040C4F200004FF02C01B5
:103FB0004FF004024FF00A03FEF74EFA4FF4804030
:103FC000C4F200004FF0C001FEF7FEFB4FF480404A
:103FD000C4F200004FF0C0014FF004024FF008039C
:103FE000FEF73AFA4FF48040C4F200004FF0C001EF
:103FF0004FF0C002FEF79EFB40F24473C2F2000392
:1040000003F0704240F24473C2F2000323F07F4396
:1040100023F470034FEA431342EA030343F00073AF
:1040200043F004034FF001021A607868FFF74AFF7B
:10403000FFF794FD4FF00003FB6021E0FB6803F104
:1040400001024CF68C03C0F20003D2184CF68C032C
:10405000C0F20003F9685B181B7803F1FF331046C8
:104060001946FFF77FFC4CF68C03C0F20003FA6898
:104070009B181B781A46FB68D31803F10103FB60F9
:10408000FB684E2BDAD907F11007BD4680BD00BF93
:1040900080B500AF4FF02000C2F20000FDF7B4FD84
:1040A0004FF4A040C4F202004FF00201FEF772FB91
:1040B0004FF4A040C4F202004FF002014FF00102A1
:1040C0004FF00A03FEF7C8F94FF02E00FFF7DEFBB2
:1040D0004FF4A040C4F202004FF002014FF004027E
:1040E000FEF750F94FF4A040C4F202004FF0020175
:1040F000FEF7CAFA4FF01000C2F20000FDF784FD8F
:104100004FF48040C4F202004FF00101FEF742FB81
:104110004FF48040C4F202004FF001014FF0010261
:104120004FF00A03FEF798F94FF48040C4F2020002
:104130004FF00201FEF72EFB4FF48040C4F2020064
:104140004FF002014FF001024FF00A03FEF784F92D
:104150004FF48040C4F202004FF00401FEF71AFB56
:104160004FF48040C4F202004FF004014FF001020E
:104170004FF00A03FEF770F94FF48040C4F20200DA
:104180004FF00801FEF706FB4FF48040C4F2020036
:104190004FF008014FF001024FF00A03FEF75CF9FF
:1041A0004FF01400FFF772FB4FF48040C4F202009E
:1041B0004FF00F014FF00402FEF7E4F84FF4804097
:1041C000C4F202004FF00F01FEF75EFA80BD00BF9F
:1041D000684620F007018D4681B585B000AF4FF4E9
:1041E0008040C4F202004FF00101FEF763FA7860EC
:1041F0007B6803F00103DBB2002B28D04FF480432F
:10420000C4F20203FB604FF00103FB7241F68033FE
:10421000C2F200034FF001021A7041F68133C2F27C
:1042200000034FF000021A7041F6C833C2F20003D7
:104230001B681846FEF7E8FD0346012B07D141F63F
:10424000C833C2F200031B681846FEF705FE7B6800
:1042500003F00203002B15D04FF48043C4F2020395
:10426000FB604FF00203FB7241F68133C2F20003A0
:104270004FF001021A7041F68033C2F200034FF092
:1042800000021A707B6803F00403002B0ED04FF479
:104290008043C4F20203FB604FF00403FB7241F65B
:1042A0008233C2F200034FF001021A707B6803F000
:1042B0000803002B0ED04FF48043C4F20203FB60CE
:1042C0004FF00803FB7241F68333C2F200034FF054
:1042D00001021A70FB7AF8681946FEF705FA07F131
:1042E0001407BD46BDE8814085467047684620F00A
:1042F00007018D4681B585B000AF4FF4A040C4F2F0
:1043000002004FF00101FEF7D5F978607B6803F0F9
:104310000203002B0ED04FF4A043C4F20203FB6053
:104320004FF00203FB7241F68433C2F200034FF0F8
:1043300001021A70FB7AF8681946FEF7D5F907F101
:104340001407BD46BDE88140854670470000000067
:1043500080B500AF4FF40040C4F203004FF00301FA
:104360004FF000024FF0620300F036FB4FF40040C4
:10437000C4F203004FF0030100F0F6FB00BF4FF45E
:104380000040C4F203004FF003014FF0000200F0C0
:1043900079FA0346002BF2D04FF40040C4F2030038
:1043A0004FF0030141F69C62C2F2000200F0AAFB4A
:1043B0004FF40040C4F203004FF0030100F0A2FAF2
:1043C00041F69C63C2F200031B68184601F0ECF949
:1043D00002460B46104619460BA3D3E9002301F011
:1043E00059FA02460B461046194601F065FC024692
:1043F00040F25073C2F200031A6040F25073C2F2EE
:1044000000031B68184680BD051450400105843F19
:1044100080B500AF4FF40040C4F203004FF0030139
:104420004FF000024FF0630300F0D6FA4FF4004063
:10443000C4F203004FF0030100F096FB00BF4FF4FD
:104440000040C4F203004FF003014FF0000200F0FF
:1044500019FA0346002BF2D04FF40040C4F20300D7
:104460004FF0030141F6A062C2F2000200F04AFBE5
:104470004FF40040C4F203004FF0030100F042FA91
:1044800041F6A063C2F200031B68184601F08CF9E4
:1044900002460B46104619460BA3D3E9002301F050
:1044A000F9F902460B461046194601F005FC024692
:1044B00040F25473C2F200031A6040F25473C2F225
:1044C00000031B68184680BD051450400105843F59
:1044D00080B582B000AF4CF63833C0F200037B6089
:1044E00040F20003C2F200033B600BE07B681A68F5
:1044F0003B681A603B6803F104033B607B6803F18F
:1045000004037B603A6840F2F853C2F200039A4217
:10451000ECD3084808494FF000028842B8BF40F881
:10452000042BFADBFCF77EFCFCF744FF07F10807DD
:10453000BD4680BDF8050020B023002080B400AF48
:10454000FEE700BF80B483B000AF78607B6803F102
:1045500008031A467B685A607B684FF0FF329A6006
:104560007B6803F108031A467B68DA607B6803F115
:1045700008031A467B681A617B684FF000021A60D4
:1045800007F10C07BD4680BC704700BF80B483B004
:1045900000AF78607B684FF000021A6107F10C07EA
:1045A000BD4680BC704700BF80B485B000AF786066
:1045B00039607B685B68FB60FB685B681A463B6838
:1045C0005A607B685A683B689A60FB685B683A6827
:1045D0009A603A68FB685A603A687B685A603B6840
:1045E0007A681A617B681B6803F101027B681A60B4
:1045F00007F11407BD4680BC704700BF80B485B08A
:1046000000AF786039603B681B68BB60BB68B3F182
:10461000FF3F03D17B681B69FB600EE07B6803F101
:104620000803FB6002E0FB685B68FB60FB685B689B
:104630001B681A46BB689A42F5D9FB685B681A4644
:104640003B685A603B685B683A689A603B68FA6806
:104650009A603A68FB685A603B687A681A617B68BE
:104660001B6803F101027B681A6007F11407BD465D
:1046700080BC704780B485B000AF78607B685B68B1
:104680007A6892689A607B689B687A6852685A6018
:104690007B681B69FB60FB685A687B689A4203D1A0
:1046A0007B689A68FB685A607B684FF000021A6169
:1046B000FB681B6803F1FF32FB681A6007F11407FF
:1046C000BD4680BC704700BF80B485B000AF786045
:1046D00040F25873C2F200031B68002B08D142F26B
:1046E000B072C2F2000240F25873C2F200031A60C4
:1046F00040F25873C2F200031B68FB6040F258732B
:10470000C2F200031A687B68D21840F25873C2F2F2
:1047100000031A60FB68184607F11407BD4680BC09
:10472000704700BF80B48BB000AFF860B9607A60AA
:104730003B603B68022B02D14FF0080301E04FF0D1
:1047400000033B623B68002B02D14FF0000301E005
:104750004FF004033A6A42EA03033B62FB6803F149
:1047600004033A6A1A60BA683B6BB2FBF3F3FB616D
:104770004FF000037B627B6A03F102037B62FA69FC
:104780007B6AB2FBF3F303F1FF33BB61BB69FF2B21
:10479000F1D8FB6803F110037A6A1A607B684FEA6C
:1047A00083137B617B6803F030037B60BB694FEA56
:1047B00003227B691A437B681A437B6B03F1FF3347
:1047C00042EA03033B62FB683A6A1A6007F12C076E
:1047D000BD4680BC704700BF80B483B000AF786036
:1047E0007B6803F104037A6802F10402126842F064
:1047F00002021A6007F10C07BD4680BC704700BF7B
:1048000080B483B000AF78607B6803F104037A68FA
:1048100002F10402126822F002021A6007F10C078A
:10482000BD4680BC704700BF80B483B000AF7860E5
:10483000396000BF7B6803F10C031B6803F00203BF
:10484000002BF7D07B6803F108033A681A6007F180
:104850000C07BD4680BC704780B483B000AF786061
:104860007B6803F10C031B6803F01003002B0CBFE3
:1048700000230123DBB2184607F10C07BD4680BCBC
:10488000704700BF80B487B000AFF860B9601346CE
:10489000FB71FB79002B0CD0FB6803F10C031A6849
:1048A000BB684FF0011101FA03F302EA03037B61D5
:1048B00021E0FB6803F104031A68BB684FF00101B3
:1048C00001FA03F343F4803302EA03037B617B695B
:1048D00003F48033002B0ED07B6943F470237B619B
:1048E000BB684FF4803202FA03F36FEA03037A697C
:1048F00002EA03037B617B69184607F11C07BD468A
:1049000080BC704780B483B000AF786039607B684A
:1049100003F10C033A684FF0010101FA02F21A6048
:1049200007F10C07BD4680BC704700BF80B483B060
:1049300000AF786039607B687A6811683A684FF038
:10494000010000FA02F241EA02021A6007F10C07C4
:10495000BD4680BC704700BF80B485B000AFF86032
:10496000B9607A603B60BB684FEA8303BB60FB6859
:1049700003F11403FA6802F114021168BA684FF0E7
:104980000F0000FA02F26FEA020211407A6802F0A8
:104990000F00BA6800FA02F241EA02021A60FB68EC
:1049A00003F12003FA6802F120021168BA684FF09F
:1049B0000F0000FA02F26FEA020211403A6802F0B8
:1049C0000300BA6800FA02F241EA02021A6007F133
:1049D0001407BD4680BC704780B487B000AFF86054
:1049E000B9607A603B60BB6803F102034FEA43138E
:1049F000FA68D318FB607B684FEA83037B60FB682F
:104A0000FA6811687A684FF00F0000FA02F26FEA54
:104A1000020211403A6802F00F007A6800FA02F2CE
:104A200041EA02021A60FB6803F10403FA6802F12A
:104A3000040211687A684FF00F0000FA02F26FEA80
:104A4000020211403A6802F0F0024FEA12107A684E
:104A500000FA02F241EA02021A603B6803F4702392
:104A6000002B34D0FB6803F114031B687B617B6867
:104A70004FF00F0202FA03F36FEA03037A6902EAC6
:104A800003037B613B6803F4E0234FEA13427B6836
:104A900002FA03F37A6942EA03037B61FB6803F1DC
:104AA00014037A691A60FB6803F110031B687B61C9
:104AB0007B684FF0010202FA03F37A6942EA0303CA
:104AC0007B61FB6803F110037A691A6014E0FB68EC
:104AD00003F110031B687B617B684FF0010202FA4F
:104AE00003F36FEA03037A6902EA03037B61FB685D
:104AF00003F110037A691A6007F11C07BD4680BCF8
:104B0000704700BF80B487B000AFF860B9607A60CA
:104B1000BB6803F102034FEA4313FA68D318FB6042
:104B20004FF000037B610DE0FB6803F108031A6896
:104B30007B681A607B6803F104037B607B6903F187
:104B400001037B61FB6803F10C031B6803F48073B2
:104B5000002B02D17B69072BE6D97B69184607F148
:104B60001C07BD4680BC704780B483B000AF78603E
:104B700039607B6803F128033A684FF0010101FABC
:104B800002F21A6007F10C07BD4680BC704700BFF7
:104B900080B485B000AFF860B9607A60FB68A3F1BB
:104BA0000403FB60FB684FF080721A60FB68A3F19E
:104BB0000403FB60BA68FB681A60FB68A3F1040396
:104BC000FB60FB684FF000021A60FB68A3F114035E
:104BD000FB607A68FB681A60FB68A3F12003FB6046
:104BE000FB68184607F11407BD4680BC704700BF3C
:104BF000064B19680868B0E8F00F80F309884FF099
:104C0000000080F311884EF00D0E7047280600203A
:104C100003480068006880F3088862B600DF00BFC0
:104C200008ED00E080B500AF4EF62053CEF2000351
:104C30004EF62052CEF20002126842F460021A6070
:104C40004EF62053CEF200034EF62052CEF2000272
:104C5000126842F060421A6000F09EF840F244038D
:104C6000C2F200034FF000021A60FFF7D1FF4FF0CD
:104C70000003184680BD00BF80B400AF4EF6045359
:104C8000CEF200034FF080521A60BD4680BC7047E0
:104C900080B400AF4FF0A00080F3118840F24403CD
:104CA000C2F200031B6803F1010240F24403C2F2A6
:104CB00000031A60BD4680BC704700BF80B400AFDF
:104CC00040F24403C2F200031B6803F1FF3240F2DA
:104CD0004403C2F200031A6040F24403C2F200032C
:104CE0001B68002B03D14FF0000080F31188BD46F4
:104CF00080BC7047EFF309800C4B1A6820E9F00F75
:104D000010602DE908404FF0A00080F31188FEF7F5
:104D1000DFFA4FF0000080F31188BDE80840196801
:104D20000868B0E8F00F80F3098870472806002073
:104D300080B582B000AF40F2FC53C2F200031B68A2
:104D400003F1010240F2FC53C2F200031A6041F683
:104D50007C33C2F200031B6803F1010241F67C338D
:104D6000C2F200031A604EF60453CEF200034FF075
:104D700080521A604FF000037B604FF0A00080F378
:104D80001188FEF7C9F94FF0000080F3118807F190
:104D90000807BD4680BD00BF80B400AF4EF21403CB
:104DA000CEF2000341F63F721A604EF21003CEF2CB
:104DB00000034FF007021A60BD4680BC704700BF79
:104DC00080B584B000AF786039604FF4A010FDF773
:104DD00055FA4FF01010FCF717FF7B68052B00F217
:104DE000B18001A252F823F0014E0000374E0000BE
:104DF0006D4E0000A34E0000D94E00000F4F000082
:104E00004FF02000C2F20000FCF7FEFE4FF4A0407D
:104E1000C4F202004FF00101FDF7F0FC4FF0400337
:104E2000FB60FB684FF40040C4F2020019463A6888
:104E3000FCF7FCF986E04FF04000C2F20000FCF7FE
:104E4000E3FE4FF4C040C4F202004FF00201FDF750
:104E5000D5FC4FF04003FB60FB684FF40040C4F208
:104E6000020019463A68FCF7E1F96BE04FF00200E6
:104E7000C2F20000FCF7C8FE4FF4A040C4F20000EC
:104E80004FF00101FDF7BAFC4FF08003FB60FB68B7
:104E90004FF40040C4F2020019463A68FCF7C6F924
:104EA00050E04FF00200C2F20000FCF7ADFE4FF4FC
:104EB000A040C4F200004FF00201FDF79FFC4FF04C
:104EC0008003FB60FB684FF40040C4F20200194607
:104ED0003A68FCF7ABF935E04FF01000C2F2000081
:104EE000FCF792FE4FF48040C4F202004FF0010143
:104EF000FDF784FC4FF0C003FB60FB684FF40040FB
:104F0000C4F2020019463A68FCF790F91AE04FF033
:104F10001000C2F20000FCF777FE4FF48040C4F2AC
:104F200002004FF00201FDF769FC4FF0C003FB6087
:104F3000FB684FF40040C4F2020019463A68FCF7DF
:104F400075F900BFFB684FF40040C4F20200194637
:104F50004FF00202FCF730F9FB684FF40040C4F256
:104F600002001946FCF786F907F11007BD4680BD1F
:104F700090B585B000AFF860B9607A6040F2480340
:104F8000C2F20003BA6853F82240786800F09AFF32
:104F900003461846F96800F0EDFF0346184601F095
:104FA000AFF903464FF40040C4F2020021461A460E
:104FB000FCF774F940F26003C2F20003BA6853F8D8
:104FC00022304FF40040C4F2020019464FF00102B3
:104FD000FCF79AF907F11407BD4690BD80B584B07F
:104FE00000AF78607B68FB60FEF782F80346BB6029
:104FF000FDF738FC00F04EF940F20463C2F2000302
:105000001B681846FDF7B8FC40F20863C2F20003C3
:105010001B68012B01D1FDF71DFD40F20463C2F2B4
:1050200000031B68002B17D14CF6E800C0F200000B
:105030004FF00301FCF748FC4CF6E800C0F200001A
:105040004FF00401FCF740FC4CF6F400C0F2000005
:105050004FF00501FCF738FC40F21463C2F2000384
:105060001B68184600F0C2FB02460B4642F2A41031
:10507000C2F200004CF60411C0F2000101F084FA03
:1050800042F2A410C2F200004FF00701FCF71CFC32
:1050900040F22063C2F200031B68184600F0A6FB32
:1050A00002460B4642F2A400C2F200004CF6101178
:1050B000C0F2000101F068FA42F2A400C2F200005E
:1050C0004FF00A01FCF700FC40F21863C2F2000343
:1050D0001B68184600F08AFB02460B4642F2242069
:1050E000C2F200004CF61C11C0F2000101F04CFAB3
:1050F00042F22420C2F200004FF00801FCF7E4FB6A
:1051000040F20C63C2F200031B68184600F06EFB0D
:1051100002460B4641F6A470C2F200004CF628117C
:10512000C0F2000101F030FA41F6A470C2F20000B2
:105130004FF00501FCF7C8FB40F21C63C2F200030C
:105140001B68184600F052FB02460B4641F62470DD
:10515000C2F200004CF63411C0F2000101F014FA62
:1051600041F62470C2F200004FF00901FCF7ACFBDD
:1051700040F21063C2F200031B68184600F036FBD1
:1051800002460B4642F22400C2F200004CF64011E7
:10519000C0F2000101F0F8F942F22400C2F200006E
:1051A0004FF00601FCF790FB40F23073C2F20003AF
:1051B0001B68184600F01AFB02460B4642F2241008
:1051C000C2F200004CF64C11C0F2000101F0DCF913
:1051D00042F22410C2F200004FF00B01FCF774FB06
:1051E00040F24373C2F200031B78002B07D140F258
:1051F0005C73C2F200034FF000021A6029E040F233
:105200004073C2F200031B78012B06D140F25C739D
:10521000C2F200034FF001021A6040F24173C2F281
:1052200000031B78012B06D140F25C73C2F200032D
:105230004FF002021A6040F24273C2F200031B7880
:10524000012B06D140F25C73C2F200034FF003025F
:105250001A6040F25C73C2F200031B6841F6A4605E
:10526000C2F200004CF65811C0F200011A4601F0DB
:105270008BF941F6A460C2F200004FF00C01FCF77C
:1052800023FBFCF74DFB07F108031846F968FDF70F
:1052900003FDB1E680B582B000AF44F24020C0F219
:1052A0000F00FEF761FE4FF000037B602CE04FF033
:1052B00000033B6012E042F2A423C2F200037A68CA
:1052C0004FF0160101FB02F13A688A189B184FF063
:1052D00020021A703B6803F101033B603B68142B0A
:1052E000E9DD42F2A423C2F200037A684FF016010E
:1052F00001FB02F29B1803F115034FF000021A7034
:105300007B6803F101037B607B680B2BCFDD07F12A
:105310000807BD4680BD00BF80B400AF4EF2180341
:10532000CEF200031B681846BD4680BC704700BF24
:1053300080B584B000AF78604FF00003FB607B68FD
:1053400003F00703002B05D07B6823F0070303F16C
:1053500008037B60FDF710FE41F66033C2F20003E4
:105360001A687B68D21841F2FF339A4224D841F67A
:105370006033C2F200031A687B68D21841F66033CA
:10538000C2F200031B689A4216D941F66033C2F29A
:1053900000031A6840F26073C2F20003D318FB6086
:1053A00041F66033C2F200031A687B68D21841F6F6
:1053B0006033C2F200031A60FDF7F0FDFB68184687
:1053C00007F11007BD4680BD80B483B000AF7860A0
:1053D00007F10C07BD4680BC704700BF80B582B0A6
:1053E00000AFFCF789FD024648F21F53C5F2EB13EC
:1053F000A3FB02134FEA53137B604FF0030079685D
:10540000FFF7DEFC10484FF003017A68FFF7B0FDAC
:105410004FF004004FF00401FBF786FA4FF0040050
:105420004FF00401FBF734FB4FF003004FF0040191
:10543000FBF77AFA4FF003004FF00401FBF728FB6B
:1054400007F10807BD4680BD6F12833990B585B05E
:1054500000AF78604FF00003FB734FF001031C4670
:1054600078680A4900F024FF0346002B02D14FF070
:1054700000031C46E3B2002B02D04FF00103FB7384
:10548000FB7B184607F11407BD4690BD004035452B
:1054900090B585B000AF78604FF00003FB734FF01C
:1054A00001031C4678680A4900F020FF0346002BE0
:1054B00002D14FF000031C46E3B2002B02D04FF0A4
:1054C0000103FB73FB7B184607F11407BD4690BD33
:1054D0000000914380B483B000AF7860FEE700BF66
:1054E00080B500AF4FF46E50C0F28070FCF7BCFB8B
:1054F00080BD00BF80B584B000AF78607B68FB6082
:10550000FDF7F6FD0346BB604CF2E030C0F2000050
:10551000FEF75CF807F108031846F968FDF7BCFBD5
:10552000F2E700BF81F0004102E000BF83F00043DA
:1055300030B54FEA41044FEA430594EA050F08BF2E
:1055400090EA020F1FBF54EA000C55EA020C7FEAF2
:10555000645C7FEA655C00F0E2804FEA5454D4EB6F
:105560005555B8BF6D420CDD2C4480EA020281EA39
:10557000030382EA000083EA010180EA020281EA71
:105580000303362D88BF30BD11F0004F4FEA0131C3
:105590004FF4801C4CEA113102D0404261EB4101D2
:1055A00013F0004F4FEA03334CEA133302D0524258
:1055B00063EB430394EA050F00F0A780A4F1010414
:1055C000D5F1200E0DDB02FA0EFC22FA05F280184E
:1055D00041F1000103FA0EF2801843FA05F3594134
:1055E0000EE0A5F120050EF1200E012A03FA0EFCB3
:1055F00028BF4CF0020C43FA05F3C01851EBE371DD
:1056000001F0004507D54FF0000EDCF1000C7EEBF9
:1056100000006EEB0101B1F5801F1BD3B1F5001F37
:105620000CD349085FEA30004FEA3C0C04F1010456
:105630004FEA445212F5800F80F09A80BCF1004F7F
:1056400008BF5FEA500C50F1000041EB045141EA01
:10565000050130BD5FEA4C0C404141EB010111F402
:10566000801FA4F10104E9D191F0000F04BF0146AD
:105670000020B1FA81F308BF2033A3F10B03B3F18B
:1056800020020CDA0C3208DD02F1140CC2F10C021B
:1056900001FA0CF021FA02F10CE002F11402D8BF79
:1056A000C2F1200C01FA02F120FA0CFCDCBF41EA45
:1056B0000C019040E41AA2BF01EB0451294330BD14
:1056C0006FEA04041F3C1CDA0C340EDC04F11404F1
:1056D000C4F1200220FA04F001FA02F340EA0300C8
:1056E00021FA04F345EA030130BDC4F10C04C4F10E
:1056F000200220FA02F001FA04F340EA03002946EE
:1057000030BD21FA04F0294630BD94F0000F83F437
:10571000801306BF81F480110134013D4EE77FEA1A
:10572000645C18BF7FEA655C29D094EA050F08BF66
:1057300090EA020F05D054EA000C04BF1946104647
:1057400030BD91EA030F1EBF0021002030BD5FEA8B
:10575000545C05D14000494128BF41F0004130BDB3
:1057600014F580043CBF01F5801130BD01F0004507
:1057700045F0FE4141F470014FF0000030BD7FEA7A
:10578000645C1ABF194610467FEA655C1CBF0B4675
:10579000024650EA013406BF52EA033591EA030F8C
:1057A00041F4002130BD00BF90F0000F04BF002184
:1057B000704730B54FF4806404F132044FF00005B7
:1057C0004FF0000150E700BF90F0000F04BF002130
:1057D000704730B54FF4806404F1320410F0004596
:1057E00048BF40424FF000013EE700BF42004FEA91
:1057F000E2014FEA31014FEA02701FBF12F07F430E
:1058000093F07F4F81F06051704792F0000F14BF0A
:1058100093F07F4F704730B54FF4607401F000454E
:1058200021F0004120E700BF50EA010208BF7047A5
:1058300030B54FF000050AE050EA010208BF70479A
:1058400030B511F0004502D5404261EB41014FF403
:10585000806404F132045FEA915C3FF4DCAE4FF007
:1058600003025FEADC0C18BF03325FEADC0C18BFEE
:10587000033202EBDC02C2F1200300FA03FC20FA3F
:1058800002F001FA03FE40EA0E0021FA02F114448C
:10589000C1E600BF70B54FF0FF0C4CF4E06C1CEAA1
:1058A00011541DBF1CEA135594EA0C0F95EA0C0F16
:1058B00000F0DEF82C4481EA030621EA4C5123EA89
:1058C0004C5350EA013518BF52EA033541F48011B8
:1058D00043F4801338D0A0FB02CE4FF00005E1FB6B
:1058E00002E506F00042E0FB03E54FF00006E1FBB5
:1058F00003569CF0000F18BF4EF0010EA4F1FF04F8
:10590000B6F5007F64F5407404D25FEA4E0E6D4137
:1059100046EB060642EAC62141EA55514FEAC52048
:1059200040EA5E504FEACE2EB4F1FD0C88BFBCF5C4
:10593000E06F1ED8BEF1004F08BF5FEA500E50F175
:10594000000041EB045170BD06F0004646EA01013B
:1059500040EA020081EA0301B4EB5C04C2BFD4EB6D
:105960000C0541EA045170BD41F480114FF0000E66
:10597000013C00F3AB8014F1360FDEBF002001F0D4
:10598000004170BDC4F10004203C35DA0C341BDC4E
:1059900004F11404C4F1200500FA05F320FA04F020
:1059A00001FA05F240EA020001F0004221F0004154
:1059B00010EBD37021FA04F642EB06015EEA430EC7
:1059C00008BF20EAD37070BDC4F10C04C4F12005F7
:1059D00000FA04F320FA05F001FA04F240EA0200AA
:1059E00001F0004110EBD37041F100015EEA430E7B
:1059F00008BF20EAD37070BDC4F1200500FA05F29B
:105A00004EEA020E20FA04F301FA05F243EA020319
:105A100021FA04F001F0004121FA04F220EA020028
:105A200000EBD3705EEA430E08BF20EAD37070BD6E
:105A300094F0000F0FD101F00046400041EB01014E
:105A400011F4801F08BF013CF7D041EA060195F030
:105A5000000F18BF704703F00046520043EB0303EA
:105A600013F4801F08BF013DF7D043EA06037047D7
:105A700094EA0C0F0CEA135518BF95EA0C0F0CD0E2
:105A800050EA410618BF52EA4306D1D181EA030128
:105A900001F000414FF0000070BD50EA410606BF22
:105AA0001046194652EA430619D094EA0C0F02D167
:105AB00050EA013613D195EA0C0F05D152EA0336AC
:105AC0001CBF104619460AD181EA030101F00041CA
:105AD00041F0FE4141F470014FF0000070BD41F013
