:10000000841C0020E12600004D2700004D27000041
:100010004D2700004D2700004D2700000000000084
:10002000000000000000000000000000F52A0000B1
:100030004D27000000000000F92B0000352C0000C7
:100040004D2700004D2700004D2700004D270000E0
:100050004D2700004D2700004D2700004D270000D0
:100060004D2700004D2700004D2700004D270000C0
:100070004D2700004D2700004D2700004D270000B0
:100080004D2700004D2700004D2700004D270000A0
:100090004D2700004D2700004D2700004D27000090
:1000A0004D2700004D2700004D2700004D27000080
:1000B0004D2700004D2700004D2700004D27000070
:1000C0004D2700004D2700004D2700004D27000060
:1000D0004D2700004D2700004D2700004D27000050
:1000E0004D2700004D2700004D2700004D27000040
:1000F0004D2700004D2700004D2700004D27000030
:1001000080B58EB000AF78604FF000033B637B6832
:10011000FB6201F05DFD0346BB604FF000037B63B3
:1001200003E07B6B03F101037B637A6B43F67F6330
:100130009A42F6DD3B6B03F101033B6307F10C03CD
:10014000184649F61001C0F200013A6B03F0D6FFE1
:1001500007F10C034FF001004FF006011A4602F0C0
:10016000A7FE4FF0060002F0CFFE07F10803184685
:10017000F96A01F0DFFBD0E780B584B000AF42F64A
:10018000D223C0F28E03BB6042F61003C0F280039C
:100190007B604FF46043C4F20F0342F61002C0F2DA
:1001A00080721A674FF46043C4F20F0343F6D12202
:1001B000C0F28E721A664FF46043C4F20F0342F627
:1001C000D222C0F28E021A664FF46043C4F20F03CB
:1001D00042F61002C0F280021A674FF00003FB6083
:1001E00003E0FB6803F10103FB60FA6840F2E733C8
:1001F0009A42F6D94FF46043C4F20F0342F6D2227A
:10020000C0F28E021A664FF46043C4F20F0342F646
:100210001002C0F280021A674FF00003FB6003E097
:10022000FB6803F10103FB60FA6840F2E7339A428E
:10023000F6D94FF46043C4F20F0342F6D222C0F263
:100240008E021A664FF46043C4F20F0342F6D222C4
:10025000C0F28E021A664FF46043C4F20F0342F6F6
:100260001002C0F280021A674FF00003FB6003E047
:10027000FB6803F10103FB60FA6842F20F739A42D4
:10028000F6D94FF46043C4F20F031B6EBB604FF40A
:100290006043C4F20F031B6F7B607B68002B56DA50
:1002A0007B6803F40063002B14D0BB684FEA931300
:1002B00003F00F027B684FEA131303F007031046A5
:1002C000194600F075F8024640F20003C2F200033E
:1002D0001A6008E040F20003C2F200034FF4424209
:1002E000C0F6EB321A60BB6803F48003002B5AD0CF
:1002F0007B6803F40063002B13D040F20003C2F2CA
:1003000000031A687B684FEAD35303F03F0303F1FD
:100310000103B2FBF3F240F20003C2F200031A60E1
:1003200041E040F20003C2F200031A687B684FEA22
:10033000D35303F03F0303F10103B2FBF3F34FEA9E
:10034000530240F20003C2F200031A602BE0BB68C4
:100350004FEA931303F00F02BB684FEA131303F045
:1003600003031046194600F023F8024640F200034A
:10037000C2F200031A60BB6803F48003002B12D0A2
:1003800040F20003C2F200031A68BB684FEAD3537D
:1003900003F00F0303F10103B2FBF3F240F2000399
:1003A000C2F200031A6007F11007BD4680BD00BF0E
:1003B00080B485B000AF786039604FF4D853C0F294
:1003C000B703FB603B68032B00F2988001A252F850
:1003D00023F000BFE5030000DB040000E704000099
:1003E000F30400007B680F2B00F2878001A252F813
:1003F00023F000BF35040000410400004904000060
:10040000550400005D040000690400007104000050
:100410007D040000850400008D04000099040000A4
:10042000A5040000B1040000BD040000C5040000E4
:10043000D104000044F24023C0F20F03FB604BE004
:100440004FF4E113FB6047E048F28043C0F21E0323
:10045000FB6041E04FF41613FB603DE049F6996301
:10046000C0F23603FB6037E04FF46113FB6033E00A
:100470004FF41063C0F23D03FB602DE04FF47A139C
:10048000FB6029E04FF49603FB6025E044F640331F
:10049000C0F24C03FB601FE04FF40053C0F24E0368
:1004A000FB6019E048F68053C0F25B03FB6013E089
:1004B0004FF44043C0F25D03FB600DE04FF4E103F5
:1004C000FB6009E04FF49053C0F27A03FB6003E055
:1004D0004FF4FA03FB6000BF10E04FF4D853C0F2B2
:1004E000B703FB600AE04CF2C063C0F22D03FB606F
:1004F00004E047F23053FB6000E000BFFB681846A1
:1005000007F11407BD4680BC704700BFF0B58DB041
:1005100000AF41F24073C2F20003D3E9000141F29F
:100520004073C2F20003D3E906234FF0010603F043
:10053000E9F90346002B02D14FF000031E46FE737B
:10054000FB7B002B10D041F24073C2F20003D3E9D1
:100550000223C7E9082341F24073C2F20003D3E942
:100560000423C7E90A230FE041F24073C2F20003FB
:10057000D3E90823C7E9082341F24073C2F200031C
:10058000D3E90A23C7E90A23FB7B002B08D041F2F9
:100590004073C2F20003D3E90023C7E9042307E054
:1005A00041F24073C2F20003D3E90623C7E90423F2
:1005B000FB7B002B1AD0D7E904014FF000024FF06B
:1005C0007E5303F5E00302F059FD02460B46104648
:1005D000194640F21003C2F20003D3E9002302F0EF
:1005E00001FF02460B46C7E906231EE0D7E90401D6
:1005F0004FF000024FF07E5303F5E00302F03EFDA2
:1006000002460B461046194640F21003C2F20003A0
:10061000D3E90023144683F0004522462B4602F01E
:10062000E1FE02460B46C7E90623D7E90801D7E9F0
:100630000A2302F023FD02460B461046194640F2FB
:100640001803C2F20003D3E9002302F0CBFE0246F6
:100650000B46C7E90023D7E90801D7E90A2303F0CD
:1006600029F90346002B07D141F24073C2F200037F
:1006700093F83030002B14D041F22873C2F20003FB
:100680004FF000004FF00001C3E9000141F2287370
:10069000C2F200034FF000004FF00001C3E9020175
:1006A000AFE0D7E90601D7E9002302F0E9FC0246F2
:1006B0000B46C7E904234FF001031C46D7E90401A8
:1006C0004FF000024FF0804303F5101303F010F9D0
:1006D0000346002B02D14FF000031C46E3B2002B6F
:1006E0000CD041F22873C2F200034FF000004FF02B
:1006F000804101F51011C3E900012AE04FF0010328
:100700001C46D7E904014FF000024FF0404303F5C7
:10071000101303F0E3F80346002B02D14FF000035F
:100720001C46E3B2002B0CD041F22873C2F2000346
:100730004FF000004FF0404101F51011C3E90001F6
:1007400007E041F22873C2F20003D7E90401C3E9CC
:100750000001D7E90001D7E9062302F08FFC024629
:100760000B46C7E904234FF001031C46D7E90401F7
:100770004FF000024FF0804303F5101303F0B8F878
:100780000346002B02D14FF000031C46E3B2002BBE
:100790000CD041F22873C2F200034FF000004FF07A
:1007A000804101F51011C3E902012AE04FF0010375
:1007B0001C46D7E904014FF000024FF0404303F517
:1007C000101303F08BF80346002B02D14FF0000307
:1007D0001C46E3B2002B0CD041F22873C2F2000396
:1007E0004FF000004FF0404101F51011C3E9020144
:1007F00007E041F22873C2F20003D7E90401C3E91C
:10080000020107F13407BD46F0BD00BF80B500AF5F
:1008100049F62003C0F200031B684FF000021A6083
:1008200041F24070C2F200004FF000014FF0380278
:1008300003F0E8FB41F22870C2F200004FF0000123
:100840004FF0100203F0DEFB80BD00BF80B485B026
:1008500000AFF860B9607A60BA68FB68D318BB6013
:10086000BA68BB6819684FF00103CFF6F87301EA64
:10087000030379680B4313607B6803F00203002BCA
:100880000CD0BB6803F120034FF0B0021A60BB68C4
:1008900003F124034FF430621A600BE0BB6803F1EC
:1008A00020034FF08C021A60BB6803F1240340F66A
:1008B0000C021A6007F11407BD4680BC704700BFE8
:1008C00080B485B000AFF860B9607A60BA68FB6840
:1008D000D318BB60BB681B6803F00203002B07D072
:1008E000BB6803F110037A684FEA52021A6006E00F
:1008F000BB6803F110037A6802F1FF321A6007F156
:100900001407BD4680BC704780B483B000AF7860E8
:1009100039607A683B68D31879683A688A1812682F
:1009200042F001021A6007F10C07BD4680BC704717
:1009300080B487B000AFF860B9607A60BB6823F01C
:100940003F02FB68D3187B617B691B6803F00203DD
:10095000002B03D07B684FEA53037B607B6903F174
:1009600010031B683B613A697B68D31A3B61BB6823
:1009700003F00103DBB2002B05D07B6903F11C03FC
:100980003A691A6004E07B6903F118033A691A6056
:1009900007F11C07BD4680BC704700BF80B485B01E
:1009A00000AFF860B9601346FB71FB79012B0BD1E6
:1009B000FB6803F10803FA6802F108021168BA68DB
:1009C00041EA02021A600CE0FB6803F10803FA68CE
:1009D00002F108021168BA686FEA020201EA020233
:1009E0001A6007F11407BD4680BC704780B58EB011
:1009F00000AF78604FF000033B637B68FB6201F05F
:100A0000E7F80346BB6000F02FF84FF000037B636C
:100A100003E07B6B03F101037B637A6B43F67F6337
:100A20009A42F6DD3B6B03F101033B6307F10C03D4
:100A3000184649F62401C0F200013A6B03F05EFB50
:100A400007F10C034FF001004FF008011A4602F0C5
:100A50002FFA4FF0080002F057FA07F10803184682
:100A6000F96A00F067FFCEE780B500AF40F2FC53B3
:100A7000C2F200031B78002B0AD049F62003C0F213
:100A800000031A6849F63403C0F200031360F1E072
:100A900040F2FC53C2F200034FF001021A7040F220
:100AA000F053C2F200031B68002B4AD141F240739D
:100AB000C2F200034FF000004FF00001C3E9000153
:100AC00041F24073C2F200034FF000004FF000010A
:100AD000C3E9020141F24073C2F200034FF000008B
:100AE0004FF00001C3E9040141F24073C2F2000378
:100AF0004FF000004FF00001C3E9060141F24073DE
:100B0000C2F200034FF000004FF00001C3E90801FA
:100B100041F24073C2F200034FF000004FF00001B9
:100B2000C3E90A0141F24073C2F200034FF0000230
:100B300083F8302040F2F053C2F200034FF001027C
:100B40001A60FFF7E3FC41F22873C2F20003D3E915
:100B5000000140F2E053C2F20003C3E9000141F298
:100B60002873C2F20003D3E9020140F2E853C2F253
:100B70000003C3E9000140F2FC53C2F200034FF04E
:100B800000021A7040F2E053C2F20003D3E90023DE
:100B90001046194638A3D3E9002302F023FC02468D
:100BA0000B461046194636A3D3E9002302F068FA33
:100BB00002460B461046194602F0AEFE024640F2CF
:100BC000F453C2F200031A6040F2E853C2F2000389
:100BD000D3E90023104619462BA3D3E9002302F0E2
:100BE00001FC02460B461046194625A3D3E9002313
:100BF00002F046FA02460B461046194602F08CFEF9
:100C0000024640F2F853C2F200031A6040F2200399
:100C1000C2F200031B684FF00200194602F03AF8D6
:100C200040F22003C2F200031B684FF00300194694
:100C300002F030F840F2F453C2F200031A6840F2B6
:100C40002003C2F200031B6810464FF002011A464F
:100C500002F0F8F840F2F853C2F200031A6840F2CA
:100C60002003C2F200031B6810464FF003011A462E
:100C700002F0E8F880BD00BFFCA9F1D24D62503F00
:100C8000333333333333B33FFCA9F1D24D6250BF1A
:100C900080B584B004AF4FF46E50C0F2807000F0A5
:100CA00091F802F04FF940F64553C0F2000398471F
:100CB000FFF7ACFD4FF001004FF0010149F63C0297
:100CC000C0F2000202F0F4F84FF0010002F01CF94B
:100CD00049F64803C0F200034FF0010200924FF0C2
:100CE000000201924FF0000202924FF000020392C4
:100CF00040F6ED10C0F2000019464FF0C8024FF068
:100D0000320300F041FD49F65803C0F200034FF0F2
:100D1000020200924FF0000201924FF00002029294
:100D20004FF00002039240F20110C0F20000194699
:100D30004FF0C8024FF4FA6300F026FD00F052FEB7
:100D4000FEE700BF80B500AF4FF0020044F620611F
:100D500001F0A0FF4FF0030044F6206101F09AFF7C
:100D600080BD00BF80B483B000AF78607B684FEA7D
:100D7000137249F68C03C0F2000353F822301A466E
:100D80007B684FEA137149F68C03C0F2000353F8F5
:100D9000213019687B684FEA03434FEA13437868B0
:100DA00000F4F8104FEA104003FA00F341EA03039D
:100DB000136007F10C07BD4680BC70470138FDD1B8
:100DC000704700BF80B586B000AF78604FF46043D5
:100DD000C4F20F031B6803F0E043002B0DD04FF467
:100DE0006043C4F20F031A684FF00003C7F2FF0319
:100DF00002EA0303B3F1805F03D17B68002BC0F2EA
:100E000023814EF26003C4F20F031B683B614EF274
:100E10007003C4F20F031B68FB603B6943F400637B
:100E20003B613B6923F480033B61FB6843F400634F
:100E3000FB604EF26003C4F20F033A691A604EF28F
:100E40007003C4F20F03FA681A603B6903F00203EF
:100E5000002B04D07B6803F00203002B0AD03B690F
:100E600003F00103DBB2002B2FD07B6803F00103FA
:100E7000002B2AD17B6863F003033A6902EA03037B
:100E80003B614EF26003C4F20F033A691A60FB68DB
:100E9000002B09DAFB6803F07003302B0CD0FB68E1
:100EA00003F07003702B07D0FB68002B09DB3B6954
:100EB00003F03003302B04D14FF48050FFF77EFF56
:100EC00003E04FF40020FFF779FF3B6923F45E5302
:100ED00023F070033B617A6843F2F07302EA030384
:100EE0003A6942EA03033B61FA684DF68F73C7F62D
:100EF000FF7302EA0303FB607A6842F23003C8F230
:100F0000000302EA0303FA6842EA0303FB607B681A
:100F100003F008034FEAC303FA6842EA0303FB60E5
:100F20004EF25803C4F20F034FF040021A60FB6800
:100F3000002B0CDA4EF27003C4F20F03FA681A6049
:100F40004EF26003C4F20F033A691A600BE04EF2EE
:100F50006003C4F20F033A691A604EF27003C4F2E0
:100F60000F03FA681A604FF01000FFF727FF3B6984
:100F700023F0F86323F003033B617A684FF0030327
:100F8000C0F2C07302EA03033A6942EA03033B6119
:100F9000FB6823F0FC53FB607B6803F0FC53FA68AA
:100FA00042EA0303FB607B6803F08043002B13D00D
:100FB0003B6943F480033B61FB6823F48003FB60DF
:100FC0007A684FF00003C4F2400302EA0303FA68B0
:100FD00042EA0303FB6003E0FB6823F08043FB600D
:100FE0007B6803F40063002B1DD14FF400437B6149
:100FF0000CE04EF25003C4F20F031B6803F04003F1
:10100000002B07D17B6903F1FF337B617B69002BE8
:10101000EFD100E000BF3B6923F400633B61FB6854
:1010200023F40063FB604EF26003C4F20F033A69DD
:101030001A604EF27003C4F20F03FA681A604FF0A0
:101040001000FFF7BBFE00E000BF07F11807BD4628
:1010500080BD00BF80B485B000AF4EF26003C4F223
:101060000F031B68FB604EF27003C4F20F031B6892
:101070007B607B68002B03DA7B6803F0700302E07F
:10108000FB6803F03003202B7FD0202B04D8002BEB
:101090000CD0102B17D0E6E0602B00F0DC80702B1A
:1010A00000F0DD80302B00F0D280DCE0FB6803F440
:1010B000F8634FEA931249F6B003C0F2000353F805
:1010C0002230BB60D2E04FF46043C4F20F031B68D0
:1010D00003F0E043002B0DD04FF46043C4F20F0344
:1010E0001A684FF00003C7F2FF0302EA0303B3F1EB
:1010F000805F05D14EF2C013C0F2E403BB6043E051
:101100004FF46043C4F20F031A684FF00003C7F2B4
:10111000FF0302EA03034FF00002C1F2010293420F
:101120000AD14FF46043C4F20F031B684FEA034334
:101130004FEA1343022B1BD04FF46043C4F20F035A
:101140001A684FF00003C7F2FF0302EA03034FF0EF
:101150000002C1F20302934210D14FF46043C4F283
:101160000F031B684FEA03434FEA1343002B05D1DB
:101170004FF4D853C0F2B703BB6005E04FF41053EF
:10118000C0F2F403BB6071E070E04FF46043C4F25E
:101190000F031B6803F0E043002B0DD04FF46043B6
:1011A000C4F20F031A684FF00003C7F2FF0302EA0C
:1011B0000303B3F1805F05D143F67003C0F2390336
:1011C000BB6043E04FF46043C4F20F031A684FF072
:1011D0000003C7F2FF0302EA03034FF00002C1F26B
:1011E000010293420AD14FF46043C4F20F031B681B
:1011F0004FEA03434FEA1343022B1BD04FF46043E3
:10120000C4F20F031A684FF00003C7F2FF0302EAAB
:1012100003034FF00002C1F20302934210D14FF4D6
:101220006043C4F20F031B684FEA03434FEA1343C2
:10123000002B05D14CF2C063C0F22D03BB6005E06A
:101240004FF41063C0F23D03BB600FE00EE047F2C5
:101250003053BB600AE04FF48003BB6006E04FF4FC
:101260000043BB6002E04FF00003AEE07B68002B60
:1012700004DA7B6803F40063002B07D07B68002B43
:1012800060DBFB6803F40063002B5BD14EF2640368
:10129000C4F20F031B683B604FF46043C4F20F03BA
:1012A0001B6803F0E043002B0DD04FF46043C4F201
:1012B0000F031A684FF00003C7F2FF0302EA0303AB
:1012C000B3F1805F14D13A6843F6E07302EA030396
:1012D0004FEA531303F10203BA6802FB03F23B68BF
:1012E00003F01F0303F10203B2FBF3F3BB6013E04F
:1012F0003A6843F6E07302EA03034FEA5313BA680D
:1013000002FB03F23B6803F01F0303F101034FEA02
:101310004303B2FBF3F3BB603B6803F48043002B51
:1013200003D0BB684FEA5303BB603B6803F4004340
:10133000002B03D0BB684FEA9303BB60FB6843F408
:101340008003FB60FB6803F48003002B3CD07B68C8
:10135000002B2EDA7B6803F08043002B1DD07B68C6
:10136000002B04DA7B6803F40063002B07D07B6852
:10137000002B12DBFB6803F40063002B0DD1BB686C
:101380004FEA43027B6803F0FE534FEA935303F1A5
:101390000103B2FBF3F3BB6016E07B6803F0FC5380
:1013A0004FEAD35303F10103BA68B2FBF3F3BB6016
:1013B0000AE0FB6803F0F0634FEAD35303F1010343
:1013C000BA68B2FBF3F3BB60BB68184607F11407B9
:1013D000BD4680BC704700BF80B483B000AF78606A
:1013E0004EF26003C4F20F034EF26002C4F20F0229
:1013F000126822F4F0117A6841EA02021A6007F1D9
:101400000C07BD4680BC704780B485B000AFF86063
:101410000B467A60FB72FB6803F580631A467B68B3
:1014200003F00103DBB2002B07D0FB6803F58063F8
:101430001968FB7A41EA030308E0FB6803F580635F
:101440001968FB7A6FEA030301EA03031360FB6880
:1014500003F584631A467B6803F00203002B07D070
:10146000FB6803F584631968FB7A41EA030308E02B
:10147000FB6803F584631968FB7A6FEA030301EAEA
:101480000303136007F11407BD4680BC704700BF1B
:1014900080B485B000AFF8607A603B600B46FB72A9
:1014A000FB6803F5A0631A467B6803F00103DBB217
:1014B000002B07D0FB6803F5A0631968FB7A41EAAB
:1014C000030308E0FB6803F5A0631968FB7A6FEA81
:1014D000030301EA03031360FB6803F5A06303F150
:1014E00004031A467B6803F00203002B09D0FB6853
:1014F00003F5A06303F104031968FB7A41EA0303CF
:101500000AE0FB6803F5A06303F104031968FB7AA2
:101510006FEA030301EA03031360FB6803F5A163A9
:101520001A467B6803F00403002B07D0FB6803F521
:10153000A1631968FB7A41EA030308E0FB6803F53D
:10154000A1631968FB7A6FEA030301EA03031360DE
:10155000FB6803F5A3631A467B6803F00803002BBE
:1015600007D0FB6803F5A3631968FB7A41EA03031C
:1015700008E0FB6803F5A3631968FB7A6FEA0303CD
:1015800001EA03031360FB6803F5A06303F10C0396
:101590001A463B6803F00103DBB2002B09D0FB685D
:1015A00003F5A06303F10C031968FB7A41EA030316
:1015B0000AE0FB6803F5A06303F10C031968FB7AEA
:1015C0006FEA030301EA03031360FB6803F5A263F8
:1015D0001A463B6803F00203002B07D0FB6803F5B3
:1015E000A2631968FB7A41EA030308E0FB6803F58C
:1015F000A2631968FB7A6FEA030301EA030313602D
:10160000FB6803F5A26303F104031A463B6803F089
:101610000403002B09D0FB6803F5A26303F1040364
:101620001968FB7A41EA03030AE0FB6803F5A26349
:1016300003F104031968FB7A6FEA030301EA030369
:101640001360FB6803F5A26303F10C031A463B68C1
:1016500003F00803002B09D0FB6803F5A26303F134
:101660000C031968FB7A41EA03030AE0FB6803F5FF
:10167000A26303F10C031968FB7A6FEA030301EA22
:1016800003031360FB6803F5A5631A463B68002B50
:1016900007D1FB6803F5A5631968FB7A41EA0303E8
:1016A00008E0FB6803F5A5631968FB7A6FEA03039A
:1016B00001EA0303136007F11407BD4680BC7047BD
:1016C00080B483B000AF786013460A46FA70BB70EE
:1016D000FB784FEA83031A467B68D318BA781A60FE
:1016E00007F10C07BD4680BC704700BF80B582B0D3
:1016F00000AF78600B46FB70FB78786819464FF0B6
:101700000102FFF781FEFB78786819464FF001026D
:101710004FF00803FFF7BCFE07F10807BD4680BD88
:1017200080B582B000AF78600B46FB70FB787868BC
:1017300019464FF00202FFF767FEFB7878681946FA
:101740004FF001024FF00803FFF7A2FE07F1080770
:10175000BD4680BD80B582B000AF78600B46FB709F
:10176000FB78786819464FF00202FFF74DFEFB78D0
:10177000786819464FF001024FF00803FFF788FE22
:1017800007F10807BD4680BD80B58AB002AFF8609A
:10179000B9603B601346FB80FB881846396B00F04C
:1017A00045FCB861BB69002B00F0A680BB691A6BD1
:1017B000FB8803F1FF334FEA8303D3187B617B6916
:1017C00023F007037B61FB880093B869B968BA6AA4
:1017D0007B6B00F05DFB7869F9683A6801F05AF9B3
:1017E00003461A46BB691A60FB6A002B02D0FB6AEB
:1017F000BA691A6001F0CEF940F2AC63C2F200039C
:101800001B6803F1010240F2AC63C2F200031A60EC
:1018100040F20063C2F200031B68002B0FD140F2BC
:101820000063C2F20003BA691A6040F2AC63C2F20C
:1018300000031B68012B18D100F066FB15E040F295
:10184000BC63C2F200031B68002B0ED140F20063A0
:10185000C2F200031B68DA6ABB6A9A4205D840F2FA
:101860000063C2F20003BA691A60BB69DA6A40F227
:10187000B463C2F200031B689A4206D9BB69DA6AF4
:1018800040F2B463C2F200031A6040F2D063C2F2C5
:1018900000031B6803F1010240F2D063C2F20003AF
:1018A0001A60BB69DA6A40F2B863C2F200031B68CF
:1018B0009A4206D9BB69DA6A40F2B863C2F2000301
:1018C0001A60BB69DA6A13464FEA83039B184FEA32
:1018D00083031A4640F20463C2F20003D218BB69C4
:1018E00003F104031046194600F066FF4FF00103B0
:1018F000FB6101F065F902E04FF0FF33FB61FB692A
:10190000012B11D140F2BC63C2F200031B68002B13
:101910000AD040F20063C2F200031B68DA6ABB6AB5
:101920009A4201D201F02AF9FB69184607F1200713
:10193000BD4680BD80B586B000AF786039604FF09D
:1019400000037B6100F088F87B681A683B68D31855
:101950003B617B681A6840F2B063C2F200031B6807
:101960009A4210D97B681A683B699A421BD940F2A7
:10197000B063C2F200031B683A699A4213D94FF070
:1019800001037B610FE07B681A683B699A4207D8C4
:1019900040F2B063C2F200031B683A699A4202D96E
:1019A0004FF001037B617B683A691A607B69002B09
:1019B0000CD040F20063C2F200031B6803F1040381
:1019C000184600F05FFF386900F0EAFA00F056F8B8
:1019D000F860FB68002B01D101F0D0F807F118077F
:1019E000BD4680BD80B586B004AF49F60C13C0F289
:1019F00000034FF0000200924FF0000201924FF0FE
:101A0000000202924FF00002039241F68160C0F2A0
:101A1000000019464FF064024FF00003FFF7B4FED8
:101A200078607B68012B13D14FF0A00080F3118800
:101A300040F2BC63C2F200034FF001021A6040F2B0
:101A4000B063C2F200034FF000021A6001F06CF8BC
:101A500007F10807BD4680BD80B400AF40F2C06307
:101A6000C2F200031B6803F1010240F2C063C2F23C
:101A700000031A60BD4680BC704700BF90B583B0BC
:101A800000AF4FF000037B6001F084F840F2C063C8
:101A9000C2F200031B6803F1FF3240F2C063C2F2DE
:101AA00000031A6040F2C063C2F200031B68002BFF
:101AB00040F0868040F2AC63C2F200031B68002B4A
:101AC0007ED04FF000033B603DE040F29863C2F2ED
:101AD0000003DB68DB681C4604F11803184600F0BD
:101AE000D1FE04F10403184600F0CCFEE26A40F295
:101AF000B863C2F200031B689A4205D9E26A40F259
:101B0000B863C2F200031A60E26A13464FEA830325
:101B10009B184FEA83031A4640F20463C2F20003A3
:101B2000D21804F104031046194600F045FEE26A9B
:101B300040F20063C2F200031B68DB6A9A4202D3E0
:101B40004FF001033B6040F29863C2F200031B6850
:101B5000002BBAD140F2C463C2F200031B68002B11
:101B600018D00DE000F048F840F2C463C2F2000360
:101B70001B6803F1FF3240F2C463C2F200031A6033
:101B800040F2C463C2F200031B68002BEAD14FF09D
:101B900001033B603B68012B06D040F2C863C2F2F0
:101BA00000031B68012B0BD14FF001037B6040F257
:101BB000C863C2F200034FF000021A6000F0DEFFBB
:101BC00000F0FEFF7B68184607F10C07BD4690BD8C
:101BD00080B582B000AF00F0DDFF40F2B063C2F22A
:101BE00000031B687B6000F0EBFF7B68184607F181
:101BF0000807BD4680BD00BF80B584B000AF40F28D
:101C0000C063C2F200031B68002B40F0C08040F2AA
:101C1000B063C2F200031B6803F1010240F2B0633B
:101C2000C2F200031A6040F2B063C2F200031B6804
:101C3000002B40D140F29063C2F200031B68FB60AE
:101C400040F29463C2F200031A6840F29063C2F259
:101C500000031A6040F29463C2F20003FA681A604B
:101C600040F2CC63C2F200031B6803F1010240F2B0
:101C7000CC63C2F200031A6040F29063C2F2000328
:101C80001B681B68002B07D140F22403C2F200033B
:101C90004FF0FF321A600EE040F29063C2F2000390
:101CA0001B68DB68DB68BB60BB685A6840F22403D2
:101CB000C2F200031A6040F2B063C2F200031A6875
:101CC00040F22403C2F200031B689A426BD340F235
:101CD0009063C2F200031B681B68002B07D140F21F
:101CE0002403C2F200034FF0FF321A605BE040F2BF
:101CF0009063C2F200031B68DB68DB68BB60BB68F3
:101D00005B687B6040F2B063C2F200031A687B68D4
:101D10009A4206D240F22403C2F200037A681A60A3
:101D200041E0BB6803F10403184600F0ABFDBB685B
:101D30009B6A002B05D0BB6803F11803184600F01E
:101D4000A1FDBB68DA6A40F2B863C2F200031B6807
:101D50009A4206D9BB68DA6A40F2B863C2F200035D
:101D60001A60BB68DA6A13464FEA83039B184FEA8E
:101D700083031A4640F20463C2F20003D218BB6820
:101D800003F104031046194600F016FD9FE740F2E8
:101D9000C463C2F200031B6803F1010240F2C46392
:101DA000C2F200031A6007F11007BD4680BD00BFF4
:101DB00080B483B000AF40F2C063C2F200031B687E
:101DC000002B14D040F2C863C2F200034FF00102AE
:101DD0001A604FE040F2B863C2F200031B6803F1DF
:101DE000FF3240F2B863C2F200031A6000E000BFA5
:101DF00040F2B863C2F200031A6813464FEA830345
:101E00009B184FEA83031A4640F20463C2F20003B0
:101E1000D3181B68002BDDD040F2B863C2F2000378
:101E20001A6813464FEA83039B184FEA83031A4646
:101E300040F20463C2F20003D3187B607B685B68E6
:101E40005B681A467B685A607B685A687B6803F156
:101E500008039A4205D17B685B685B681A467B6819
:101E60005A607B685B68DB681A4640F20063C2F226
:101E700000031A6007F10C07BD4680BC704700BF25
:101E800080B582B000AF786000F084F8FCE700BF56
:101E900080B584B000AFF860B9607A603B60FB68E1
:101EA00003F134031A46BB68104619464FF00C0282
:101EB00002F07CF9FB684FF0000283F83F207B685A
:101EC000042B02D94FF004037B60FB687A68DA6266
:101ED000FB6803F10403184600F060FCFB6803F1A3
:101EE0001803184600F05AFCFB68FA681A617B6810
:101EF000C3F10502FB689A61FB68FA685A6207F150
:101F00001007BD4680BD00BF80B582B000AF4FF066
:101F100000037B6013E07A6813464FEA83039B1843
:101F20004FEA83031A4640F20463C2F20003D31857
:101F3000184600F00FFC7B6803F101037B607B68AF
:101F4000042BE8D940F26860C2F2000000F002FC05
:101F500040F27C60C2F2000000F0FCFB40F29860AE
:101F6000C2F2000000F0F6FB40F29063C2F2000300
:101F700040F26862C2F200021A6040F29463C2F258
:101F8000000340F27C62C2F200021A6007F1080707
:101F9000BD4680BD80B400AFBD4680BC704700BF69
:101FA00080B582B000AF786040F20063C2F20003F7
:101FB0001B687A685A6040F2B063C2F200031B6883
:101FC0007A689A4210D240F29463C2F200031A680F
:101FD00040F20063C2F200031B6803F104031046E1
:101FE000194600F013FC1DE040F29063C2F20003BA
:101FF0001A6840F20063C2F200031B6803F1040395
:102000001046194600F002FC40F22403C2F200031D
:102010001B687A689A4205D240F22403C2F2000398
:102020007A681A6007F10807BD4680BD80B584B0A4
:1020300000AF03463960FB804FF0400000F0C4FF62
:102040000346FB60FB68002B23D03B68002B07D1C5
:10205000FB884FEA8303184600F0B6FF034600E012
:102060003B68FA681363FB681B6B002B06D1F868AA
:1020700000F0F6FF4FF00003FB600AE0FB681A6B0C
:10208000FB884FEA830310464FF0A5011A4601F082
:10209000B9FFFB68184607F11007BD4680BD00BFB9
:1020A00080B582B000AF7860396040F2D463C2F28C
:1020B000000303F0704240F2D463C2F2000323F045
:1020C0007F4323F470034FEA431342EA030343F0D0
:1020D00000731B68002B5BD040F2D463C2F2000394
:1020E00003F0704240F2D463C2F2000323F07F4356
:1020F00023F470034FEA431342EA030343F00073EF
:1021000043F004031B68002B3ED000BF4FF4004097
:10211000C4F2000000F0A8FC0346002BF6D14FF4F7
:102120008040C4F200004FF040014FF00002FFF782
:10213000C7FA40F2D463C2F2000303F0704240F2E7
:10214000D463C2F2000323F07F4323F470034FEA09
:10215000431342EA030343F0007343F004034FF0D8
:1021600000021A6010E07B681B787A6802F10102B5
:102170007A604FF40040C4F20000194600F05CFCA5
:102180003B6803F1FF333B603B68002BEBD100E081
:1021900000BF07F10807BD4680BD00BF80B582B013
:1021A00000AF7860396040F2D463C2F2000303F0FC
:1021B000704240F2D463C2F2000323F07F4323F461
:1021C00070034FEA431342EA030343F000731B68B2
:1021D000002B5BD040F2D463C2F2000303F07042E4
:1021E00040F2D463C2F2000323F07F4323F4700370
:1021F0004FEA431342EA030343F0007343F004033E
:102200001B68002B3ED100BF4FF40040C4F2000019
:1022100000F02AFC0346002BF6D14FF48040C4F2B4
:1022200000004FF040014FF04002FFF749FA40F242
:10223000D463C2F2000303F0704240F2D463C2F2EE
:10224000000323F07F4323F470034FEA431342EA71
:10225000030343F0007343F004034FF001021A60DC
:1022600010E07B681B787A6802F101027A604FF413
:102270000040C4F20000194600F0DEFB3B6803F1A9
:10228000FF333B603B68002BEBD100E000BF07F160
:102290000807BD4680BD00BF80B582B000AF40F2E8
:1022A000D863C2F200034FF000021A6040F2D86314
:1022B000C2F2000303F104034FF000021A6049F672
:1022C0005030C0F200004FF00301FFF7E9FE49F67D
:1022D0005430C0F200004FF00301FFF7E1FE49F671
:1022E0001810C0F200004FF00201FFF7D9FE4FF0C6
:1022F00000037B6016E04FF000033B600BE040F210
:10230000D860C2F200004FF00801FFF747FF3B68BA
:1023100003F110033B603B687F2BF0D97B6803F12E
:1023200001037B607B685F2BE5D907F10807BD4699
:1023300080BD00BF80B588B000AFF860B9607A603A
:10234000FB7040F2D863C2F200034FF015021A701E
:10235000BB684FEA5303DAB240F2D863C2F200031B
:102360005A7040F2D863C2F200034FF03F029A70F5
:1023700040F2D860C2F200004FF00301FFF790FE78
:1023800040F2D863C2F200034FF075021A707B6806
:10239000DAB240F2D863C2F200035A707B68DBB253
:1023A00003F10703DAB240F2D863C2F200039A7075
:1023B00040F2D860C2F200004FF00301FFF770FE58
:1023C00049F61410C0F200004FF00201FFF768FE5A
:1023D00094E0FB681B7803F07F03FB75FB6803F157
:1023E0000103FB60FB7D1F2B03D84FF00003FB753F
:1023F00003E0FB7DA3F12003FB754FF00003FB61BD
:1024000079E04FF00003BB615FE040F2D863C2F2B5
:102410000003BA699B184FF000021A70F97D49F663
:102420001C12C0F200020B464FEA83035B18F969E5
:102430005B18D3181B781A46BB6942FA03F303F002
:102440000103DBB2002B0AD0FB784FEA0313DAB2A8
:1024500040F2D863C2F20003B9695B181A70FB69D5
:10246000032B2ED8F97DFB6903F1010049F61C12FC
:10247000C0F200020B464FEA83035B181B18D31807
:102480001B781A46BB6942FA03F303F00103DBB27F
:10249000002B16D040F2D863C2F20003BA699B1831
:1024A0001B78DAB2FB7803F00F03DBB242EA0303D6
:1024B000DBB2DAB240F2D863C2F20003B9695B184A
:1024C0001A70BB6903F10103BB61BB69072B9CD97F
:1024D00040F2D860C2F200004FF00801FFF75EFE44
:1024E000BB6803F10203BB60BB68802B0CD0FB69A7
:1024F00003F10203FB61FB69052B82D9FB681B78A2
:10250000002B7FF466AF00E000BF07F12007BD4657
:1025100080BD00BF80B584B002AF78604FF400404A
:10252000C4F2000000F074FAFEF794FD03467A68E6
:1025300000924FF0080201924FF40040C4F20000F4
:1025400019464FF003024FF0000300F0F3F94FF487
:102550008040C4F200004FF00801FFF7FBF84FF491
:102560008040C4F200004FF008014FF004024FF029
:102570000A03FEF78DFF4FF40040C4F2000000F0A4
:1025800033FA40F2D463C2F2000303F0704240F227
:10259000D463C2F2000323F07F4323F470034FEAB5
:1025A000431342EA030343F000734FF001021A6041
:1025B00007F10807BD4680BD80B584B000AF7860E4
:1025C0004FF01000C1F20000FEF7CCFB4FF001000D
:1025D000C2F20000FEF7C6FB4FF00100C2F200009D
:1025E000FEF7C0FB4FF48040C4F200004FF02C0116
:1025F000FFF7B0F84FF48040C4F200004FF02C0118
:102600004FF004024FF00A03FEF742FF4FF4804000
:10261000C4F200004FF0C001FFF768F84FF48040AB
:10262000C4F200004FF0C0014FF004024FF0080365
:10263000FEF72EFF4FF48040C4F200004FF0C001BF
:102640004FF0C002FFF73CF840F2D463C2F200033F
:1026500003F0704240F2D463C2F2000323F07F43E0
:1026600023F470034FEA431342EA030343F0007379
:1026700043F004034FF001021A607868FFF74AFF45
:10268000FFF70AFE4FF00003FB6021E0FB6803F157
:10269000010249F6FC23C0F20003D21849F6FC23DC
:1026A000C0F20003F9685B181B7803F1FF33104692
:1026B0001946FFF7F5FC49F6FC23C0F20003FA685F
:1026C0009B181B781A46FB68D31803F10103FB60C3
:1026D000FB684E2BDAD907F11007BD4680BD00BF5D
:1026E00080B582B000AF49F63053C0F200037B6082
:1026F00040F20003C2F200033B600BE07B681A6803
:102700003B681A603B6803F104033B607B6803F19C
:1027100004037B603A6840F2DC53C2F200039A4241
:10272000ECD3084808494FF000028842B8BF40F88F
:10273000042BFADBFDF720FDFEF7AAFA07F10807E4
:10274000BD4680BDE00500208418002080B400AFA5
:10275000FEE700BF80B483B000AF78607B6803F110
:1027600008031A467B685A607B684FF0FF329A6014
:102770007B6803F108031A467B68DA607B6803F123
:1027800008031A467B681A617B684FF000021A60E2
:1027900007F10C07BD4680BC704700BF80B483B012
:1027A00000AF78607B684FF000021A6107F10C07F8
:1027B000BD4680BC704700BF80B485B000AF786074
:1027C00039607B685B68FB60FB685B681A463B6846
:1027D0005A607B685A683B689A60FB685B683A6835
:1027E0009A603A68FB685A603A687B685A603B684E
:1027F0007A681A617B681B6803F101027B681A60C2
:1028000007F11407BD4680BC704700BF80B485B097
:1028100000AF786039603B681B68BB60BB68B3F190
:10282000FF3F03D17B681B69FB600EE07B6803F10F
:102830000803FB6002E0FB685B68FB60FB685B68A9
:102840001B681A46BB689A42F5D9FB685B681A4652
:102850003B685A603B685B683A689A603B68FA6814
:102860009A603A68FB685A603B687A681A617B68CC
:102870001B6803F101027B681A6007F11407BD466B
:1028800080BC704780B485B000AF78607B685B68BF
:102890007A6892689A607B689B687A6852685A6026
:1028A0007B681B69FB60FB685A687B689A4203D1AE
:1028B0007B689A68FB685A607B684FF000021A6177
:1028C000FB681B6803F1FF32FB681A6007F114070D
:1028D000BD4680BC704700BF80B485B000AF786053
:1028E00040F2E063C2F200031B68002B08D141F6FE
:1028F0008842C2F2000240F2E063C2F200031A60B2
:1029000040F2E063C2F200031B68FB6040F2E06348
:10291000C2F200031A687B68D21840F2E063C2F288
:1029200000031A60FB68184607F11407BD4680BC17
:10293000704700BF80B48BB000AFF860B9607A60B8
:102940003B603B68022B02D14FF0080301E04FF0DF
:1029500000033B623B68002B02D14FF0000301E013
:102960004FF004033A6A42EA03033B62FB6803F157
:1029700004033A6A1A60BA683B6BB2FBF3F3FB617B
:102980004FF000037B627B6A03F102037B62FA690A
:102990007B6AB2FBF3F303F1FF33BB61BB69FF2B2F
:1029A000F1D8FB6803F110037A6A1A607B684FEA7A
:1029B00083137B617B6803F030037B60BB694FEA64
:1029C00003227B691A437B681A437B6B03F1FF3355
:1029D00042EA03033B62FB683A6A1A6007F12C077C
:1029E000BD4680BC704700BF80B483B000AF786044
:1029F0007B6803F104037A6802F10402126842F072
:102A000002021A6007F10C07BD4680BC704700BF88
:102A100080B483B000AF78607B6803F104037A6808
:102A200002F10402126822F002021A6007F10C0798
:102A3000BD4680BC704700BF80B483B000AF7860F3
:102A4000396000BF7B6803F10C031B6803F00203CD
:102A5000002BF7D07B6803F108033A681A6007F18E
:102A60000C07BD4680BC704780B483B000AF78606F
:102A70007B6803F10C031B6803F01003002B0CBFF1
:102A800000230123DBB2184607F10C07BD4680BCCA
:102A9000704700BF80B485B000AFF860B9607A605D
:102AA000FB68A3F10403FB60FB684FF080721A60BF
:102AB000FB68A3F10403FB60BA68FB681A60FB685B
:102AC000A3F10403FB60FB684FF000021A60FB688F
:102AD000A3F11403FB607A68FB681A60FB68A3F13A
:102AE0002003FB60FB68184607F11407BD4680BC55
:102AF000704700BF064B19680868B0E8F00F80F314
:102B000009884FF0000080F311884EF00D0E7047D9
:102B10000006002003480068006880F3088862B659
:102B200000DF00BF08ED00E080B500AF4EF6205397
:102B3000CEF200034EF62052CEF20002126842F4AA
:102B400060021A604EF62053CEF200034EF6205279
:102B5000CEF20002126842F060421A6000F086F87D
:102B600040F22803C2F200034FF000021A60FFF7A0
:102B7000D1FF4FF00003184680BD00BF80B400AF06
:102B80004EF60453CEF200034FF080521A60BD4659
:102B900080BC704780B400AF4FF0A00080F3118874
:102BA00040F22803C2F200031B6803F1010240F265
:102BB0002803C2F200031A60BD4680BC704700BF04
:102BC00080B400AF40F22803C2F200031B6803F197
:102BD000FF3240F22803C2F200031A6040F22803D9
:102BE000C2F200031B68002B03D14FF0000080F3FA
:102BF0001188BD4680BC7047EFF309800C4B1A6802
:102C000020E9F00F10602DE908404FF0A00080F39C
:102C10001188FFF7CDF84FF0000080F31188BDE870
:102C2000084019680868B0E8F00F80F30988704719
:102C30000006002080B582B000AF4EF60453CEF2FD
:102C400000034FF080521A604FF000037B604FF09A
:102C5000A00080F31188FEF7CFFF4FF0000080F353
:102C6000118807F10807BD4680BD00BF80B400AFE2
:102C70004EF21403CEF2000341F63F721A604EF298
:102C80001003CEF200034FF007021A60BD4680BC6D
:102C9000704700BF80B584B000AF786039604FF4F2
:102CA000A010FEF799FB4FF01010FEF75BF87B6861
:102CB000052B00F2B18001A252F823F0D52C0000C0
:102CC0000B2D0000412D0000772D0000AD2D0000E0
:102CD000E32D00004FF02000C2F20000FEF742F8A2
:102CE0004FF4A040C4F202004FF00101FEF718FDBE
:102CF0004FF04003FB60FB684FF40040C4F2020059
:102D000019463A68FDF7DCFD86E04FF04000C2F25C
:102D10000000FEF727F84FF4C040C4F202004FF065
:102D20000201FEF7FDFC4FF04003FB60FB684FF42F
:102D30000040C4F2020019463A68FDF7C1FD6BE09D
:102D40004FF00200C2F20000FEF70CF84FF4A04072
:102D5000C4F200004FF00101FEF7E2FC4FF08003E7
:102D6000FB60FB684FF40040C4F2020019463A6869
:102D7000FDF7A6FD50E04FF00200C2F20000FDF7A3
:102D8000F1FF4FF4A040C4F200004FF00201FEF743
:102D9000C7FC4FF08003FB60FB684FF40040C4F2B7
:102DA000020019463A68FDF78BFD35E04FF0100040
:102DB000C2F20000FDF7D6FF4FF48040C4F20200DB
:102DC0004FF00101FEF7ACFC4FF0C003FB60FB6865
:102DD0004FF40040C4F2020019463A68FDF770FD56
:102DE0001AE04FF01000C2F20000FDF7BBFF4FF4F5
:102DF0008040C4F202004FF00201FEF791FC4FF058
:102E0000C003FB60FB684FF40040C4F202001946A7
:102E10003A68FDF755FD00BFFB684FF40040C4F26F
:102E2000020019464FF00202FDF710FDFB684FF457
:102E30000040C4F202001946FDF766FD07F11007D5
:102E4000BD4680BD90B585B000AFF860B9607A60CE
:102E500040F22C03C2F20003BA6853F822407868AB
:102E600000F060FE03461846F96800F0B3FE034622
:102E7000184600F0FFFF03464FF40040C4F2020082
:102E800021461A46FDF754FD40F24403C2F2000306
:102E9000BA6853F822304FF40040C4F202001946D9
:102EA0004FF00102FDF77AFD07F11407BD4690BD12
:102EB00080B586B000AFF860B9607A60786801F0DC
:102EC00045F903467B61FB68C3F115027B699A42B1
:102ED00003DAFB68C3F115037B6141F27873C2F238
:102EE0000003BA684FF0160101FB02F1FA688A1874
:102EF0009A187B69104679681A4601F057F907F16C
:102F00001807BD4680BD00BF80B582B000AF7860B5
:102F100041F27873C2F200037A684FF0160101FBA8
:102F200002F29A187B684FEAC30310464FF0000183
:102F30001A464FF00F03FFF7FDF907F10807BD46EA
:102F400080BD00BF80B582B000AF44F24020C0F227
:102F50000F00FFF731FB4FF000037B602CE04FF0D8
:102F600000033B6012E041F27873C2F200037A681A
:102F70004FF0160101FB02F13A688A189B184FF0D6
:102F800020021A703B6803F101033B603B68142B7D
:102F9000E9DD41F27873C2F200037A684FF016015E
:102FA00001FB02F29B1803F115034FF000021A70A7
:102FB0007B6803F101037B607B680B2BCFDD07F19E
:102FC0000807BD4680BD00BF80B584B000AF786003
:102FD0004FF00003FB607B6803F00703002B05D074
:102FE0007B6823F0070303F108037B60FEF734FDE1
:102FF00041F2E863C2F200031A687B68D21840F617
:10300000FF739A4224D841F2E863C2F200031A68BF
:103010007B68D21841F2E863C2F200031B689A424F
:1030200016D941F2E863C2F200031A6840F2E8637D
:10303000C2F20003D318FB6041F2E863C2F200035E
:103040001A687B68D21841F2E863C2F200031A6082
:10305000FEF714FDFB68184607F11007BD4680BD5A
:1030600080B483B000AF786007F10C07BD4680BC28
:10307000704700BF81F0004102E000BF83F00043D1
:1030800030B54FEA41044FEA430594EA050F08BF03
:1030900090EA020F1FBF54EA000C55EA020C7FEAC7
:1030A000645C7FEA655C00F0E2804FEA5454D4EB44
:1030B0005555B8BF6D420CDD2C4480EA020281EA0E
:1030C000030382EA000083EA010180EA020281EA46
:1030D0000303362D88BF30BD11F0004F4FEA013198
:1030E0004FF4801C4CEA113102D0404261EB4101A7
:1030F00013F0004F4FEA03334CEA133302D052422D
:1031000063EB430394EA050F00F0A780A4F10104E8
:10311000D5F1200E0DDB02FA0EFC22FA05F2801822
:1031200041F1000103FA0EF2801843FA05F3594108
:103130000EE0A5F120050EF1200E012A03FA0EFC87
:1031400028BF4CF0020C43FA05F3C01851EBE371B1
:1031500001F0004507D54FF0000EDCF1000C7EEBCE
:1031600000006EEB0101B1F5801F1BD3B1F5001F0C
:103170000CD349085FEA30004FEA3C0C04F101042B
:103180004FEA445212F5800F80F09A80BCF1004F54
:1031900008BF5FEA500C50F1000041EB045141EAD6
:1031A000050130BD5FEA4C0C404141EB010111F4D7
:1031B000801FA4F10104E9D191F0000F04BF014682
:1031C0000020B1FA81F308BF2033A3F10B03B3F160
:1031D00020020CDA0C3208DD02F1140CC2F10C02F0
:1031E00001FA0CF021FA02F10CE002F11402D8BF4E
:1031F000C2F1200C01FA02F120FA0CFCDCBF41EA1A
:103200000C019040E41AA2BF01EB0451294330BDE8
:103210006FEA04041F3C1CDA0C340EDC04F11404C5
:10322000C4F1200220FA04F001FA02F340EA03009C
:1032300021FA04F345EA030130BDC4F10C04C4F1E2
:10324000200220FA02F001FA04F340EA03002946C2
:1032500030BD21FA04F0294630BD94F0000F83F40C
:10326000801306BF81F480110134013D4EE77FEAEF
:10327000645C18BF7FEA655C29D094EA050F08BF3B
:1032800090EA020F05D054EA000C04BF194610461C
:1032900030BD91EA030F1EBF0021002030BD5FEA60
:1032A000545C05D14000494128BF41F0004130BD88
:1032B00014F580043CBF01F5801130BD01F00045DC
:1032C00045F0FE4141F470014FF0000030BD7FEA4F
:1032D000645C1ABF194610467FEA655C1CBF0B464A
:1032E000024650EA013406BF52EA033591EA030F61
:1032F00041F4002130BD00BF90F0000F04BF002159
:10330000704730B54FF4806404F132044FF000058B
:103310004FF0000150E700BF90F0000F04BF002104
:10332000704730B54FF4806404F1320410F000456A
:1033300048BF40424FF000013EE700BF42004FEA65
:10334000E2014FEA31014FEA02701FBF12F07F43E2
:1033500093F07F4F81F06051704792F0000F14BFDF
:1033600093F07F4F704730B54FF4607401F0004523
:1033700021F0004120E700BF50EA010208BF70477A
:1033800030B54FF000050AE050EA010208BF70476F
:1033900030B511F0004502D5404261EB41014FF4D8
:1033A000806404F132045FEA915C3FF4DCAE4FF0DC
:1033B00003025FEADC0C18BF03325FEADC0C18BFC3
:1033C000033202EBDC02C2F1200300FA03FC20FA14
:1033D00002F001FA03FE40EA0E0021FA02F1144461
:1033E000C1E600BF70B54FF0FF0C4CF4E06C1CEA76
:1033F00011541DBF1CEA135594EA0C0F95EA0C0FEB
:1034000000F0DEF82C4481EA030621EA4C5123EA5D
:103410004C5350EA013518BF52EA033541F480118C
:1034200043F4801338D0A0FB02CE4FF00005E1FB3F
:1034300002E506F00042E0FB03E54FF00006E1FB89
:1034400003569CF0000F18BF4EF0010EA4F1FF04CC
:10345000B6F5007F64F5407404D25FEA4E0E6D410C
:1034600046EB060642EAC62141EA55514FEAC5201D
:1034700040EA5E504FEACE2EB4F1FD0C88BFBCF599
:10348000E06F1ED8BEF1004F08BF5FEA500E50F14A
:10349000000041EB045170BD06F0004646EA010110
:1034A00040EA020081EA0301B4EB5C04C2BFD4EB42
:1034B0000C0541EA045170BD41F480114FF0000E3B
:1034C000013C00F3AB8014F1360FDEBF002001F0A9
:1034D000004170BDC4F10004203C35DA0C341BDC23
:1034E00004F11404C4F1200500FA05F320FA04F0F5
:1034F00001FA05F240EA020001F0004221F0004129
:1035000010EBD37021FA04F642EB06015EEA430E9B
:1035100008BF20EAD37070BDC4F10C04C4F12005CB
:1035200000FA04F320FA05F001FA04F240EA02007E
:1035300001F0004110EBD37041F100015EEA430E4F
:1035400008BF20EAD37070BDC4F1200500FA05F26F
:103550004EEA020E20FA04F301FA05F243EA0203EE
:1035600021FA04F001F0004121FA04F220EA0200FD
:1035700000EBD3705EEA430E08BF20EAD37070BD43
:1035800094F0000F0FD101F00046400041EB010123
:1035900011F4801F08BF013CF7D041EA060195F005
:1035A000000F18BF704703F00046520043EB0303BF
:1035B00013F4801F08BF013DF7D043EA06037047AC
:1035C00094EA0C0F0CEA135518BF95EA0C0F0CD0B7
:1035D00050EA410618BF52EA4306D1D181EA0301FD
:1035E00001F000414FF0000070BD50EA410606BFF7
:1035F0001046194652EA430619D094EA0C0F02D13C
:1036000050EA013613D195EA0C0F05D152EA033680
:103610001CBF104619460AD181EA030101F000419E
:1036200041F0FE4141F470014FF0000070BD41F0E7
:10363000FE4141F4780170BD70B54FF0FF0C4CF4C1
:10364000E06C1CEA11541DBF1CEA135594EA0C0FE0
:1036500095EA0C0F00F0A7F8A4EB050481EA030E2D
:1036600052EA03354FEA013100F088804FEA033314
:103670004FF0805545EA131343EA12634FEA0222E2
:1036800045EA111545EA10654FEA00260EF00041A3
:103690009D4208BF964244F1FD0404F5407402D2F5
:1036A0005B084FEA3202B61A65EB03055B084FEA86
:1036B00032024FF480104FF4002CB6EB020E75EB83
:1036C000030E22BFB61A754640EA0C005B084FEAAB
:1036D0003202B6EB020E75EB030E22BFB61A754628
:1036E00040EA5C005B084FEA3202B6EB020E75EB73
:1036F000030E22BFB61A754640EA9C005B084FEAEB
:103700003202B6EB020E75EB030E22BFB61A7546F7
:1037100040EADC0055EA060E18D04FEA051545EAE6
:1037200016754FEA06164FEAC30343EA52734FEA8F
:10373000C2025FEA1C1CC0D111F4801F0BD141EA08
:1037400000014FF000004FF0004CB6E711F4801F6D
:1037500004BF01430020B4F1FD0C88BFBCF5E06F4D
:103760003FF6AFAEB5EB030C04BFB6EB020C5FEA5D
:10377000500C50F1000041EB045170BD0EF0004EB2
:103780004EEA113114EB5C04C2BFD4EB0C0541EAE4
:10379000045170BD41F480114FF0000E013C90E6E1
:1037A00045EA060E8DE60CEA135594EA0C0F08BFA5
:1037B00095EA0C0F3FF43BAF94EA0C0F0AD150EAA4
:1037C00001347FF434AF95EA0C0F7FF425AF104637
:1037D00019462CE795EA0C0F06D152EA03353FF45F
:1037E000FDAE1046194622E750EA410618BF52EADC
:1037F00043067FF4C5AE50EA41047FF40DAF52EAB0
:1038000043057FF4EBAE12E74FF0FF3C06E000BF4C
:103810004FF0010C02E000BF4FF0010C4DF804CD59
:103820004FEA410C7FEA6C5C4FEA430C18BF7FEA19
:103830006C5C1BD001B050EA410C0CBF52EA430C47
:1038400091EA030F02BF90EA020F0020704710F1C7
:10385000000F91EA030F58BF994208BF90422CBF56
:10386000D8176FEAE37040F0010070474FEA410C4F
:103870007FEA6C5C02D150EA013C07D14FEA430C6D
:103880007FEA6C5CD6D152EA033CD3D05DF8040BDE
:10389000704700BF8446104662468C461946634610
:1038A00000E000BF01B5FFF7B7FF002848BF10F1E7
:1038B000000F01BD4DF808EDFFF7F4FF0CBF01202C
:1038C00000205DF808FB00BF4DF808EDFFF7EAFFA8
:1038D00034BF012000205DF808FB00BF4DF808ED63
:1038E000FFF7E0FF94BF012000205DF808FB00BF58
:1038F0004DF808EDFFF7CEFF94BF012000205DF8E2
:1039000008FB00BF4DF808EDFFF7C4FF34BF0120EE
:1039100000205DF808FB00BF4FEA4102B2F1E0432E
:1039200024BFB3F5001CDCF1FE5C0DD901F0004CA6
:103930004FEAC0024CEA5070B2F1004F40EB8300F6
:1039400008BF20F00100704711F0804F21D113F122
:103950003872BCBF01F00040704741F480114FEA5B
:103960005252C2F11802C2F1200C10FA0CF320FAE4
:1039700002F018BF40F001004FEAC1234FEAD32301
:1039800003FA0CFC40EA0C0023FA02F34FEA43036B
:10399000CCE77FEA625307D150EA01331EBF4FF0F4
:1039A000FE4040F44000704701F0004040F0FE400F
:1039B00040F40000704700BF80F0004002E000BF0C
:1039C00081F0004142001FBF5FEA410392EA030F0A
:1039D0007FEA226C7FEA236C6AD04FEA1262D2EB54
:1039E0001363C1BFD218414048404140B8BF5B4259
:1039F000192B88BF704710F0004F40F4000020F0F2
:103A00007F4018BF404211F0004F41F4000121F007
:103A10007F4118BF494292EA030F3FD0A2F1010251
:103A200041FA03FC10EB0C00C3F1200301FA03F18F
:103A300000F0004302D5494260EB4000B0F5000FB2
:103A400013D3B0F1807F06D340084FEA310102F171
:103A50000102FE2A51D2B1F1004F40EBC25008BF23
:103A600020F0010040EA03007047490040EB0000ED
:103A700010F4000FA2F10102EDD1B0FA80FCACF11C
:103A8000080CB2EB0C0200FA0CF0AABF00EBC2501B
:103A900052421843BCBFD0401843704792F0000F09
:103AA00081F4000106BF80F400000132013BB5E75C
:103AB0004FEA41037FEA226C18BF7FEA236C21D0D2
:103AC00092EA030F04D092F0000F08BF0846704737
:103AD00090EA010F1CBF0020704712F07F4F04D105
:103AE000400028BF40F00040704712F100723CBF18
:103AF00000F50000704700F0004343F0FE4040F442
:103B0000000070477FEA226216BF08467FEA2363FF
:103B10000146420206BF5FEA412390EA010F40F4EA
:103B2000800070474FF0000304E000BF10F0004336
:103B300048BF40425FEA000C08BF704743F096431D
:103B400001464FF000001CE050EA010208BF704738
:103B50004FF000030AE000BF50EA010208BF7047BF
:103B600011F0004302D5404261EB41015FEA010CD4
:103B700002BF84460146002043F0B64308BFA3F1CC
:103B80008053A3F50003BCFA8CF2083AA3EBC253AE
:103B900010DB01FA02FC634400FA02FCC2F12002CD
:103BA000BCF1004F20FA02F243EB020008BF20F004
:103BB0000100704702F1200201FA02FCC2F120026A
:103BC00050EA4C0021FA02F243EB020008BF20EA5F
:103BD000DC7070474FF0FF0C1CEAD0521EBF1CEA8D
:103BE000D15392EA0C0F93EA0C0F6FD01A4480EA7B
:103BF000010C400218BF5FEA41211ED04FF0006364
:103C000043EA501043EA5111A0FB01310CF000408F
:103C1000B1F5000F3EBF490041EAD3715B0040EAB5
:103C2000010062F17F02FD2A1DD8B3F1004F40EB85
:103C3000C25008BF20F00100704790F0000F0CF058
:103C4000004C08BF49024CEA502040EA51207F3A1C
:103C5000C2BFD2F1FF0340EAC250704740F40000F7
:103C60004FF00003013A5DDC12F1190FDCBF00F0E8
:103C700000407047C2F10002410021FA02F1C2F196
:103C8000200200FA02FC5FEA310040F1000053EA32
:103C90004C0308BF20EADC70704792F0000F00F080
:103CA000004C02BF400010F4000F013AF9D040EA86
:103CB0000C0093F0000F01F0004C02BF490011F41A
:103CC000000F013BF9D041EA0C018FE70CEAD15318
:103CD00092EA0C0F18BF93EA0C0F0AD030F0004C98
:103CE00018BF31F0004CD8D180EA010000F000404C
:103CF000704790F0000F17BF90F0004F084691F00A
:103D0000000F91F0004F14D092EA0C0F01D1420243
:103D10000FD193EA0C0F03D14B0218BF084608D10C
:103D200080EA010000F0004040F0FE4040F4000056
:103D3000704740F0FE4040F4400070474FF0FF0CE9
:103D40001CEAD0521EBF1CEAD15392EA0C0F93EA30
:103D50000C0F69D0A2EB030280EA010C49024FEA82
:103D6000402037D04FF0805343EA111143EA10133B
:103D70000CF000408B4238BF5B0042F17D024FF4F3
:103D8000000C8B4224BF5B1A40EA0C00B3EB510FCE
:103D900024BFA3EB510340EA5C00B3EB910F24BFB7
:103DA000A3EB910340EA9C00B3EBD10F24BFA3EB3C
:103DB000D10340EADC001B0118BF5FEA1C1CE0D104
:103DC000FD2A3FF650AF8B4240EBC25008BF20F0B7
:103DD000010070470CF0004C4CEA50207F32C2BF0B
:103DE000D2F1FF0340EAC250704740F400004FF0A8
:103DF0000003013A37E792F0000F00F0004C02BFD9
:103E0000400010F4000F013AF9D040EA0C0093F0A2
:103E1000000F01F0004C02BF490011F4000F013BFC
:103E2000F9D041EA0C0195E70CEAD15392EA0C0F64
:103E300008D142027FF47DAF93EA0C0F7FF470AF9C
:103E4000084676E793EA0C0F04D14B023FF44CAFDF
:103E500008466EE730F0004C18BF31F0004CCAD174
:103E600030F000427FF45CAF31F000437FF43CAFB0
:103E70005FE700BF42000ED2B2F1FE4F0BD34FF00E
:103E80009E03B3EB126209D44FEA002343F00043D0
:103E900023FA02F070474FF00000704712F1610FF3
:103EA00001D1420202D14FF0FF3070474FF00000C5
:103EB000704700BF032A2DE9F00109D82AB1002379
:103EC000CC5CC45401339342FAD1BDE8F001704791
:103ED0000B468218014603E02478013301F8014BB8
:103EE00011F0030F1C46F7D113F003055DD06E42AD
:103EF000C5F1040CED009B594FEACC0C08E00434EA
:103F0000A7593B4607FA0CF748EA070741F8047B34
:103F1000571A23FA05F8032FF1DC03E014F8013BEC
:103F200001F8013B8A42F9D8CFE753F8404C41F8F9
:103F3000404C53F83C4C41F83C4C53F8384C41F859
:103F4000384C53F8344C41F8344C53F8304C41F869
:103F5000304C53F82C4C41F82C4C53F8284C41F879
:103F6000284C53F8244C41F8244C53F8204C41F889
:103F7000204C53F81C4C41F81C4C53F8184C41F899
:103F8000184C53F8144C41F8144C53F8104C41F8A9
:103F9000104C53F80C4C41F80C4C53F8084C41F8B9
:103FA000084C53F8044C41F8044C561A1D460C4674
:103FB000403340313F2EB8DC2B460FE053F8101C45
:103FC00044F8101C53F80C1C44F80C1C53F8081C43
:103FD00044F8081C53F8041C44F8041C161B1D4626
:103FE00010330F2E214604F11004E7DC2B4602E0CB
:103FF000246841F8044B551A1C46032D03F10403B1
:10400000F6DC8FE7032AC9B270B408D82AB1034698
:10401000121803F8011B9342FBD170BC7047821841
:10402000044601E004F8011B14F0030FFAD14FF02D
:10403000013303FB01F31FE044F8403C44F83C3CEF
:1040400044F8383C44F8343C44F8303C44F82C3CC8
:1040500044F8283C44F8243C44F8203C44F81C3CF8
:1040600044F8183C44F8143C44F8103C44F80C3C28
:1040700044F8083C44F8043C161B254640343F2EC7
:10408000DADC2C4607E044F8103C44F80C3C44F8D9
:10409000083C44F8043C161B254610340F2EF2DC75
:1040A00001E045F8043B541B032CFADC01E005F861
:1040B000011B9542FBD3B0E70CB44FF4027370B50B
:1040C0009CB020AC0E46ADF8103001A954F8042B7A
:1040D0004FF0FF33ADF812306FF0004523460196E4
:1040E0000596039506951B9400F09EF8019B00220F
:1040F0001A701CB0BDE8704002B070470EB440F2B8
:104100005C03F0B59CB021ACC2F20003064601A9E5
:1041100054F8042B6FF0004518684FF402772346DB
:10412000019605964FF0FF36ADF81070ADF81260AD
:10413000039506951B9400F077F8019B00221A70F6
:104140001CB0BDE8F04003B0704700BF20F0030191
:1041500010F00300C0F1000051F8043B00F1040C22
:104160004FEACC0C6FF000021CBF22FA0CF2134392
:104170004FF0010C4CEA0C2C4CEA0C4CA3EB0C025B
:1041800022EA030212EACC1204BF51F8043B0430C5
:10419000F4D013F0FF0F1FBF013013F47F4F013035
:1041A00013F47F0F18BF0130704700BF41EA0003CE
:1041B00013F0030F034670B414BF00250125032A32
:1041C00094BF002505F001050C460646CDB9B2B1F5
:1041D0000D783446531E04F8015B55B1B21C73B11F
:1041E00011F8015F1446013B02F8015C0132002D19
:1041F000F5D123B10022013B04F8012BFBD170BCA7
:104200007047214654F8045BA5F1013626EA0506FD
:1042100016F0803F05D1043A43F8045B032A214697
:10422000EFD81E46D3E700BF2DE9F04FC5B01446C6
:1042300012930C91119002F063FB00681990FFF744
:1042400085FF1C900C98838913F0800F03D00369BD
:10425000002B01F084810DF17C0A002356460DF1FC
:10426000F7010E9309941A931B9317931D930F93C1
:104270000791CDF8E4A03B933A93099A1378B3F1F0
:10428000250218BF0122002B0CBF002302F00103FE
:10429000002B00F0BD80099B5A1C174601323B7869
:1042A000191E18BF0121252B0CBF002301F00103AB
:1042B000002BF2D1099CB7EB040810D03A9C099866
:1042C00001343B9D072CC6F80480306045443A9485
:1042D0003B9500F3818008360F9941440F913B785C
:1042E000002B00F081807C1C002200230D928DF8B1
:1042F0000F31202509942B217B784FF0FF3708924E
:1043000022460132A3F12000582800F21D83DFE885
:1043100010F02E031B031B0337031B031B031B039C
:104320001B031B031B03C80381001B035D008500E7
:104330001B039F00A500A500A500A500A500A500E2
:10434000A500A500A5001B031B031B031B031B03E8
:104350001B031B031B031B031B03B70042021B03AE
:1043600042021B031B031B031B0380021B031B03D3
:1043700086021B031B031B031B031B03A4021B035B
:104380001B03B3021B031B031B031B031B031B03A6
:104390001B031B031B031B0355033D034202420285
:1043A00042024F033D031B031B030C031B039B0330
:1043B00069037F03DE021B03E4021B03AC031B0340
:1043C0001B03D3030D9B12905B420D93089C44F09A
:1043D00004040894137894E7119839AA0C9903F00F
:1043E0008FFB40B9564677E73B9B23B1119839AA1A
:1043F0000C9903F085FB0C990F9A8B8913F0400FF1
:1044000018BF4FF0FF320F920F9845B0BDE8F08F04
:10441000099F64E78DF80F11137872E712F8013BDA
:104420002A2B01F00B82A3F13000092801F2C1818F
:104430001446002714F8013B07EB870700EB4707FA
:10444000A3F1300009282246F4D947EAE77759E773
:10445000089B43F080030893137852E7144600202A
:10446000A3F1300814F8013B00EB8000A3F1300CFD
:104470002246BCF1090F08EB4000F1D90D9041E74D
:104480000992089A169342F010020892089B13F0C2
:10449000200F00F08282129CE31D23F0070303F13A
:1044A00008001290D3E90045002C75F10002C0F21B
:1044B000CE8554EA05034FF001030CBF0022012210
:1044C000002FA2BF089921F080010891002F18BF8A
:1044D00042F00102002A00F0AD83012B00F0FF84BE
:1044E000022B00F0DF840DF1BC0B0BF12703EA086F
:1044F0004FEAD40848EA457804F00704114604F16D
:1045000030020D46444654EA05009C461A7003F1F9
:10451000FF33ECD10899CDF84CC011F0010F40F0F9
:1045200088850BF1280BCCEB0B0210929DF80F2124
:104530000020109C1597BC42B8BF3C4618900A94C6
:1045400012B10A9801300A90089911F0020B02D0BA
:104550000A9B02330A93089C14F08404149440F0DC
:10456000CD820D980A99471A002F40F3C782102F69
:1045700041F379803B9D49F658383A9CC0F20008D7
:1045800029464FF0100922460C9D4446DDF8448030
:1045900002E0103F102F1BDD01323460C6F804909A
:1045A00010310836072A3A9206F108033B91F0DDF4
:1045B0004046294639AA564603F0A2FA0AF10803F2
:1045C00000287FF418AF103F3B99102F3A9AE3DC94
:1045D000A0460D4614460134C6F80080072C7760CB
:1045E0003D443A943B9500F37E829DF80F211E4690
:1045F0006AB13A9C43AB0333336001340123072C87
:1046000073601D443A943B9500F3E9830836BBF18F
:10461000000F0CD03A9C43AB33600223013473602B
:10462000072C1D443A943B9500F3CE830836149A28
:10463000802A00F01083159910980F1A002F40F36C
:104640005B83102F40F3EC853A9C2A46DFF8988A6A
:104650004FF0100B23460C9D4446DDF8448002E0E9
:10466000103F102F1BDD01333460C6F804B0103248
:104670000836072B3A9306F108093B92F0DD4046D5
:10468000294639AA0AF1080903F03AFA56460028E1
:104690007FF4B1AE103F3B9A102F3A9BE3DCA0466B
:1046A00015461C460134C6F80080072C77603D444F
:1046B0003A943B9500F37D83089A12F4807F40F092
:1046C0004E823A9C109B01341398072C1D44C9F864
:1046D0000430C9F800003B953A9400F3358209F1A3
:1046E0000809089C14F0040F46D00D980A99461A40
:1046F000002E41DD102E41F30B803A9C49F65838CC
:10470000C0F2000810272346DDF830B04446DDF83B
:10471000448002E0103E102E19DD01331035072BC6
:10472000C9F80040C9F8047009F108093A933B95AB
:10473000F0DD4046594639AAD14603F0E1F9002898
:104740007FF459AE103E3B9D102E3A9BE5DCA0460F
:104750001C460134C9F80080072CC9F804603544B0
:104760003A943B9508DD119839AA0C9903F0C8F9E1
:1047700000287FF440AE3B9D0F9A0A9C0D9B9C4203
:10478000ACBF1219D2180F92002D40F00383002005
:1047900056463A9071E508991D46099211F0080FA6
:1047A000169300F08784129AD31D23F0070303F1B8
:1047B0000804129418681A905B681B931A981B9946
:1047C00003F054F8012840F050841A980022002386
:1047D0001B99FFF779F8002840F02E879DF80F21EC
:1047E000032049F67C3349F678310A901698C0F2D6
:1047F0000001C0F2000300244728D8BF0B460899E7
:104800001393032321F080011594089110931894B9
:1048100096E6089C44F008040894137871E508991A
:10482000099241F010010891089A169312F02003A2
:1048300000F0DF80129BDA1D002322F0070202F154
:1048400008041294D2E9004554EA05000CBF002286
:10485000012200208DF80F0132E6089C099244F0F5
:10486000100408940898169310F0200F00F00481AB
:1048700012990123CA1DE0E7099249F68831089A86
:10488000C0F20001169312F0200F179100F0208162
:10489000129CE31D23F0070303F108001290D3E9F3
:1048A000004554EA0502089B0CBF00220122134276
:1048B00000F0698316983023089901228DF80C3195
:1048C000022341F002018DF80D010891C1E708981B
:1048D00040F020000890137813E509920021129A05
:1048E00016938DF80F11141D13681393002B00F00D
:1048F000FD86002FC0F2A786139800213A4602F0E9
:10490000DDFA002800F04A87139BC01A1090B842C5
:1049100040F3F584002027EAE77115900A919DF88D
:104920000F211294109718900AE613786C2B0BBF86
:10493000089B089C43F0200344F010040ABF08932E
:10494000089412F8013FDCE409921693002B3FF41F
:104950004BAD002201218DF8BC302FAC00230A9111
:1049600010918DF80F31159218921394ECE59DF883
:104970000F31002B40F09B838DF80F511378C0E46A
:10498000089840F0010008901378BAE41693089B49
:10499000099213F0200F7FF47EAD089911F0100FEB
:1049A00000F0A483129A146804321292E5177BE592
:1049B000089840F0400008901378A2E41693012173
:1049C000129B0020099200221C1D0A911B68129460
:1049D00010912FA98DF80F011592189213918DF84F
:1049E000BC30B1E50992089A169312F020037FF4C7
:1049F00021AF089911F0100200F09283129C2268F6
:104A00000434002512941446003A18BF012220E70E
:104A1000129B7821089C0025099249F69C301A685F
:104A200044F0020404330894129314463023003AED
:104A30008DF80C3118BF0122C0F200008DF80D1165
:104A400017900223169104E70899099211F0200F9C
:104A500000F05983129A0F9C129811682246E317AE
:104A600004301290C1E9002307E40898099210F07D
:104A7000200F16937FF4FCAE089911F0100F40F050
:104A80009182089810F0400F00F08C821299012357
:104A900000250A88043112911446003A18BF0122F9
:104AA000D7E6129B129C1B68201D002B0D93FFF66E
:104AB00089AC1378129024E4099249F69C30089A44
:104AC000C0F20000169312F0200F17907FF4E0AEB2
:104AD000089911F0100F00F0FA82129A002514685C
:104AE00004321292DDE6119839AA0C9903F008F805
:104AF00000287FF480AC9DF80F2156463B9D77E55A
:104B0000089A12F0010F40F0FD803A9C0135139A8B
:104B100001230134C9F80430072CC9F800203B9563
:104B20003A9400F3338509F1080B0BF108091D9B3A
:104B30000134072C1D44CBF804303EABCBF80030D9
:104B40003B953A947FF7CDAD119839AA0C9902F0B4
:104B5000D7FF00287FF44FACD1463B9DC1E51699A5
:104B6000652940F3CB801A98002200231B99FEF799
:104B7000A1FE002800F03E813A9C49F6B833C0F20D
:104B80000003C9F8003001340123072CC9F80430B0
:104B90001D443A943B95D8BF09F1080900F34783B7
:104BA000429B0E9A934204DB089B13F0010F3FF4E3
:104BB00098AD3A9C1C9801341999072C0544C9F802
:104BC0000400D8BF09F10803C9F800103B953A94D6
:104BD00000F3BD830E9A561E002E40F31E83102E46
:104BE00040F301863A9C1027DFF8FC842246DDF86A
:104BF00030B04446DDF8448003E0103E102E40F310
:104C0000C48101321C605F6010350833072A3A9274
:104C100003F108093B95F0DD4046594639AA0AF1EF
:104C2000080902F06DFF534600287FF4E4AB3B9D7A
:104C30003A9AE2E7002B40F0B780089C14F0010F8D
:104C400000F02B81012030230DF1E30110908DF84D
:104C5000E33013916AE40D9B0A9C1F1B002F7FF722
:104C6000EAAC102F40F388853A9C3346DFF878840D
:104C70004FF010092246DDF830B04446DDF844809C
:104C800002E0103F102F1BDD01321C60C3F80490BE
:104C900010350833072A3A9203F108063B95F0DDF8
:104CA0004046594639AA0AF1080602F029FF534640
:104CB00000287FF4A0AB103F3B9D102F3A9AE3DC15
:104CC000A04614460134C3F80080072C5F603D44C1
:104CD0003A943B957FF7AFAC119839AA0C9902F042
:104CE0000FFF00287FF487AB1599564610983B9D1F
:104CF0000F1A002F3FF7A5ACB146DDE40E9901294C
:104D00007FF7FEAE3A9C0135139B0134C9F80030A1
:104D10000123072CC9F80430D8BF09F108093B95D5
:104D20003A94D8BF09F1080600F3418101341C9977
:104D30001998072C0D44D8BF06F1080BC9F80410C8
:104D4000C9F800003A943B9500F33F811A9800227D
:104D500000231B99FEF7AEFD002840F0CE800E9B8D
:104D6000013413985A1E7260431C072C336015449B
:104D70003A943B957FF7D9AE119839AA0C9902F075
:104D8000BFFE00287FF437AB0AF10809D3463B9DEC
:104D90003A9CCCE6119839AA0C9902F0B1FE002891
:104DA0003FF4F5ACFFF727BB109239AA1392FFF737
:104DB000BDBB119839AA0C9902F0A2FE00287FF41D
:104DC0001AABD1463B9D77E4119839AA0C9902F0B1
:104DD00097FE00287FF40FAB3B9D564627E41198C1
:104DE00039AA0C9902F08CFE00287FF404AB3B9D9D
:104DF00056460CE4429E002E40F324820E9E189CE0
:104E00001398A642A8BF26460E99002E00EB010B70
:104E10000EDD3A9CAD19C9F800000134C9F80460F0
:104E2000072C3B953A94D8BF09F1080900F3258473
:104E3000189A26EAE676961B002E40F30284102E7E
:104E400040F3F6843A9C2946DFF89C8210272246DC
:104E50000C9D4446DDF8448003E0103E102E40F3E4
:104E6000718101321031072AC9F80040C9F8047075
:104E700009F108093A9209F108033B91EDDD40463A
:104E8000294639AAD14602F03BFE0AF10803002860
:104E90007FF4B1AA3B993A9ADFE7109339AB1393A9
:104EA000FFF744BB0DF1BC0B17990BF1270004F081
:104EB0000F02230943EA05734FEA151C8A5C1C465E
:104EC0000346654601381A7054EA0502EFD10BF12A
:104ED000280B1393C3EB0B031093FFF727BB0A2C8C
:104EE00075F100017FD2303401220DF1E3031092FD
:104EF0008DF8E3401393FFF719BB0E994F1E002F57
:104F0000DCBF06F10809B3467FF711AE102FD8BFFA
:104F1000DFF8D4812CDDDFF8D08123462A464FF01C
:104F2000100944460C9DDDF8448002E0103F102F2C
:104F30001BDD01333460C6F8049010320836072BAD
:104F40003A9306F1080B3B92F0DD4046294639AA18
:104F50000AF1080B02F0D4FD564600287FF44BAA54
:104F6000103F3B9A102F3A9BE3DCA04615461C46A7
:104F70000134C6F80080072C77603D443A943B9595
:104F80007FF7D3ADF8E6022363E4A046144601346C
:104F9000C3F80080072C5E6035443A943B957FF758
:104FA000A0ABD1E5129B129C1A68012328E5119849
:104FB00039AA0C9902F0A4FD00287FF41CAA3B9D9D
:104FC0000AF108063A9CD146B0E6119839AA0C9924
:104FD00002F096FD00287FF40EAA3B9D0AF1080B13
:104FE0003A9C5646B2E60DF1BC0BB1460BF12708D0
:104FF000204629460A22002304F088F84646204627
:105000002946002308F1FF3802F130040A223470E7
:1050100004F07CF804460D4654EA0500E8D11396E6
:105020000BF1280B13994E46C1EB0B011091FFF7C2
:105030007DBA302A00F0478313930BF1280B1398A5
:10504000C3EB0B04302310940370FFF76FBA644274
:1050500065EB45052D2354EA05008DF80F310CBF93
:10506000002201220123FFF72BBA1A981B9902F0A4
:10507000FDFB002840F07681159049F6843349F60F
:1050800080321698C0F20002C0F200034728D8BF51
:1050900013461393159B032408990A9421F0800169
:1050A0009DF80F21089110941893FFF749BA1378CF
:1050B000FFF727B91299CB1D23F0070303F108026C
:1050C00012921C681A945B681B93FFF777BB089BCE
:1050D00013F0400F00F02781129800250488043057
:1050E0001290FFF7DEBB00BF689B0000089B13F027
:1050F000400F00F011811298B0F900400430129076
:10510000E517FFF7D1B9089911F0100F00F01281DF
:10511000129A0F9C1368043212921C60FFF7ADB80C
:10512000089810F0400300F00F82129B0025129C9B
:1051300019880434134612940A1E0C4618BF012223
:10514000FFF787BBA0460D4614460134C9F800801E
:10515000072CC9F8046035443A943B9500F3BB82B0
:10516000429A0E9CA2424ADB089810F0010F46D1E9
:10517000139C189821180E9CC1EB0B07A21ABA4277
:10518000B8BF1746002F0ADD3A9CED1919600134AB
:105190005F60072C3B953A9400F38782083327EA37
:1051A000E776961B002E38DD102E40F31C833A9CC8
:1051B0001027DFF8C8862246DDF830B04446DDF817
:1051C000448003E0103E102E7FF7DFAE01321C60FA
:1051D0005F6010350833072A3A9203F108093B95BE
:1051E000F0DD4046594639AA0AF1080902F088FC68
:1051F000534600287FF4FFA83B9D3A9AE2E73A9C89
:105200001C9901341998072C0D44596018603B957E
:105210003A9400F33E820833AAE79946FFF761BA51
:1052200006F108093A9CDFF85486FFF73BBA11985B
:1052300039AA0C9902F064FC00287FF4DCA83B9D9D
:10524000D146ADE43A9C49F6B833C0F20003C9F840
:10525000003001340123072CC9F804301D443A946E
:105260003B95D8BF09F1080900F39F8136B90E9B21
:1052700023B9089C14F0010F3FF433AA3A9C1C9800
:1052800001341999072C0544C9F80400C9F8001025
:10529000D8BF09F108093B953A9400F3BE817642E4
:1052A000002E40F3AB81102ED8BFDFF8D08540F33D
:1052B0008D81DFF8C88523461027DDF830B04446DD
:1052C000DDF8448003E0103E102E40F37D81013371
:1052D0001035072BC9F80040C9F8047009F1080916
:1052E0003A933B95EFDD4046594639AAD14602F044
:1052F00007FC00287FF47FA83B9D3A9BE3E7109BC7
:10530000002212940024159223EAE3739DF80F21E2
:105310000A931894FFF714B912990C68043112918A
:10532000E517FFF7C1B8129900250C6804311291F6
:10533000FFF7B7BA089810F0400F00F01F811299DC
:105340000F9A0B68043112911A80FEF796BF1198DC
:1053500039AA0C9902F0D4FB00287FF44CA83B9D9D
:10536000534637E4B7F1FF3F00F06481169CA4F187
:10537000670EDEF1000343EB0E03472C08BF43F03A
:10538000010313B1002F08BF01271B9B1699002BA7
:105390000898A1F16604B9BF03F100494FF02D0B45
:1053A000DDF86C904FF0000BD4F1000C4CEB040CCA
:1053B00040F48070462908BF4CF0010C0890BCF105
:1053C000000F40F0B781A1F16500434243EB0003B9
:1053D000452908BF43F00103002B00F0EF8107F1DE
:1053E000010802231A9A42A9CDF82C9000930A9240
:1053F000DDE90A231198029141A9CDF818C0039163
:1054000040A9CDF80480049100F0D0FADDF818C06E
:1054100013901698B0F1670318BF012347280CBFFB
:10542000002303F001032BB9089911F0010F08BF05
:10543000409B16D0139A02EB0804BCF1000F05D074
:105440001378302B00F0DF81429BE4181A98002279
:1054500000234946FEF72EFA002800F081812346FA
:105460004094169C1398A4F167014A42C0EB0303D1
:1054700042EB01020E93472C14BF134642F0010386
:10548000002B00F05A81429B13F1030F109302DBB3
:105490009F4280F27881169902391691013B169C41
:1054A000002B42938DF8F840C0F2A4812B228DF896
:1054B000F920092B40F3858146F267640DF1F6006F
:1054C000C6F2666484FB0321DA170546C2EBA1022B
:1054D00002EB8201A3EB410113463031092A00F8A7
:1054E0000119EFDC30336A1E05F8013C0DF1F703BA
:1054F0009A4228BF0DF1FA0109D20DF1FA0312F810
:10550000011B03F8011B1946079C9442F7D83EABD8
:105510000E98CB1A0E9918181D930129109040F37C
:105520007F81109B0024189401331093BBF1000F6E
:1055300040F0F580109B9DF80F2123EAE373CDF82E
:1055400054B00A93FEF7FCBF12980025026804309D
:1055500012901446003A18BF0122FFF77AB9402191
:10556000119801F0EDF90C9908600861002800F02D
:105570007A810C9840234361FEF76DBE129C0F9810
:105580002368043412941860FEF777BE119839AA84
:105590000C9902F0B5FA00287EF42DAF3B9D0DF179
:1055A00084093A9CD346FFF7C2BA119839AA0C99DC
:1055B00002F0A6FA00287EF41EAF429ED1463B9D23
:1055C000002E7FF45BAE52E6A0461C460134C9F8BB
:1055D0000080072CC9F8046035443A943B95D8BF45
:1055E00009F108090ADD119839AA0C9902F088FA24
:1055F00000287EF400AF3B9DD1463A9C01340E9BBF
:10560000139A072C1D44C9F80430C9F800203A94B5
:105610003B957FF764A8FFF797BA119839AA0C99C0
:1056200002F06EFA00287EF4E6AE429ED1463B9D23
:105630003A9C34E60627A8E62D228DF80F21FFF7C5
:10564000CFB84B468CE5139800211591FEF77EFDEF
:10565000159B1294189320EAE07210900A929DF81C
:105660000F21FEF76DBF49F6583806F108033B9D40
:10567000C0F200083A9CFEF7AEBF119839AA0C9907
:1056800002F03EFA00287EF4B6AE3B9DD146FFF70D
:10569000CFBB119839AA0C9902F032FA00287EF497
:1056A000AAAE429A53463B9D62E5119839AA0C99DD
:1056B00002F026FA00287EF49EAE429A53460E98D7
:1056C0003B9D821A6BE5139B0BF1280BC3EB0B037D
:1056D0001093FEF72BBF119839AA0C9902F010FA1B
:1056E00000287EF488AE53463B9D39E5062F28BF3F
:1056F000062749F6B03027EAE771C0F200001A46E3
:1057000010970A911294159318931390FEF718BFEF
:1057100049F658383A9CC0F20008FFF71AB8109CB6
:105720002D2200208DF80F2124EAE47415900A94AC
:10573000FEF707BFB846032354E6169A662A60D1DF
:10574000429B002B109340F386801FB9089810F0FD
:10575000010F02D05A1CD219109218931695E5E643
:10576000409B9C427FF67DAE302203F8012BA34282
:105770004093FAD3234674E633463A9C0836DFF862
:10578000FC80FFF79FBA0E9A934222DB089C14F02C
:10579000010F34D0581C67251090DEE727EAE77226
:1057A00015900A9212949DF80F2110971890FEF709
:1057B000C7BE002747EAE777FEF7A4BDB846022335
:1057C00010E6303330223FA98DF8FA208DF8FB30F7
:1057D0009DE6002B0E99D4BFC3F10202012252189C
:1057E00067251092B9E703F108093A9CDFF88C802D
:1057F000FFF7CDBB2D225B428DF8F92059E66725D6
:10580000ABE7429B4AE61A98002200234946FEF77E
:1058100051F800287FF418AEC8F10103429313E653
:10582000089A12F0010308BF18933FF47FAE78E6A0
:1058300009F108033A9CDFF8448086E4129807686F
:105840000430002FBEBF4FF0FF3713781290BFF621
:1058500030A9FEF756BD1FB9089911F0010F0AD003
:105860000237109779E7119C4FF0FF320C230F920B
:105870002360FEF7C9BD012210926EE7689B00000D
:105880002DE9F04F83B0036981460D6901919D4276
:1058900000F38980EA1C01F1140400F11408013DB1
:1058A00092008B1882181F1D59685068013103F04F
:1058B000C7FA064600283CD00020424623468646CA
:1058C00053F804CB11681FFA8CFB4FEA1C4C1FFAEB
:1058D00081FA0BFB060BD6440CFB06F000EB1B40D9
:1058E0001FFA8BFBCBEB0E0A1FFA80FE000CCEEBEF
:1058F000114E9F420EEB2A4E1FFA8AFC4CEA0E41D3
:105900004FEA2E4E42F8041BDAD22A1D09EB82031D
:10591000596871B998450AD259F822203AB9043B1E
:1059200002E053F8042912B9013D9845F9D3C9F8AA
:1059300010504846019901F07DFD00282FDB01360B
:1059400043464FF0000C54F8040B19681FFA80FA14
:10595000000C8AB2C0EB1141CAEB0202A742944488
:1059600001EB2C421FFA8CFC4CEA02414FEA224C1C
:1059700043F8041BE7D22A1D09EB8203596871B969
:1059800098450AD259F822203AB9043B02E053F86C
:10599000042912B9013D9845F9D3C9F81050304691
:1059A00003B0BDE8F08F0020FAE700BF2DE9F04F0B
:1059B0009FB0456A0446904699462B9E002D00F004
:1059C0009D832B6853B16A680125194695409D60F7
:1059D0005A6001F0EFFA636A00221A60B9F100051B
:1059E000C0F2D2800023336000231A46C7F6F0735A
:1059F000C7F6F07205EA0303934200F0AE8000227E
:105A0000002340464946CDE904890126FDF752FFAF
:105A100080B916F0FF0F11D12A9F01232C983B600B
:105A2000002800F0EB807E4B2C99581E0B601FB0B5
:105A3000BDE8F08F002616F0FF0FEDD02046DDE91F
:105A400004231CA900911DA9019101F007FEC5F3D3
:105A50000A568246002E00F0AC80059FA6F57E76A1
:105A6000073E002027F07F431D9F23F4700317900B
:105A700043F07E5343F4E00305930023DDE9040182
:105A80000022C3F6F873FDF7F9FA5FA3D3E9002308
:105A9000FDF7A8FC5EA3D3E90023FDF7F1FACDE9F9
:105AA00004013046FDF738FC5BA3D3E90023FDF782
:105AB00099FC02460B46DDE90401FDF7E1FACDE968
:105AC000040103F0FBFA002200230546DDE904018E
:105AD000FDF7FAFE40B12846FDF71EFCDDE9042380
