:10000000C41B0020411F0000AD1F0000AD1F0000F9
:10001000AD1F0000AD1F0000AD1F0000000000007C
:100020000000000000000000000000005523000058
:10003000AD1F0000000000005924000095240000BE
:10004000AD1F0000AD1F0000AD1F0000AD1F000080
:10005000AD1F0000AD1F0000AD1F0000AD1F000070
:10006000AD1F0000AD1F0000AD1F0000AD1F000060
:10007000AD1F0000AD1F0000AD1F0000AD1F000050
:10008000AD1F0000AD1F0000AD1F0000AD1F000040
:10009000AD1F0000AD1F0000AD1F0000AD1F000030
:1000A000AD1F0000AD1F0000AD1F0000AD1F000020
:1000B000AD1F0000AD1F0000AD1F0000AD1F000010
:1000C000AD1F0000AD1F0000AD1F0000AD1F000000
:1000D000AD1F0000AD1F0000AD1F0000AD1F0000F0
:1000E000AD1F0000AD1F0000AD1F0000AD1F0000E0
:1000F000AD1F0000AD1F0000AD1F0000AD1F0000D0
:1001000080B58EB000AF78604FF000033B637B6832
:10011000FB6201F08DF90346BB604FF000037B6387
:1001200003E07B6B03F101037B637A6B43F67F6330
:100130009A42F6DD3B6B03F101033B6307F10C03CD
:10014000184648F6BC01C0F200013A6B02F0D8FB39
:1001500007F10C034FF001004FF006011A4602F0C0
:10016000C9F94FF0060002F0F1F907F1080318464B
:10017000F96A01F00FF8D0E780B584B000AF42F61D
:10018000D223C0F28E03BB6042F61003C0F280039C
:100190007B604FF46043C4F20F0342F61002C0F2DA
:1001A00080721A674FF46043C4F20F0343F6D12202
:1001B000C0F28E721A664FF46043C4F20F0342F627
:1001C000D222C0F28E021A664FF46043C4F20F03CB
:1001D00042F61002C0F280021A674FF00003FB6083
:1001E00003E0FB6803F10103FB60FA6840F2E733C8
:1001F0009A42F6D94FF46043C4F20F0342F6D2227A
:10020000C0F28E021A664FF46043C4F20F0342F646
:100210001002C0F280021A674FF00003FB6003E097
:10022000FB6803F10103FB60FA6840F2E7339A428E
:10023000F6D94FF46043C4F20F0342F6D222C0F263
:100240008E021A664FF46043C4F20F0342F6D222C4
:10025000C0F28E021A664FF46043C4F20F0342F6F6
:100260001002C0F280021A674FF00003FB6003E047
:10027000FB6803F10103FB60FA6842F20F739A42D4
:10028000F6D94FF46043C4F20F031B6EBB604FF40A
:100290006043C4F20F031B6F7B607B68002B56DA50
:1002A0007B6803F40063002B14D0BB684FEA931300
:1002B00003F00F027B684FEA131303F007031046A5
:1002C000194600F075F8024640F20003C2F200033E
:1002D0001A6008E040F20003C2F200034FF4424209
:1002E000C0F6EB321A60BB6803F48003002B5AD0CF
:1002F0007B6803F40063002B13D040F20003C2F2CA
:1003000000031A687B684FEAD35303F03F0303F1FD
:100310000103B2FBF3F240F20003C2F200031A60E1
:1003200041E040F20003C2F200031A687B684FEA22
:10033000D35303F03F0303F10103B2FBF3F34FEA9E
:10034000530240F20003C2F200031A602BE0BB68C4
:100350004FEA931303F00F02BB684FEA131303F045
:1003600003031046194600F023F8024640F200034A
:10037000C2F200031A60BB6803F48003002B12D0A2
:1003800040F20003C2F200031A68BB684FEAD3537D
:1003900003F00F0303F10103B2FBF3F240F2000399
:1003A000C2F200031A6007F11007BD4680BD00BF0E
:1003B00080B485B000AF786039604FF4D853C0F294
:1003C000B703FB603B68032B00F2988001A252F850
:1003D00023F000BFE5030000DB040000E704000099
:1003E000F30400007B680F2B00F2878001A252F813
:1003F00023F000BF35040000410400004904000060
:10040000550400005D040000690400007104000050
:100410007D040000850400008D04000099040000A4
:10042000A5040000B1040000BD040000C5040000E4
:10043000D104000044F24023C0F20F03FB604BE004
:100440004FF4E113FB6047E048F28043C0F21E0323
:10045000FB6041E04FF41613FB603DE049F6996301
:10046000C0F23603FB6037E04FF46113FB6033E00A
:100470004FF41063C0F23D03FB602DE04FF47A139C
:10048000FB6029E04FF49603FB6025E044F640331F
:10049000C0F24C03FB601FE04FF40053C0F24E0368
:1004A000FB6019E048F68053C0F25B03FB6013E089
:1004B0004FF44043C0F25D03FB600DE04FF4E103F5
:1004C000FB6009E04FF49053C0F27A03FB6003E055
:1004D0004FF4FA03FB6000BF10E04FF4D853C0F2B2
:1004E000B703FB600AE04CF2C063C0F22D03FB606F
:1004F00004E047F23053FB6000E000BFFB681846A1
:1005000007F11407BD4680BC704700BF80B58EB0B0
:1005100000AF78604FF000033B637B68FB6200F044
:1005200087FF0346BB604FF000037B6303E07B6BF8
:1005300003F101037B637A6B43F67F639A42F6DD36
:100540003B6B03F101033B6307F10C03184648F6CC
:10055000CC01C0F200013A6B02F0D2F907F10C03B2
:100560004FF001004FF008011A4601F0C3FF4FF0B1
:10057000080001F0EBFF07F108031846F96A00F0E4
:1005800009FED0E780B584B004AF4FF46E50C0F2DE
:10059000807000F079F801F0F7FF4FF001004FF0A4
:1005A000010148F6DC02C0F2000201F0A3FF4FF0A7
:1005B000010001F0CBFF48F6E803C0F200034FF062
:1005C000010200924FF0000201924FF000020292ED
:1005D0004FF00002039240F20D50C0F200001946A5
:1005E0004FF0C8024FF47A7300F0FEFC48F6F803AF
:1005F000C0F200034FF0020200924FF0000201929D
:100600004FF0000202924FF00002039240F20110FC
:10061000C0F2000019464FF0C8024FF4FA6300F030
:10062000E3FC00F00FFEFEE780B483B000AF78601B
:100630007B684FEA137248F62C13C0F2000353F89C
:1006400022301A467B684FEA137148F62C13C0F229
:10065000000353F8213019687B684FEA03434FEADF
:100660001343786800F4F8104FEA104003FA00F3DF
:1006700041EA0303136007F10C07BD4680BC7047D5
:100680000138FDD1704700BF80B586B000AF7860FB
:100690004FF46043C4F20F031B6803F0E043002BE8
:1006A0000DD04FF46043C4F20F031A684FF00003FB
:1006B000C7F2FF0302EA0303B3F1805F03D17B6853
:1006C000002BC0F223814EF26003C4F20F031B68BB
:1006D0003B614EF27003C4F20F031B68FB603B6981
:1006E00043F400633B613B6923F480033B61FB6897
:1006F00043F40063FB604EF26003C4F20F033A69F7
:100700001A604EF27003C4F20F03FA681A603B6974
:1007100003F00203002B04D07B6803F00203002BDC
:100720000AD03B6903F00103DBB2002B2FD07B68BA
:1007300003F00103002B2AD17B6863F003033A69BD
:1007400002EA03033B614EF26003C4F20F033A690D
:100750001A60FB68002B09DAFB6803F07003302B8A
:100760000CD0FB6803F07003702B07D0FB68002BE4
:1007700009DB3B6903F03003302B04D14FF4805088
:10078000FFF77EFF03E04FF40020FFF779FF3B699E
:1007900023F45E5323F070033B617A6843F2F073F5
:1007A00002EA03033A6942EA03033B61FA684DF641
:1007B0008F73C7F6FF7302EA0303FB607A6842F2A5
:1007C0003003C8F2000302EA0303FA6842EA0303B3
:1007D000FB607B6803F008034FEAC303FA6842EA50
:1007E0000303FB604EF25803C4F20F034FF04002C4
:1007F0001A60FB68002B0CDA4EF27003C4F20F0390
:10080000FA681A604EF26003C4F20F033A691A6084
:100810000BE04EF26003C4F20F033A691A604EF225
:100820007003C4F20F03FA681A604FF01000FFF76C
:1008300027FF3B6923F0F86323F003033B617A68E9
:100840004FF00303C0F2C07302EA03033A6942EABD
:1008500003033B61FB6823F0FC53FB607B6803F000
:10086000FC53FA6842EA0303FB607B6803F08043B1
:10087000002B13D03B6943F480033B61FB6823F4F6
:100880008003FB607A684FF00003C4F2400302EA81
:100890000303FA6842EA0303FB6003E0FB6823F00A
:1008A0008043FB607B6803F40063002B1DD14FF491
:1008B00000437B610CE04EF25003C4F20F031B684F
:1008C00003F04003002B07D17B6903F1FF337B6109
:1008D0007B69002BEFD100E000BF3B6923F400638C
:1008E0003B61FB6823F40063FB604EF26003C4F2DB
:1008F0000F033A691A604EF27003C4F20F03FA68EC
:100900001A604FF01000FFF7BBFE00E000BF07F1D8
:100910001807BD4680BD00BF80B485B000AF4EF261
:100920006003C4F20F031B68FB604EF27003C4F255
:100930000F031B687B607B68002B03DA7B6803F086
:10094000700302E0FB6803F03003202B7FD0202BE4
:1009500004D8002B0CD0102B17D0E6E0602B00F051
:10096000DC80702B00F0DD80302B00F0D280DCE0EA
:10097000FB6803F4F8634FEA931248F65013C0F291
:10098000000353F82230BB60D2E04FF46043C4F25E
:100990000F031B6803F0E043002B0DD04FF46043BE
:1009A000C4F20F031A684FF00003C7F2FF0302EA14
:1009B0000303B3F1805F05D14EF2C013C0F2E4032C
:1009C000BB6043E04FF46043C4F20F031A684FF07A
:1009D0000003C7F2FF0302EA03034FF00002C1F273
:1009E000010293420AD14FF46043C4F20F031B6823
:1009F0004FEA03434FEA1343022B1BD04FF46043EB
:100A0000C4F20F031A684FF00003C7F2FF0302EAB3
:100A100003034FF00002C1F20302934210D14FF4DE
:100A20006043C4F20F031B684FEA03434FEA1343CA
:100A3000002B05D14FF4D853C0F2B703BB6005E0DB
:100A40004FF41053C0F2F403BB6071E070E04FF458
:100A50006043C4F20F031B6803F0E043002B0DD08A
:100A60004FF46043C4F20F031A684FF00003C7F25B
:100A7000FF0302EA0303B3F1805F05D143F670037D
:100A8000C0F23903BB6043E04FF46043C4F20F038C
:100A90001A684FF00003C7F2FF0302EA03034FF0A6
:100AA0000002C1F2010293420AD14FF46043C4F242
:100AB0000F031B684FEA03434FEA1343022B1BD07B
:100AC0004FF46043C4F20F031A684FF00003C7F2FB
:100AD000FF0302EA03034FF00002C1F20302934254
:100AE00010D14FF46043C4F20F031B684FEA034375
:100AF0004FEA1343002B05D14CF2C063C0F22D0323
:100B0000BB6005E04FF41063C0F23D03BB600FE033
:100B10000EE047F23053BB600AE04FF48003BB6045
:100B200006E04FF40043BB6002E04FF00003AEE08C
:100B30007B68002B04DA7B6803F40063002B07D08A
:100B40007B68002B60DBFB6803F40063002B5BD148
:100B50004EF26403C4F20F031B683B604FF4604322
:100B6000C4F20F031B6803F0E043002B0DD04FF4D9
:100B70006043C4F20F031A684FF00003C7F2FF038B
:100B800002EA0303B3F1805F14D13A6843F6E073DD
:100B900002EA03034FEA531303F10203BA6802FBAC
:100BA00003F23B6803F01F0303F10203B2FBF3F30C
:100BB000BB6013E03A6843F6E07302EA03034FEACE
:100BC0005313BA6802FB03F23B6803F01F0303F1FF
:100BD00001034FEA4303B2FBF3F3BB603B6803F44A
:100BE0008043002B03D0BB684FEA5303BB603B68D4
:100BF00003F40043002B03D0BB684FEA9303BB60B0
:100C0000FB6843F48003FB60FB6803F48003002B64
:100C10003CD07B68002B2EDA7B6803F08043002BEE
:100C20001DD07B68002B04DA7B6803F40063002B83
:100C300007D07B68002B12DBFB6803F40063002BFA
:100C40000DD1BB684FEA43027B6803F0FE534FEAC5
:100C5000935303F10103B2FBF3F3BB6016E07B682F
:100C600003F0FC534FEAD35303F10103BA68B2FB1C
:100C7000F3F3BB600AE0FB6803F0F0634FEAD35381
:100C800003F10103BA68B2FBF3F3BB60BB6818461B
:100C900007F11407BD4680BC704700BF80B485B023
:100CA00000AFF8600B467A60FB72FB6803F5806367
:100CB0001A467B6803F00103DBB2002B07D0FB6808
:100CC00003F580631968FB7A41EA030308E0FB68D7
:100CD00003F580631968FB7A6FEA030301EA0303F3
:100CE0001360FB6803F584631A467B6803F0020314
:100CF000002B07D0FB6803F584631968FB7A41EA8F
:100D0000030308E0FB6803F584631968FB7A6FEA64
:100D1000030301EA0303136007F11407BD4680BC17
:100D2000704700BF80B485B000AFF8607A603B6068
:100D30000B46FB72FB6803F5A0631A467B6803F061
:100D40000103DBB2002B07D0FB6803F5A063196831
:100D5000FB7A41EA030308E0FB6803F5A063196826
:100D6000FB7A6FEA030301EA03031360FB6803F5F0
:100D7000A06303F104031A467B6803F00203002B0F
:100D800009D0FB6803F5A06303F104031968FB7A3B
:100D900041EA03030AE0FB6803F5A06303F10403DF
:100DA0001968FB7A6FEA030301EA03031360FB6827
:100DB00003F5A1631A467B6803F00403002B07D0F8
:100DC000FB6803F5A1631968FB7A41EA030308E0B5
:100DD000FB6803F5A1631968FB7A6FEA030301EA74
:100DE00003031360FB6803F5A3631A467B6803F0F3
:100DF0000803002B07D0FB6803F5A3631968FB7A8F
:100E000041EA030308E0FB6803F5A3631968FB7A72
:100E10006FEA030301EA03031360FB6803F5A063B1
:100E200003F10C031A463B6803F00103DBB2002B0D
:100E300009D0FB6803F5A06303F10C031968FB7A82
:100E400041EA03030AE0FB6803F5A06303F10C0326
:100E50001968FB7A6FEA030301EA03031360FB6876
:100E600003F5A2631A463B6803F00203002B07D088
:100E7000FB6803F5A2631968FB7A41EA030308E003
:100E8000FB6803F5A2631968FB7A6FEA030301EAC2
:100E900003031360FB6803F5A26303F104031A461E
:100EA0003B6803F00403002B09D0FB6803F5A26341
:100EB00003F104031968FB7A41EA03030AE0FB68C3
:100EC00003F5A26303F104031968FB7A6FEA0303D5
:100ED00001EA03031360FB6803F5A26303F10C034B
:100EE0001A463B6803F00803002B09D0FB6803F5A2
:100EF000A26303F10C031968FB7A41EA03030AE0D9
:100F0000FB6803F5A26303F10C031968FB7A6FEA2F
:100F1000030301EA03031360FB6803F5A5631A46A4
:100F20003B68002B07D1FB6803F5A5631968FB7AC2
:100F300041EA030308E0FB6803F5A5631968FB7A3F
:100F40006FEA030301EA0303136007F11407BD46C8
:100F500080BC704780B483B000AF786013460A4607
:100F6000FA70BB70FB784FEA83031A467B68D3188C
:100F7000BA781A6007F10C07BD4680BC704700BF05
:100F800080B582B000AF78600B46FB70FB78786864
:100F900019464FF00102FFF781FEFB787868194689
:100FA0004FF001024FF00803FFF7BCFE07F10807FE
:100FB000BD4680BD80B582B000AF78600B46FB7047
:100FC000FB78786819464FF00202FFF767FEFB785E
:100FD000786819464FF001024FF00803FFF7A2FEB0
:100FE00007F10807BD4680BD80B58AB002AFF86042
:100FF000B9603B601346FB80FB881846396B00F0F4
:1010000045FCB861BB69002B00F0A680BB691A6B78
:10101000FB8803F1FF334FEA8303D3187B617B69BD
:1010200023F007037B61FB880093B869B968BA6A4B
:101030007B6B00F05DFB7869F9683A6801F05AF95A
:1010400003461A46BB691A60FB6A002B02D0FB6A92
:10105000BA691A6001F0CEF940F24463C2F20003AB
:101060001B6803F1010240F24463C2F200031A60FC
:1010700040F29853C2F200031B68002B0FD140F2DC
:101080009853C2F20003BA691A6040F24463C2F294
:1010900000031B68012B18D100F066FB15E040F23D
:1010A0005463C2F200031B68002B0ED140F2985328
:1010B000C2F200031B68DA6ABB6A9A4205D840F2A2
:1010C0009853C2F20003BA691A60BB69DA6A40F247
:1010D0004C63C2F200031B689A4206D9BB69DA6A04
:1010E00040F24C63C2F200031A6040F26863C2F23D
:1010F00000031B6803F1010240F26863C2F20003BF
:101100001A60BB69DA6A40F25063C2F200031B68DE
:101110009A4206D9BB69DA6A40F25063C2F2000310
:101120001A60BB69DA6A13464FEA83039B184FEAD9
:1011300083031A4640F29C53C2F20003D218BB69E3
:1011400003F104031046194600F066FF4FF0010357
:10115000FB6101F065F902E04FF0FF33FB61FB69D1
:10116000012B11D140F25463C2F200031B68002B23
:101170000AD040F29853C2F200031B68DA6ABB6AD5
:101180009A4201D201F02AF9FB69184607F12007BB
:10119000BD4680BD80B586B000AF786039604FF045
:1011A00000037B6100F088F87B681A683B68D318FD
:1011B0003B617B681A6840F24863C2F200031B6817
:1011C0009A4210D97B681A683B699A421BD940F24F
:1011D0004863C2F200031B683A699A4213D94FF080
:1011E00001037B610FE07B681A683B699A4207D86C
:1011F00040F24863C2F200031B683A699A4202D97E
:101200004FF001037B617B683A691A607B69002BB0
:101210000CD040F29853C2F200031B6803F10403A0
:10122000184600F05FFF386900F0EAFA00F056F85F
:10123000F860FB68002B01D101F0D0F807F1180726
:10124000BD4680BD80B586B004AF48F6AC13C0F291
:1012500000034FF0000200924FF0000201924FF0A5
:10126000000202924FF00002039241F2E160C0F2EC
:10127000000019464FF064024FF00003FFF7B4FE80
:1012800078607B68012B13D14FF0A00080F31188A8
:1012900040F25463C2F200034FF001021A6040F2C0
:1012A0004863C2F200034FF000021A6001F06CF8CC
:1012B00007F10807BD4680BD80B400AF40F2586317
:1012C000C2F200031B6803F1010240F25863C2F24C
:1012D00000031A60BD4680BC704700BF90B583B064
:1012E00000AF4FF000037B6001F084F840F25863D8
:1012F000C2F200031B6803F1FF3240F25863C2F2EE
:1013000000031A6040F25863C2F200031B68002B0E
:1013100040F0868040F24463C2F200031B68002B59
:101320007ED04FF000033B603DE040F23063C2F2FC
:101330000003DB68DB681C4604F11803184600F064
:10134000D1FE04F10403184600F0CCFEE26A40F23C
:101350005063C2F200031B689A4205D9E26A40F268
:101360005063C2F200031A60E26A13464FEA830335
:101370009B184FEA83031A4640F29C53C2F20003C3
:10138000D21804F104031046194600F045FEE26A43
:1013900040F29853C2F200031B68DB6A9A4202D300
:1013A0004FF001033B6040F23063C2F200031B6860
:1013B000002BBAD140F25C63C2F200031B68002B21
:1013C00018D00DE000F048F840F25C63C2F2000370
:1013D0001B6803F1FF3240F25C63C2F200031A6043
:1013E00040F25C63C2F200031B68002BEAD14FF0AD
:1013F00001033B603B68012B06D040F26063C2F200
:1014000000031B68012B0BD14FF001037B6040F2FE
:101410006063C2F200034FF000021A6000F0DEFFCA
:1014200000F0FEFF7B68184607F10C07BD4690BD33
:1014300080B582B000AF00F0DDFF40F24863C2F239
:1014400000031B687B6000F0EBFF7B68184607F128
:101450000807BD4680BD00BF80B584B000AF40F234
:101460005863C2F200031B68002B40F0C08040F2BA
:101470004863C2F200031B6803F1010240F24863B3
:10148000C2F200031A6040F24863C2F200031B6814
:10149000002B40D140F22863C2F200031B68FB60BE
:1014A00040F22C63C2F200031A6840F22863C2F2D1
:1014B00000031A6040F22C63C2F20003FA681A605B
:1014C00040F26463C2F200031B6803F1010240F2C0
:1014D0006463C2F200031A6040F22863C2F20003A0
:1014E0001B681B68002B07D140F21003C2F20003F7
:1014F0004FF0FF321A600EE040F22863C2F20003A0
:101500001B68DB68DB68BB60BB685A6840F210038D
:10151000C2F200031A6040F24863C2F200031A6884
:1015200040F21003C2F200031B689A426BD340F2F0
:101530002863C2F200031B681B68002B07D140F22E
:101540001003C2F200034FF0FF321A605BE040F27A
:101550002863C2F200031B68DB68DB68BB60BB6802
:101560005B687B6040F24863C2F200031A687B68E4
:101570009A4206D240F21003C2F200037A681A605F
:1015800041E0BB6803F10403184600F0ABFDBB6803
:101590009B6A002B05D0BB6803F11803184600F0C6
:1015A000A1FDBB68DA6A40F25063C2F200031B6817
:1015B0009A4206D9BB68DA6A40F25063C2F200036D
:1015C0001A60BB68DA6A13464FEA83039B184FEA36
:1015D00083031A4640F29C53C2F20003D218BB6840
:1015E00003F104031046194600F016FD9FE740F290
:1015F0005C63C2F200031B6803F1010240F25C630A
:10160000C2F200031A6007F11007BD4680BD00BF9B
:1016100080B483B000AF40F25863C2F200031B688D
:10162000002B14D040F26063C2F200034FF00102BD
:101630001A604FE040F25063C2F200031B6803F1EE
:10164000FF3240F25063C2F200031A6000E000BFB4
:1016500040F25063C2F200031A6813464FEA830354
:101660009B184FEA83031A4640F29C53C2F20003D0
:10167000D3181B68002BDDD040F25063C2F2000388
:101680001A6813464FEA83039B184FEA83031A46EE
:1016900040F29C53C2F20003D3187B607B685B6806
:1016A0005B681A467B685A607B685A687B6803F1FE
:1016B00008039A4205D17B685B685B681A467B68C1
:1016C0005A607B685B68DB681A4640F29853C2F246
:1016D00000031A6007F10C07BD4680BC704700BFCD
:1016E00080B582B000AF786000F084F8FCE700BFFE
:1016F00080B584B000AFF860B9607A603B60FB6889
:1017000003F134031A46BB68104619464FF00C0229
:1017100001F04EF9FB684FF0000283F83F207B6830
:10172000042B02D94FF004037B60FB687A68DA620D
:10173000FB6803F10403184600F060FCFB6803F14A
:101740001803184600F05AFCFB68FA681A617B68B7
:10175000C3F10502FB689A61FB68FA685A6207F1F7
:101760001007BD4680BD00BF80B582B000AF4FF00E
:1017700000037B6013E07A6813464FEA83039B18EB
:101780004FEA83031A4640F29C53C2F20003D31877
:10179000184600F00FFC7B6803F101037B607B6857
:1017A000042BE8D940F20060C2F2000000F002FC15
:1017B00040F21460C2F2000000F0FCFB40F2306026
:1017C000C2F2000000F0F6FB40F22863C2F2000310
:1017D00040F20062C2F200021A6040F22C63C2F2D0
:1017E000000340F21462C2F200021A6007F1080717
:1017F000BD4680BD80B400AFBD4680BC704700BF11
:1018000080B582B000AF786040F29853C2F2000316
:101810001B687A685A6040F24863C2F200031B6892
:101820007A689A4210D240F22C63C2F200031A681E
:1018300040F29853C2F200031B6803F10403104600
:10184000194600F013FC1DE040F22863C2F20003C9
:101850001A6840F29853C2F200031B6803F10403B4
:101860001046194600F002FC40F21003C2F20003D9
:101870001B687A689A4205D240F21003C2F2000354
:101880007A681A6007F10807BD4680BD80B584B04C
:1018900000AF03463960FB804FF0400000F0B6FE19
:1018A0000346FB60FB68002B23D03B68002B07D16D
:1018B000FB884FEA8303184600F0A8FE034600E0C9
:1018C0003B68FA681363FB681B6B002B06D1F86852
:1018D00000F0E8FE4FF00003FB600AE0FB681A6BC3
:1018E000FB884FEA830310464FF0A5011A4600F02B
:1018F0008BFFFB68184607F11007BD4680BD00BF8F
:1019000080B582B000AF7860396040F26C63C2F29B
:10191000000303F0704240F26C63C2F2000323F054
:101920007F4323F470034FEA431342EA030343F077
:1019300000731B68002B5BD040F26C63C2F20003A3
:1019400003F0704240F26C63C2F2000323F07F4365
:1019500023F470034FEA431342EA030343F0007396
:1019600043F004031B68002B3ED000BF4FF400403F
:10197000C4F2000000F0A8FC0346002BF6D14FF49F
:101980008040C4F200004FF040014FF00002FFF72A
:10199000E1FA40F26C63C2F2000303F0704240F2DD
:1019A0006C63C2F2000323F07F4323F470034FEA19
:1019B000431342EA030343F0007343F004034FF080
:1019C00000021A6010E07B681B787A6802F101025D
:1019D0007A604FF40040C4F20000194600F05CFC4D
:1019E0003B6803F1FF333B603B68002BEBD100E029
:1019F00000BF07F10807BD4680BD00BF80B582B0BB
:101A000000AF7860396040F26C63C2F2000303F00B
:101A1000704240F26C63C2F2000323F07F4323F470
:101A200070034FEA431342EA030343F000731B6859
:101A3000002B5BD040F26C63C2F2000303F07042F3
:101A400040F26C63C2F2000323F07F4323F470037F
:101A50004FEA431342EA030343F0007343F00403E5
:101A60001B68002B3ED100BF4FF40040C4F20000C1
:101A700000F02AFC0346002BF6D14FF48040C4F25C
:101A800000004FF040014FF04002FFF763FA40F2D0
:101A90006C63C2F2000303F0704240F26C63C2F266
:101AA000000323F07F4323F470034FEA431342EA19
:101AB000030343F0007343F004034FF001021A6084
:101AC00010E07B681B787A6802F101027A604FF4BB
:101AD0000040C4F20000194600F0DEFB3B6803F151
:101AE000FF333B603B68002BEBD100E000BF07F108
:101AF0000807BD4680BD00BF80B582B000AF40F290
:101B00007063C2F200034FF000021A6040F270638B
:101B1000C2F2000303F104034FF000021A6048F61A
:101B2000F030C0F200004FF00301FFF7E9FE48F685
:101B3000F430C0F200004FF00301FFF7E1FE48F679
:101B4000B810C0F200004FF00201FFF7D9FE4FF0CD
:101B500000037B6016E04FF000033B600BE040F2B7
:101B60007060C2F200004FF00801FFF747FF3B68CA
:101B700003F110033B603B687F2BF0D97B6803F1D6
:101B800001037B607B685F2BE5D907F10807BD4641
:101B900080BD00BF80B588B000AFF860B9607A60E2
:101BA000FB7040F27063C2F200034FF015021A702E
:101BB000BB684FEA5303DAB240F27063C2F200032B
:101BC0005A7040F27063C2F200034FF03F029A7005
:101BD00040F27060C2F200004FF00301FFF790FE88
:101BE00040F27063C2F200034FF075021A707B6816
:101BF000DAB240F27063C2F200035A707B68DBB263
:101C000003F10703DAB240F27063C2F200039A7084
:101C100040F27060C2F200004FF00301FFF770FE67
:101C200048F6B410C0F200004FF00201FFF768FE62
:101C300094E0FB681B7803F07F03FB75FB6803F1FE
:101C40000103FB60FB7D1F2B03D84FF00003FB75E6
:101C500003E0FB7DA3F12003FB754FF00003FB6164
:101C600079E04FF00003BB615FE040F27063C2F2C5
:101C70000003BA699B184FF000021A70F97D48F60C
:101C8000BC12C0F200020B464FEA83035B18F969ED
:101C90005B18D3181B781A46BB6942FA03F303F0AA
:101CA0000103DBB2002B0AD0FB784FEA0313DAB250
:101CB00040F27063C2F20003B9695B181A70FB69E5
:101CC000032B2ED8F97DFB6903F1010048F6BC1205
:101CD000C0F200020B464FEA83035B181B18D318AF
:101CE0001B781A46BB6942FA03F303F00103DBB227
:101CF000002B16D040F27063C2F20003BA699B1841
:101D00001B78DAB2FB7803F00F03DBB242EA03037D
:101D1000DBB2DAB240F27063C2F20003B9695B1859
:101D20001A70BB6903F10103BB61BB69072B9CD926
:101D300040F27060C2F200004FF00801FFF75EFE53
:101D4000BB6803F10203BB60BB68802B0CD0FB694E
:101D500003F10203FB61FB69052B82D9FB681B7849
:101D6000002B7FF466AF00E000BF07F12007BD46FF
:101D700080BD00BF80B584B002AF78604FF40040F2
:101D8000C4F2000000F074FAFEF7C6FD03467A685C
:101D900000924FF0080201924FF40040C4F200009C
:101DA00019464FF003024FF0000300F0F3F94FF42F
:101DB0008040C4F200004FF00801FFF7FBF84FF439
:101DC0008040C4F200004FF008014FF004024FF0D1
:101DD0000A03FEF7A7FF4FF40040C4F2000000F032
:101DE00033FA40F26C63C2F2000303F0704240F237
:101DF0006C63C2F2000323F07F4323F470034FEAC5
:101E0000431342EA030343F000734FF001021A60E8
:101E100007F10807BD4680BD80B584B000AF78608B
:101E20004FF01000C1F20000FEF7FEFB4FF0010082
:101E3000C2F20000FEF7F8FB4FF00100C2F2000012
:101E4000FEF7F2FB4FF48040C4F200004FF02C018B
:101E5000FFF7B0F84FF48040C4F200004FF02C01BF
:101E60004FF004024FF00A03FEF75CFF4FF480408E
:101E7000C4F200004FF0C001FFF782F84FF4804039
:101E8000C4F200004FF0C0014FF004024FF008030D
:101E9000FEF748FF4FF48040C4F200004FF0C0014D
:101EA0004FF0C002FFF756F840F26C63C2F2000335
:101EB00003F0704240F26C63C2F2000323F07F43F0
:101EC00023F470034FEA431342EA030343F0007321
:101ED00043F004034FF001021A607868FFF74AFFED
:101EE000FFF70AFE4FF00003FB6021E0FB6803F1FF
:101EF000010248F69C33C0F20003D21848F69C3326
:101F0000C0F20003F9685B181B7803F1FF33104639
:101F10001946FFF7F5FC48F69C33C0F20003FA6857
:101F20009B181B781A46FB68D31803F10103FB606A
:101F3000FB684E2BDAD907F11007BD4680BD00BF04
:101F400080B582B000AF48F6D053C0F200037B608A
:101F500040F20003C2F200033B600BE07B681A68AA
:101F60003B681A603B6803F104033B607B6803F144
:101F700004037B603A6840F29853C2F200039A422D
:101F8000ECD3084808494FF000028842B8BF40F837
:101F9000042BFADBFEF7F0F8FEF7F4FA07F1080776
:101FA000BD4680BD98050020C817002080B400AF52
:101FB000FEE700BF80B483B000AF78607B6803F1B8
:101FC00008031A467B685A607B684FF0FF329A60BC
:101FD0007B6803F108031A467B68DA607B6803F1CB
:101FE00008031A467B681A617B684FF000021A608A
:101FF00007F10C07BD4680BC704700BF80B483B0BA
:1020000000AF78607B684FF000021A6107F10C079F
:10201000BD4680BC704700BF80B485B000AF78601B
:1020200039607B685B68FB60FB685B681A463B68ED
:102030005A607B685A683B689A60FB685B683A68DC
:102040009A603A68FB685A603A687B685A603B68F5
:102050007A681A617B681B6803F101027B681A6069
:1020600007F11407BD4680BC704700BF80B485B03F
:1020700000AF786039603B681B68BB60BB68B3F138
:10208000FF3F03D17B681B69FB600EE07B6803F1B7
:102090000803FB6002E0FB685B68FB60FB685B6851
:1020A0001B681A46BB689A42F5D9FB685B681A46FA
:1020B0003B685A603B685B683A689A603B68FA68BC
:1020C0009A603A68FB685A603B687A681A617B6874
:1020D0001B6803F101027B681A6007F11407BD4613
:1020E00080BC704780B485B000AF78607B685B6867
:1020F0007A6892689A607B689B687A6852685A60CE
:102100007B681B69FB60FB685A687B689A4203D155
:102110007B689A68FB685A607B684FF000021A611E
:10212000FB681B6803F1FF32FB681A6007F11407B4
:10213000BD4680BC704700BF80B485B000AF7860FA
:1021400040F27863C2F200031B68002B08D141F60D
:10215000C832C2F2000240F27863C2F200031A6091
:1021600040F27863C2F200031B68FB6040F27863C0
:10217000C2F200031A687B68D21840F27863C2F298
:1021800000031A60FB68184607F11407BD4680BCBF
:10219000704700BF80B48BB000AFF860B9607A6060
:1021A0003B603B68022B02D14FF0080301E04FF087
:1021B00000033B623B68002B02D14FF0000301E0BB
:1021C0004FF004033A6A42EA03033B62FB6803F1FF
:1021D00004033A6A1A60BA683B6BB2FBF3F3FB6123
:1021E0004FF000037B627B6A03F102037B62FA69B2
:1021F0007B6AB2FBF3F303F1FF33BB61BB69FF2BD7
:10220000F1D8FB6803F110037A6A1A607B684FEA21
:1022100083137B617B6803F030037B60BB694FEA0B
:1022200003227B691A437B681A437B6B03F1FF33FC
:1022300042EA03033B62FB683A6A1A6007F12C0723
:10224000BD4680BC704700BF80B483B000AF7860EB
:102250007B6803F104037A6802F10402126842F019
:1022600002021A6007F10C07BD4680BC704700BF30
:1022700080B483B000AF78607B6803F104037A68B0
:1022800002F10402126822F002021A6007F10C0740
:10229000BD4680BC704700BF80B483B000AF78609B
:1022A000396000BF7B6803F10C031B6803F0020375
:1022B000002BF7D07B6803F108033A681A6007F136
:1022C0000C07BD4680BC704780B483B000AF786017
:1022D0007B6803F10C031B6803F01003002B0CBF99
:1022E00000230123DBB2184607F10C07BD4680BC72
:1022F000704700BF80B485B000AFF860B9607A6005
:10230000FB68A3F10403FB60FB684FF080721A6066
:10231000FB68A3F10403FB60BA68FB681A60FB6802
:10232000A3F10403FB60FB684FF000021A60FB6836
:10233000A3F11403FB607A68FB681A60FB68A3F1E1
:102340002003FB60FB68184607F11407BD4680BCFC
:10235000704700BF064B19680868B0E8F00F80F3BB
:1023600009884FF0000080F311884EF00D0E704781
:102370009805002003480068006880F3088862B66A
:1023800000DF00BF08ED00E080B500AF4EF620533F
:10239000CEF200034EF62052CEF20002126842F452
:1023A00060021A604EF62053CEF200034EF6205221
:1023B000CEF20002126842F060421A6000F086F825
:1023C00040F21403C2F200034FF000021A60FFF75C
:1023D000D1FF4FF00003184680BD00BF80B400AFAE
:1023E0004EF60453CEF200034FF080521A60BD4601
:1023F00080BC704780B400AF4FF0A00080F311881C
:1024000040F21403C2F200031B6803F1010240F220
:102410001403C2F200031A60BD4680BC704700BFBF
:1024200080B400AF40F21403C2F200031B6803F152
:10243000FF3240F21403C2F200031A6040F21403A8
:10244000C2F200031B68002B03D14FF0000080F3A1
:102450001188BD4680BC7047EFF309800C4B1A68A9
:1024600020E9F00F10602DE908404FF0A00080F344
:102470001188FFF7CDF84FF0000080F31188BDE818
:10248000084019680868B0E8F00F80F309887047C1
:102490009805002080B582B000AF4EF60453CEF20E
:1024A00000034FF080521A604FF000037B604FF042
:1024B000A00080F31188FEF7CFFF4FF0000080F3FB
:1024C000118807F10807BD4680BD00BF80B400AF8A
:1024D0004EF21403CEF2000341F63F721A604EF240
:1024E0001003CEF200034FF007021A60BD4680BC15
:1024F000704700BF80B586B000AFF860B9607A6001
:10250000786800F025FA03467B61FB68C3F1150289
:102510007B699A4203DAFB68C3F115037B6141F2E0
:10252000BC63C2F20003BA684FF0160101FB02F16E
:10253000FA688A189A187B69104679681A4600F07A
:1025400037FA07F11807BD4680BD00BF80B582B0DD
:1025500000AF786041F2BC63C2F200037A684FF0CA
:10256000160101FB02F29A187B684FEAC30310467A
:102570004FF000011A464FF00F03FFF70BFB07F176
:102580000807BD4680BD00BF80B582B000AF44F2F1
:102590004020C0F20F00FFF73FFC4FF000037B60CC
:1025A0002CE04FF000033B6012E041F2BC63C2F24A
:1025B00000037A684FF0160101FB02F13A688A18AD
:1025C0009B184FF020021A703B6803F101033B6037
:1025D0003B68142BE9DD41F2BC63C2F200037A6868
:1025E0004FF0160101FB02F29B1803F115034FF0A7
:1025F00000021A707B6803F101037B607B680B2B80
:10260000CFDD07F10807BD4680BD00BF80B584B0AF
:1026100000AF78604FF00003FB607B6803F00703B6
:10262000002B05D07B6823F0070303F108037B60D0
:10263000FEF742FE41F28063C2F200031A687B6833
:10264000D21840F6FF739A4224D841F28063C2F256
:1026500000031A687B68D21841F28063C2F200035B
:102660001B689A4216D941F28063C2F200031A68CD
:1026700040F28063C2F20003D318FB6041F2806332
:10268000C2F200031A687B68D21841F28063C2F27A
:1026900000031A60FEF722FEFB68184607F11007D8
:1026A000BD4680BD80B483B000AF786007F10C07F1
:1026B000BD4680BC704700BF032A2DE9F00109D850
:1026C0002AB10023CC5CC45401339342FAD1BDE853
:1026D000F00170470B468218014603E0247801336D
:1026E00001F8014B11F0030F1C46F7D113F003055D
:1026F0005DD06E42C5F1040CED009B594FEACC0C45
:1027000008E00434A7593B4607FA0CF748EA0707E4
:1027100041F8047B571A23FA05F8032FF1DC03E094
:1027200014F8013B01F8013B8A42F9D8CFE753F88E
:10273000404C41F8404C53F83C4C41F83C4C53F869
:10274000384C41F8384C53F8344C41F8344C53F879
:10275000304C41F8304C53F82C4C41F82C4C53F889
:10276000284C41F8284C53F8244C41F8244C53F899
:10277000204C41F8204C53F81C4C41F81C4C53F8A9
:10278000184C41F8184C53F8144C41F8144C53F8B9
:10279000104C41F8104C53F80C4C41F80C4C53F8C9
:1027A000084C41F8084C53F8044C41F8044C561AB4
:1027B0001D460C46403340313F2EB8DC2B460FE01F
:1027C00053F8101C44F8101C53F80C1C44F80C1C53
:1027D00053F8081C44F8081C53F8041C44F8041C63
:1027E000161B1D4610330F2E214604F11004E7DCA2
:1027F0002B4602E0246841F8044B551A1C46032D71
:1028000003F10403F6DC8FE7032AC9B270B408D8D9
:102810002AB10346121803F8011B9342FBD170BC86
:1028200070478218044601E004F8011B14F0030FFE
:10283000FAD14FF0013303FB01F31FE044F8403CB1
:1028400044F83C3C44F8383C44F8343C44F8303CD0
:1028500044F82C3C44F8283C44F8243C44F8203C00
:1028600044F81C3C44F8183C44F8143C44F8103C30
:1028700044F80C3C44F8083C44F8043C161B25463C
:1028800040343F2EDADC2C4607E044F8103C44F894
:102890000C3C44F8083C44F8043C161B2546103414
:1028A0000F2EF2DC01E045F8043B541B032CFADC4C
:1028B00001E005F8011B9542FBD3B0E70CB44FF4DF
:1028C000027370B59CB020AC0E46ADF8103001A973
:1028D00054F8042B4FF0FF33ADF812306FF0004581
:1028E000234601960596039506951B9400F09EF8E5
:1028F000019B00221A701CB0BDE8704002B0704706
:102900000EB440F21803F0B59CB021ACC2F2000343
:10291000064601A954F8042B6FF0004518684FF4DF
:1029200002772346019605964FF0FF36ADF81070FA
:10293000ADF81260039506951B9400F077F8019BA3
:1029400000221A701CB0BDE8F04003B0704700BF11
:1029500020F0030110F00300C0F1000051F8043B27
:1029600000F1040C4FEACC0C6FF000021CBF22FAFD
:102970000CF213434FF0010C4CEA0C2C4CEA0C4CBB
:10298000A3EB0C0222EA030212EACC1204BF51F8B4
:10299000043B0430F4D013F0FF0F1FBF013013F4D9
:1029A0007F4F013013F47F0F18BF0130704700BF15
:1029B00041EA000313F0030F034670B414BF00256F
:1029C0000125032A94BF002505F001050C460646A3
:1029D000CDB9B2B10D783446531E04F8015B55B140
:1029E000B21C73B111F8015F1446013B02F8015C9F
:1029F0000132002DF5D123B10022013B04F8012B57
:102A0000FBD170BC7047214654F8045BA5F1013638
:102A100026EA050616F0803F05D1043A43F8045B28
:102A2000032A2146EFD81E46D3E700BF2DE9F04F19
:102A3000C5B0144612930C91119002F065FB00682A
:102A40001990FFF785FF1C900C98838913F0800F75
:102A500003D00369002B01F084810DF17C0A00236F
:102A600056460DF1F7010E9309941A931B93179391
:102A70001D930F930791CDF8E4A03B933A93099AE5
:102A80001378B3F1250218BF0122002B0CBF0023DD
:102A900002F00103002B00F0BD80099B5A1C174671
:102AA00001323B78191E18BF0121252B0CBF0023D2
:102AB00001F00103002BF2D1099CB7EB040810D000
:102AC0003A9C099801343B9D072CC6F8048030607D
:102AD00045443A943B9500F3818008360F99414470
:102AE0000F913B78002B00F081807C1C002200239A
:102AF0000D928DF80F31202509942B217B784FF012
:102B0000FF37089222460132A3F12000582800F234
:102B10001D83DFE810F02E031B031B0337031B0389
:102B20001B031B031B031B031B03C80381001B03A5
:102B30005D0085001B039F00A500A500A500A50062
:102B4000A500A500A500A500A5001B031B031B03F2
:102B50001B031B031B031B031B031B031B03B700EC
:102B600042021B0342021B031B031B031B038002C5
:102B70001B031B0386021B031B031B031B031B03FB
:102B8000A4021B031B03B3021B031B031B031B0336
:102B90001B031B031B031B031B031B0355033D03E9
:102BA0004202420242024F033D031B031B030C037C
:102BB0001B039B0369037F03DE021B03E4021B0369
:102BC000AC031B031B03D3030D9B12905B420D93BD
:102BD000089C44F004040894137894E7119839AAE7
:102BE0000C9903F091FB40B9564677E73B9B23B124
:102BF000119839AA0C9903F087FB0C990F9A8B89CD
:102C000013F0400F18BF4FF0FF320F920F9845B0EE
:102C1000BDE8F08F099F64E78DF80F11137872E714
:102C200012F8013B2A2B01F00B82A3F13000092896
:102C300001F2C1811446002714F8013B07EB870716
:102C400000EB4707A3F1300009282246F4D947EAF0
:102C5000E77759E7089B43F080030893137852E71E
:102C600014460020A3F1300814F8013B00EB80006B
:102C7000A3F1300C2246BCF1090F08EB4000F1D95A
:102C80000D9041E70992089A169342F010020892BB
:102C9000089B13F0200F00F08282129CE31D23F0AA
:102CA000070303F108001290D3E90045002C75F1E9
:102CB0000002C0F2CE8554EA05034FF001030CBFB9
:102CC00000220122002FA2BF089921F08001089163
:102CD000002F18BF42F00102002A00F0AD83012B43
:102CE00000F0FF84022B00F0DF840DF1BC0B0BF130
:102CF0002703EA084FEAD40848EA457804F00704B5
:102D0000114604F130020D46444654EA05009C4643
:102D10001A7003F1FF33ECD10899CDF84CC011F0D3
:102D2000010F40F088850BF1280BCCEB0B021092C1
:102D30009DF80F210020109C1597BC42B8BF3C465F
:102D400018900A9412B10A9801300A90089911F06B
:102D5000020B02D00A9B02330A93089C14F08404ED
:102D6000149440F0CD820D980A99471A002F40F331
:102D7000C782102F41F379803B9D48F6F8383A9C82
:102D8000C0F2000829464FF0100922460C9D444627
:102D9000DDF8448002E0103F102F1BDD013234606B
:102DA000C6F8049010310836072A3A9206F1080353
:102DB0003B91F0DD4046294639AA564603F0A4FA75
:102DC0000AF1080300287FF418AF103F3B99102F39
:102DD0003A9AE3DCA0460D4614460134C6F800805A
:102DE000072C77603D443A943B9500F37E829DF832
:102DF0000F211E466AB13A9C43AB03333360013462
:102E00000123072C73601D443A943B9500F3E9833A
:102E10000836BBF1000F0CD03A9C43AB3360022361
:102E200001347360072C1D443A943B9500F3CE8324
:102E30000836149A802A00F01083159910980F1AFA
:102E4000002F40F35B83102F40F3EC853A9C2A4619
:102E5000DFF8988A4FF0100B23460C9D4446DDF8AE
:102E6000448002E0103F102F1BDD01333460C6F8B0
:102E700004B010320836072B3A9306F108093B924A
:102E8000F0DD4046294639AA0AF1080903F03CFA68
:102E9000564600287FF4B1AE103F3B9A102F3A9B64
:102EA000E3DCA04615461C460134C6F80080072C1A
:102EB00077603D443A943B9500F37D83089A12F481
:102EC000807F40F04E823A9C109B01341398072C6F
:102ED0001D44C9F80430C9F800003B953A9400F34A
:102EE000358209F10809089C14F0040F46D00D98AA
:102EF0000A99461A002E41DD102E41F30B803A9CB0
:102F000048F6F838C0F2000810272346DDF830B044
:102F10004446DDF8448002E0103E102E19DD0133F6
:102F20001035072BC9F80040C9F8047009F10809E9
:102F30003A933B95F0DD4046594639AAD14603F015
:102F4000E3F900287FF459AE103E3B9D102E3A9BCA
:102F5000E5DCA0461C460134C9F80080072CC9F8FE
:102F6000046035443A943B9508DD119839AA0C99D0
:102F700003F0CAF900287FF440AE3B9D0F9A0A9CEB
:102F80000D9B9C42ACBF1219D2180F92002D40F03D
:102F90000383002056463A9071E508991D46099230
:102FA00011F0080F169300F08784129AD31D23F0B6
:102FB000070303F10804129418681A905B681B93C6
:102FC0001A981B9903F056F8012840F050841A987B
:102FD000002200231B9905F09FF8002840F02E875F
:102FE0009DF80F21032048F61C4348F618410A902B
:102FF0001698C0F20001C0F2000300244728D8BF91
:103000000B4608991393032321F08001159408912E
:103010001093189496E6089C44F0080408941378DA
:1030200071E50899099241F010010891089A1693E8
:1030300012F0200300F0DF80129BDA1D002322F043
:10304000070202F108041294D2E9004554EA05008F
:103050000CBF0022012200208DF80F0132E6089CEF
:10306000099244F0100408940898169310F0200F69
:1030700000F0048112990123CA1DE0E7099248F685
:103080002841089AC0F20001169312F0200F179100
:1030900000F02081129CE31D23F0070303F10800D8
:1030A0001290D3E9004554EA0502089B0CBF0022A8
:1030B0000122134200F069831698302308990122F7
:1030C0008DF80C31022341F002018DF80D010891B9
:1030D000C1E7089840F020000890137813E50992A2
:1030E0000021129A16938DF80F11141D1368139373
:1030F000002B00F0FD86002FC0F2A7861398002158
:103100003A4602F0DFFA002800F04A87139BC01A03
:103110001090B84240F3F584002027EAE77115903B
:103120000A919DF80F211294109718900AE61378CF
:103130006C2B0BBF089B089C43F0200344F0100449
:103140000ABF0893089412F8013FDCE40992169331
:10315000002B3FF44BAD002201218DF8BC302FAC89
:1031600000230A9110918DF80F3115921892139443
:10317000ECE59DF80F31002B40F09B838DF80F514B
:103180001378C0E4089840F0010008901378BAE47E
:103190001693089B099213F0200F7FF47EAD0899D7
:1031A00011F0100F00F0A483129A146804321292E6
:1031B000E5177BE5089840F0400008901378A2E4FA
:1031C00016930121129B0020099200221C1D0A91D6
:1031D0001B68129410912FA98DF80F011592189267
:1031E00013918DF8BC30B1E50992089A169312F04C
:1031F00020037FF421AF089911F0100200F09283B0
:10320000129C22680434002512941446003A18BF18
:10321000012220E7129B7821089C0025099248F69C
:103220003C401A6844F00204043308941293144694
:103230003023003A8DF80C3118BF0122C0F2000093
:103240008DF80D1117900223169104E70899099241
:1032500011F0200F00F05983129A0F9C12981168F8
:103260002246E31704301290C1E9002307E40898CE
:10327000099210F0200F16937FF4FCAE089911F01C
:10328000100F40F09182089810F0400F00F08C82EF
:103290001299012300250A88043112911446003A3C
:1032A00018BF0122D7E6129B129C1B68201D002B21
:1032B0000D93FFF689AC1378129024E4099248F636
:1032C0003C40089AC0F20000169312F0200F1790AD
:1032D0007FF4E0AE089911F0100F00F0FA82129A14
:1032E0000025146804321292DDE6119839AA0C996F
:1032F00003F00AF800287FF480AC9DF80F215646B1
:103300003B9D77E5089A12F0010F40F0FD803A9C52
:103310000135139A01230134C9F80430072CC9F888
:1033200000203B953A9400F3338509F1080B0BF12B
:1033300008091D9B0134072C1D44CBF804303EAB1B
:10334000CBF800303B953A947FF7CDAD119839AA70
:103350000C9902F0D9FF00287FF44FACD1463B9D79
:10336000C1E51699652940F3CB801A980022002305
:103370001B9904F0C7FE002800F03E813A9C48F6F5
:103380005843C0F20003C9F8003001340123072C70
:10339000C9F804301D443A943B95D8BF09F1080997
:1033A00000F34783429B0E9A934204DB089B13F081
:1033B000010F3FF498AD3A9C1C9801341999072CE1
:1033C0000544C9F80400D8BF09F10803C9F8001082
:1033D0003B953A9400F3BD830E9A561E002E40F39F
:1033E0001E83102E40F301863A9C1027DFF8FC84E0
:1033F0002246DDF830B04446DDF8448003E0103E5C
:10340000102E40F3C48101321C605F601035083318
:10341000072A3A9203F108093B95F0DD40465946E8
:1034200039AA0AF1080902F06FFF534600287FF419
:10343000E4AB3B9D3A9AE2E7002B40F0B780089C52
:1034400014F0010F00F02B81012030230DF1E30176
:1034500010908DF8E33013916AE40D9B0A9C1F1BBA
:10346000002F7FF7EAAC102F40F388853A9C334653
:10347000DFF878844FF010092246DDF830B044467A
:10348000DDF8448002E0103F102F1BDD01321C608C
:10349000C3F8049010350833072A3A9203F108065E
:1034A0003B95F0DD4046594639AA0AF1080602F07C
:1034B0002BFF534600287FF4A0AB103F3B9D102FFD
:1034C0003A9AE3DCA04614460134C3F80080072C86
:1034D0005F603D443A943B957FF7AFAC119839AAB1
:1034E0000C9902F011FF00287FF487AB159956461E
:1034F00010983B9D0F1A002F3FF7A5ACB146DDE4B5
:103500000E9901297FF7FEAE3A9C0135139B0134D9
:10351000C9F800300123072CC9F80430D8BF09F1DD
:1035200008093B953A94D8BF09F1080600F3418198
:1035300001341C991998072C0D44D8BF06F1080BCB
:10354000C9F80410C9F800003A943B9500F33F8194
:103550001A98002200231B9904F0D4FD002840F0A3
:10356000CE800E9B013413985A1E7260431C072CA8
:10357000336015443A943B957FF7D9AE119839AA38
:103580000C9902F0C1FE00287FF437AB0AF108095C
:10359000D3463B9D3A9CCCE6119839AA0C9902F08F
:1035A000B3FE00283FF4F5ACFFF727BB109239AA11
:1035B0001392FFF7BDBB119839AA0C9902F0A4FE33
:1035C00000287FF41AABD1463B9D77E4119839AAC5
:1035D0000C9902F099FE00287FF40FAB3B9D5646F4
:1035E00027E4119839AA0C9902F08EFE00287FF486
:1035F00004AB3B9D56460CE4429E002E40F32482D1
:103600000E9E189C1398A642A8BF26460E99002E1F
:1036100000EB010B0EDD3A9CAD19C9F80000013436
:10362000C9F80460072C3B953A94D8BF09F1080902
:1036300000F32584189A26EAE676961B002E40F3BE
:103640000284102E40F3F6843A9C2946DFF89C82CF
:10365000102722460C9D4446DDF8448003E0103ECE
:10366000102E40F3718101321031072AC9F8004051
:10367000C9F8047009F108093A9209F108033B916D
:10368000EDDD4046294639AAD14602F03DFE0AF159
:10369000080300287FF4B1AA3B993A9ADFE7109318
:1036A00039AB1393FFF744BB0DF1BC0B17990BF12A
:1036B000270004F00F02230943EA05734FEA151CA3
:1036C0008A5C1C460346654601381A7054EA0502B6
:1036D000EFD10BF1280B1393C3EB0B031093FFF700
:1036E00027BB0A2C75F100017FD2303401220DF185
:1036F000E30310928DF8E3401393FFF719BB0E9983
:103700004F1E002FDCBF06F10809B3467FF711AE4C
:10371000102FD8BFDFF8D4812CDDDFF8D08123460D
:103720002A464FF0100944460C9DDDF8448002E023
:10373000103F102F1BDD01333460C6F804901032A7
:103740000836072B3A9306F1080B3B92F0DD404612
:10375000294639AA0AF1080B02F0D6FD5646002880
:103760007FF44BAA103F3B9A102F3A9BE3DCA04614
:1037700015461C460134C6F80080072C77603D448E
:103780003A943B957FF7D3ADF8E6022363E4A04675
:1037900014460134C3F80080072C5E6035443A9427
:1037A0003B957FF7A0ABD1E5129B129C1A680123D1
:1037B00028E5119839AA0C9902F0A6FD00287FF49B
:1037C0001CAA3B9D0AF108063A9CD146B0E6119826
:1037D00039AA0C9902F098FD00287FF40EAA3B9DAF
:1037E0000AF1080B3A9C5646B2E60DF1BC0BB14605
:1037F0000BF12708204629460A22002304F0DCFCAE
:10380000464620462946002308F1FF3802F13004DD
:103810000A22347004F0D0FC04460D4654EA050038
:10382000E8D113960BF1280B13994E46C1EB0B010F
:103830001091FFF77DBA302A00F0478313930BF104
:10384000280B1398C3EB0B04302310940370FFF77D
:103850006FBA644265EB45052D2354EA05008DF8E7
:103860000F310CBF002201220123FFF72BBA1A9857
:103870001B9902F0FFFB002840F07681159048F676
:10388000244348F620421698C0F20002C0F200031A
:103890004728D8BF13461393159B032408990A940D
:1038A00021F080019DF80F21089110941893FFF7E3
:1038B00049BA1378FFF727B91299CB1D23F00703F4
:1038C00003F1080212921C681A945B681B93FFF7BD
:1038D00077BB089B13F0400F00F02781129800255A
:1038E000048804301290FFF7DEBB00BF088C000094
:1038F000089B13F0400F00F011811298B0F90040BE
:1039000004301290E517FFF7D1B9089911F0100FA4
:1039100000F01281129A0F9C1368043212921C60FC
:10392000FFF7ADB8089810F0400300F00F82129B2B
:103930000025129C19880434134612940A1E0C4662
:1039400018BF0122FFF787BBA0460D46144601347D
:10395000C9F80080072CC9F8046035443A943B95B7
:1039600000F3BB82429A0E9CA2424ADB089810F0F8
:10397000010F46D1139C189821180E9CC1EB0B0720
:10398000A21ABA42B8BF1746002F0ADD3A9CED19B9
:10399000196001345F60072C3B953A9400F38782ED
:1039A000083327EAE776961B002E38DD102E40F309
:1039B0001C833A9C1027DFF8C8862246DDF830B019
:1039C0004446DDF8448003E0103E102E7FF7DFAE62
:1039D00001321C605F6010350833072A3A9203F108
:1039E00008093B95F0DD4046594639AA0AF1080915
:1039F00002F08AFC534600287FF4FFA83B9D3A9AC8
:103A0000E2E73A9C1C9901341998072C0D4459603F
:103A100018603B953A9400F33E820833AAE7994632
:103A2000FFF761BA06F108093A9CDFF85486FFF700
:103A30003BBA119839AA0C9902F066FC00287FF471
:103A4000DCA83B9DD146ADE43A9C48F65843C0F211
:103A50000003C9F8003001340123072CC9F80430F1
:103A60001D443A943B95D8BF09F1080900F39F81A2
:103A700036B90E9B23B9089C14F0010F3FF433AA0A
:103A80003A9C1C9801341999072C0544C9F8040084
:103A9000C9F80010D8BF09F108093B953A9400F322
:103AA000BE817642002E40F3AB81102ED8BFDFF8E6
:103AB000D08540F38D81DFF8C88523461027DDF8D7
:103AC00030B04446DDF8448003E0103E102E40F351
:103AD0007D8101331035072BC9F80040C9F8047007
:103AE00009F108093A933B95EFDD4046594639AA5A
:103AF000D14602F009FC00287FF47FA83B9D3A9B49
:103B0000E3E7109B002212940024159223EAE3734A
:103B10009DF80F210A931894FFF714B912990C68B5
:103B200004311291E517FFF7C1B8129900250C680E
:103B300004311291FFF7B7BA089810F0400F00F067
:103B40001F8112990F9A0B68043112911A80FEF7A7
:103B500096BF119839AA0C9902F0D6FB00287FF481
:103B60004CA83B9D534637E4B7F1FF3F00F064811A
:103B7000169CA4F1670EDEF1000343EB0E03472C05
:103B800008BF43F0010313B1002F08BF01271B9B9F
:103B90001699002B0898A1F16604B9BF03F10049FA
:103BA0004FF02D0BDDF86C904FF0000BD4F1000CB2
:103BB0004CEB040C40F48070462908BF4CF0010C1B
:103BC0000890BCF1000F40F0B781A1F165004342BD
:103BD00043EB0003452908BF43F00103002B00F02D
:103BE000EF8107F1010802231A9A42A9CDF82C901F
:103BF00000930A92DDE90A231198029141A9CDF8B8
:103C000018C0039140A9CDF80480049100F0D2FAC5
:103C1000DDF818C013901698B0F1670318BF0123A0
:103C200047280CBF002303F001032BB9089911F0BA
:103C3000010F08BF409B16D0139A02EB0804BCF199
:103C4000000F05D01378302B00F0DF81429BE41881
:103C50001A9800220023494604F054FA002800F084
:103C6000818123464094169C1398A4F167014A422F
:103C7000C0EB030342EB01020E93472C14BF134623
:103C800042F00103002B00F05A81429B13F1030F15
:103C9000109302DB9F4280F27881169902391691C7
:103CA000013B169C002B42938DF8F840C0F2A48192
:103CB0002B228DF8F920092B40F3858146F26764A9
:103CC0000DF1F600C6F2666484FB0321DA1705469F
:103CD000C2EBA10202EB8201A3EB4101134630319A
:103CE000092A00F80119EFDC30336A1E05F8013C9F
:103CF0000DF1F7039A4228BF0DF1FA0109D20DF137
:103D0000FA0312F8011B03F8011B1946079C9442A1
:103D1000F7D83EAB0E98CB1A0E9918181D930129AF
:103D2000109040F37F81109B00241894013310936E
:103D3000BBF1000F40F0F580109B9DF80F2123EAA6
:103D4000E373CDF854B00A93FEF7FCBF1298002538
:103D50000268043012901446003A18BF0122FFF79F
:103D60007AB94021119801F0EFF90C9908600861C7
:103D7000002800F07A810C9840234361FEF76DBE65
:103D8000129C0F982368043412941860FEF777BED3
:103D9000119839AA0C9902F0B7FA00287EF42DAFD9
:103DA0003B9D0DF184093A9CD346FFF7C2BA1198A6
:103DB00039AA0C9902F0A8FA00287EF41EAF429EA0
:103DC000D1463B9D002E7FF45BAE52E6A0461C46DA
:103DD0000134C9F80080072CC9F8046035443A94CE
:103DE0003B95D8BF09F108090ADD119839AA0C9949
:103DF00002F08AFA00287EF400AF3B9DD1463A9C3F
:103E000001340E9B139A072C1D44C9F80430C9F8DD
:103E100000203A943B957FF764A8FFF797BA119872
:103E200039AA0C9902F070FA00287EF4E6AE429EA0
:103E3000D1463B9D3A9C34E60627A8E62D228DF814
:103E40000F21FFF7CFB84B468CE513980021159151
:103E5000FEF77EFD159B1294189320EAE0721090F5
:103E60000A929DF80F21FEF76DBF48F6F83806F16B
:103E700008033B9DC0F200083A9CFEF7AEBF1198C4
:103E800039AA0C9902F040FA00287EF4B6AE3B9DA8
:103E9000D146FFF7CFBB119839AA0C9902F034FA3A
:103EA00000287EF4AAAE429A53463B9D62E51198E3
:103EB00039AA0C9902F028FA00287EF49EAE429AA4
:103EC00053460E983B9D821A6BE5139B0BF1280B12
:103ED000C3EB0B031093FEF72BBF119839AA0C9973
:103EE00002F012FA00287EF488AE53463B9D39E575
:103EF000062F28BF062748F6504027EAE771C0F290
:103F000000001A4610970A91129415931893139073
:103F1000FEF718BF48F6F8383A9CC0F20008FFF7E1
:103F20001AB8109C2D2200208DF80F2124EAE47489
:103F300015900A94FEF707BFB846032354E6169A75
:103F4000662A60D1429B002B109340F386801FB9F4
:103F5000089810F0010F02D05A1CD2191092189331
:103F60001695E5E6409B9C427FF67DAE302203F835
:103F7000012BA3424093FAD3234674E633463A9C7E
:103F80000836DFF8FC80FFF79FBA0E9A934222DBD7
:103F9000089C14F0010F34D0581C67251090DEE700
:103FA00027EAE77215900A9212949DF80F21109754
:103FB0001890FEF7C7BE002747EAE777FEF7A4BDD3
:103FC000B846022310E6303330223FA98DF8FA209C
:103FD0008DF8FB309DE6002B0E99D4BFC3F1020291
:103FE0000122521867251092B9E703F108093A9C9B
:103FF000DFF88C80FFF7CDBB2D225B428DF8F920D6
:1040000059E66725ABE7429B4AE61A98002200234F
:10401000494604F077F800287FF418AEC8F1010390
:10402000429313E6089A12F0010308BF18933FF475
:104030007FAE78E609F108033A9CDFF8448086E415
:10404000129807680430002FBEBF4FF0FF37137877
:104050001290BFF630A9FEF756BD1FB9089911F0AE
:10406000010F0AD00237109779E7119C4FF0FF3209
:104070000C230F922360FEF7C9BD012210926EE758
:10408000088C0000000000002DE9F04F83B00369A8
:1040900081460D6901919D4200F38980EA1C01F17E
:1040A000140400F11408013D92008B1882181F1DA2
:1040B00059685068013103F0C7FA064600283CD021
:1040C000002042462346864653F804CB11681FFA67
:1040D0008CFB4FEA1C4C1FFA81FA0BFB060BD644F3
:1040E0000CFB06F000EB1B401FFA8BFBCBEB0E0A20
:1040F0001FFA80FE000CCEEB114E9F420EEB2A4EB3
:104100001FFA8AFC4CEA0E414FEA2E4E42F8041B7D
:10411000DAD22A1D09EB8203596871B998450AD28F
:1041200059F822203AB9043B02E053F8042912B9A5
:10413000013D9845F9D3C9F810504846019901F05E
:104140007DFD00282FDB013643464FF0000C54F86C
:10415000040B19681FFA80FA000C8AB2C0EB1141F7
:10416000CAEB0202A742944401EB2C421FFA8CFCDA
:104170004CEA02414FEA224C43F8041BE7D22A1DC5
:1041800009EB8203596871B998450AD259F822207F
:104190003AB9043B02E053F8042912B9013D9845AD
:1041A000F9D3C9F81050304603B0BDE8F08F0020B5
:1041B000FAE700BF2DE9F04F9FB0456A04469046EC
:1041C00099462B9E002D00F09D832B6853B16A68A1
:1041D0000125194695409D605A6001F0EFFA636A27
:1041E00000221A60B9F10005C0F2D28000233360CA
:1041F00000231A46C7F6F073C7F6F07205EA030308
:10420000934200F0AE800022002340464946CDE9AB
:104210000489012603F076FF80B916F0FF0F11D153
:104220002A9F01232C983B60002800F0EB807E4BF6
:104230002C99581E0B601FB0BDE8F08F002616F0B9
:10424000FF0FEDD02046DDE904231CA900911DA934
:10425000019101F007FEC5F30A568246002E00F0D8
:10426000AC80059FA6F57E76073E002027F07F43B1
:104270001D9F23F47003179043F07E5343F4E00333
:1042800005930023DDE904010022C3F6F87303F06F
:104290001DFB5FA3D3E9002303F0CCFC5EA3D3E9AD
:1042A000002303F015FBCDE90401304603F05CFC6C
:1042B0005BA3D3E9002303F0BDFC02460B46DDE916
:1042C000040103F005FBCDE9040103F04DFF0022DA
:1042D00000230546DDE9040103F01EFF40B1284636
:1042E00003F042FCDDE9042303F00CFF00B9013DBB
:1042F000162D00F2628248F690414246C0F200015B
:104300004B4601EBC501D1E9000103F023FF002872
:1043100000F00E83013D00201690013FBE1B00F10E
:10432000028300270E961297002DC0F2F4820E9899
:104330004FF0000B159540190E90289B092B75D84E
:10434000052B40F39B860027043B28932898831E67
:10435000032B00F21384DFE813F00B04FA03DB03F2
:104360000E042A9842F20F73036048F66840C0F2C8
:104370000000B8F1000F11D02C9900293FF45BAF79
:10438000C278C31C0AB100F108032C9A136052E7EB
:1043900025F000450123A946336029E748F65C4231
:1043A00048F66843C5F31300C0F20002C0F20003F0
:1043B00000280CBF10461846DEE71D9F1C9BFB180B
:1043C00003F586639E1C202EDCBFC6F1200008FA90
:1043D00000F007DDC6F140001E3B854028FA03F3DC
:1043E00045EA03000121179103F0AEFBA6F58666AE
:1043F000033E0B460246CDE90423059BA3F1F87367
:1044000005933EE748F65840C0F2000013E700BFAE
:1044100061436F63A787D23FB3C8608B288AC63FCA
:10442000FB799F501344D33F598C000000204FF07C
:10443000FF31074601222890139114920D91299083
:10444000666A002373602046716801F083F9636A2D
:1044500030601B680F93002F00F0EB80002D40466A
:104460004946CDE90A89CDE9040140F3318448F693
:10447000904305F00F02C0F200032E1103EBC203BC
:1044800016F0100F08BF4FF00208D3E90001CDE984
:10449000100140F05082BEB148F65857DDE91023B4
:1044A000C0F2000716F0010F1046194607D0D7E9F1
:1044B000002308F1010803F0BDFB02460B46083754
:1044C0007610EFD1CDE91023DDE90A01DDE91023F3
:1044D00003F0DAFCCDE90A01169900293DD000234A
:1044E000DDE90A010022C3F6F073012603F014FE91
:1044F000002800F00B830D9A002AD4BF002606F096
:10450000010656B3139B002B40F38F80002300223B
:10451000C4F22403DDE90A0103F08CFB6F1E199736
:10452000CDE90A0108F1010003F01EFB02460B462B
:10453000DDE90A0103F07EFB00230022C4F21C0324
:1045400003F0C6F9DDF84C900B460246CDE9102386
:10455000119BA3F1507311933CE2404603F004FB1E
:10456000DDE90A2303F066FB00230022C4F21C03EA
:1045700003F0AEF902460B46CDE91023119B0D98CE
:10458000A3F150761196002840F0218200230022EA
:10459000C4F21403DDE90A0103F098F9109F3346D1
:1045A0003A468046894603F0D5FD002840F00A824D
:1045B0001098494606F100430246404603F0ACFD20
:1045C000002832D0DDF834B0CDF828B0299A002781
:1045D0000F9ED5432046594601F0F0F80A9A72B171
:1045E0003B1E18BF012397420CBF002303F00103B9
:1045F000002B40F0568320460A9901F0DFF8204650
:10460000514601F0DBF80023337001352A9B2C9FC3
:104610001D60002F00F013843E600F980BE6DDF85C
:1046200068B01B9DDDF860A00A9CDDE9042390467C
:1046300099461C9BDF43FF0F0E2DCCBF002707F0D0
:104640000107002F00F0BC80299848F69043C0F283
:1046500000030D9903EBC503C70F0029CCBF00274A
:1046600007F00107D3E90001CDE90601002F40F072
:10467000968102460B464046494603F005FC0F9ED4
:1046800003F072FD834603F06FFADDE9062303F0C1
:10469000D1FA02460B464046494603F017F90BF1A2
:1046A0003003CDE9040106F8013B0D9A012A53D0ED
:1046B00000230022C4F224034FF0010803F0BAFAE9
:1046C00000220023CDE9040103F01CFD00B1B8462F
:1046D00018F0FF0F93D0DDF834903746CDF834A0B2
:1046E0004FF001080995A2460DE003F0A3FA00225D
:1046F0000023CDE9040103F005FD00B1002414F00E
:10470000FF0F00F00D84DDE9062308F10108DDE963
:104710000401012403F0B8FB03F026FD834603F0F7
:1047200023FADDE906230BF1300503F083FA024694
:104730000B46DDE9040103F0C9F800230022C1455E
:10474000C4F22403CDE9040107F8015B3E46CCD155
:104750005446099DDDF834A0DDE9040102460B460C
:1047600003F0B6F8804689464246DDE906014B462D
:1047700003F0D2FC60B9DDE9060142464B4603F086
:10478000C1FC00283FF43BAF1BF0010F3FF437AFF3
:1047900019950F98334613F8011C5A1E1E461346EE
:1047A000392940F0DF839842F5D10F983023199FC3
:1047B00003707D1C3123137021E701211691ACE5B4
:1047C0001499002940F0C880149B5F46129E0A93FA
:1047D000002E0E98D4BF002301230028D4BF00234D
:1047E00003F001034BB103461299B342A8BF33460D
:1047F000F61AC91AC01A12910E90BBF1000F1CDDF7
:10480000149A002A00F09283002F12DD0A993A468A
:10481000204601F06BF952460A9020460A9901F0B1
:10482000D1F8514603462046039300F0C7FF039B8F
:104830009A46BBEB070240F080830121204601F03D
:10484000B7F8159B002B834605DD594620461A46CE
:1048500001F04CF98346289F012F40F398810027EF
:10486000159A002A40F0EE8201230E981B1813F0CF
:104870001F0300F01B82C3F12003042B40F3F283DB
:10488000043B1299F618C018C9180E90129112998B
:10489000002905DD51462046129A01F079F9824639
:1048A0000E9A002A04DD5946204601F071F983462C
:1048B000169B002B40F0D08228980D990228D4BF77
:1048C000002301230029CCBF002303F00103002BA8
:1048D00000F0778100297FF479AE594605220D9BBF
:1048E000204600F087FF83465046594601F0A6F95E
:1048F00000287FF76BAE0F9E31230135002706F8A5
:10490000013B67E6102000F00FFC606245608560A7
:104910000560C56066E412990022C5F1000B15928E
:10492000491B129109E57642002312960E93FBE48F
:1049300000221692F1E448F658534046C0F20003B4
:10494000494606F00F064FF00308D3E9082303F0A9
:104950009BFACDE90A019EE5289A012A40F3F382E9
:104960000D980D9A431E9B45B7BFCBEB0303C3EBDA
:104970000B0715999B44BCBFC9181591002AC0F2BA
:10498000FB82129E0D9B129A20460121D218129290
:104990000E9AD2180E9201F00BF80A9018E70D9BB0
:1049A000002B40F0D98200230022C4F21403DDE979
:1049B000060103F03FF942464B4603F0C1FB0028D5
:1049C0007FF400AEDDF834B0CDF828B093E7DDF821
:1049D000349019951499002900F0AD8148F6904360
:1049E0000021C0F20003002003EBC903C3F6E0710D
:1049F0000F9E53E9022303F047FADDE9102302F08A
:104A000065FFCDE91001DDE90A0103F0ADFB0746C2
:104A100003F0AAF802460B46DDE90A0102F056FF50
:104A200007F13003CDE90A01DDE9100106F8013B89
:104A3000DDE90A2303F08EFB002840F0FD81002110
:104A4000DDE90A230020C3F6F07102F03FFF0246C1
:104A50000B46DDE9100103F07DFB00287FF499AEE1
:104A6000B9F1010F7FF7E1ADCDF868B037461B957E
:104A70004FF00108CDF860A0DDE90AAB0A94DDE94A
:104A800010450FE000210020C3F6F07102F01EFF78
:104A900022462B4603F040FB002840F06982C845BF
:104AA000BFF6BDAD00230022C4F2240320462946F0
:104AB00008F1010803F0BEF800230022C4F2240329
:104AC00004460D465046594603F0B4F88B468246DC
:104AD00003F04AFB064603F047F8303602460B4621
:104AE0005046594602F0F2FE22462B4607F8016B6B
:104AF0003E4682468B4603F00FFB52465B4600283B
:104B0000C0D0DDF860A00A9C199D78E50026F2E48B
:104B10000123149329990029C2BF084613910D90CF
:104B200040F3B081666A00221728726040F29E82CC
:104B300004235B00013203F114018142F9D90D9B7A
:104B400072600E2B8CBF002707F001077BE4002367
:104B5000149329982818139001300028C8BF0D908D
:104B6000E0DC0E288CBF002707F001070D9067E4FA
:104B700000201490CEE701221492EAE74FF0FF33B1
:104B800000270120139314900D93299758E4B8F14E
:104B9000000F7FF464AEC9F313034746002B7FF484
:104BA0005FAEC7F6F07309EA03031F46002B3FF41C
:104BB00057AE129801270E990130129001310E91D3
:104BC0004EE6149B002B00F06381002E05DD20468D
:104BD0000A99324600F0DCFF0A90002F40F0F08185
:104BE0000A9804900F9E08F001010A9F0E910A9501
:104BF00059465046FFF748FA39464FF00109303020
:104C00000990504601F01AF85946049A0546204684
:104C100001F032F8C3688046002B3CD02046414664
:104C200000F0CCFD289A59EA020203D10E9B002B1A
:104C300000F0F881002DC0F2A381289B2B4303D103
:104C40000E98002800F09C81B9F1000F00F3D78185
:104C5000099A06F8012BB0460F980D99331A8B422A
:104C600000F0C9810A2251460023204600F0C2FD0F
:104C7000049A9742824622D039460A2200232046CF
:104C800000F0B8FD04990A2200230746204600F0F0
:104C9000B1FD0490ACE75046414600F0CFFF81469D
:104CA000BCE72046394600F089FDA4E41C23129A93
:104CB000F6180E98D2181292C0180E90E7E53946F1
:104CC00020460A22002300F095FD074604908FE756
:104CD0006E42002E00F0208106F00F0348F690424D
:104CE000C0F20002DDE90A0102EBC303D3E90023AD
:104CF00002F0A0FF3611CDE90A0100F00D8148F65F
:104D000058574FF00208C0F2000702460B4616F053
:104D1000010F1046194607D0D7E9002308F1010812
:104D200002F088FF02460B4608377610EFD1CDE936
:104D30000A23FFF7D1BB09F1FF321892189F48F6FA
:104D40009041C0F20001DDE910230F9E01EBC70185
:104D5000D1E9000102F06EFFCDE91001DDE90A01A1
:104D600003F002FA074602F0FFFE0B460246DDE9B9
:104D70000A0102F0ABFDB9F1010F07F13003CDE9F3
:104D80000A0106F8013B2ED00F98CDF868B0D34643
:104D9000431E07469944DDE90A011B95B2464D467C
:104DA000264600230022C4F2240302F043FF894672
:104DB000804603F0D9F9044602F0D6FE30340246AC
:104DC0000B464046494602F081FD07F8014FAF42CD
:104DD000E7D1CDE90A013446189956461B9DDA46BB
:104DE000DDF868B0761800230022C3F6E073DDE931
:104DF000100102F06DFD02460B46DDE90A0103F0E9
:104E0000A9F900287FF4C5AC0021DDE910230020BA
:104E1000C3F6E07102F05AFD02460B46DDE90A01D5
:104E200003F07AF900283FF400AC33461E46013BFC
:104E300016F8012C302AF9D0199DFFF7E0BB0F9826
:104E4000FFF7F9B9DBF810300BEB8303186900F0BA
:104E50005DFDC0F1200308E55046594600F0EEFE26
:104E60000028BFF629AD514620460A22002300F053
:104E7000C1FC013D82461498002840F0E980139A55
:104E80000D9219E5012213920D922992FFF7D8BADB
:104E90000F9E0127DDF83490049502E000F0AAFC93
:104EA000824659465046FFF7EFF80A2200234F4545
:104EB000514607F1010700F13005204606F8015B75
:104EC000B046EBDB09950027049D514601222046A0
:104ED00000F05EFE5946824600F0B0FE00280FDD6D
:104EE0000F9A464608F1FF3816F8013C392B62D17B
:104EF0004245F6D10F99312301350B70FFF76ABB9C
:104F000003D1099810F0010FEAD1464618F8013D87
:104F1000302BFAD0FFF75EBB4FF00208FFF7DCBA88
:104F20005446099DDDF834A0FFF769BB5146204681
:104F30005A4600F0DBFD82467FE45146204600F0F1
:104F4000D5FD824679E4179F002F4ED003F5866386
:104F50005F460333129E16E54FF0000BCDF828B0E4
:104F6000FFF734BB4B1C199DDBB21370FFF747BB37
:104F7000DDF860A00A9C0CE4129B9E1A002302E557
:104F8000B9F1000F0A9D0FDD51460122204600F0C5
:104F9000FFFD5946824600F051FE002852DD099A75
:104FA000392A38D001320992049B09980A9306F8ED
:104FB000010BFFF70FBB013388F80030FFF70ABB86
:104FC0000A9F2046796800F0C5FB3A6907F10C0199
:104FD0000232920006460C30FDF76EFB2046314649
:104FE000012200F0D5FD0490FCE51D9B5F46129E5A
:104FF000C3F13603C7E4049B0A9D0A9365E7099948
:105000000A9D392907D0049909980A91431C06F88A
:10501000013BFFF7DFBA049AB04639230A9208F839
:10502000013B5DE709982B460A9D3928F3D0002BF8
:1050300001DD013009900499099A0A9106F8012BC3
:10504000FFF7C8BAB0D1099911F0010FACD0A6E7AB
:105050000A9920460A22002300F0CCFB13990D91F7
:105060000A9029E43FF413AC1C3320E60D990E2975
:105070008CBF002707F00107FFF7E5B90127FFF70D
:1050800065B900BFAFF3008010B514463AB148F6D9
:1050900070411046C0F2000101F048F820B948F60E
:1050A0006C40C0F2000010BD48F66C412046C0F2D2
:1050B000000101F03BF820B948F66C40C0F2000056
:1050C00010BD48F638412046C0F2000101F02EF82C
:1050D00048F66C43C0F2000300280CBF18460020BD
:1050E00010BD00BF40F20C10C2F20000704700BFBC
:1050F00040F20C13C2F20003186A70470048704770
:105100003001002000207047004870475001002007
:1051100040F218030A46C2F2000301461868B3E7DA
:10512000004870475001002040F218030146C2F2C7
:105130000003186800F008B840F218030146C2F2F4
:105140000003186801F054BF2DE9F04F01F10B0482
:10515000162C83B0064631D924F00704E30F8C42A5
:105160002CBF194643F00101002930D1304600F030
:10517000EDFAB4F5FC7F2FD24FEAD40C40F288153B
:10518000C2F2000505EBCC022F46D368934200F033
:105190002D825C6803F10808DA68304624F00304C5
:1051A00099681B195C68CA6044F0010491605C60F6
:1051B00000F0CEFA404603B0BDE8F08F0023102483
:1051C0008C422CBF194643F001010029CED00C239C
:1051D0004FF000083360EDE75FEA542C04BF4FEA5C
:1051E000D40C4FEACC0040F0868040F28815C2F221
:1051F000000528182F46C368984206D10DE0002903
:1052000080F27981DB68984207D05A6822F0030265
:10521000111B0F29F3DD0CF1FF3C0CF1010CBD4A11
:1052200093689A4208BF786824D0586820F0030039
:10523000011B0F2900F3C0810029D260926080F227
:105240009480B0F5007F80F07781C0084FF0010EA8
:10525000D7F8048007EBC00180100EFA00F0D96087
:10526000D1F808E040EA08007860C3F808E0CEF81A
:105270000C308B604FF0010E4FEAAC030EFA03FEC8
:1052800086457DD810EA0E0F08D12CF0030C4FEAAA
:105290004E0E0CF1040C10EA0E0FF8D007EBCC0AFE
:1052A000E146D046D8F80C00804507D196E1002BA6
:1052B00080F2A681C068804500F09081416821F0AD
:1052C00003010B1B0F2BF2DD8046C568011944F06A
:1052D000010E58F8087F43F00104C0F804E030469E
:1052E0004C60FD60AF60D1609160CA608A60CB5055
:1052F00000F02EFA5EE7BCF1040F9EBF4FEA941C4B
:105300000CF1380C4FEACC007FF66FAFBCF1140FF4
:105310009CBF0CF15B0C4FEACC007FF666AFBCF192
:10532000540F9EBF4FEA143C0CF16E0C4FEACC00B8
:105330007FF65BAFBCF5AA7F9EBF4FEAD43C0CF171
:10534000770C4FEACC007FF650AF40F254539C45A7
:1053500095BF4FEA944C4FF47C700CF17C0C4FF0ED
:105360007E0C98BF4FEACC003FE71A1803F10808FB
:105370003046536843F00103536000F0E9F919E740
:10538000D7F80880D8F8043023F003094C45C4EB63
:10539000090294BF002301230F2AD8BF43F0010361
:1053A000002B00F0B98041F2886AD5F80834C2F2C7
:1053B000000A3046B3F1FF3FDAF8002002F1100B8B
:1053C000A3441FBF0BF57E6B0BF11F0B2BF47E6B01
:1053D0002BF01F0B594600F095FEB0F1FF3F03463E
:1053E00000F0188108EB0901814200F21081DAF81F
:1053F000042081425A44CAF8042000F03E81D5F8C6
:1054000008E440F28815C2F20005BEF1FF3F17BF65
:105410008218C5F80804C1EB0201CAF8041010F0A4
:10542000070517BFC5F108054FF48055431905F569
:10543000805503EB0B02304601931205120DAD1A95
:10544000294600F05FFE019BB0F1FF3F00F02C8188
:10545000C11A491941F00101DAF80420B84541F2B6
:10546000886BBB602A44C2F2000B5960CAF8042062
:1054700017D0B9F10F0F40F2E180A9F10C03D8F871
:10548000045023F00703052008EB03010F2B05F060
:10549000010543EA0505C8F804504860886000F239
:1054A000FB80DAF82C1041F28863C2F200038A42D2
:1054B000DAF8301088BFDA6241F288638A42C2F2B9
:1054C000000340F2A780D7F808801A63D8F80430A8
:1054D00023F003039C42C4EB030294BF0023012387
:1054E0000F2AD8BF43F00103B3B130464FF0000894
:1054F00000F02EF95EE69A18D9689C6803F1080856
:105500005568304645F00103E1608C60536000F05F
:105510001FF94FE69001002008EB040342F001025E
:1055200044F001043046C8F8044008F108085A6005
:10553000BB6000F00DF93DE6410A04299CBF4FEA2B
:10554000901E0EF1380E1DD9142998BF01F15B0E83
:1055500018D954299CBF4FEA103E0EF16E0E11D996
:10556000B1F5AA7F9CBF4FEAD03E0EF1770E09D964
:1055700040F2545E714596BF4FEA904E4FF07E0E5A
:105580000EF17C0E07EBCE08D8F80810414503D188
:1055900047E08968884505D0D1F804E02EF0030E75
:1055A0007045F6D3D1F80CE0C3F80CE09960786848
:1055B000CB60CEF808305DE61D1941F00107D560DB
:1055C00044F00104956030465C6003F10808EA602D
:1055D000AA606F60695000F0BBF8EBE509F10109C2
:1055E00019F0030F2FD008F108085BE603F1080259
:1055F0005B699A4208BF0CF1020C3FF410AEC8E59B
:1056000080464318C268304658F8081FCAE5B845B6
:105610003FF4EDAED7F80880D8F8043023F0030348
:1056200058E74FF00109D7F804804FEAAE008E46E4
:1056300009FA00F048EA00007860B5E798460122D0
:105640005A60002346E751461CF0030F0B460CF14D
:10565000FF3C2CD053F808199942F5D07B684FEAEB
:105660004E0E9E453FF68CAEBEF1000F3FF488AE65
:105670001EEA030F20D0CC4610E64FEA015E4FEA47
:105680001E5EBEF1000F7FF4BAAEBB680BEB0901E2
:1056900041F00101596004E7304608F1080101F0CA
:1056A000A7FCDBF80420FCE601210025D4E67B689A
:1056B00023EA0E037B60D1E74FEA4E0E09F104099D
:1056C000D6E700BF10F0030F034670B4C9B210D084
:1056D00002B303788B421ED0013A013005E0CAB113
:1056E00010F8014B013A8C4217D010F0030F03461B
:1056F000F5D1032A13D86AB1187888420DD0013A3F
:105700005C1C04E014F8015B013A8D4203D0204692
:10571000002AF7D1104670BC70471846FBE741EAF3
:10572000012646EA0646184653F8044B86EA040466
:10573000A4F1013525EA040414F0803F03D1043AB2
:105740001846032AEFD80346D5E700BF704700BFCD
:10575000704700BF70B50646446A0D465CB1E36809
:105760009BB153F82500E0B1026843F825200023DF
:105770000361C36070BD1020FFF7D6FC0023044610
:105780007062436083600360C3603046042121225D
:1057900001F0ACFB736AE060DB68002BE1D11846D6
:1057A00070BD012430462146AC40621D920001F0DC
:1057B0009DFB0028F4D045608460D8E730B50446EE
:1057C000456A83B055B139B1636A4A68DB6853F8FA
:1057D0002200086043F8221003B030BD1020019170
:1057E000FFF7A2FC01996062456085600560C560B5
:1057F000E9E700BF2DE9F0410C4605460E6901F1CD
:10580000140082B00021076801311FFA87FC3F0CA9
:105810000CFB023307FB02F707EB13471FFA83FC6D
:105820003B0C8E424FEA074808EB0C0740F8047B1C
:10583000E9DC3BB1A268964208DA04EB8602013645
:1058400026615361204602B0BDE8F08161682846B8
:1058500001930131FFF77EFF226904F10C0102324E
:10586000920007460C30FCF727FF214628463C46AD
:10587000FFF7A4FF019BE0E72DE9F84348F6396400
:105880001E46C3F6E304083388460546174684FBE4
:105890000314DB17C3EB6403012B34DD0122002169
:1058A000520001319342FBDC2846FFF753FF089B6F
:1058B00043610123092F0146036120DD08F1090935
:1058C000092418F804300A2228460134303BFFF737
:1058D00091FFA7420146F4DC09EB0708A8F108088C
:1058E00008E018F8013B28460A220137303BFFF751
:1058F00081FF0146BE42F4DC0846BDE8F88308F1AA
:105900000A080927F6E70021CEE700BF020C03468C
:1059100019D10304102013F07F4F01D108301B026E
:1059200013F0704F01D104301B0113F0404F01D12F
:1059300002309B00002B05DB13F0804F01D00130BB
:105940007047202070470020E5E700BF036802464B
:1059500013F0070009D013F0010F21D113F0020F4B
:1059600022D19B0802201360704799B209B91B0C21
:10597000102013F0FF0F01D108301B0A13F00F0F96
:1059800001D104301B0913F0030F01D102309B0831
:1059900013F0010F02D15B0804D00130136070478F
:1059A00000207047202070475B080120136070477B
:1059B00010B50C460121FFF7CDFE012244610261C2
:1059C00010BD00BF2DE9F04F0D460F6985B0166977
:1059D0009046B74204DA3A46454637468846164668
:1059E000AB68F41969689C42C8BF0131FFF7B2FE89
:1059F00000EB840300F1140C143301909C450293D6
:105A000006D202996346002243F8042B9942FBD840
:105A100008EB860605EB870708F1140814361435E1
:105A20001437B04500954DD2039458F8044BA0B2FA
:105A3000F0B1009A6346002452F8045B19681FFA1B
:105A400085FA2D0C1FFA81F9090C00FB0A9900FB5D
:105A50000511A14401EB19411FFA89F90C0C974279
:105A600049EA014543F8045BE6D81C6058F8044C49
:105A7000240C21D0DCF800206046009BE146114652
:105A80000025B3F800A01FFA82FB0AFB045505EBC2
:105A900011454BEA054240F8042B53F8042B59F802
:105AA000041F120C1FFA81FA02FB04A202EB15423A
:105AB000150C9F42E5D80260464502D90CF1040C52
:105AC000B3E7039C002C0BDD02990B1F51F8042C4B
:105AD0001AB105E053F8042D12B9013C002CF9DC91
