:1000000074280020C94F0000355000003550000012
:100010003550000035500000355000000000000051
:10002000000000000000000000000000E956000091
:100030003550000000000000ED5700002958000076
:1000400035500000A15F0000216100000110000098
:100050000D4C0000355000003550000035500000B8
:10006000355000003550000035500000355000007C
:10007000355000003550000035500000355000006C
:10008000355000003550000035500000355000005C
:10009000355000003550000035500000355000004C
:1000A000355000003550000035500000355000003C
:1000B0003550000035500000294D0000355000003B
:1000C000355000003550000035500000355000001C
:1000D000355000003550000035500000355000000C
:1000E00035500000355000003550000035500000FC
:1000F00035500000355000003550000035500000EC
:1001000080B582B000AF00F07FFB0346FB71FB7946
:10011000184607F10807BD4680BD00BF80B500AF97
:1001200001F09AFE024641F63043C2F200031A6023
:1001300041F62C43C2F200031A6841F63043C2F282
:1001400000031B68D21A40F22463C2F200031B684A
:100150004FF4FA5101FB03F3D2184FF67F43C0F27C
:100160000A039A4202D84FF0010301E04FF0000366
:10017000184680BD80B582B000AF00F045FB034655
:10018000FB7101F069FE024641F63043C2F2000302
:100190001A6041F62C43C2F200031A6841F630435C
:1001A000C2F200031B68D21A40F22463C2F20003B9
:1001B0001B684FF4FA5101FB03F3D2184FF680434A
:1001C000C0F20A039A421CD941F62C43C2F2000342
:1001D0001A6841F63043C2F200031B68D21A40F29B
:1001E0002463C2F200031B684FF4FA5101FB03F3CE
:1001F000D2184BF69F33C0F20D039A4201D8FB7917
:1002000001E04FF00003184607F10807BD4680BD26
:1002100080B500AF01F020FE024641F63043C2F245
:1002200000031A6041F62C43C2F200031A6841F63B
:100230003043C2F200031B68D21A40F22463C2F2B8
:1002400000031B684FF4FA5101FB03F3D21843F289
:100250007F13C0F217039A4202D84FF0010301E066
:100260004FF00003184680BD80B582B000AF00F0AB
:10027000CBFA0346FB7101F0EFFD024641F6304335
:10028000C2F200031A6041F62C43C2F200031A685E
:1002900041F63043C2F200031B68D21A40F22463D5
:1002A000C2F200031B684FF4FA5101FB03F3D218AA
:1002B0004FF44653C0F217039A421CD941F62C431F
:1002C000C2F200031A6841F63043C2F200031B6811
:1002D000D21A40F22463C2F200031B684FF4FA51B1
:1002E00001FB03F3D21847F23F73C0F21B039A429B
:1002F00001D8FB7901E04FF00003184607F1080729
:10030000BD4680BD80B582B000AF00F095FA0346CF
:10031000FB71FB79184607F10807BD4680BD00BF99
:1003200080B582B000AF00F087FA0346FB7101F0A0
:1003300093FD024641F63043C2F200031A6041F6D3
:100340002C43C2F200031A6841F63043C2F20003A4
:100350001B68D21A40F22463C2F200031B684FF4F8
:10036000FA5101FB03F3D2184FF68043C0F20A039F
:100370009A421CD941F62C43C2F200031A6841F696
:100380003043C2F200031B68D21A40F22463C2F267
:1003900000031B684FF4FA5101FB03F3D2184BF62C
:1003A0009F33C0F20D039A4201D8FB7901E04FF070
:1003B0000003184607F10807BD4680BD80B582B02E
:1003C00000AF00F039FA0346FB7101F045FD02462B
:1003D00041F63043C2F200031A6041F62C43C2F2E8
:1003E00000031A6841F63043C2F200031B68D21AB8
:1003F00040F22463C2F200031B684FF4FA5101FB80
:1004000003F3D2184FF44653C0F217039A421CD993
:1004100041F62C43C2F200031A6841F63043C2F29F
:1004200000031B68D21A40F22463C2F200031B6867
:100430004FF4FA5101FB03F3D21847F23F73C0F2B5
:100440001B039A4201D8FB7901E04FF000031846E4
:1004500007F10807BD4680BD80B483B000AF41F608
:10046000F233C2F200031B78FB7141F6F233C2F2A1
:1004700000034FF000021A70FB79184607F10C07D1
:10048000BD4680BC704700BF80B483B000AF41F66A
:10049000F333C2F200031B78FB7141F6F333C2F26F
:1004A00000034FF000021A70FB79184607F10C07A1
:1004B000BD4680BC704700BF80B500AF40F22C63E2
:1004C000C2F200034FF001021A6000F06BF900F075
:1004D0008FF980BD80B500AF40F22C63C2F20003FB
:1004E0004FF002021A6000F05DF900F075F980BD6E
:1004F00080B500AF40F22C63C2F200034FF003025C
:100500001A6000F04FF900F067F980BD80B500AFC8
:1005100040F22C63C2F200034FF004021A6000F0B4
:1005200041F900F065F980BD80B500AF40F22C6361
:10053000C2F200034FF00A021A6000F033F900F033
:1005400057F980BD80B500AF40F22C63C2F20003C2
:100550004FF007021A6000F025F900F049F980BD5C
:1005600080B500AF40F22C63C2F200034FF00802E6
:100570001A6000F017F900F02FF980BD80B500AFC8
:1005800040F22C63C2F200034FF009021A6000F03F
:1005900009F900F021F980BD80B500AF40F2306369
:1005A000C2F200034FF000021A6040F22C63C2F264
:1005B00000034FF006021A6040F22863C2F2000303
:1005C0004FF001021A704FF4A040C4F202004FF045
:1005D00001014FF0010202F013FE80BD80B500AFB3
:1005E00040F22C63C2F200034FF000021A6040F2A6
:1005F0002863C2F200034FF000021A7040F27863E1
:10060000C2F20003194A1A6040F27C63C2F200038E
:10061000164A1A6040F28063C2F20003134A1A605D
:1006200040F28463C2F20003104A1A6040F2886309
:10063000C2F200030D4A1A6040F28C63C2F200035A
:100640000A4A1A604FF4A040C4F202004FF00101C0
:100650004FF0000202F0D4FD41F68843C2F20003DD
:100660001B68184603F0DEF880BD00BF00000000E4
:1006700080B500AF01F0F0FB024641F63043C2F214
:1006800000031A6041F62C43C2F200031A6841F6D7
:100690003043C2F200031B68D21A40F22463C2F254
:1006A00000031B684FF4FA5101FB03F3D2184BF619
:1006B000A033C0F20D039A4202D94FF0010301E0CA
:1006C0004FF00003184680BD80B500AF01F0C4FBB9
:1006D000024641F63043C2F200031A6041F62C4351
:1006E000C2F200031A6841F63043C2F200031B68ED
:1006F000D21A40F22463C2F200031B684FF4FA518D
:1007000001FB03F3D21847F24073C0F21B039A4275
:1007100002D94FF0010301E04FF00003184680BDFD
:1007200080B500AF40F23063C2F200034FF0000228
:100730001A6040F22C63C2F200034FF000021A600C
:1007400041F68843C2F200031B68184603F06AF8BA
:1007500080BD00BF80B400AF41F6F133C2F20003A8
:100760004FF000021A7041F6F033C2F200034FF06E
:1007700000021A70BD4680BC704700BF80B400AF55
:1007800040F22C63C2F200034FF005021A6040F2FF
:100790003063C2F200034FF001021A60BD4680BC14
:1007A000704700BF80B500AF01F056FB024641F62E
:1007B0002C43C2F200031A6040F22463C2F2000329
:1007C0004FF000021A6003F001FA024641F634438A
:1007D000C2F200031A6080BD80B500AF41F634401C
:1007E000C2F200004FF0BF0102F0C4FF80BD00BFA5
:1007F00080B500AF41F63440C2F200004FF05B011B
:1008000002F0B8FF80BD00BF80B483B000AF41F6F6
:10081000F033C2F200031B78FB7141F6F033C2F2F1
:1008200000034FF000021A70FB79184607F10C071D
:10083000BD4680BC704700BF80B483B000AF41F6B6
:10084000F133C2F200031B78FB7141F6F133C2F2BF
:1008500000034FF000021A70FB79184607F10C07ED
:10086000BD4680BC704700BF80B400AF40F2286333
:10087000C2F200031B781846BD4680BC704700BF1B
:1008800098B500AF40F27863C2F200031B684FF0E6
:100890000102144618463E4906F0B6FC0346002BFA
:1008A00002D14FF000031C46E3B2002B6BD040F2A4
:1008B0007C63C2F200031B684FF001021446184625
:1008C000334906F0A1FC0346002B02D14FF0000390
:1008D0001C46E3B2002B56D040F28063C2F2000304
:1008E0001B684FF0010214461846294906F08CFC9B
:1008F0000346002B02D14FF000031C46E3B2002B4D
:1009000041D040F28463C2F200031B684FF0010241
:10091000144618461E4906F077FC0346002B02D108
:100920004FF000031C46E3B2002B2CD040F288634A
:10093000C2F200031B684FF0010214461846144926
:1009400006F062FC0346002B02D14FF000031C4668
:10095000E3B2002B17D040F28C63C2F200031B6895
:100960004FF0010214461846094906F04DFC0346B3
:10097000002B02D14FF000031C46E3B2002B02D043
:100980004FF0010301E04FF00003184698BD00BF8F
:100990000000003F98B500AF00F0BCF840F278636B
:1009A000C2F200031B684FF00102144618463F498B
:1009B00006F048FC0346002B02D14FF000031C4612
:1009C000E3B2002B68D140F27C63C2F200031B68E3
:1009D0004FF0010214461846344906F033FC034632
:1009E000002B02D14FF000031C46E3B2002B53D181
:1009F00040F28063C2F200031B684FF0010214460C
:100A000018462A4906F01EFC0346002B02D14FF07F
:100A100000031C46E3B2002B3ED140F28463C2F2D5
:100A200000031B684FF00102144618461F4906F0E8
:100A300009FC0346002B02D14FF000031C46E3B231
:100A4000002B29D140F28863C2F200031B684FF0EB
:100A5000010214461846154906F0F4FB0346002B24
:100A600002D14FF000031C46E3B2002B14D140F238
:100A70008C63C2F200031B684FF001021446184653
:100A80000A4906F0DFFB0346002B02D14FF00003BA
:100A90001C46E3B2002B02D04FF0010303E000F04C
:100AA00007F84FF00003184698BD00BF0000003F54
:100AB00080B400AF40F22C63C2F200034FF00B028F
:100AC0001A6040F27863C2F20003114A1A6040F2E1
:100AD0007C63C2F200030E4A1A6040F28063C2F2E5
:100AE00000030B4A1A6040F28463C2F20003084A12
:100AF0001A6040F28863C2F20003054A1A6040F2AD
:100B00008C63C2F20003024A1A60BD4680BC704783
:100B10000000000080B500AF4FF4C040C4F20200F6
:100B20004FF001014FF0000202F06AFB4FF4C040A9
:100B3000C4F200004FF020014FF0000202F060FB11
:100B40004FF4C040C4F200004FF080014FF00002AB
:100B500002F056FB04F078F9024640F28463C2F2D8
:100B600000031A6004F0D0F9024640F27863C2F242
:100B700000031A604FF4C040C4F200004FF020019F
:100B80004FF0200202F03CFB04F05EF9024640F216
:100B90008863C2F200031A6004F0B6F9024640F21C
:100BA0007C63C2F200031A604FF4C040C4F200003C
:100BB0004FF020014FF0000202F022FB4FF4C04042
:100BC000C4F200004FF080014FF0800202F018FBE9
:100BD00004F03AF9024640F28C63C2F200031A6054
:100BE00004F092F9024640F28063C2F200031A60F8
:100BF0004FF4C040C4F202004FF001014FF0010277
:100C000002F0FEFA80BD00BF80B586B000AF78600C
:100C100039603B68072B33D801A252F823F000BF9C
:100C2000410C0000490C0000510C0000590C000060
:100C3000610C0000690C0000710C0000790C0000D0
:100C40004FF00103FB731BE04FF00203FB7317E04F
:100C50004FF00403FB7313E04FF00803FB730FE046
:100C60004FF01003FB730BE04FF02003FB7307E022
:100C70004FF04003FB7303E04FF08003FB7300BFB2
:100C80007B6803F1FF33062B5DD801A252F823F0F5
:100C9000AD0C0000C30C0000D90C0000EF0C0000EC
:100CA000050D00001B0D0000310D00004FF0010389
:100CB000C2F200033B614FF48043C4F200037B6146
:100CC00041E04FF00203C2F200033B614FF4A04346
:100CD000C4F200037B6136E04FF00403C2F200036C
:100CE0003B614FF4C043C4F200037B612BE04FF043
:100CF0000803C2F200033B614FF4E043C4F2000377
:100D00007B6120E04FF01003C2F200033B614FF41F
:100D10008043C4F202037B6115E04FF02003C2F26E
:100D200000033B614FF4A043C4F202037B610AE07D
:100D30004FF04003C2F200033B614FF4C043C4F2E2
:100D400002037B6100BF386901F0C4FCFB7B78695A
:100D5000194602F085FAFB7B786919464FF00102CB
:100D60004FF00C0302F0DEF807F11807BD4680BD16
:100D700080B586B000AF786039603B68072B33D808
:100D800001A252F823F000BFA90D0000B10D000030
:100D9000B90D0000C10D0000C90D0000D10D00000B
:100DA000D90D0000E10D00004FF00103FB731BE0C3
:100DB0004FF00203FB7317E04FF00403FB7313E0E3
:100DC0004FF00803FB730FE04FF01003FB730BE0D1
:100DD0004FF02003FB7307E04FF04003FB7303E089
:100DE0004FF08003FB7300BF7B6803F1FF33062BDA
:100DF0004FD801A252F823F0150E0000270E000074
:100E0000390E00004B0E00005D0E00006F0E00005A
:100E1000810E00004FF010033B614FF48043C4F299
:100E200000037B6135E04FF011033B614FF4A043B9
:100E3000C4F200037B612CE04FF012033B614FF4DE
:100E4000C043C4F200037B6123E04FF013033B6116
:100E50004FF4E043C4F200037B611AE04FF0140347
:100E60003B614FF48043C4F202037B6111E04FF019
:100E70002E033B614FF4A043C4F202037B6108E000
:100E80004FF02F033B614FF4C043C4F202037B6178
:100E900000BF386903F040FAFB7B786919464FF0D0
:100EA000010201F0D5FFFB7B7869194602F052F987
:100EB00007F11807BD4680BD80B586B000AF7860E9
:100EC00039603B68072B33D801A252F823F000BFEA
:100ED000F10E0000F90E0000010F0000090F0000E4
:100EE000110F0000190F0000210F0000290F000052
:100EF0004FF00103FB731BE04FF00203FB7317E09D
:100F00004FF00403FB7313E04FF00803FB730FE093
:100F10004FF01003FB730BE04FF02003FB7307E06F
:100F20004FF04003FB7303E04FF08003FB7300BFFF
:100F30007B6803F1FF33062B4FD801A252F823F050
:100F40005D0F00006F0F0000810F0000930F000085
:100F5000A50F0000B70F0000C90F00004FF01003ED
:100F60003B614FF48043C4F200037B6135E04FF0F6
:100F700011033B614FF4A043C4F200037B612CE0FA
:100F80004FF012033B614FF4C043C4F200037B6196
:100F900023E04FF013033B614FF4E043C4F200033E
:100FA0007B611AE04FF014033B614FF48043C4F2BD
:100FB00002037B6111E04FF02E033B614FF4A0432D
:100FC000C4F202037B6108E04FF02F033B614FF452
:100FD000C043C4F202037B6100BF386903F09CF98F
:100FE000FB7B786919464FF0040201F031FFFB7B6F
:100FF0007869194602F0AEF807F11807BD4680BDC2
:10100000684620F007018D4681B587B000AF4FF4E8
:10101000E040C4F200004FF0010102F0B1F8F860C6
:10102000FB6803F01003002B24D04FF4E043C4F21C
:1010300000037B614FF01003FB74FB7C7869194659
:1010400002F0CAF80346BB6040F2B073C2F200037C
:101050001B78012B07D140F2B073C2F200034FF0AE
:1010600000021A7006E040F2B073C2F200034FF0C3
:1010700001021A70FB6803F04003002B33D04FF4D9
:10108000E043C4F200037B614FF04003FB74FB7C40
:101090007869194602F0A0F803467B607B68402B14
:1010A0001AD141F6F033C2F200034FF001021A7078
:1010B00041F68843C2F200031B68184602F012FC96
:1010C0000346012B0FD141F68843C2F200031B688F
:1010D000184602F02FFC06E041F6F133C2F200039D
:1010E0004FF001021A70FB6803F08003002B33D02D
:1010F0004FF4E043C4F200037B614FF08003FB74C4
:10110000FB7C7869194602F067F803463B603B6850
:10111000802B1AD141F6F033C2F200034FF00102E6
:101120001A7041F68843C2F200031B68184602F0A9
:10113000D9FB0346012B0FD141F68843C2F20003CD
:101140001B68184602F0F6FB06E041F6F133C2F2E6
:1011500000034FF001021A70FB7C7869194602F017
:1011600029F807F11C07BD46BDE881408546704758
:1011700080B584B000AF42F6D223C0F28E03BB60CC
:1011800042F61003C0F280037B604FF46043C4F268
:101190000F0342F61002C0F280721A674FF46043E8
:1011A000C4F20F0343F6D122C0F28E721A664FF4D6
:1011B0006043C4F20F0342F6D222C0F28E021A66D6
:1011C0004FF46043C4F20F0342F61002C0F28002F3
:1011D0001A674FF00003FB6003E0FB6803F10103B3
:1011E000FB60FA6840F2E7339A42F6D94FF4604365
:1011F000C4F20F0342F6D222C0F28E021A664FF4F6
:101200006043C4F20F0342F61002C0F280021A6774
:101210004FF00003FB6003E0FB6803F10103FB6098
:10122000FA6840F2E7339A42F6D94FF46043C4F2C9
:101230000F0342F6D222C0F28E021A664FF46043C8
:10124000C4F20F0342F6D222C0F28E021A664FF4A5
:101250006043C4F20F0342F61002C0F280021A6724
:101260004FF00003FB6003E0FB6803F10103FB6048
:10127000FA6842F20F739A42F6D94FF46043C4F20F
:101280000F031B6EBB604FF46043C4F20F031B6F70
:101290007B607B68002B56DA7B6803F40063002BCD
:1012A00014D0BB684FEA931303F00F027B684FEA38
:1012B000131303F007031046194600F075F80246B1
:1012C00040F23403C2F200031A6008E040F2340333
:1012D000C2F200034FF44242C0F6EB321A60BB6820
:1012E00003F48003002B5AD07B6803F40063002BC7
:1012F00013D040F23403C2F200031A687B684FEA4D
:10130000D35303F03F0303F10103B2FBF3F240F2C6
:101310003403C2F200031A6041E040F23403C2F227
:1013200000031A687B684FEAD35303F03F0303F1CD
:101330000103B2FBF3F34FEA530240F23403C2F26B
:1013400000031A602BE0BB684FEA931303F00F020F
:10135000BB684FEA131303F003031046194600F06D
:1013600023F8024640F23403C2F200031A60BB685D
:1013700003F48003002B12D040F23403C2F20003C6
:101380001A68BB684FEAD35303F00F0303F101035C
:10139000B2FBF3F240F23403C2F200031A6007F129
:1013A0001007BD4680BD00BF80B485B000AF786037
:1013B00039604FF4D853C0F2B703FB603B68032B8E
:1013C00000F2988001A252F823F000BFDD13000064
:1013D000D3140000DF140000EB1400007B680F2B17
:1013E00000F2878001A252F823F000BF2D14000004
:1013F00039140000411400004D1400005514000081
:101400006114000069140000751400007D140000D0
:1014100085140000911400009D140000A914000020
:10142000B5140000BD140000C914000044F24023AC
:10143000C0F20F03FB604BE04FF4E113FB6047E0A9
:1014400048F28043C0F21E03FB6041E04FF41613E4
:10145000FB603DE049F69963C0F23603FB6037E07C
:101460004FF46113FB6033E04FF41063C0F23D03AF
:10147000FB602DE04FF47A13FB6029E04FF49603F4
:10148000FB6025E044F64033C0F24C03FB601FE0F4
:101490004FF40053C0F24E03FB6019E048F680534E
:1014A000C0F25B03FB6013E04FF44043C0F25D0306
:1014B000FB600DE04FF4E103FB6009E04FF4905353
:1014C000C0F27A03FB6003E04FF4FA03FB6000BF55
:1014D00010E04FF4D853C0F2B703FB600AE04CF2BF
:1014E000C063C0F22D03FB6004E047F23053FB60A1
:1014F00000E000BFFB68184607F11407BD4680BC3A
:10150000704700BF2DE9F0438DB000AF41F6504366
:10151000C2F20003D3E9000141F65043C2F20003D6
:10152000D3E906234FF0010605F068FB0346002BC4
:1015300002D14FF000031E46FE73FB7B002B10D040
:1015400041F65043C2F20003D3E90223C7E908235E
:1015500041F65043C2F20003D3E90423C7E90A234A
:101560000FE041F65043C2F20003D3E90823C7E974
:10157000082341F65043C2F20003D3E90A23C7E926
:101580000A23FB7B002B39D041F65043C2F2000303
:10159000D3E9008941F65043C2F20003D3E90223A4
:1015A000104619464FF000024FF07E5303F5C0037A
:1015B00004F0E0FE02460B464FF001010E464046A5
:1015C000494605F01BFB0346002B02D14FF00003F8
:1015D0001E46F3B2002B08D041F65043C2F200037E
:1015E000D3E90023C7E9042341E041F65043C2F2A6
:1015F0000003D3E90223C7E9042338E041F650434E
:10160000C2F20003D3E9068941F65043C2F2000357
:10161000D3E90823104619464FF000024FF07E53DD
:1016200003F5C00304F0A6FE02460B464FF001018D
:101630000E464046494605F0E1FA0346002B02D12A
:101640004FF000031E46F3B2002B08D041F6504382
:10165000C2F20003D3E90623C7E9042307E041F6F9
:101660005043C2F20003D3E90823C7E904234FF033
:1016700001031E46D7E904014FF000024FF08043FA
:1016800003F5402305F0A6FA0346002B02D14FF0E4
:1016900000031E46F3B2002B1DD04FF001031E467F
:1016A000D7E904014FF000024FF0804303F5802397
:1016B00005F09AFA0346002B02D14FF000031E46B4
:1016C000F3B2002B07D04FF000024FF0804303F538
:1016D0000023C7E904234FF001031E46D7E90401A4
:1016E0004FF000024FF0804303F5001305F086FA37
:1016F0000346002B02D14FF000031E46F3B2002B2D
:1017000007D04FF000024FF0804303F50013C7E904
:101710000423FB7B002B1AD0D7E904014FF0000211
:101720004FF0804303F5002304F024FE02460B46ED
:101730001046194640F24803C2F20003D3E90023E1
:1017400004F0CCFF02460B46C7E906231EE0D7E9AA
:1017500004014FF000024FF0804303F5002304F032
:1017600009FE02460B461046194640F24803C2F2F3
:101770000003D3E90023144683F0004522462B469C
:1017800004F0ACFF02460B46C7E90623D7E908017F
:10179000D7E90A2304F0EEFD02460B46104619462F
:1017A00040F23863C2F20003C3E9000140F238633B
:1017B000C2F20003D3E900234FF001010C461046AA
:1017C00019464FF000024FF07E5303F5C00305F0B9
:1017D00001FA0346002B02D14FF000031C46E3B28E
:1017E000002B1FD040F23863C2F20003D3E900237C
:1017F0004FF001010C46104619464FF000024FF021
:101800003F4303F5600305F0EFF90346002B02D1D7
:101810004FF000031C46E3B2002B03D0D7E90A23A4
:10182000C7E90823D7E90801D7E90A2304F0A2FD94
:1018300002460B461046194640F25003C2F200031E
:10184000D3E9002304F04AFF02460B46C7E9002310
:10185000D7E90801D7E90A2305F0A8F90346002BC8
:1018600007D141F65043C2F2000393F83030002B09
:1018700014D041F63843C2F200034FF000004FF09D
:101880000001C3E9000141F63843C2F200034FF002
:1018900000004FF00001C3E90201A7E0D7E906010B
:1018A000D7E9002304F068FD02460B46C7E904238C
:1018B0004FF001031C46D7E904014FF000024FF03E
:1018C000804303F5A01305F08FF90346002B02D1E6
:1018D0004FF000031C46E3B2002B0CD041F6384316
:1018E000C2F200034FF000004FF0804101F5A0115B
:1018F000C3E9000126E04FF001031C46D7E90401CB
:101900004FF000024FF0000305F064F90346002B8E
:1019100002D14FF000031C46E3B2002B0AD041F67F
:101920003843C2F200034FF000004FF00001C3E95A
:10193000000107E041F63843C2F20003D7E9040191
:10194000C3E90001D7E90001D7E9062304F012FD3D
:1019500002460B46C7E904234FF001031C46D7E9B2
:1019600004014FF000024FF0804303F5A01305F08F
:101970003BF90346002B02D14FF000031C46E3B2B3
:10198000002B0CD041F63843C2F200034FF00000A8
:101990004FF0804101F5A011C3E9020126E04FF0AC
:1019A00001031C46D7E904014FF000024FF0000389
:1019B00005F010F90346002B02D14FF000031C463E
:1019C000E3B2002B0AD041F63843C2F200034FF0D5
:1019D00000004FF00001C3E9020107E041F638437F
:1019E000C2F20003D7E90401C3E9020107F1340799
:1019F000BD46BDE8F08300BF80B500AF4DF2EC23DB
:101A0000C0F200031B684FF000021A6041F650401C
:101A1000C2F200004FF000014FF0380205F0E4FC84
:101A200041F63840C2F200004FF000014FF01002C2
:101A300005F0DAFC80BD00BF80B485B000AFF8606F
:101A4000B9607A60BA68FB68D318BB60BA68BB68D3
:101A500019684FF00103CFF6F87301EA03037968C0
:101A60000B4313607B6803F00203002B0CD0BB68B0
:101A700003F120034FF0B0021A60BB6803F12403A6
:101A80004FF430621A600BE0BB6803F120034FF0A3
:101A90008C021A60BB6803F1240340F60C021A6042
:101AA00007F11407BD4680BC704700BF80B485B005
:101AB00000AFF860B9607A60BA68FB68D318BB60A1
:101AC000BB681B6803F00203002B07D0BB6803F15F
:101AD00010037A684FEA52021A6006E0BB6803F10D
:101AE00010037A6802F1FF321A6007F11407BD464D
:101AF00080BC704780B483B000AF786039607A688A
:101B00003B68D31879683A688A18126842F0010273
:101B10001A6007F10C07BD4680BC704780B487B0DF
:101B200000AFF860B9607A60BB6823F03F02FB68E1
:101B3000D3187B617B691B6803F00203002B03D081
:101B40007B684FEA53037B607B6903F110031B68DA
:101B50003B613A697B68D31A3B61BB6803F00103C0
:101B6000DBB2002B05D07B6903F11C033A691A60D4
:101B700004E07B6903F118033A691A6007F11C0756
:101B8000BD4680BC704700BF80B485B000AFF86030
:101B9000B9601346FB71FB79012B0BD1FB6803F194
:101BA0000803FA6802F108021168BA6841EA020201
:101BB0001A600CE0FB6803F10803FA6802F10802FE
:101BC0001168BA686FEA020201EA02021A6007F1BC
:101BD0001407BD4680BC704780B584B000AF786004
:101BE0007B68FB6001F0F2FF0346BB6000F014F875
:101BF00040F25C63C2F200031B6803F1010240F291
:101C00005C63C2F200031A6007F108031846F96822
:101C100001F0B0FDEAE700BF80B500AF40F27063AD
:101C2000C2F200031B78002B0AD04DF2EC23C0F265
:101C300000031A684DF2F023C0F200031360FEE0C7
:101C400040F27063C2F200034FF001021A7040F2DA
:101C50008863C2F200031B68184604F0EBFC41F6EF
:101C60005043C2F20003C3E9000140F28C63C2F2A8
:101C700000031B68184604F0DDFC41F65043C2F235
:101C80000003C3E9020140F27863C2F200031B685B
:101C9000184604F0CFFC41F65043C2F20003C3E9FA
:101CA000040140F28463C2F200031B68184604F08A
:101CB000C1FC41F65043C2F20003C3E9060140F201
:101CC0008063C2F200031B68184604F0B3FC41F6BF
:101CD0005043C2F20003C3E9080140F27C63C2F240
:101CE00000031B68184604F0A5FC41F65043C2F2FD
:101CF0000003C3E90A0140F2AF73C2F200031A788D
:101D000041F65043C2F2000383F83020FFF7FAFB9C
:101D100041F63843C2F20003D3E9000140F24063C8
:101D2000C2F20003C3E9000141F63843C2F20003E6
:101D3000D3E9020140F24863C2F20003C3E90001A3
:101D400040F27063C2F200034FF000021A7040F2DA
:101D50004063C2F20003D3E900231046194638A3BA
:101D6000D3E9002304F0BAFC02460B46104619469C
:101D700035A3D3E9002304F0FFFA02460B461046D0
:101D8000194604F045FF024640F25063C2F20003D8
:101D90001A6040F24863C2F20003D3E90023104600
:101DA00019462BA3D3E9002304F098FC02460B4606
:101DB0001046194624A3D3E9002304F0DDFA0246B5
:101DC0000B461046194604F023FF024640F25463C6
:101DD000C2F200031A6040F25803C2F200031B680B
:101DE0004FF00400194603F067FD40F25803C2F2B9
:101DF00000031B684FF00500194603F05DFD40F23B
:101E00005063C2F200031A6840F25803C2F20003A2
:101E10001B6810464FF004011A4603F025FE40F2FD
:101E20005463C2F200031A6840F25803C2F200037E
:101E30001B6810464FF005011A4603F015FE80BDE1
:101E4000FCA9F1D24D6250BF333333333333B33F48
:101E5000FCA9F1D24D62503F80B582B000AF4FF087
:101E600000037B6004F002F878607B68184607F195
:101E70000807BD4680BD00BF80B584B004AF04F044
:101E800053FA00F03BF9FFF7B7FD02F047FE4FF0C1
:101E90000800C2F2000000F01DFC4FF004004FF0FB
:101EA0000401FEF7B1FE4FF004004FF00601FEF70B
:101EB000ABFE4FF004004FF00701FEF7A5FE4FF018
:101EC0002000C2F2000000F005FC4FF4A040C4F274
:101ED00002004FF0010101F0DDF94FF4A040C4F21F
:101EE00002004FF001014FF0000201F089F94FF0BC
:101EF0000400C2F2000000F0EDFB4FF4C040C4F259
:101F000000004FF0200101F0C5F94FF4C040C4F2C9
:101F100000004FF0800101F0BDF94FF4C040C4F261
:101F200000004FF0A0014FF001024FF00C0300F051
:101F3000F9FF4FF4C040C4F200004FF020014FF011
:101F4000000201F05DF94FF4C040C4F200004FF010
:101F500080014FF0000201F053F94FF04000C2F24F
:101F6000000000F0B7FB4FF4C040C4F202004FF095
:101F7000010101F08FF94FF4C040C4F202004FF0AC
:101F800001014FF0000201F03BF94FF00100C0F2F7
:101F9000100000F09FFB4FF0000000F0EDFE4FF44A
:101FA0008040C4F202004FF0800101F03FF94FF48D
:101FB0008040C4F202004FF0400101F037F94FF4C5
:101FC0000040C4F203004FF003014FF000024FF055
:101FD000000303F03DFA4FF40040C4F203004FF059
:101FE000030103F01FFA4FF004004FF00401FEF765
:101FF00063FF4FF004004FF00601FEF7B9FE4FF00B
:1020000004004FF00701FEF7B3FE4DF2F823C0F2D3
:1020100000034FF00202009241F68842C2F2000231
:1020200001924FF0000202924FF00002039246F23A
:102030003D30C0F2000019464FF0C8024FF03203A5
:1020400001F0C2FA4DF21433C0F200034FF0030264
:1020500000924FF0000201924FF0000202924FF006
:102060000002039241F6D930C0F2000019464FF049
:10207000C8024FF0320301F0A7FA4DF22433C0F248
:1020800000034FF0040200924FF0000201924FF063
:10209000000202924FF00002039244F27110C0F26B
:1020A000000019464FF0C8024FF0640301F08CFAAB
:1020B0004DF23433C0F200034FF0010200924FF0B2
:1020C000000201924FF0000202924FF000020392D0
:1020D00045F6D520C0F2000019464FF0C8024FF473
:1020E000FA7301F071FA41F68843C2F200031B68EB
:1020F000184601F097FB01F073FCFEE780B500AFD6
:102100004FF0040044F6206103F0D6FB4FF00500C9
:1021100044F6206103F0D0FB80BD00BF80B582B0E3
:1021200000AF4FF000037B6001F044FA4FF0000372
:102130007B6071E041F68C42C2F2000279680B4686
:102140004FEAC3035B184FEA8303D3187A681A6017
:1021500041F68C42C2F2000279680B464FEAC30393
:102160005B184FEA8303D31803F104037A681A60FB
:1021700041F68C42C2F2000279680B464FEAC30373
:102180005B184FEA8303D31803F108037A681A60D7
:1021900041F68C42C2F2000279680B464FEAC30353
:1021A0005B184FEA8303D31803F114037A681A60AB
:1021B00041F68C42C2F2000279680B464FEAC30333
:1021C0005B184FEA8303D31803F118037A681A6087
:1021D000786841F68C42C2F2000279680B464FEAF9
:1021E000C3035B184FEA8303D31803F11C03186081
:1021F00041F68C42C2F2000279680B464FEAC303F3
:102200005B184FEA8303D31803F120037A681A603E
:102210007B6803F101037B607B68132B8ADD07F188
:102220000807BD4680BD00BF80B485B000AFF86030
:10223000B9607A6040F29063C2F200031B68132B0E
:1022400000F39D8040F29063C2F20003196840F2EF
:102250009063C2F20003186841F68C42C2F2000299
:102260000B464FEAC3035B184FEA8303D318186089
:1022700040F29063C2F20003196841F68C42C2F248
:1022800000020B464FEAC3035B184FEA8303D318DF
:1022900003F11C03FA681A6040F29063C2F2000373
:1022A000196841F68C42C2F200020B464FEAC303A2
:1022B0005B184FEA8303D31803F120034FF00102A8
:1022C0001A6040F29063C2F20003196841F68C4232
:1022D000C2F200020B464FEAC3035B184FEA8303C6
:1022E000D31803F10403BA681A6040F29063C2F293
:1022F0000003196841F68C42C2F200020B464FEA15
:10230000C3035B184FEA8303D31803F108037A6809
:102310001A6040F29063C2F20003196841F68C42E1
:10232000C2F200020B464FEAC3035B184FEA830375
:10233000D31803F114034FF000021A6040F29063C7
:10234000C2F20003196841F68C42C2F200020B4649
:102350004FEAC3035B184FEA8303D31803F1180352
:102360004FF000021A6040F29063C2F200031B6853
:1023700003F1010240F29063C2F200031A6040F2DE
:102380009063C2F200031B68184607F11407BD46AC
:1023900080BC704780B483B000AF7860396041F68C
:1023A0008C42C2F2000239680B464FEAC3035B1845
:1023B0004FEA8303D31803F11C037A681A6041F6CD
:1023C0008C42C2F2000239680B464FEAC3035B1825
:1023D0004FEA8303D31803F120034FF001021A6080
:1023E00007F10C07BD4680BC704700BFF0B58FB049
:1023F00002AF4FF00003FB624FF000037B624FF02F
:102400000003BB624FF00003FB6255E141F68C42D2
:10241000C2F20002F96A0B464FEAC3035B184FEAA7
:102420008303D31803F10C03186841F68C42C2F2FF
:102430000002F96A0B464FEAC3035B184FEA8303B5
:10244000D31803F104031B68984220D141F68C4253
:10245000C2F20002F96A0B464FEAC3035B184FEA67
:102460008303D31803F11003186841F68C42C2F2BB
:102470000002F96A0B464FEAC3035B184FEA830375
:10248000D31803F108031B68984200F0118141F64C
:102490008C42C2F20002F96A0B464FEAC3035B1892
:1024A0004FEA8303D31803F120031B68012B62D189
:1024B00041F68C42C2F20002F96A0B464FEAC303AE
:1024C0005B184FEA8303D31803F11C031B681846FB
:1024D00005F02EF803467B624FF00003BB620AE072
:1024E00007F10402BB6AD3184FF020021A70BB6ACE
:1024F00003F10103BB62BA6A7B6A9A42F0DB07F11F
:102500000402BB6AD3184FF000021A7041F68C42E5
:10251000C2F20002F96A0B464FEAC3035B184FEAA6
:102520008303D31803F11C03186841F68C42C2F2EE
:102530000002F96A0B464FEAC3035B184FEA8303B4
:10254000D31803F104031B681C4641F68C42C2F207
:102550000002F96A0B464FEAC3035B184FEA830394
:10256000D31803F108031B6821461A464FF00F03E6
:1025700000F0FAFF9CE041F68C42C2F20002F96AD8
:102580000B464FEAC3035B184FEA8303D31803F1EA
:102590000C031B681E4641F68C42C2F20002F96A27
:1025A0000B464FEAC3035B184FEA8303D31803F1CA
:1025B00010031B681D4641F68C42C2F20002F96A04
:1025C0000B464FEAC3035B184FEA8303D31803F1AA
:1025D00014031B681C4641F68C42C2F20002F96AE1
:1025E0000B464FEAC3035B184FEA8303D31803F18A
:1025F00018031B6800934DF28030C0F20000314692
:102600002A46234600F0C2FF41F68C42C2F2000285
:10261000F96A0B464FEAC3035B184FEA8303D318EA
:1026200003F11C03186841F68C42C2F20002F96AF9
:102630000B464FEAC3035B184FEA8303D31803F139
:1026400004031B681E4641F68C42C2F20002F96A7E
:102650000B464FEAC3035B184FEA8303D31803F119
:1026600008031B681D4641F68C42C2F20002F96A5B
:102670000B464FEAC3035B184FEA8303D31803F1F9
:1026800014031B681C4641F68C42C2F20002F96A30
:102690000B464FEAC3035B184FEA8303D31803F1D9
:1026A00018031B68009331462A46234600F06EFF4C
:1026B000FB6A03F10103FB6240F29063C2F2000384
:1026C0001B68FA6A9A42FFF6A1AE07F13407BD46CD
:1026D000F0BD00BF80B483B000AF78607B684FEA84
:1026E00013724DF2D833C0F2000353F822301A4669
:1026F0007B684FEA13714DF2D833C0F2000353F8F0
:10270000213019687B684FEA03434FEA1343786826
:1027100000F4F8104FEA104003FA00F341EA030313
:10272000136007F10C07BD4680BC70470138FDD12E
:10273000704700BF80B586B000AF78604FF460434B
:10274000C4F20F031B6803F0E043002B0DD04FF4DD
:102750006043C4F20F031A684FF00003C7F2FF038F
:1027600002EA0303B3F1805F03D17B68002BC0F260
:1027700023814EF26003C4F20F031B683B614EF2EB
:102780007003C4F20F031B68FB603B6943F40063F2
:102790003B613B6923F480033B61FB6843F40063C6
:1027A000FB604EF26003C4F20F033A691A604EF206
:1027B0007003C4F20F03FA681A603B6903F0020366
:1027C000002B04D07B6803F00203002B0AD03B6986
:1027D00003F00103DBB2002B2FD07B6803F0010371
:1027E000002B2AD17B6863F003033A6902EA0303F2
:1027F0003B614EF26003C4F20F033A691A60FB6852
:10280000002B09DAFB6803F07003302B0CD0FB6857
:1028100003F07003702B07D0FB68002B09DB3B69CA
:1028200003F03003302B04D14FF48050FFF77EFFCC
:1028300003E04FF40020FFF779FF3B6923F45E5378
:1028400023F070033B617A6843F2F07302EA0303FA
:102850003A6942EA03033B61FA684DF68F73C7F6A3
:10286000FF7302EA0303FB607A6842F23003C8F2A6
:10287000000302EA0303FA6842EA0303FB607B6891
:1028800003F008034FEAC303FA6842EA0303FB605C
:102890004EF25803C4F20F034FF040021A60FB6877
:1028A000002B0CDA4EF27003C4F20F03FA681A60C0
:1028B0004EF26003C4F20F033A691A600BE04EF265
:1028C0006003C4F20F033A691A604EF27003C4F257
:1028D0000F03FA681A604FF01000FFF727FF3B69FB
:1028E00023F0F86323F003033B617A684FF003039E
:1028F000C0F2C07302EA03033A6942EA03033B6190
:10290000FB6823F0FC53FB607B6803F0FC53FA6820
:1029100042EA0303FB607B6803F08043002B13D083
:102920003B6943F480033B61FB6823F48003FB6055
:102930007A684FF00003C4F2400302EA0303FA6826
:1029400042EA0303FB6003E0FB6823F08043FB6083
:102950007B6803F40063002B1DD14FF400437B61BF
:102960000CE04EF25003C4F20F031B6803F0400367
:10297000002B07D17B6903F1FF337B617B69002B5F
:10298000EFD100E000BF3B6923F400633B61FB68CB
:1029900023F40063FB604EF26003C4F20F033A6954
:1029A0001A604EF27003C4F20F03FA681A604FF017
:1029B0001000FFF7BBFE00E000BF07F11807BD469F
:1029C00080BD00BF80B485B000AF4EF26003C4F29A
:1029D0000F031B68FB604EF27003C4F20F031B6809
:1029E0007B607B68002B03DA7B6803F0700302E0F6
:1029F000FB6803F03003202B7FD0202B04D8002B62
:102A00000CD0102B17D0E6E0602B00F0DC80702B90
:102A100000F0DD80302B00F0D280DCE0FB6803F4B6
:102A2000F8634FEA93124DF2FC33C0F2000353F8FF
:102A30002230BB60D2E04FF46043C4F20F031B6846
:102A400003F0E043002B0DD04FF46043C4F20F03BA
:102A50001A684FF00003C7F2FF0302EA0303B3F161
:102A6000805F05D14EF2C013C0F2E403BB6043E0C7
:102A70004FF46043C4F20F031A684FF00003C7F22B
:102A8000FF0302EA03034FF00002C1F20102934286
:102A90000AD14FF46043C4F20F031B684FEA0343AB
:102AA0004FEA1343022B1BD04FF46043C4F20F03D1
:102AB0001A684FF00003C7F2FF0302EA03034FF066
:102AC0000002C1F20302934210D14FF46043C4F2FA
:102AD0000F031B684FEA03434FEA1343002B05D152
:102AE0004FF4D853C0F2B703BB6005E04FF4105366
:102AF000C0F2F403BB6071E070E04FF46043C4F2D5
:102B00000F031B6803F0E043002B0DD04FF460432C
:102B1000C4F20F031A684FF00003C7F2FF0302EA82
:102B20000303B3F1805F05D143F67003C0F23903AC
:102B3000BB6043E04FF46043C4F20F031A684FF0E8
:102B40000003C7F2FF0302EA03034FF00002C1F2E1
:102B5000010293420AD14FF46043C4F20F031B6891
:102B60004FEA03434FEA1343022B1BD04FF4604359
:102B7000C4F20F031A684FF00003C7F2FF0302EA22
:102B800003034FF00002C1F20302934210D14FF44D
:102B90006043C4F20F031B684FEA03434FEA134339
:102BA000002B05D14CF2C063C0F22D03BB6005E0E1
:102BB0004FF41063C0F23D03BB600FE00EE047F23C
:102BC0003053BB600AE04FF48003BB6006E04FF473
:102BD0000043BB6002E04FF00003AEE07B68002BD7
:102BE00004DA7B6803F40063002B07D07B68002BBA
:102BF00060DBFB6803F40063002B5BD14EF26403DF
:102C0000C4F20F031B683B604FF46043C4F20F0330
:102C10001B6803F0E043002B0DD04FF46043C4F277
:102C20000F031A684FF00003C7F2FF0302EA030321
:102C3000B3F1805F14D13A6843F6E07302EA03030C
:102C40004FEA531303F10203BA6802FB03F23B6835
:102C500003F01F0303F10203B2FBF3F3BB6013E0C5
:102C60003A6843F6E07302EA03034FEA5313BA6883
:102C700002FB03F23B6803F01F0303F101034FEA79
:102C80004303B2FBF3F3BB603B6803F48043002BC8
:102C900003D0BB684FEA5303BB603B6803F40043B7
:102CA000002B03D0BB684FEA9303BB60FB6843F47F
:102CB0008003FB60FB6803F48003002B3CD07B683F
:102CC000002B2EDA7B6803F08043002B1DD07B683D
:102CD000002B04DA7B6803F40063002B07D07B68C9
:102CE000002B12DBFB6803F40063002B0DD1BB68E3
:102CF0004FEA43027B6803F0FE534FEA935303F11C
:102D00000103B2FBF3F3BB6016E07B6803F0FC53F6
:102D10004FEAD35303F10103BA68B2FBF3F3BB608C
:102D20000AE0FB6803F0F0634FEAD35303F10103B9
:102D3000BA68B2FBF3F3BB60BB68184607F114072F
:102D4000BD4680BC704700BF80B483B000AF7860E0
:102D50004EF26003C4F20F034EF26002C4F20F029F
:102D6000126822F4F0117A6841EA02021A6007F14F
:102D70000C07BD4680BC704780B483B000AF78605C
:102D80004FF46143C4F20F034FF46142C4F20F02E7
:102D9000126822F470617A6841EA02021A604EF207
:102DA0001013C4F20F034EF21012C4F20F02126895
:102DB00022F470617A6841EA02021A6007F10C0796
:102DC000BD4680BC704700BF80B485B000AFF860DE
:102DD0000B467A60FB72FB6803F580631A467B68DA
:102DE00003F00103DBB2002B07D0FB6803F580631F
:102DF0001968FB7A41EA030308E0FB6803F5806386
:102E00001968FB7A6FEA030301EA03031360FB68A6
:102E100003F584631A467B6803F00203002B07D096
:102E2000FB6803F584631968FB7A41EA030308E051
:102E3000FB6803F584631968FB7A6FEA030301EA10
:102E40000303136007F11407BD4680BC704700BF41
:102E500080B485B000AFF8600B467A60FB72FB6807
:102E600003F581631A467B6803F00103DBB2002B94
:102E700007D0FB6803F581631968FB7A41EA030315
:102E800008E0FB6803F581631968FB7A6FEA0303C6
:102E900001EA03031360FB6803F5806303F1040395
:102EA0001A467B6803F00203002B09D0FB6803F588
:102EB000806303F104031968FB7A41EA03030AE023
:102EC000FB6803F5806303F104031968FB7A6FEA7A
:102ED000030301EA03031360FB6803F5806303F156
:102EE0000C031A467B6803F00403002B09D0FB682F
:102EF00003F5806303F10C031968FB7A41EA0303CD
:102F00000AE0FB6803F5806303F10C031968FB7AA0
:102F10006FEA030301EA0303136007F11407BD46D8
:102F200080BC704780B485B000AFF8607A603B60C9
:102F30000B46FB72FB6803F5A0631A467B6803F03F
:102F40000103DBB2002B07D0FB6803F5A06319680F
:102F5000FB7A41EA030308E0FB6803F5A063196804
:102F6000FB7A6FEA030301EA03031360FB6803F5CE
:102F7000A06303F104031A467B6803F00203002BED
:102F800009D0FB6803F5A06303F104031968FB7A19
:102F900041EA03030AE0FB6803F5A06303F10403BD
:102FA0001968FB7A6FEA030301EA03031360FB6805
:102FB00003F5A1631A467B6803F00403002B07D0D6
:102FC000FB6803F5A1631968FB7A41EA030308E093
:102FD000FB6803F5A1631968FB7A6FEA030301EA52
:102FE00003031360FB6803F5A3631A467B6803F0D1
:102FF0000803002B07D0FB6803F5A3631968FB7A6D
:1030000041EA030308E0FB6803F5A3631968FB7A50
:103010006FEA030301EA03031360FB6803F5A0638F
:1030200003F10C031A463B6803F00103DBB2002BEB
:1030300009D0FB6803F5A06303F10C031968FB7A60
:1030400041EA03030AE0FB6803F5A06303F10C0304
:103050001968FB7A6FEA030301EA03031360FB6854
:1030600003F5A2631A463B6803F00203002B07D066
:10307000FB6803F5A2631968FB7A41EA030308E0E1
:10308000FB6803F5A2631968FB7A6FEA030301EAA0
:1030900003031360FB6803F5A26303F104031A46FC
:1030A0003B6803F00403002B09D0FB6803F5A2631F
:1030B00003F104031968FB7A41EA03030AE0FB68A1
:1030C00003F5A26303F104031968FB7A6FEA0303B3
:1030D00001EA03031360FB6803F5A26303F10C0329
:1030E0001A463B6803F00803002B09D0FB6803F580
:1030F000A26303F10C031968FB7A41EA03030AE0B7
:10310000FB6803F5A26303F10C031968FB7A6FEA0D
:10311000030301EA03031360FB6803F5A5631A4682
:103120003B68002B07D1FB6803F5A5631968FB7AA0
:1031300041EA030308E0FB6803F5A5631968FB7A1D
:103140006FEA030301EA0303136007F11407BD46A6
:1031500080BC704780B483B000AF78600B46FB70D2
:103160007B6803F582637A6802F582621168FA78F7
:1031700041EA02021A6007F10C07BD4680BC7047A5
:1031800080B483B000AF78600B46FB70FB78002BF7
:1031900004D07B6803F583631B6805E07B6803F557
:1031A000826303F104031B68184607F10C07BD4650
:1031B00080BC704780B483B000AF78600B46FB7072
:1031C0007B6803F5826303F10C03FA781A6007F158
:1031D0000C07BD4680BC704780B483B000AF7860F8
:1031E0000B46FB70FB784FEA83031A467B68D318C3
:1031F0001B68184607F10C07BD4680BC704700BF2E
:1032000080B483B000AF786013460A46FA70BB7092
:10321000FB784FEA83031A467B68D318BA781A60A2
:1032200007F10C07BD4680BC704700BF80B582B077
:1032300000AF78600B46FB70FB78786819464FF05A
:103240000002FFF7C1FDFB78786819464FF00102D4
:103250004FF00003FFF766FE07F10807BD4680BD8B
:1032600080B582B000AF78600B46FB70FB78786861
:1032700019464FF00002FFF7A7FDFB787868194662
:103280004FF001024FF00803FFF74CFE07F108076B
:10329000BD4680BD80B582B000AF78600B46FB7044
:1032A000FB78786819464FF00102FFF78DFDFB7837
:1032B000786819464FF001024FF00803FFF732FE1D
:1032C00007F10807BD4680BD80B582B000AF7860C9
:1032D0000B46FB70FB78786819464FF00202FFF747
:1032E00073FDFB78786819464FF001024FF0080330
:1032F000FFF718FE07F10807BD4680BD80B582B014
:1033000000AF78600B46FB70FB78786819464FF089
:103310000202FFF759FDFB78786819464FF0010269
:103320004FF00803FFF7FEFD07F10807BD4680BD1B
:1033300080B500AFFEF7F2FE4DF25840C0F200003B
:103340004FF019014FF00102FEF76EFF4DF264409D
:10335000C0F200004FF001014FF00A02FEF764FFD7
:103360004DF26840C0F200004FF001014FF014022E
:10337000FEF75AFF4DF26840C0F200004FF0010125
:103380004FF01E02FEF750FF4DF26840C0F2000001
:103390004FF001014FF02802FEF746FF4DF26C405E
:1033A000C0F200004FF001014FF03202FEF73CFF87
:1033B0004DF26C40C0F200004FF001014FF03C02B2
:1033C000FEF732FF4DF26C40C0F200004FF00101F9
:1033D0004FF04602FEF728FF4DF27440C0F20000A5
:1033E0004FF041014FF03202FEF71EFF4DF27440E4
:1033F000C0F200004FF041014FF03C02FEF714FF15
:103400004DF27440C0F200004FF041014FF046020F
:10341000FEF70AFF4DF27440C0F200004FF00101C8
:103420004FF05002FEF700FF4DF27440C0F2000072
:103430004FF041014FF05002FEF7F6FEFEF7D6FFC7
:1034400080BD00BF80B584B000AF78607B680B2B77
:1034500062D801A252F823F08934000095340000AC
:10346000A1340000AD340000B9340000C5340000C0
:10347000D1340000DD340000E9340000F5340000F0
:10348000013500000D3500004DF27C43C0F2000311
:10349000FB6041E04DF29043C0F20003FB603BE073
:1034A0004DF2A443C0F20003FB6035E04DF2B84397
:1034B000C0F20003FB602FE04DF2CC43C0F20003EA
:1034C000FB6029E04DF2E043C0F20003FB6023E023
:1034D0004DF2F043C0F20003FB601DE04DF20053DB
:1034E000C0F20003FB6017E04DF21453C0F200037A
:1034F000FB6011E04DF22853C0F20003FB600BE0CB
:103500004DF23C53C0F20003FB6005E04DF2505316
:10351000C0F20003FB6000BFF8684FF00101FEF746
:1035200039FFFEF763FF07F11007BD4680BD00BFFE
:1035300080B500AF4DF26C50C0F200004FF00201B8
:10354000FEF728FF4DF28450C0F200004FF0030157
:10355000FEF720FF4DF29C50C0F200004FF0040136
:10356000FEF718FF80BD00BF80B584B000AFF860E3
:10357000B9607A60FB70FB78F868B9687A6801F026
:1035800081F807F11007BD4680BD00BF80B586B049
:1035900002AFF860B9607A603B60BB690093F8687D
:1035A000B9687A683B6801F05DF907F11007BD461C
:1035B00080BD00BF80B500AF44F24020C0F20F00D4
:1035C00001F018FA80BD00BF80B58AB002AFF86084
:1035D000B9603B601346FB80FB881846396B00F0EE
:1035E00029FDB861BB69002B00F0A680BB691A6B8E
:1035F000FB8803F1FF334FEA8303D3187B617B69B8
:1036000023F007037B61FB880093B869B968BA6A45
:103610007B6B00F03BFC7869F9683A6802F034F89B
:1036200003461A46BB691A60FB6A002B02D0FB6A8C
:10363000BA691A6002F0A8F840F26873C2F2000397
:103640001B6803F1010240F26873C2F200031A60C2
:1036500040F29463C2F200031B68002B0FD140F2CA
:103660009463C2F20003BA691A6040F26873C2F24E
:1036700000031B68012B18D100F044FC15E040F258
:103680007873C2F200031B68002B0ED140F29463E2
:10369000C2F200031B68DA6ABB6A9A4205D840F29C
:1036A0009463C2F20003BA691A60BB69DA6A40F235
:1036B0007073C2F200031B689A4206D9BB69DA6ACA
:1036C00040F27073C2F200031A6040F28C73C2F2CF
:1036D00000031B6803F1010240F28C73C2F2000385
:1036E0001A60BB69DA6A40F27473C2F200031B68A5
:1036F0009A4206D9BB69DA6A40F27473C2F20003D7
:103700001A60BB69DA6A13464FEA83039B184FEAD3
:1037100083031A4640F29863C2F20003D218BB69D1
:1037200003F104031046194601F0BAFC4FF00103FF
:10373000FB6102F03FF802E04FF0FF33FB61FB69F1
:10374000012B11D140F27873C2F200031B68002BE9
:103750000AD040F29463C2F200031B68DA6ABB6AC3
:103760009A4201D202F004F8FB69184607F12007DB
:10377000BD4680BD80B586B000AF786039604FF03F
:1037800000037B6100F066F97B681A683B68D31818
:103790003B617B681A6840F26C73C2F200031B68DD
:1037A0009A4210D97B681A683B699A421BD940F249
:1037B0006C73C2F200031B683A699A4213D94FF046
:1037C00001037B610FE07B681A683B699A4207D866
:1037D00040F26C73C2F200031B683A699A4202D944
:1037E0004FF001037B617B683A691A607B69002BAB
:1037F0000CD040F29463C2F200031B6803F104038F
:10380000184601F0B3FC386900F0CEFB00F034F943
:10381000F860FB68002B01D101F0AAFF07F118073F
:10382000BD4680BD80B584B000AF786001F0ACFFCC
:1038300040F29463C2F200031B687A689A4202D194
:103840004FF000037B607B68002B05D140F294634E
:10385000C2F200031B6800E07B68FB60FB6803F1B9
:103860000403184601F082FCFB689B6A002B05D01C
:10387000FB6803F11803184601F078FCFB6803F1BC
:10388000040340F25470C2F20000194601F008FC33
:1038900001F090FF7B68002B20D140F27873C2F2D8
:1038A00000031B68002B02D001F062FF16E040F21B
:1038B0005473C2F200031B681A4640F26873C2F2E6
:1038C00000031B689A4207D140F29463C2F20003DE
:1038D0004FF000021A6001E000F068FA07F11007EB
:1038E000BD4680BD80B485B000AF78604FF0000366
:1038F000FB607B68BB60BB685A6940F25473C2F2DC
:1039000000039A420ED1BB689A6A40F24073C2F239
:1039100000039A4206D0BB689B6A002B02D14FF08D
:103920000103FB60FB68184607F11407BD4680BC25
:10393000704700BF80B584B000AF78607B68FB60E3
:10394000FB68002B48D040F29463C2F200031B686E
:10395000FA689A4240D001F017FFF868FFF7C2FFFB
:103960000346012B36D1FB6803F10403184601F02E
:10397000FDFBFB68DA6A40F27473C2F200031B6855
:103980009A4206D9FB68DA6A40F27473C2F2000305
:103990001A60FB68DA6A13464FEA83039B184FEA02
:1039A00083031A4640F29863C2F20003D218FB6800
:1039B00003F104031046194601F072FBFB68DA6A52
:1039C00040F29463C2F200031B68DB6A9A4201D39F
:1039D00001F0CEFE01F0EEFE07F11007BD4680BDFE
:1039E00080B586B004AF4DF2B453C0F200034FF07F
:1039F000000200924FF0000201924FF0000202928A
:103A00004FF00002039243F67D60C0F200001946B9
:103A10004FF064024FF00003FFF7D6FD78607B683B
:103A2000012B13D14FF0A00080F3118840F278737E
:103A3000C2F200034FF001021A6040F26C73C2F24E
:103A400000034FF000021A6001F068FE07F108075A
:103A5000BD4680BD80B400AF40F27C73C2F200036B
:103A60001B6803F1010240F27C73C2F200031A608A
:103A7000BD4680BC704700BF90B583B000AF4FF02B
:103A800000037B6001F080FE40F27C73C2F2000311
:103A90001B6803F1FF3240F27C73C2F200031A602C
:103AA00040F27C73C2F200031B68002B40F086805A
:103AB00040F26873C2F200031B68002B7ED04FF007
:103AC00000033B603DE040F24073C2F20003DB685C
:103AD000DB681C4604F11803184601F047FB04F1AB
:103AE0000403184601F042FBE26A40F27473C2F22A
:103AF00000031B689A4205D9E26A40F27473C2F26D
:103B000000031A60E26A13464FEA83039B184FEAE8
:103B100083031A4640F29863C2F20003D21804F1FC
:103B200004031046194601F0BBFAE26A40F29463BE
:103B3000C2F200031B68DB6A9A4202D34FF0010312
:103B40003B6040F24073C2F200031B68002BBAD105
:103B500040F28073C2F200031B68002B18D00DE006
:103B600000F048F840F28073C2F200031B6803F1D2
:103B7000FF3240F28073C2F200031A6040F2807399
:103B8000C2F200031B68002BEAD14FF001033B6037
:103B90003B68012B06D040F28473C2F200031B681D
:103BA000012B0BD14FF001037B6040F28473C2F212
:103BB00000034FF000021A6001F0DAFD01F0FAFD97
:103BC0007B68184607F10C07BD4690BD80B582B0F2
:103BD00000AF01F0D9FD40F26C73C2F200031B6824
:103BE0007B6001F0E7FD7B68184607F10807BD46DA
:103BF00080BD00BF80B584B000AF40F27C73C2F2DC
:103C000000031B68002B40F0C08040F26C73C2F2CE
:103C100000031B6803F1010240F26C73C2F200035F
:103C20001A6040F26C73C2F200031B68002B40D193
:103C300040F23873C2F200031B68FB6040F23C7331
:103C4000C2F200031A6840F23873C2F200031A602D
:103C500040F23C73C2F20003FA681A6040F28873C3
:103C6000C2F200031B6803F1010240F28873C2F242
:103C700000031A6040F23873C2F200031B681B682D
:103C8000002B07D140F26803C2F200034FF0FF326D
:103C90001A600EE040F23873C2F200031B68DB6862
:103CA000DB68BB60BB685A6840F26803C2F200037D
:103CB0001A6040F26C73C2F200031A6840F26803A3
:103CC000C2F200031B689A426BD340F23873C2F20F
:103CD00000031B681B68002B07D140F26803C2F287
:103CE00000034FF0FF321A605BE040F23873C2F21B
:103CF00000031B68DB68DB68BB60BB685B687B60DC
:103D000040F26C73C2F200031A687B689A4206D2D2
:103D100040F26803C2F200037A681A6041E0BB68AF
:103D200003F10403184601F021FABB689B6A002BDB
:103D300005D0BB6803F11803184601F017FABB68F9
:103D4000DA6A40F27473C2F200031B689A4206D921
:103D5000BB68DA6A40F27473C2F200031A60BB688F
:103D6000DA6A13464FEA83039B184FEA83031A4625
:103D700040F29863C2F20003D218BB6803F1040357
:103D80001046194601F08CF99FE740F28073C2F2A9
:103D900000031B6803F1010240F28073C2F20003CA
:103DA0001A6007F11007BD4680BD00BF80B483B024
:103DB00000AF40F27C73C2F200031B68002B14D0EA
:103DC00040F28473C2F200034FF001021A604FE028
:103DD00040F27473C2F200031B6803F1FF3240F239
:103DE0007473C2F200031A6000E000BF40F2747303
:103DF000C2F200031A6813464FEA83039B184FEA86
:103E000083031A4640F29863C2F20003D3181B687A
:103E1000002BDDD040F27473C2F200031A6813461F
:103E20004FEA83039B184FEA83031A4640F29863D4
:103E3000C2F20003D3187B607B685B685B681A463C
:103E40007B685A607B685A687B6803F108039A4272
:103E500005D17B685B685B681A467B685A607B6843
:103E60005B68DB681A4640F29463C2F200031A6092
:103E700007F10C07BD4680BC704700BF80B582B01B
:103E800000AF786000F08AF8FCE700BF80B584B02E
:103E900000AFF860B9607A603B60FB6803F13403FF
:103EA0001A46BB68104619464FF00C0203F070FB2F
:103EB000FB684FF0000283F83F207B68052B02D996
:103EC0004FF005037B60FB687A68DA62FB6803F1F8
:103ED0000403184601F0D6F8FB6803F118031846EE
:103EE00001F0D0F8FB68FA681A617B68C3F106023A
:103EF000FB689A61FB68FA685A6207F11007BD46D1
:103F000080BD00BF80B582B000AF4FF000037B6082
:103F100013E07A6813464FEA83039B184FEA830342
:103F20001A4640F29863C2F20003D318184601F013
:103F300085F87B6803F101037B607B68052BE8D97A
:103F400040F21070C2F2000001F078F840F22470E4
:103F5000C2F2000001F072F840F24070C2F20000BC
:103F600001F06CF840F25470C2F2000001F066F803
:103F700040F23873C2F2000340F21072C2F2000243
:103F80001A6040F23C73C2F2000340F22472C2F2A3
:103F900000021A6007F10807BD4680BD80B400AF7B
:103FA000BD4680BC704700BF80B582B000AF78606E
:103FB00040F29463C2F200031B687A685A6040F2D0
:103FC0006C73C2F200031B687A689A4210D240F206
:103FD0003C73C2F200031A6840F29463C2F2000319
:103FE0001B6803F104031046194601F083F81DE035
:103FF00040F23873C2F200031A6840F29463C2F2CE
:1040000000031B6803F104031046194601F072F81F
:1040100040F26803C2F200031B687A689A4205D234
:1040200040F26803C2F200037A681A6007F10807D9
:10403000BD4680BD80B584B000AF03463960FB80CB
:104040004FF0400001F01EFF0346FB60FB68002BB1
:1040500023D03B68002B07D1FB884FEA8303184627
:1040600001F010FF034600E03B68FA681363FB6849
:104070001B6B002B06D1F86801F050FF4FF00003D6
:10408000FB600AE0FB681A6BFB884FEA830310466B
:104090004FF0A5011A4603F0A7F9FB68184607F18F
:1040A0001007BD4680BD00BF80B584B000AF78600A
:1040B0007B68DB68FB607B68DB68FB6013E0FB68A8
:1040C0001B681A7840F29073C2F200031B789A4280
:1040D00005D1FB681B68184600F00EF807E0FB6886
:1040E00003F10403FB60FB681B68002BE7D107F1B9
:1040F0001007BD4680BD00BF80B584B000AF7860BA
:104100007B68DB68FB602BE0FB689B689847034695
:10411000012B21D1FB68DB68002B02D0FB68DB6838
:104120009847FB681A7840F29073C2F200031B783C
:104130009A4211D040F29073C2F200031A7840F212
:104140009173C2F200031A70FB681A7840F2907300
:10415000C2F200031A7007E0FB6803F11003FB6072
:10416000FB689B68002BCFD107F11007BD4680BDCF
:1041700090B585B000AF78607B68FB60FFF726FDE7
:104180000346BB6000F0C2F840F2A073C2F2000325
:104190001B6803F1010240F2A073C2F200031A602F
:1041A00041F6EA33C2F200031B78012B25D140F21D
:1041B0009473C2F200031B68184602F071F80346BC
:1041C0001A4640F2AC73C2F200031A7040F29473C4
:1041D000C2F200031B6818464A4902F02BFF03464F
:1041E0001A4640F2A473C2F200031A6041F6EA33A1
:1041F000C2F200034FF000021A7041F6EB33C2F234
:1042000000031B78012B25D140F29873C2F2000302
:104210001B68184602F066F803461A4640F2AD7372
:10422000C2F200031A7040F29873C2F200031B68D6
:104230001846344902F0FEFE03461A4640F2A873BF
:10424000C2F200031A6041F6EB33C2F200034FF0F2
:1042500000021A7000F098FD024640F29C73C2F210
:1042600000031A6040F29C73C2F200031B684FF017
:10427000010214461846244902F0D0FF0346002BE1
:1042800002D14FF000031C46E3B2002B07D040F2EE
:10429000AE73C2F200034FF001021A7006E040F262
:1042A000AE73C2F200034FF000021A7040F2AD7319
:1042B000C2F200031B78012B0DD040F2AE73C2F2A4
:1042C00000031B78012B06D040F2B073C2F200034A
:1042D0001B78012B07D140F2AF73C2F200034FF0FD
:1042E00001021A7006E040F2AF73C2F200034FF011
:1042F00000021A7007F108031846F968FFF73AFA46
:1043000042E700BF000068420000A04080B500AF57
:1043100001F00EFE80BD00BF80B483B000AF7860B6
:104320007B68042B0CD14EF62453CEF200034EF6DC
:104330002452CEF20002126842F480321A6051E038
:104340007B68052B0CD14EF62453CEF200034EF6BB
:104350002452CEF20002126842F400321A6041E0A8
:104360007B68062B0CD14EF62453CEF200034EF69A
:104370002452CEF20002126842F480221A6031E028
:104380007B680F2B0CD14EF21003CEF200034EF2DD
:104390001002CEF20002126842F002021A6021E01E
:1043A0007B680F2B0FD97B682F2B0CD84FF4614300
:1043B000CEF200037A68A2F110024FF0010101FA77
:1043C00002F21A600EE07B682F2B0BD94EF2041319
:1043D000CEF200037A68A2F130024FF0010101FA37
:1043E00002F21A6007F10C07BD4680BC704700BF9F
:1043F00080B582B000AF7860396040F2B473C2F229
:10440000000303F0704240F2B473C2F2000323F0E1
:104410007F4323F470034FEA431342EA030343F05C
:1044200000731B68002B5BD040F2B473C2F2000330
:1044300003F0704240F2B473C2F2000323F07F43F2
:1044400023F470034FEA431342EA030343F000737B
:1044500043F004031B68002B3ED000BF4FF4004024
:10446000C4F2000000F074FF0346002BF6D14FF4B5
:104470008040C4F200004FF040014FF00002FEF710
:10448000BFFE40F2B473C2F2000303F0704240F288
:10449000B473C2F2000323F07F4323F470034FEAA6
:1044A000431342EA030343F0007343F004034FF065
:1044B00000021A6010E07B681B787A6802F1010242
:1044C0007A604FF40040C4F20000194600F028FF63
:1044D0003B6803F1FF333B603B68002BEBD100E00E
:1044E00000BF07F10807BD4680BD00BF80B582B0A0
:1044F00000AF7860396040F2B473C2F2000303F099
:10450000704240F2B473C2F2000323F07F4323F4FD
:1045100070034FEA431342EA030343F000731B683E
:10452000002B5BD040F2B473C2F2000303F0704280
:1045300040F2B473C2F2000323F07F4323F470030C
:104540004FEA431342EA030343F0007343F00403CA
:104550001B68002B3ED100BF4FF40040C4F20000A6
:1045600000F0F6FE0346002BF6D14FF48040C4F273
:1045700000004FF040014FF04002FEF741FE40F2D4
:10458000B473C2F2000303F0704240F2B473C2F29B
:10459000000323F07F4323F470034FEA431342EAFE
:1045A000030343F0007343F004034FF001021A6069
:1045B00010E07B681B787A6802F101027A604FF4A0
:1045C0000040C4F20000194600F0AAFE3B6803F167
:1045D000FF333B603B68002BEBD100E000BF07F1ED
:1045E0000807BD4680BD00BF80B582B000AF40F275
:1045F000B873C2F200034FF000021A6040F2B873C1
:10460000C2F2000303F104034FF000021A604DF2FE
:10461000F870C0F200004FF00301FFF7E9FE4DF221
:10462000FC70C0F200004FF00301FFF7E1FE4DF215
:10463000C050C0F200004FF00201FFF7D9FE4FF06A
:1046400000037B6016E04FF000033B600BE040F29C
:10465000B870C2F200004FF00801FFF747FF3B6857
:1046600003F110033B603B687F2BF0D97B6803F1BB
:1046700001037B607B685F2BE5D907F10807BD4626
:1046800080BD00BF80B588B000AFF860B9607A60C7
:10469000FB7040F2B873C2F200034FF015021A70BB
:1046A000BB684FEA5303DAB240F2B873C2F20003B8
:1046B0005A7040F2B873C2F200034FF03F029A7092
:1046C00040F2B870C2F200004FF00301FFF790FE15
:1046D00040F2B873C2F200034FF075021A707B68A3
:1046E000DAB240F2B873C2F200035A707B68DBB2F0
:1046F00003F10703DAB240F2B873C2F200039A7012
:1047000040F2B870C2F200004FF00301FFF770FEF4
:104710004DF2BC50C0F200004FF00201FFF768FEFE
:1047200094E0FB681B7803F07F03FB75FB6803F1E3
:104730000103FB60FB7D1F2B03D84FF00003FB75CB
:1047400003E0FB7DA3F12003FB754FF00003FB6149
:1047500079E04FF00003BB615FE040F2B873C2F252
:104760000003BA699B184FF000021A70F97D4DF2F0
:10477000C452C0F200020B464FEA83035B18F9698A
:104780005B18D3181B781A46BB6942FA03F303F08F
:104790000103DBB2002B0AD0FB784FEA0313DAB235
:1047A00040F2B873C2F20003B9695B181A70FB6972
:1047B000032B2ED8F97DFB6903F101004DF2C452A1
:1047C000C0F200020B464FEA83035B181B18D31894
:1047D0001B781A46BB6942FA03F303F00103DBB20C
:1047E000002B16D040F2B873C2F20003BA699B18CE
:1047F0001B78DAB2FB7803F00F03DBB242EA030363
:10480000DBB2DAB240F2B873C2F20003B9695B18E6
:104810001A70BB6903F10103BB61BB69072B9CD90B
:1048200040F2B870C2F200004FF00801FFF75EFEE0
:10483000BB6803F10203BB60BB68802B0CD0FB6933
:1048400003F10203FB61FB69052B82D9FB681B782E
:10485000002B7FF466AF00E000BF07F12007BD46E4
:1048600080BD00BF80B584B000AFF860B9607A60E9
:104870003B6040F2B873C2F200034FF015021A70A9
:10488000BB684FEA5303DAB240F2B873C2F20003D6
:104890005A70BA683B68D318A3F102034FEA530376
:1048A000DAB240F2B873C2F200039A7040F2B87004
:1048B000C2F200004FF00301FFF79AFD40F2B87317
:1048C000C2F200034FF075021A707B68DAB240F250
:1048D000B873C2F200035A707B68DAB2BB69DBB20C
:1048E000D318DBB203F1FF33DAB240F2B873C2F28D
:1048F00000039A7040F2B870C2F200004FF003015A
:10490000FFF776FD4DF2C050C0F200004FF00201FB
:10491000FFF76EFD0CE03B684FEA5303F868194659
:10492000FFF7E4FD3B684FEA5303FA68D318FB60D6
:10493000BB69002B0CBF00230123DBB2BA6902F173
:10494000FF32BA61002BE6D107F11007BD4680BDEA
:1049500080B584B002AF78604FF40040C4F200002C
:1049600000F0CAFCFEF72EF803467A6800924FF07A
:10497000080201924FF40040C4F2000019464FF0C3
:1049800003024FF0000300F049FC4FF48040C4F2F2
:1049900000004FF00801FEF7B1FC4FF48040C4F274
:1049A00000004FF008014FF004024FF00A03FEF739
:1049B000B9FA4FF40040C4F2000000F089FC40F264
:1049C000B473C2F2000303F0704240F2B473C2F257
:1049D000000323F07F4323F470034FEA431342EABA
:1049E000030343F000734FF001021A6007F1080758
:1049F000BD4680BD80B584B000AF78604FF0100038
:104A0000C1F20000FDF766FE4FF00100C2F20000A7
:104A1000FDF760FE4FF00100C2F20000FDF75AFE04
:104A20004FF48040C4F200004FF02C01FEF766FC0A
:104A30004FF48040C4F200004FF02C014FF004020C
:104A40004FF00A03FEF76EFA4FF48040C4F2000004
:104A50004FF0C001FEF71EFC4FF48040C4F200008E
:104A60004FF0C0014FF004024FF00803FEF75AFA6E
:104A70004FF48040C4F200004FF0C0014FF0C0027C
:104A8000FEF7BEFB40F2B473C2F2000303F07042C3
:104A900040F2B473C2F2000323F07F4323F47003A7
:104AA0004FEA431342EA030343F0007343F0040365
:104AB0004FF001021A607868FFF74AFFFFF794FD94
:104AC0004FF00003FB6021E0FB6803F101024DF2AF
:104AD000A473C0F20003D2184DF2A473C0F2000315
:104AE000F9685B181B7803F1FF3310461946FFF78E
:104AF0007FFC4DF2A473C0F20003FA689B181B7888
:104B00001A46FB68D31803F10103FB60FB684E2BC8
:104B1000DAD907F11007BD4680BD00BF80B500AFF0
:104B20004FF02000C2F20000FDF7D4FD4FF4A0408A
:104B3000C4F202004FF00201FEF792FB4FF4A040D6
:104B4000C4F202004FF002014FF001024FF00A03DD
:104B5000FEF7E8F94FF02E00FFF7DEFB4FF4A04020
:104B6000C4F202004FF002014FF00402FEF770F9A8
:104B70004FF4A040C4F202004FF00201FEF7EAFA3F
:104B80004FF01000C2F20000FDF7A4FD4FF480408A
:104B9000C4F202004FF00401FEF762FB4FF48040C4
:104BA000C4F202004FF004014FF001024FF00A037B
:104BB000FEF7B8F94FF48040C4F202004FF008014C
:104BC000FEF74EFB4FF48040C4F202004FF00801A4
:104BD0004FF001024FF00A03FEF7A4F94FF0140062
:104BE000FFF79AFB4FF48040C4F202004FF00C0133
:104BF0004FF00402FEF72CF94FF48040C4F202009B
:104C00004FF00C01FEF7A6FA80BD00BF684620F009
:104C100007018D4681B585B000AF4FF48040C4F2E6
:104C200002004FF00101FEF7ABFA78607B6803F0F9
:104C30000103DBB2002B28D04FF48043C4F20203FF
:104C4000FB604FF00103FB7241F6F033C2F2000348
:104C50004FF001021A7041F6F133C2F200034FF037
:104C600000021A7041F68843C2F200031B6818461E
:104C7000FEF738FE0346012B07D141F68843C2F206
:104C800000031B681846FEF755FE7B6803F002031D
:104C9000002B15D04FF48043C4F20203FB604FF0A9
:104CA0000203FB7241F6F133C2F200034FF001023E
:104CB0001A7041F6F033C2F200034FF000021A708E
:104CC0007B6803F00403002B0ED04FF48043C4F242
:104CD0000203FB604FF00403FB7241F6F233C2F2B1
:104CE00000034FF001021A707B6803F00803002BE9
:104CF0000ED04FF48043C4F20203FB604FF0080370
:104D0000FB7241F6F333C2F200034FF001021A7056
:104D1000FB7AF8681946FEF74DFA07F11407BD460D
:104D2000BDE8814085467047684620F007018D4602
:104D300081B585B000AF4FF4A040C4F202004FF03F
:104D40000101FEF71DFA78607B6803F00203002B77
:104D50000ED04FF4A043C4F20203FB604FF00203F5
:104D6000FB7241F6F433C2F200034FF001021A70F5
:104D7000FB7AF8681946FEF71DFA07F11407BD46DD
:104D8000BDE881408546704780B500AF4FF40040D4
:104D9000C4F203004FF003014FF000024FF0610333
:104DA00000F096FB4FF40040C4F203004FF0030103
:104DB00000F056FC00BF4FF40040C4F203004FF077
:104DC00003014FF0000200F0D9FA0346002BF2D0A5
:104DD0004FF40040C4F203004FF0030141F65C724F
:104DE000C2F2000200F00AFC4FF40040C4F20300DB
:104DF0004FF0030100F002FB41F65C73C2F20003C6
:104E00001B68184601F0F4FB02460B461046194693
:104E10000BA3D3E9002301F061FC02460B461046C8
:104E2000194601F0F5FE024640F2C073C2F20003DB
:104E30001A6040F2C073C2F200031B68184680BDBE
:104E4000051450400105843F80B500AF4FF4004089
:104E5000C4F203004FF003014FF000024FF0620371
:104E600000F036FB4FF40040C4F203004FF00301A2
:104E700000F0F6FB00BF4FF40040C4F203004FF017
:104E800003014FF0000200F079FA0346002BF2D044
:104E90004FF40040C4F203004FF0030141F660728A
:104EA000C2F2000200F0AAFB4FF40040C4F203007B
:104EB0004FF0030100F0A2FA41F66073C2F2000362
:104EC0001B68184601F094FB02460B461046194633
:104ED0000BA3D3E9002301F001FC02460B46104668
:104EE000194601F095FE024640F2C073C2F200037B
:104EF0001A6040F2C073C2F200031B68184680BDFE
:104F0000051450400105843F80B500AF4FF40040C8
:104F1000C4F203004FF003014FF000024FF06303AF
:104F200000F0D6FA4FF40040C4F203004FF0030142
:104F300000F096FB00BF4FF40040C4F203004FF0B6
:104F400003014FF0000200F019FA0346002BF2D0E3
:104F50004FF40040C4F203004FF0030141F66472C5
:104F6000C2F2000200F04AFB4FF40040C4F203001A
:104F70004FF0030100F042FA41F66473C2F20003FD
:104F80001B68184601F034FB02460B4610461946D2
:104F90000BA3D3E9002301F0A1FB02460B46104608
:104FA000194601F035FE024640F2C473C2F2000316
:104FB0001A6040F2C473C2F200031B68184680BD39
:104FC000051450400105843F80B582B000AF4DF616
:104FD0007823C0F200037B6040F20003C2F20003BA
:104FE0003B600BE07B681A683B681A603B6803F122
:104FF00004033B607B6803F104037B603A6840F282
:105000002063C2F200039A42ECD3084808494FF0EB
:1050100000028842B8BF40F8042BFADBFCF7A8F87E
:10502000FCF72AFF07F10807BD4680BD20060020D7
:105030007424002080B400AFFEE700BF80B483B0CA
:1050400000AF78607B6803F108031A467B685A60FA
:105050007B684FF0FF329A607B6803F108031A46C1
:105060007B68DA607B6803F108031A467B681A6183
:105070007B684FF000021A6007F10C07BD4680BC48
:10508000704700BF80B483B000AF78607B684FF09A
:1050900000021A6107F10C07BD4680BC704700BFD3
:1050A00080B485B000AF786039607B685B68FB6076
:1050B000FB685B681A463B685A607B685A683B68C5
:1050C0009A60FB685B683A689A603A68FB685A6065
:1050D0003A687B685A603B687A681A617B681B682B
:1050E00003F101027B681A6007F11407BD4680BC1A
:1050F000704700BF80B485B000AF786039603B680E
:105100001B68BB60BB68B3F1FF3F03D17B681B69C1
:10511000FB600EE07B6803F10803FB6002E0FB68C4
:105120005B68FB60FB685B681B681A46BB689A4259
:10513000F5D9FB685B681A463B685A603B685B6858
:105140003A689A603B68FA689A603A68FB685A6005
:105150003B687A681A617B681B6803F101027B680F
:105160001A6007F11407BD4680BC704780B485B053
:1051700000AF78607B685B687A6892689A607B6849
:105180009B687A6852685A607B681B69FB60FB68A1
:105190005A687B689A4203D17B689A68FB685A60B8
:1051A0007B684FF000021A61FB681B6803F1FF3255
:1051B000FB681A6007F11407BD4680BC704700BF4A
:1051C00080B485B000AF786040F2C873C2F20003CB
:1051D0001B68002B08D142F67802C2F2000240F2AE
:1051E000C873C2F200031A6040F2C873C2F200032F
:1051F0001B68FB6040F2C873C2F200031A687B6848
:10520000D21840F2C873C2F200031A60FB68184655
:1052100007F11407BD4680BC704700BF80B48BB057
:1052200000AFF860B9607A603B603B68022B02D146
:105230004FF0080301E04FF000033B623B68002B96
:1052400002D14FF0000301E04FF004033A6A42EA52
:1052500003033B62FB6803F104033A6A1A60BA680D
:105260003B6BB2FBF3F3FB614FF000037B627B6AA5
:1052700003F102037B62FA697B6AB2FBF3F303F189
:10528000FF33BB61BB69FF2BF1D8FB6803F110034F
:105290007A6A1A607B684FEA83137B617B6803F04C
:1052A00030037B60BB694FEA03227B691A437B684A
:1052B0001A437B6B03F1FF3342EA03033B62FB6853
:1052C0003A6A1A6007F12C07BD4680BC704700BFE0
:1052D00080B483B000AF78607B6803F104037A6820
:1052E00002F10402126842F002021A6007F10C0790
:1052F000BD4680BC704700BF80B483B000AF78600B
:105300007B6803F104037A6802F10402126822F058
:1053100002021A6007F10C07BD4680BC704700BF4F
:1053200080B483B000AF7860396000BF7B6803F160
:105330000C031B6803F00203002BF7D07B6803F11A
:1053400008033A681A6007F10C07BD4680BC704735
:1053500080B483B000AF78607B6803F10C031B68F6
:1053600003F01003002B0CBF00230123DBB218460F
:1053700007F10C07BD4680BC704700BF80B487B002
:1053800000AFF860B9601346FB71FB79002B0CD0BD
:10539000FB6803F10C031A68BB684FF0011101FAB6
:1053A00003F302EA03037B6121E0FB6803F10403DA
:1053B0001A68BB684FF0010101FA03F343F480332C
:1053C00002EA03037B617B6903F48033002B0ED078
:1053D0007B6943F470237B61BB684FF4803202FA2F
:1053E00003F36FEA03037A6902EA03037B617B69D3
:1053F000184607F11C07BD4680BC704780B483B0D7
:1054000000AF786039607B6803F10C033A684FF0B5
:10541000010101FA02F21A6007F10C07BD4680BCD7
:10542000704700BF80B483B000AF786039607B689C
:105430007A6811683A684FF0010000FA02F241EA16
:1054400002021A6007F10C07BD4680BC704700BF1E
:1054500080B485B000AFF860B9607A603B60BB682B
:105460004FEA8303BB60FB6803F11403FA6802F19F
:1054700014021168BA684FF00F0000FA02F26FEAE6
:10548000020211407A6802F00F00BA6800FA02F2D4
:1054900041EA02021A60FB6803F12003FA6802F194
:1054A00020021168BA684FF00F0000FA02F26FEAAA
:1054B000020211403A6802F00300BA6800FA02F2F0
:1054C00041EA02021A6007F11407BD4680BC70472A
:1054D00080B487B000AFF860B9607A603B60BB68A9
:1054E00003F102034FEA4313FA68D318FB607B68A9
:1054F0004FEA83037B60FB68FA6811687A684FF0B3
:105500000F0000FA02F26FEA020211403A6802F05C
:105510000F007A6800FA02F241EA02021A60FB68A0
:1055200003F10403FA6802F1040211687A684FF08B
:105530000F0000FA02F26FEA020211403A6802F02C
:10554000F0024FEA12107A6800FA02F241EA02020F
:105550001A603B6803F47023002B34D0FB6803F11E
:1055600014031B687B617B684FF00F0202FA03F3A0
:105570006FEA03037A6902EA03037B613B6803F481
:10558000E0234FEA13427B6802FA03F37A6942EAA6
:1055900003037B61FB6803F114037A691A60FB68FB
:1055A00003F110031B687B617B684FF0010202FA74
:1055B00003F37A6942EA03037B61FB6803F110039A
:1055C0007A691A6014E0FB6803F110031B687B61C1
:1055D0007B684FF0010202FA03F36FEA03037A6972
:1055E00002EA03037B61FB6803F110037A691A6026
:1055F00007F11C07BD4680BC704700BF80B487B070
:1056000000AFF860B9607A60BB6803F102034FEA4B
:105610004313FA68D318FB604FF000037B610DE081
:10562000FB6803F108031A687B681A607B6803F162
:1056300004037B607B6903F101037B61FB6803F179
:105640000C031B6803F48073002B02D17B69072BCA
:10565000E6D97B69184607F11C07BD4680BC704738
:1056600080B483B000AF786039607B6803F12803B1
:105670003A684FF0010101FA02F21A6007F10C07D3
:10568000BD4680BC704700BF80B485B000AFF860F5
:10569000B9607A60FB68A3F10403FB60FB684FF01C
:1056A00080721A60FB68A3F10403FB60BA68FB68B0
:1056B0001A60FB68A3F10403FB60FB684FF0000273
:1056C0001A60FB68A3F11403FB607A68FB681A6038
:1056D000FB68A3F12003FB60FB68184607F1140781
:1056E000BD4680BC704700BF064B19680868B0E82B
:1056F000F00F80F309884FF0000080F311884EF01E
:105700000D0E70479406002003480068006880F37F
:10571000088862B600DF00BF08ED00E080B500AF8A
:105720004EF62053CEF200034EF62052CEF2000287
:10573000126842F460021A604EF62053CEF2000363
:105740004EF62052CEF20002126842F060421A6019
:1057500000F09EF840F26C03C2F200034FF000022A
:105760001A60FFF7D1FF4FF00003184680BD00BF5D
:1057700080B400AF4EF60453CEF200034FF08052D7
:105780001A60BD4680BC704780B400AF4FF0A000E7
:1057900080F3118840F26C03C2F200031B6803F12E
:1057A000010240F26C03C2F200031A60BD4680BCE5
:1057B000704700BF80B400AF40F26C03C2F2000338
:1057C0001B6803F1FF3240F26C03C2F200031A605F
:1057D00040F26C03C2F200031B68002B03D14FF0B0
:1057E000000080F31188BD4680BC7047EFF309804C
:1057F0000C4B1A6820E9F00F10602DE908404FF0BB
:10580000A00080F31188FEF7D1FA4FF0000080F37A
:105810001188BDE8084019680868B0E8F00F80F307
:10582000098870479406002080B582B000AF40F22E
:105830002463C2F200031B6803F1010240F22463F7
:10584000C2F200031A6041F6EC33C2F200031B6897
:1058500003F1010241F6EC33C2F200031A604EF686
:105860000453CEF200034FF080521A604FF0000351
:105870007B604FF0A00080F31188FEF7BBF94FF07A
:10588000000080F3118807F10807BD4680BD00BF06
:1058900080B400AF4EF21403CEF2000341F63F7223
:1058A0001A604EF21003CEF200034FF007021A60A6
:1058B000BD4680BC704700BF80B584B000AF786043
:1058C00039604FF4A010FDF73FFA4FF01010FCF7CD
:1058D00001FF7B68052B00F2B18001A252F823F092
:1058E000F95800002F590000655900009B5900002D
:1058F000D1590000075A00004FF02000C2F200000A
:10590000FCF7E8FE4FF4A040C4F202004FF00101A2
:10591000FDF7DAFC4FF04003FB60FB684FF40040FA
:10592000C4F2020019463A68FCF7C0F886E04FF06E
:105930004000C2F20000FCF7CDFE4FF4C040C4F2BC
:1059400002004FF00201FDF7BFFC4FF04003FB6087
:10595000FB684FF40040C4F2020019463A68FCF7B5
:10596000A5F86BE04FF00200C2F20000FCF7B2FEB7
:105970004FF4A040C4F200004FF00101FDF7A4FC79
:105980004FF08003FB60FB684FF40040C4F202005C
:1059900019463A68FCF78AF850E04FF00200C2F26C
:1059A0000000FCF797FE4FF4A040C4F200004FF057
:1059B0000201FDF789FC4FF08003FB60FB684FF4A8
:1059C0000040C4F2020019463A68FCF76FF835E06F
:1059D0004FF01000C2F20000FCF77CFE4FF4804054
:1059E000C4F202004FF00101FDF76EFC4FF0C0035E
:1059F000FB60FB684FF40040C4F2020019463A68AD
:105A0000FCF754F81AE04FF01000C2F20000FCF767
:105A100061FE4FF48040C4F202004FF00201FDF736
:105A200053FC4FF0C003FB60FB684FF40040C4F22E
:105A3000020019463A68FCF739F800BFFB684FF4DA
:105A40000040C4F2020019464FF00202FBF7F4FFD7
:105A5000FB684FF40040C4F202001946FCF74AF814
:105A600007F11007BD4680BD90B585B000AFF86066
:105A7000B9607A6040F27003C2F20003BA6853F86A
:105A80002240786801F0CAF903461846F96801F027
:105A90001DFA0346184601F0DFFB03464FF40040B1
:105AA000C4F2020021461A46FCF738F840F2880397
:105AB000C2F20003BA6853F822304FF40040C4F237
:105AC000020019464FF00102FCF75EF807F11407D7
:105AD000BD4690BD80B584B000AF78607B68FB6048
