:1000000044280020014900006D4900006D490000AE
:100010006D4900006D4900006D49000000000000BE
:10002000000000000000000000000000215000005F
:100030006D490000000000002551000061510000E2
:100040006D49000081580000015A0000D90B0000E2
:10005000454500006D4900006D4900006D490000F4
:100060006D4900006D4900006D4900006D490000B8
:100070006D4900006D4900006D4900006D490000A8
:100080006D4900006D4900006D4900006D49000098
:100090006D4900006D4900006D4900006D49000088
:1000A0006D4900006D4900006D4900006D49000078
:1000B0006D4900006D490000614600006D49000077
:1000C0006D4900006D4900006D4900006D49000058
:1000D0006D4900006D4900006D4900006D49000048
:1000E0006D4900006D4900006D4900006D49000038
:1000F0006D4900006D4900006D4900006D49000028
:1001000080B582B000AF00F059FB0346FB71FB796C
:10011000184607F10807BD4680BD00BF80B500AF97
:1001200001F052FB024641F60043C2F200031A609E
:1001300041F6FC33C2F200031A6841F60043C2F2F2
:1001400000031B68D21A40F21463C2F200031B685A
:100150004FF4FA5101FB03F3D2184FF67F43C0F27C
:100160000A039A4202D84FF0010301E04FF0000366
:10017000184680BD80B582B000AF00F01FFB03467B
:10018000FB7101F021FB024641F60043C2F200037D
:100190001A6041F6FC33C2F200031A6841F60043CC
:1001A000C2F200031B68D21A40F21463C2F20003C9
:1001B0001B684FF4FA5101FB03F3D2184FF680434A
:1001C000C0F20A039A421CD941F6FC33C2F2000382
:1001D0001A6841F60043C2F200031B68D21A40F2CB
:1001E0001463C2F200031B684FF4FA5101FB03F3DE
:1001F000D2184BF69F33C0F20D039A4201D8FB7917
:1002000001E04FF00003184607F10807BD4680BD26
:1002100080B500AF01F0D8FA024641F60043C2F2C1
:1002200000031A6041F6FC33C2F200031A6841F67B
:100230000043C2F200031B68D21A40F21463C2F2F8
:1002400000031B684FF4FA5101FB03F3D21843F289
:100250007F13C0F217039A4202D84FF0010301E066
:100260004FF00003184680BD80B582B000AF00F0AB
:10027000A5FA0346FB7101F0A7FA024641F60043D6
:10028000C2F200031A6041F6FC33C2F200031A689E
:1002900041F60043C2F200031B68D21A40F2146315
:1002A000C2F200031B684FF4FA5101FB03F3D218AA
:1002B0004FF44653C0F217039A421CD941F6FC335F
:1002C000C2F200031A6841F60043C2F200031B6841
:1002D000D21A40F21463C2F200031B684FF4FA51C1
:1002E00001FB03F3D21847F23F73C0F21B039A429B
:1002F00001D8FB7901E04FF00003184607F1080729
:10030000BD4680BD80B582B000AF00F06FFA0346F5
:10031000FB71FB79184607F10807BD4680BD00BF99
:1003200080B582B000AF00F061FA0346FB7101F0C6
:100330004BFA024641F60043C2F200031A6041F64E
:10034000FC33C2F200031A6841F60043C2F2000314
:100350001B68D21A40F21463C2F200031B684FF408
:10036000FA5101FB03F3D2184FF68043C0F20A039F
:100370009A421CD941F6FC33C2F200031A6841F6D6
:100380000043C2F200031B68D21A40F21463C2F2A7
:1003900000031B684FF4FA5101FB03F3D2184BF62C
:1003A0009F33C0F20D039A4201D8FB7901E04FF070
:1003B0000003184607F10807BD4680BD80B582B02E
:1003C00000AF00F013FA0346FB7101F0FDF902469D
:1003D00041F60043C2F200031A6041F6FC33C2F258
:1003E00000031A6841F60043C2F200031B68D21AE8
:1003F00040F21463C2F200031B684FF4FA5101FB90
:1004000003F3D2184FF44653C0F217039A421CD993
:1004100041F6FC33C2F200031A6841F60043C2F20F
:1004200000031B68D21A40F21463C2F200031B6877
:100430004FF4FA5101FB03F3D21847F23F73C0F2B5
:100440001B039A4201D8FB7901E04FF000031846E4
:1004500007F10807BD4680BD80B483B000AF41F608
:10046000C233C2F200031B78FB7141F6C233C2F201
:1004700000034FF000021A70FB79184607F10C07D1
:10048000BD4680BC704700BF80B483B000AF41F66A
:10049000C333C2F200031B78FB7141F6C333C2F2CF
:1004A00000034FF000021A70FB79184607F10C07A1
:1004B000BD4680BC704700BF80B500AF40F21C63F2
:1004C000C2F200034FF001021A6000F045F900F09B
:1004D00069F980BD80B500AF40F21C63C2F2000331
:1004E0004FF002021A6000F037F900F04FF980BDBA
:1004F00080B500AF40F21C63C2F200034FF003026C
:100500001A6000F029F900F041F980BD80B500AF14
:1005100040F21C63C2F200034FF004021A6000F0C4
:100520001BF900F03FF980BD80B500AF40F21C63BD
:10053000C2F200034FF00A021A6000F00DF900F059
:1005400031F980BD80B500AF40F21C63C2F20003F8
:100550004FF007021A6000F0FFF800F023F980BDA9
:1005600080B500AF40F21C63C2F200034FF00802F6
:100570001A6000F0F1F800F009F980BD80B500AF15
:1005800040F21C63C2F200034FF009021A6000F04F
:10059000E3F800F0FBF880BD80B500AF40F22063C7
:1005A000C2F200034FF000021A6040F21C63C2F274
:1005B00000034FF006021A6040F21863C2F2000313
:1005C0004FF001021A704FF4A040C4F202004FF045
:1005D00001014FF0010202F0BFFA80BD80B500AF0B
:1005E00040F21C63C2F200034FF000021A6040F2B6
:1005F0001863C2F200034FF000021A704FF4A040DB
:10060000C4F202004FF001014FF0000202F0A4FA20
:1006100041F65843C2F200031B68184602F0A6FDDB
:1006200080BD00BF80B500AF01F0CEF8024641F6B4
:100630000043C2F200031A6041F6FC33C2F2000329
:100640001A6841F60043C2F200031B68D21A40F256
:100650001463C2F200031B684FF4FA5101FB03F369
:10066000D2184BF6A033C0F20D039A4202D94FF0D4
:10067000010301E04FF00003184680BD80B500AFD4
:1006800001F0A2F8024641F60043C2F200031A60EC
:1006900041F6FC33C2F200031A6841F60043C2F28D
:1006A00000031B68D21A40F21463C2F200031B68F5
:1006B0004FF4FA5101FB03F3D21847F24073C0F232
:1006C0001B039A4202D94FF0010301E04FF00003EF
:1006D000184680BD80B500AF40F22063C2F200032F
:1006E0004FF000021A6040F21C63C2F200034FF0A8
:1006F00000021A6041F65843C2F200031B68184614
:1007000002F034FD80BD00BF80B400AF41F6C133BC
:10071000C2F200034FF000021A7041F6C033C2F279
:1007200000034FF000021A70BD4680BC704700BF46
:1007300080B400AF40F21C63C2F200034FF0050228
:100740001A6040F22063C2F200034FF001021A6007
:10075000BD4680BC704700BF80B500AF01F034F8E3
:10076000024641F6FC33C2F200031A6040F2146301
:10077000C2F200034FF000021A6002F0CBFE024604
:1007800041F60443C2F200031A6080BD80B500AF99
:1007900041F60440C2F200004FF0BF0102F08EFCAF
:1007A00080BD00BF80B500AF41F60440C2F200003A
:1007B0004FF05B0102F082FC80BD00BF80B483B0CB
:1007C00000AF41F6C033C2F200031B78FB7141F663
:1007D000C033C2F200034FF000021A70FB791846D2
:1007E00007F10C07BD4680BC704700BF80B483B0E2
:1007F00000AF41F6C133C2F200031B78FB7141F632
:10080000C133C2F200034FF000021A70FB791846A0
:1008100007F10C07BD4680BC704700BF80B400AF35
:1008200040F21863C2F200031B781846BD4680BC34
:10083000704700BF80B500AF4FF4C040C4F2020063
:100840004FF001014FF0000202F086F94FF4C04072
:10085000C4F200004FF020014FF0000202F07CF9DA
:100860004FF4C040C4F200004FF080014FF000028E
:1008700002F072F903F084FF024640F25463C2F2C0
:1008800000031A6003F0DCFF024640F24863C2F244
:1008900000031A604FF4C040C4F200004FF0200182
:1008A0004FF0200202F058F903F06AFF024640F2CE
:1008B0005863C2F200031A6003F0C2FF024640F21E
:1008C0004C63C2F200031A604FF4C040C4F200004F
:1008D0004FF020014FF0000202F03EF94FF4C0400B
:1008E000C4F200004FF080014FF0800202F034F9B2
:1008F00003F046FF024640F25C63C2F200031A6056
:1009000003F09EFF024640F25063C2F200031A60F9
:100910004FF4C040C4F202004FF001014FF0010259
:1009200002F01AF980BD00BF80B586B000AF7860D4
:1009300039603B68072B33D801A252F823F000BF7F
:1009400061090000690900007109000079090000CF
:10095000810900008909000091090000990900003F
:100960004FF00103FB731BE04FF00203FB7317E032
:100970004FF00403FB7313E04FF00803FB730FE029
:100980004FF01003FB730BE04FF02003FB7307E005
:100990004FF04003FB7303E04FF08003FB7300BF95
:1009A0007B6803F1FF33062B5DD801A252F823F0D8
:1009B000CD090000E3090000F90900000F0A00005A
:1009C000250A00003B0A0000510A00004FF0010315
:1009D000C2F200033B614FF48043C4F200037B6129
:1009E00041E04FF00203C2F200033B614FF4A04329
:1009F000C4F200037B6136E04FF00403C2F200034F
:100A00003B614FF4C043C4F200037B612BE04FF025
:100A10000803C2F200033B614FF4E043C4F2000359
:100A20007B6120E04FF01003C2F200033B614FF402
:100A30008043C4F202037B6115E04FF02003C2F251
:100A400000033B614FF4A043C4F202037B610AE060
:100A50004FF04003C2F200033B614FF4C043C4F2C5
:100A600002037B6100BF386901F0E0FAFB7B786923
:100A7000194602F0A1F8FB7B786919464FF0010294
:100A80004FF00C0301F0FAFE07F11807BD4680BDD8
:100A900080B586B000AF786039603B68072B33D8EB
:100AA00001A252F823F000BFC90A0000D10A0000D9
:100AB000D90A0000E10A0000E90A0000F10A00007A
:100AC000F90A0000010B00004FF00103FB731BE06B
:100AD0004FF00203FB7317E04FF00403FB7313E0C6
:100AE0004FF00803FB730FE04FF01003FB730BE0B4
:100AF0004FF02003FB7307E04FF04003FB7303E06C
:100B00004FF08003FB7300BF7B6803F1FF33062BBC
:100B10004FD801A252F823F0350B0000470B00001C
:100B2000590B00006B0B00007D0B00008F0B0000C9
:100B3000A10B00004FF010033B614FF48043C4F25F
:100B400000037B6135E04FF011033B614FF4A0439C
:100B5000C4F200037B612CE04FF012033B614FF4C1
:100B6000C043C4F200037B6123E04FF013033B61F9
:100B70004FF4E043C4F200037B611AE04FF014032A
:100B80003B614FF48043C4F202037B6111E04FF0FC
:100B90002E033B614FF4A043C4F202037B6108E0E3
:100BA0004FF02F033B614FF4C043C4F202037B615B
:100BB00000BF386903F04CF8FB7B786919464FF0A9
:100BC000010201F0F1FDFB7B7869194601F06EFF2F
:100BD00007F11807BD4680BD684620F007018D4625
:100BE00081B587B000AF4FF4E040C4F200004FF091
:100BF000010101F071FFF860FB6803F04003002B76
:100C000033D04FF4E043C4F200037B614FF0400364
:100C1000FB74FB7C7869194601F08AFF0346BB60D0
:100C2000BB68402B1AD141F6C033C2F200034FF02B
:100C300001021A7041F65843C2F200031B681846BD
:100C400002F0F4FA0346012B0FD141F65843C2F2E9
:100C500000031B68184602F011FB06E041F6C133A1
:100C6000C2F200034FF001021A70FB6803F0800328
:100C7000002B33D04FF4E043C4F200037B614FF00C
:100C80008003FB74FB7C7869194601F051FF034631
:100C90007B607B68802B1AD141F6C033C2F200031F
:100CA0004FF001021A7041F65843C2F200031B686C
:100CB000184602F0BBFA0346012B0FD141F6584308
:100CC000C2F200031B68184602F0D8FA06E041F6AB
:100CD000C133C2F200034FF001021A70FB7C786945
:100CE000194601F013FF07F11C07BD46BDE881401E
:100CF0008546704780B584B000AF42F6D223C0F27B
:100D00008E03BB6042F61003C0F280037B604FF499
:100D10006043C4F20F0342F61002C0F280721A67F9
:100D20004FF46043C4F20F0343F6D122C0F28E7237
:100D30001A664FF46043C4F20F0342F6D222C0F2A7
:100D40008E021A664FF46043C4F20F0342F610029B
:100D5000C0F280021A674FF00003FB6003E0FB68FB
:100D600003F10103FB60FA6840F2E7339A42F6D9D7
:100D70004FF46043C4F20F0342F6D222C0F28E0257
:100D80001A664FF46043C4F20F0342F61002C0F239
:100D900080021A674FF00003FB6003E0FB6803F179
:100DA0000103FB60FA6840F2E7339A42F6D94FF448
:100DB0006043C4F20F0342F6D222C0F28E021A66DA
:100DC0004FF46043C4F20F0342F6D222C0F28E0207
:100DD0001A664FF46043C4F20F0342F61002C0F2E9
:100DE00080021A674FF00003FB6003E0FB6803F129
:100DF0000103FB60FA6842F20F739A42F6D94FF48E
:100E00006043C4F20F031B6EBB604FF46043C4F237
:100E10000F031B6F7B607B68002B56DA7B6803F443
:100E20000063002B14D0BB684FEA931303F00F024A
:100E30007B684FEA131303F007031046194600F0CE
:100E400075F8024640F23003C2F200031A6008E06F
:100E500040F23003C2F200034FF44242C0F6EB32DC
:100E60001A60BB6803F48003002B5AD07B6803F43C
:100E70000063002B13D040F23003C2F200031A6863
:100E80007B684FEAD35303F03F0303F10103B2FB46
:100E9000F3F240F23003C2F200031A6041E040F284
:100EA0003003C2F200031A687B684FEAD35303F0A1
:100EB0003F0303F10103B2FBF3F34FEA530240F2A5
:100EC0003003C2F200031A602BE0BB684FEA9313B1
:100ED00003F00F02BB684FEA131303F0030310463D
:100EE000194600F023F8024640F23003C2F2000334
:100EF0001A60BB6803F48003002B12D040F2300369
:100F0000C2F200031A68BB684FEAD35303F00F0321
:100F100003F10103B2FBF3F240F23003C2F200032B
:100F20001A6007F11007BD4680BD00BF80B485B0D0
:100F300000AF786039604FF4D853C0F2B703FB605C
:100F40003B68032B00F2988001A252F823F000BF07
:100F5000610F000057100000631000006F100000C8
:100F60007B680F2B00F2878001A252F823F000BFAC
:100F7000B10F0000BD0F0000C50F0000D10F000031
:100F8000D90F0000E50F0000ED0F0000F90F000081
:100F900001100000091000001510000021100000D1
:100FA0002D10000039100000411000004D1000000D
:100FB00044F24023C0F20F03FB604BE04FF4E11317
:100FC000FB6047E048F28043C0F21E03FB6041E053
:100FD0004FF41613FB603DE049F69963C0F2360307
:100FE000FB6037E04FF46113FB6033E04FF41063B4
:100FF000C0F23D03FB602DE04FF47A13FB6029E063
:101000004FF49603FB6025E044F64033C0F24C03F6
:10101000FB601FE04FF40053C0F24E03FB6019E089
:1010200048F68053C0F25B03FB6013E04FF440438B
:10103000C0F25D03FB600DE04FF4E103FB6009E0EB
:101040004FF49053C0F27A03FB6003E04FF4FA03CD
:10105000FB6000BF10E04FF4D853C0F2B703FB6051
:101060000AE04CF2C063C0F22D03FB6004E047F2DB
:101070003053FB6000E000BFFB68184607F114071F
:10108000BD4680BC704700BFF0B58DB000AF41F6E3
:101090002043C2F20003D3E9000141F62043C2F22B
:1010A0000003D3E906234FF0010605F017FA0346C3
:1010B000002B02D14FF000031E46FE73FB7B002B7A
:1010C00010D041F62043C2F20003D3E90223C7E95E
:1010D000082341F62043C2F20003D3E90423C7E901
:1010E0000A230FE041F62043C2F20003D3E90823AC
:1010F000C7E9082341F62043C2F20003D3E90A23DB
:10110000C7E90A23FB7B002B08D041F62043C2F23B
:101110000003D3E90023C7E9042307E041F6204395
:10112000C2F20003D3E90623C7E90423FB7B002BAB
:101130001AD0D7E904014FF000024FF07E5303F5B7
:10114000E00304F087FD02460B461046194640F2C4
:101150004003C2F20003D3E9002304F02FFF02464C
:101160000B46C7E906231EE0D7E904014FF0000251
:101170004FF07E5303F5E00304F06CFD02460B468E
:101180001046194640F24003C2F20003D3E900239F
:10119000144683F0004522462B4604F00FFF02461A
:1011A0000B46C7E90623D7E90801D7E90A2304F06B
:1011B00051FD02460B461046194640F24803C2F262
:1011C0000003D3E9002304F0F9FE02460B46C7E909
:1011D0000023D7E90801D7E90A2305F057F90346A8
:1011E000002B07D141F62043C2F2000393F83030C0
:1011F000002B14D041F60843C2F200034FF0000068
:101200004FF00001C3E9000141F60843C2F20003B8
:101210004FF000004FF00001C3E90201AFE0D7E951
:101220000601D7E9002304F017FD02460B46C7E983
:1012300004234FF001031C46D7E904014FF00002DC
:101240004FF0804303F5101305F03EF90346002BE1
:1012500002D14FF000031C46E3B2002B0CD041F644
:101260000843C2F200034FF000004FF0804101F547
:101270001011C3E900012AE04FF001031C46D7E931
:1012800004014FF000024FF0404303F5101305F046
:1012900011F90346002B02D14FF000031C46E3B2C4
:1012A000002B0CD041F60843C2F200034FF00000BF
:1012B0004FF0404101F51011C3E9000107E041F68C
:1012C0000843C2F20003D7E90401C3E90001D7E9EA
:1012D0000001D7E9062304F0BDFC02460B46C7E92E
:1012E00004234FF001031C46D7E904014FF000022C
:1012F0004FF0804303F5101305F0E6F80346002B8A
:1013000002D14FF000031C46E3B2002B0CD041F693
:101310000843C2F200034FF000004FF0804101F596
:101320001011C3E902012AE04FF001031C46D7E97E
:1013300004014FF000024FF0404303F5101305F095
:10134000B9F80346002B02D14FF000031C46E3B26C
:10135000002B0CD041F60843C2F200034FF000000E
:101360004FF0404101F51011C3E9020107E041F6D9
:101370000843C2F20003D7E90401C3E9020107F1FF
:101380003407BD46F0BD00BF80B500AF4CF6183342
:10139000C0F200031B684FF000021A6041F62040C3
:1013A000C2F200004FF000014FF0380205F08CFC53
:1013B00041F60840C2F200004FF000014FF0100269
:1013C00005F082FC80BD00BF80B485B000AFF8603E
:1013D000B9607A60BA68FB68D318BB60BA68BB684A
:1013E00019684FF00103CFF6F87301EA0303796837
:1013F0000B4313607B6803F00203002B0CD0BB6827
:1014000003F120034FF0B0021A60BB6803F124031C
:101410004FF430621A600BE0BB6803F120034FF019
:101420008C021A60BB6803F1240340F60C021A60B8
:1014300007F11407BD4680BC704700BF80B485B07B
:1014400000AFF860B9607A60BA68FB68D318BB6017
:10145000BB681B6803F00203002B07D0BB6803F1D5
:1014600010037A684FEA52021A6006E0BB6803F183
:1014700010037A6802F1FF321A6007F11407BD46C3
:1014800080BC704780B483B000AF786039607A6800
:101490003B68D31879683A688A18126842F00102EA
:1014A0001A6007F10C07BD4680BC704780B487B056
:1014B00000AFF860B9607A60BB6823F03F02FB6858
:1014C000D3187B617B691B6803F00203002B03D0F8
:1014D0007B684FEA53037B607B6903F110031B6851
:1014E0003B613A697B68D31A3B61BB6803F0010337
:1014F000DBB2002B05D07B6903F11C033A691A604B
:1015000004E07B6903F118033A691A6007F11C07CC
:10151000BD4680BC704700BF80B485B000AFF860A6
:10152000B9601346FB71FB79012B0BD1FB6803F10A
:101530000803FA6802F108021168BA6841EA020277
:101540001A600CE0FB6803F10803FA6802F1080274
:101550001168BA686FEA020201EA02021A6007F132
:101560001407BD4680BC704780B584B000AF78607A
:101570007B68FB6001F0CEFF0346BB6000F014F80F
:1015800040F24063C2F200031B6803F1010240F223
:101590004063C2F200031A6007F108031846F968B5
:1015A00001F08CFDEAE700BF80B500AF40F2446374
:1015B000C2F200031B78002B0AD04CF61833C0F29D
:1015C00000031A684CF61C33C0F200031360ECE011
:1015D00040F24463C2F200034FF001021A7041F678
:1015E0002043C2F200034FF000004FF07E5101F59E
:1015F000E001C3E9000141F62043C2F200034FF0CD
:1016000000004FF0804101F50021C3E9020141F6DD
:101610002043C2F200034FF000004FF0804101F57B
:101620008021C3E9040141F62043C2F200034FF0D8
:1016300000004FF00001C3E9060141F62043C2F269
:1016400000034FF000004FF00001C3E9080141F62C
:101650002043C2F200034FF000004FF00001C3E945
:101660000A0140F27F73C2F200031A7841F6204368
:10167000C2F2000383F83020FFF706FD41F608436D
:10168000C2F20003D3E9000140F22863C2F2000372
:10169000C3E9000141F60843C2F20003D3E90201A5
:1016A00040F23063C2F20003C3E9000140F2446338
:1016B000C2F200034FF000021A7040F22863C2F237
:1016C0000003D3E900231046194639A3D3E90023C8
:1016D00004F074FC02460B461046194636A3D3E9C3
:1016E000002304F0B9FA02460B461046194604F0EE
:1016F000FFFE024640F23863C2F200031A6040F275
:101700003063C2F20003D3E90023104619462CA32C
:10171000D3E9002304F052FC02460B46104619465A
:1017200025A3D3E9002304F097FA02460B4610469E
:10173000194604F0DDFE024640F23C63C2F20003AB
:101740001A6040F25003C2F200031B684FF004001D
:10175000194603F04DFD40F25003C2F200031B682E
:101760004FF00500194603F043FD40F23863C2F222
:1017700000031A6840F25003C2F200031B681046CF
:101780004FF004011A4603F00BFE40F23C63C2F234
:1017900000031A6840F25003C2F200031B681046AF
:1017A0004FF005011A4603F0FBFD80BDAFF300804A
:1017B000FCA9F1D24D62503F333333333333B33F5F
:1017C000FCA9F1D24D6250BF80B582B000AF4FF09E
:1017D00000037B6003F0B8FF78607B68184607F170
:1017E0000807BD4680BD00BF80B584B004AF04F0DB
:1017F0000BFA00F02FF9FFF7C7FD02F02BFE4FF0B8
:101800000800C2F2000000F011FC4FF004004FF09D
:101810000601FFF789F84FF004004FF00701FFF7CA
:1018200083F84FF02000C2F2000000F0FFFB4FF4FD
:10183000A040C4F202004FF0010101F0D7F94FF4CB
:10184000A040C4F202004FF001014FF0000201F08D
:1018500083F94FF00400C2F2000000F0E7FB4FF400
:10186000C040C4F200004FF0200101F0BFF94FF476
:10187000C040C4F200004FF0800101F0B7F94FF40E
:10188000C040C4F200004FF0A0014FF001024FF041
:101890000C0300F0F3FF4FF4C040C4F200004FF01F
:1018A00020014FF0000201F057F94FF4C040C4F29C
:1018B00000004FF080014FF0000201F04DF94FF0B1
:1018C0004000C2F2000000F0B1FB4FF4C040C4F28F
:1018D00002004FF0010101F089F94FF4C040C4F259
:1018E00002004FF001014FF0000201F035F94FF016
:1018F0000100C0F2100000F099FB4FF0000000F072
:10190000E7FE4FF48040C4F202004FF0800101F086
:1019100039F94FF48040C4F202004FF0400101F069
:1019200031F94FF40040C4F203004FF003014FF0CF
:1019300000024FF0000303F027FA4FF40040C4F216
:1019400003004FF0030103F009FA4FF004004FF0D9
:101950000601FFF79DF84FF004004FF00701FFF775
:1019600097F84CF62433C0F200034FF002020092C5
:1019700041F65842C2F2000201924FF00002029278
:101980004FF00002039245F61D40C0F200001946D8
:101990004FF0C8024FF0320301F0BAFA4CF6403370
:1019A000C0F200034FF0030200924FF000020192D8
:1019B0004FF0000202924FF00002039241F2695090
:1019C000C0F2000019464FF0C8024FF0320301F098
:1019D0009FFA4CF65033C0F200034FF0040200921D
:1019E0004FF0000201924FF0000202924FF000020D
:1019F000039243F6B920C0F2000019464FF0C80226
:101A00004FF0640301F084FA4CF66033C0F2000337
:101A10004FF0010200924FF0000201924FF00002DD
:101A200002924FF00002039245F20D40C0F2000016
:101A300019464FF0C8024FF4FA7301F069FA41F603
:101A40005843C2F200031B68184601F08FFB01F0F7
:101A50006BFCFEE780B500AF4FF0040044F6206158
:101A600003F0C6FB4FF0050044F6206103F0C0FB15
:101A700080BD00BF80B582B000AF4FF000037B6037
:101A800001F03CFA4FF000037B6071E041F65C42EC
:101A9000C2F2000279680B464FEAC3035B184FEAB3
:101AA0008303D3187A681A6041F65C42C2F20002DE
:101AB00079680B464FEAC3035B184FEA8303D318D8
:101AC00003F104037A681A6041F65C42C2F2000234
:101AD00079680B464FEAC3035B184FEA8303D318B8
:101AE00003F108037A681A6041F65C42C2F2000210
:101AF00079680B464FEAC3035B184FEA8303D31898
:101B000003F114037A681A6041F65C42C2F20002E3
:101B100079680B464FEAC3035B184FEA8303D31877
:101B200003F118037A681A60786841F65C42C2F2E1
:101B3000000279680B464FEAC3035B184FEA830340
:101B4000D31803F11C03186041F65C42C2F2000294
:101B500079680B464FEAC3035B184FEA8303D31837
:101B600003F120037A681A607B6803F101037B604C
:101B70007B68132B8ADD07F10807BD4680BD00BFD7
:101B800080B485B000AFF860B9607A6040F26063FD
:101B9000C2F200031B68132B00F39D8040F26063C8
:101BA000C2F20003196840F26063C2F200031868D1
:101BB00041F65C42C2F200020B464FEAC3035B18D7
:101BC0004FEA8303D318186040F26063C2F2000347
:101BD000196841F65C42C2F200020B464FEAC303A9
:101BE0005B184FEA8303D31803F11C03FA681A60E9
:101BF00040F26063C2F20003196841F65C42C2F22F
:101C000000020B464FEAC3035B184FEA8303D31865
:101C100003F120034FF001021A6040F26063C2F248
:101C20000003196841F65C42C2F200020B464FEA1B
:101C3000C3035B184FEA8303D31803F10403BA68A4
:101C40001A6040F26063C2F20003196841F65C4218
:101C5000C2F200020B464FEAC3035B184FEA83034C
:101C6000D31803F108037A681A6040F26063C2F285
:101C70000003196841F65C42C2F200020B464FEACB
:101C8000C3035B184FEA8303D31803F114034FF027
:101C900000021A6040F26063C2F20003196841F664
:101CA0005C42C2F200020B464FEAC3035B184FEAE4
:101CB0008303D31803F118034FF000021A6040F2B7
:101CC0006063C2F200031B6803F1010240F260632B
:101CD000C2F200031A6040F26063C2F200031B68A4
:101CE000184607F11407BD4680BC704780B483B026
:101CF00000AF7860396041F65C42C2F20002396898
:101D00000B464FEAC3035B184FEA8303D31803F172
:101D10001C037A681A6041F65C42C2F2000239681C
:101D20000B464FEAC3035B184FEA8303D31803F152
:101D300020034FF001021A6007F10C07BD4680BC7A
:101D4000704700BFF0B58FB002AF4FF00003FB62E9
:101D50004FF000037B624FF00003BB624FF00003C3
:101D6000FB6255E141F65C42C2F20002F96A0B46A1
:101D70004FEAC3035B184FEA8303D31803F10C0344
:101D8000186841F65C42C2F20002F96A0B464FEA5B
:101D9000C3035B184FEA8303D31803F104031B68E2
:101DA000984220D141F65C42C2F20002F96A0B4629
:101DB0004FEAC3035B184FEA8303D31803F1100300
:101DC000186841F65C42C2F20002F96A0B464FEA1B
:101DD000C3035B184FEA8303D31803F108031B689E
:101DE000984200F0118141F65C42C2F20002F96AA9
:101DF0000B464FEAC3035B184FEA8303D31803F182
:101E000020031B68012B62D141F65C42C2F2000242
:101E1000F96A0B464FEAC3035B184FEA8303D318F2
:101E200003F11C031B68184604F0F2FF03467B62B3
:101E30004FF00003BB620AE007F10402BB6AD3184B
:101E40004FF020021A70BB6A03F10103BB62BA6A49
:101E50007B6A9A42F0DB07F10402BB6AD3184FF0A9
:101E600000021A7041F65C42C2F20002F96A0B46A7
:101E70004FEAC3035B184FEA8303D31803F11C0333
:101E8000186841F65C42C2F20002F96A0B464FEA5A
:101E9000C3035B184FEA8303D31803F104031B68E1
:101EA0001C4641F65C42C2F20002F96A0B464FEA58
:101EB000C3035B184FEA8303D31803F108031B68BD
:101EC00021461A464FF00F0300F0F2FF9CE041F666
:101ED0005C42C2F20002F96A0B464FEAC3035B1888
:101EE0004FEA8303D31803F10C031B681E4641F627
:101EF0005C42C2F20002F96A0B464FEAC3035B1868
:101F00004FEA8303D31803F110031B681D4641F603
:101F10005C42C2F20002F96A0B464FEAC3035B1847
:101F20004FEA8303D31803F114031B681C4641F6E0
:101F30005C42C2F20002F96A0B464FEAC3035B1827
:101F40004FEA8303D31803F118031B6800934CF680
:101F5000AC30C0F2000031462A46234600F0BAFFFA
:101F600041F65C42C2F20002F96A0B464FEAC30333
:101F70005B184FEA8303D31803F11C03186841F67A
:101F80005C42C2F20002F96A0B464FEAC3035B18D7
:101F90004FEA8303D31803F104031B681E4641F67E
:101FA0005C42C2F20002F96A0B464FEAC3035B18B7
:101FB0004FEA8303D31803F108031B681D4641F65B
:101FC0005C42C2F20002F96A0B464FEAC3035B1897
:101FD0004FEA8303D31803F114031B681C4641F630
:101FE0005C42C2F20002F96A0B464FEAC3035B1877
:101FF0004FEA8303D31803F118031B68009331469B
:102000002A46234600F066FFFB6A03F10103FB62E8
:1020100040F26063C2F200031B68FA6A9A42FFF65C
:10202000A1AE07F13407BD46F0BD00BF80B483B058
:1020300000AF78607B684FEA13724CF60443C0F23D
:10204000000353F822301A467B684FEA13714CF6AE
:102050000443C0F2000353F8213019687B684FEA4B
:1020600003434FEA1343786800F4F8104FEA104036
:1020700003FA00F341EA0303136007F10C07BD46BE
:1020800080BC70470138FDD1704700BF80B586B075
:1020900000AF78604FF46043C4F20F031B6803F095
:1020A000E043002B0DD04FF46043C4F20F031A68D5
:1020B0004FF00003C7F2FF0302EA0303B3F1805FAE
:1020C00003D17B68002BC0F223814EF26003C4F27F
:1020D0000F031B683B614EF27003C4F20F031B68D1
:1020E000FB603B6943F400633B613B6923F480037D
:1020F0003B61FB6843F40063FB604EF26003C4F293
:102100000F033A691A604EF27003C4F20F03FA68C3
:102110001A603B6903F00203002B04D07B6803F0D4
:102120000203002B0AD03B6903F00103DBB2002B52
:102130002FD07B6803F00103002B2AD17B6863F06A
:1021400003033A6902EA03033B614EF26003C4F2FF
:102150000F033A691A60FB68002B09DAFB6803F089
:102160007003302B0CD0FB6803F07003702B07D08A
:10217000FB68002B09DB3B6903F03003302B04D1F3
:102180004FF48050FFF77EFF03E04FF40020FFF78D
:1021900079FF3B6923F45E5323F070033B617A6857
:1021A00043F2F07302EA03033A6942EA03033B6134
:1021B000FA684DF68F73C7F6FF7302EA0303FB60FC
:1021C0007A6842F23003C8F2000302EA0303FA68B5
:1021D00042EA0303FB607B6803F008034FEAC30392
:1021E000FA6842EA0303FB604EF25803C4F20F039D
:1021F0004FF040021A60FB68002B0CDA4EF27003BD
:10220000C4F20F03FA681A604EF26003C4F20F03BF
:102210003A691A600BE04EF26003C4F20F033A69A8
:102220001A604EF27003C4F20F03FA681A604FF09E
:102230001000FFF727FF3B6923F0F86323F0030347
:102240003B617A684FF00303C0F2C07302EA0303F4
:102250003A6942EA03033B61FB6823F0FC53FB60ED
:102260007B6803F0FC53FA6842EA0303FB607B6877
:1022700003F08043002B13D03B6943F480033B61A0
:10228000FB6823F48003FB607A684FF00003C4F21C
:10229000400302EA0303FA6842EA0303FB6003E037
:1022A000FB6823F08043FB607B6803F40063002B32
:1022B0001DD14FF400437B610CE04EF25003C4F299
:1022C0000F031B6803F04003002B07D17B6903F168
:1022D000FF337B617B69002BEFD100E000BF3B69DE
:1022E00023F400633B61FB6823F40063FB604EF260
:1022F0006003C4F20F033A691A604EF27003C4F22D
:102300000F03FA681A604FF01000FFF7BBFE00E001
:1023100000BF07F11807BD4680BD00BF80B485B07F
:1023200000AF4EF26003C4F20F031B68FB604EF275
:102330007003C4F20F031B687B607B68002B03DA19
:102340007B6803F0700302E0FB6803F03003202B8E
:102350007FD0202B04D8002B0CD0102B17D0E6E018
:10236000602B00F0DC80702B00F0DD80302B00F063
:10237000D280DCE0FB6803F4F8634FEA93124CF67A
:102380002843C0F2000353F82230BB60D2E04FF480
:102390006043C4F20F031B6803F0E043002B0DD031
:1023A0004FF46043C4F20F031A684FF00003C7F202
:1023B000FF0302EA0303B3F1805F05D14EF2C013BD
:1023C000C0F2E403BB6043E04FF46043C4F20F0388
:1023D0001A684FF00003C7F2FF0302EA03034FF04D
:1023E0000002C1F2010293420AD14FF46043C4F2E9
:1023F0000F031B684FEA03434FEA1343022B1BD022
:102400004FF46043C4F20F031A684FF00003C7F2A1
:10241000FF0302EA03034FF00002C1F203029342FA
:1024200010D14FF46043C4F20F031B684FEA03431B
:102430004FEA1343002B05D14FF4D853C0F2B70332
:10244000BB6005E04FF41053C0F2F403BB6071E0D1
:1024500070E04FF46043C4F20F031B6803F0E043E5
:10246000002B0DD04FF46043C4F20F031A684FF0F5
:102470000003C7F2FF0302EA0303B3F1805F05D153
:1024800043F67003C0F23903BB6043E04FF460438E
:10249000C4F20F031A684FF00003C7F2FF0302EA09
:1024A00003034FF00002C1F2010293420AD14FF43C
:1024B0006043C4F20F031B684FEA03434FEA134320
:1024C000022B1BD04FF46043C4F20F031A684FF085
:1024D0000003C7F2FF0302EA03034FF00002C1F258
:1024E0000302934210D14FF46043C4F20F031B6800
:1024F0004FEA03434FEA1343002B05D14CF2C0636C
:10250000C0F22D03BB6005E04FF41063C0F23D0341
:10251000BB600FE00EE047F23053BB600AE04FF4BF
:102520008003BB6006E04FF40043BB6002E04FF065
:102530000003AEE07B68002B04DA7B6803F40063E1
:10254000002B07D07B68002B60DBFB6803F4006383
:10255000002B5BD14EF26403C4F20F031B683B6097
:102560004FF46043C4F20F031B6803F0E043002BF9
:102570000DD04FF46043C4F20F031A684FF000030C
:10258000C7F2FF0302EA0303B3F1805F14D13A6894
:1025900043F6E07302EA03034FEA531303F1020325
:1025A000BA6802FB03F23B6803F01F0303F1020366
:1025B000B2FBF3F3BB6013E03A6843F6E07302EA60
:1025C00003034FEA5313BA6802FB03F23B6803F0BC
:1025D0001F0303F101034FEA4303B2FBF3F3BB60B4
:1025E0003B6803F48043002B03D0BB684FEA5303DE
:1025F000BB603B6803F40043002B03D0BB684FEA89
:102600009303BB60FB6843F48003FB60FB6803F447
:102610008003002B3CD07B68002B2EDA7B6803F014
:102620008043002B1DD07B68002B04DA7B6803F409
:102630000063002B07D07B68002B12DBFB6803F4E0
:102640000063002B0DD1BB684FEA43027B6803F0A7
:10265000FE534FEA935303F10103B2FBF3F3BB6064
:1026600016E07B6803F0FC534FEAD35303F10103F8
:10267000BA68B2FBF3F3BB600AE0FB6803F0F063F7
:102680004FEAD35303F10103BA68B2FBF3F3BB6023
:10269000BB68184607F11407BD4680BC704700BFF1
:1026A00080B483B000AF78604EF26003C4F20F03D1
:1026B0004EF26002C4F20F02126822F4F0117A683E
:1026C00041EA02021A6007F10C07BD4680BC704760
:1026D00080B483B000AF78604FF46143C4F20F035D
:1026E0004FF46142C4F20F02126822F470617A68FA
:1026F00041EA02021A604EF21013C4F20F034EF2C6
:102700001012C4F20F02126822F470617A6841EA72
:1027100002021A6007F10C07BD4680BC704700BF7B
:1027200080B485B000AFF8600B467A60FB72FB683E
:1027300003F580631A467B6803F00103DBB2002BCC
:1027400007D0FB6803F580631968FB7A41EA03034D
:1027500008E0FB6803F580631968FB7A6FEA0303FE
:1027600001EA03031360FB6803F584631A467B6880
:1027700003F00203002B07D0FB6803F5846319689C
:10278000FB7A41EA030308E0FB6803F584631968F8
:10279000FB7A6FEA030301EA0303136007F11407EE
:1027A000BD4680BC704700BF80B485B000AFF86004
:1027B0000B467A60FB72FB6803F581631A467B68FF
:1027C00003F00103DBB2002B07D0FB6803F5816344
:1027D0001968FB7A41EA030308E0FB6803F58163AB
:1027E0001968FB7A6FEA030301EA03031360FB68CD
:1027F00003F5806303F104031A467B6803F00203C8
:10280000002B09D0FB6803F5806303F1040319680A
:10281000FB7A41EA03030AE0FB6803F5806303F1F6
:1028200004031968FB7A6FEA030301EA03031360E8
:10283000FB6803F5806303F10C031A467B6803F021
:102840000403002B09D0FB6803F5806303F10C033C
:102850001968FB7A41EA03030AE0FB6803F5806329
:1028600003F10C031968FB7A6FEA030301EA03031F
:10287000136007F11407BD4680BC704780B485B073
:1028800000AFF8607A603B600B46FB72FB6803F5B3
:10289000A0631A467B6803F00103DBB2002B07D06C
:1028A000FB6803F5A0631968FB7A41EA030308E0BB
:1028B000FB6803F5A0631968FB7A6FEA030301EA7A
:1028C00003031360FB6803F5A06303F104031A46D6
:1028D0007B6803F00203002B09D0FB6803F5A063BB
:1028E00003F104031968FB7A41EA03030AE0FB6879
:1028F00003F5A06303F104031968FB7A6FEA03038D
:1029000001EA03031360FB6803F5A1631A467B68C1
:1029100003F00403002B07D0FB6803F5A1631968DB
:10292000FB7A41EA030308E0FB6803F5A163196839
:10293000FB7A6FEA030301EA03031360FB6803F504
:10294000A3631A467B6803F00803002B07D0FB68DB
:1029500003F5A3631968FB7A41EA030308E0FB6807
:1029600003F5A3631968FB7A6FEA030301EA030323
:102970001360FB6803F5A06303F10C031A463B6880
:1029800003F00103DBB2002B09D0FB6803F5A06361
:1029900003F10C031968FB7A41EA03030AE0FB68C0
:1029A00003F5A06303F10C031968FB7A6FEA0303D4
:1029B00001EA03031360FB6803F5A2631A463B6850
:1029C00003F00203002B07D0FB6803F5A26319682C
:1029D000FB7A41EA030308E0FB6803F5A263196888
:1029E000FB7A6FEA030301EA03031360FB6803F554
:1029F000A26303F104031A463B6803F00403002BAF
:102A000009D0FB6803F5A26303F104031968FB7A9C
:102A100041EA03030AE0FB6803F5A26303F1040340
:102A20001968FB7A6FEA030301EA03031360FB688A
:102A300003F5A26303F10C031A463B6803F0080395
:102A4000002B09D0FB6803F5A26303F10C0319689E
:102A5000FB7A41EA03030AE0FB6803F5A26303F192
:102A60000C031968FB7A6FEA030301EA030313609E
:102A7000FB6803F5A5631A463B68002B07D1FB688A
:102A800003F5A5631968FB7A41EA030308E0FB68D4
:102A900003F5A5631968FB7A6FEA030301EA0303F0
:102AA000136007F11407BD4680BC704780B483B043
:102AB00000AF78600B46FB707B6803F582637A6831
:102AC00002F582621168FA7841EA02021A6007F19F
:102AD0000C07BD4680BC704780B483B000AF7860FF
:102AE0000B46FB70FB78002B04D07B6803F58363F7
:102AF0001B6805E07B6803F5826303F104031B6830
:102B0000184607F10C07BD4680BC704780B483B0FF
:102B100000AF78600B46FB707B6803F5826303F1BE
:102B20000C03FA781A6007F10C07BD4680BC7047A9
:102B300080B483B000AF78600B46FB70FB784FEA3F
:102B400083031A467B68D3181B68184607F10C07E5
:102B5000BD4680BC704700BF80B483B000AF7860D2
:102B600013460A46FA70BB70FB784FEA83031A4695
:102B70007B68D318BA781A6007F10C07BD4680BC91
:102B8000704700BF80B582B000AF78600B46FB7025
:102B9000FB78786819464FF00002FFF7C1FDFB781B
:102BA000786819464FF001024FF00003FFF766FE08
:102BB00007F10807BD4680BD80B582B000AF7860E0
:102BC0000B46FB70FB78786819464FF00002FFF760
:102BD000A7FDFB78786819464FF001024FF0080313
:102BE000FFF74CFE07F10807BD4680BD80B582B0F7
:102BF00000AF78600B46FB70FB78786819464FF0A1
:102C00000102FFF78DFDFB78786819464FF001024D
:102C10004FF00803FFF732FE07F10807BD4680BDFD
:102C200080B582B000AF78600B46FB70FB787868A7
:102C300019464FF00202FFF773FDFB7878681946DA
:102C40004FF001024FF00803FFF718FE07F10807E5
:102C5000BD4680BD80B582B000AF78600B46FB708A
:102C6000FB78786819464FF00202FFF759FDFB78B0
:102C7000786819464FF001024FF00803FFF7FEFD98
:102C800007F10807BD4680BD80B500AFFEF7F2FE34
:102C90004CF68440C0F200004FF019014FF00102E1
:102CA000FEF76EFF4CF69040C0F200004FF00101BD
:102CB0004FF00A02FEF764FF4CF69440C0F20000A9
:102CC0004FF001014FF01402FEF75AFF4CF694400A
:102CD000C0F200004FF001014FF01E02FEF750FF5E
:102CE0004CF69440C0F200004FF001014FF0280272
:102CF000FEF746FF4CF69840C0F200004FF001018D
:102D00004FF03202FEF73CFF4CF69840C0F2000054
:102D10004FF001014FF03C02FEF732FF4CF69840B5
:102D2000C0F200004FF001014FF04602FEF728FF0D
:102D30004CF6A040C0F200004FF041014FF03202CB
:102D4000FEF71EFF4CF6A040C0F200004FF041011C
:102D50004FF03C02FEF714FF4CF6A040C0F200001A
:102D60004FF041014FF04602FEF70AFF4CF6A0403B
:102D7000C0F200004FF001014FF05002FEF700FFDB
:102D80004CF6A040C0F200004FF041014FF050025D
:102D9000FEF7F6FEFEF7D6FF80BD00BF80B584B01B
:102DA00000AF78607B680A2B5AD801A252F823F052
:102DB000DD2D0000E92D0000F52D0000012E0000A2
:102DC0000D2E0000192E0000252E0000312E0000CF
:102DD0003D2E0000492E0000552E00004CF6A84361
:102DE000C0F20003FB603BE04CF6BC43C0F20003C2
:102DF000FB6035E04CF6D043C0F20003FB602FE0EF
:102E00004CF6E443C0F20003FB6029E04CF6F843C3
:102E1000C0F20003FB6023E04CF60C53C0F2000349
:102E2000FB601DE04CF61C53C0F20003FB6017E092
:102E30004CF62C53C0F20003FB6011E04CF64053FB
:102E4000C0F20003FB600BE04CF65453C0F20003E9
:102E5000FB6005E04CF66853C0F20003FB6000BF66
:102E6000F8684FF00101FEF741FFFEF76BFF07F135
:102E70001007BD4680BD00BF80B500AF4CF67C504A
:102E8000C0F200004FF00201FEF730FF4CF6945004
:102E9000C0F200004FF00301FEF728FF4CF6AC50E3
:102EA000C0F200004FF00401FEF720FF80BD00BF1C
:102EB00080B584B000AFF860B9607A60FB70FB78D1
:102EC000F868B9687A6801F079F807F11007BD462B
:102ED00080BD00BF80B586B002AFF860B9607A608F
:102EE0003B60BB690093F868B9687A683B6801F099
:102EF00055F907F11007BD4680BD00BF80B500AF92
:102F000044F24020C0F20F0001F010FA80BD00BF73
:102F100080B58AB002AFF860B9603B601346FB80B1
:102F2000FB881846396B00F029FDB861BB69002B9E
:102F300000F0A680BB691A6BFB8803F1FF334FEAF0
:102F40008303D3187B617B6923F007037B61FB88D4
:102F50000093B869B968BA6A7B6B00F03BFC78698A
:102F6000F9683A6802F02CF803461A46BB691A6001
:102F7000FB6A002B02D0FB6ABA691A6002F0A0F863
:102F800040F23873C2F200031B6803F1010240F201
:102F90003873C2F200031A6040F26463C2F20003A5
:102FA0001B68002B0FD140F26463C2F20003BA69C0
:102FB0001A6040F23873C2F200031B68012B18D16B
:102FC00000F044FC15E040F24873C2F200031B68B5
:102FD000002B0ED140F26463C2F200031B68DA6A70
:102FE000BB6A9A4205D840F26463C2F20003BA6930
:102FF0001A60BB69DA6A40F24073C2F200031B68D0
:103000009A4206D9BB69DA6A40F24073C2F2000301
:103010001A6040F25C73C2F200031B6803F1010204
:1030200040F25C73C2F200031A60BB69DA6A40F2D4
:103030004473C2F200031B689A4206D9BB69DA6A7C
:1030400040F24473C2F200031A60BB69DA6A1346A5
:103050004FEA83039B184FEA83031A4640F26863E2
:10306000C2F20003D218BB6903F1040310461946EB
:1030700001F0B2FC4FF00103FB6102F037F802E00F
:103080004FF0FF33FB61FB69012B11D140F2487314
:10309000C2F200031B68002B0AD040F26463C2F244
:1030A00000031B68DA6ABB6A9A4201D201F0FCFF96
:1030B000FB69184607F12007BD4680BD80B586B084
:1030C00000AF786039604FF000037B6100F066F973
:1030D0007B681A683B68D3183B617B681A6840F2CA
:1030E0003C73C2F200031B689A4210D97B681A68CD
:1030F0003B699A421BD940F23C73C2F200031B6841
:103100003A699A4213D94FF001037B610FE07B6863
:103110001A683B699A4207D840F23C73C2F2000336
:103120001B683A699A4202D94FF001037B617B68C0
:103130003A691A607B69002B0CD040F26463C2F2DA
:1031400000031B6803F10403184601F0ABFC386967
:1031500000F0CEFB00F034F9F860FB68002B01D1E1
:1031600001F0A2FF07F11807BD4680BD80B584B00D
:1031700000AF786001F0A4FF40F26463C2F2000384
:103180001B687A689A4202D14FF000037B607B682B
:10319000002B05D140F26463C2F200031B6800E01B
:1031A0007B68FB60FB6803F10403184601F07AFCBE
:1031B000FB689B6A002B05D0FB6803F118031846D7
:1031C00001F070FCFB6803F1040340F22470C2F2CA
:1031D0000000194601F000FC01F088FF7B68002B1D
:1031E00020D140F24873C2F200031B68002B02D0CA
:1031F00001F05AFF16E040F22473C2F200031B688C
:103200001A4640F23873C2F200031B689A4207D193
:1032100040F26463C2F200034FF000021A6001E062
:1032200000F068FA07F11007BD4680BD80B485B094
:1032300000AF78604FF00003FB607B68BB60BB6849
:103240005A6940F22473C2F200039A420ED1BB685D
:103250009A6A40F21073C2F200039A4206D0BB6829
:103260009B6A002B02D14FF00103FB60FB681846FC
:1032700007F11407BD4680BC704700BF80B584B01D
:1032800000AF78607B68FB60FB68002B48D040F2A1
:103290006463C2F200031B68FA689A4240D001F0EE
:1032A0000FFFF868FFF7C2FF0346012B36D1FB681A
:1032B00003F10403184601F0F5FBFB68DA6A40F2FB
:1032C0004473C2F200031B689A4206D9FB68DA6AAB
:1032D00040F24473C2F200031A60FB68DA6A1346D4
:1032E0004FEA83039B184FEA83031A4640F2686350
:1032F000C2F20003D218FB6803F10403104619461A
:1033000001F06AFBFB68DA6A40F26463C2F2000310
:103310001B68DB6A9A4201D301F0C6FE01F0E6FEAB
:1033200007F11007BD4680BD80B586B004AF4CF6EE
:10333000C453C0F200034FF0000200924FF00002AD
:1033400001924FF0000202924FF00002039243F20A
:10335000C570C0F2000019464FF064024FF0000340
:10336000FFF7D6FD78607B68012B13D14FF0A000EA
:1033700080F3118840F24873C2F200034FF001025B
:103380001A6040F23C73C2F200034FF000021A6070
:1033900001F060FE07F10807BD4680BD80B400AFB4
:1033A00040F24C73C2F200031B6803F1010240F2C9
:1033B0004C73C2F200031A60BD4680BC704700BF68
:1033C00090B583B000AF4FF000037B6001F078FE52
:1033D00040F24C73C2F200031B6803F1FF3240F26B
:1033E0004C73C2F200031A6040F24C73C2F2000345
:1033F0001B68002B40F0868040F23873C2F2000355
:103400001B68002B7ED04FF000033B603DE040F294
:103410001073C2F20003DB68DB681C4604F118037A
:10342000184601F03FFB04F10403184601F03AFB93
:10343000E26A40F24473C2F200031B689A4205D963
:10344000E26A40F24473C2F200031A60E26A134671
:103450004FEA83039B184FEA83031A4640F26863DE
:10346000C2F20003D21804F104031046194601F019
:10347000B3FAE26A40F26463C2F200031B68DB6ADB
:103480009A4202D34FF001033B6040F21073C2F244
:1034900000031B68002BBAD140F25073C2F2000344
:1034A0001B68002B18D00DE000F048F840F2507374
:1034B000C2F200031B6803F1FF3240F25073C2F204
:1034C00000031A6040F25073C2F200031B68002B25
:1034D000EAD14FF001033B603B68012B06D040F27C
:1034E0005473C2F200031B68012B0BD14FF0010390
:1034F0007B6040F25473C2F200034FF000021A6086
:1035000001F0D2FD01F0F2FD7B68184607F10C07CF
:10351000BD4690BD80B582B000AF01F0D1FD40F254
:103520003C73C2F200031B687B6001F0DFFD7B6827
:10353000184607F10807BD4680BD00BF80B584B0BE
:1035400000AF40F24C73C2F200031B68002B40F046
:10355000C08040F23C73C2F200031B6803F1010219
:1035600040F23C73C2F200031A6040F23C73C2F2B4
:1035700000031B68002B40D140F20873C2F2000325
:103580001B68FB6040F20C73C2F200031A6840F241
:103590000873C2F200031A6040F20C73C2F2000317
:1035A000FA681A6040F25873C2F200031B6803F114
:1035B000010240F25873C2F200031A6040F208732D
:1035C000C2F200031B681B68002B07D140F25403B2
:1035D000C2F200034FF0FF321A600EE040F20873AF
:1035E000C2F200031B68DB68DB68BB60BB685A681B
:1035F00040F25403C2F200031A6040F23C73C2F27C
:1036000000031A6840F25403C2F200031B689A4296
:103610006BD340F20873C2F200031B681B68002BD7
:1036200007D140F25403C2F200034FF0FF321A6098
:103630005BE040F20873C2F200031B68DB68DB68E2
:10364000BB60BB685B687B6040F23C73C2F2000306
:103650001A687B689A4206D240F25403C2F2000311
:103660007A681A6041E0BB6803F10403184601F070
:1036700019FABB689B6A002B05D0BB6803F11803DD
:10368000184601F00FFABB68DA6A40F24473C2F2DE
:1036900000031B689A4206D9BB68DA6A40F2447399
:1036A000C2F200031A60BB68DA6A13464FEA83036A
:1036B0009B184FEA83031A4640F26863C2F2000384
:1036C000D218BB6803F104031046194601F084F9CF
:1036D0009FE740F25073C2F200031B6803F101023E
:1036E00040F25073C2F200031A6007F11007BD46A2
:1036F00080BD00BF80B483B000AF40F24C73C2F213
:1037000000031B68002B14D040F25473C2F2000374
:103710004FF001021A604FE040F24473C2F200031E
:103720001B6803F1FF3240F24473C2F200031A60D7
:1037300000E000BF40F24473C2F200031A6813466F
:103740004FEA83039B184FEA83031A4640F26863EB
:10375000C2F20003D3181B68002BDDD040F2447383
:10376000C2F200031A6813464FEA83039B184FEA1C
:1037700083031A4640F26863C2F20003D3187B60E9
:103780007B685B685B681A467B685A607B685A682E
:103790007B6803F108039A4205D17B685B685B682C
:1037A0001A467B685A607B685B68DB681A4640F2A1
:1037B0006463C2F200031A6007F10C07BD4680BCC7
:1037C000704700BF80B582B000AF786000F08AF823
:1037D000FCE700BF80B584B000AFF860B9607A60E4
:1037E0003B60FB6803F134031A46BB681046194678
:1037F0004FF00C0203F03CFBFB684FF0000283F833
:103800003F207B68052B02D94FF005037B60FB68E6
:103810007A68DA62FB6803F10403184601F0CEF817
:10382000FB6803F11803184601F0C8F8FB68FA6852
:103830001A617B68C3F10602FB689A61FB68FA684B
:103840005A6207F11007BD4680BD00BF80B582B047
:1038500000AF4FF000037B6013E07A6813464FEA35
:1038600083039B184FEA83031A4640F26863C2F24F
:103870000003D318184601F07DF87B6803F10103BB
:103880007B607B68052BE8D940F2E060C2F2000063
:1038900001F070F840F2F460C2F2000001F06AF842
:1038A00040F21070C2F2000001F064F840F224709F
:1038B000C2F2000001F05EF840F20873C2F20003A9
:1038C00040F2E062C2F200021A6040F20C73C2F2EF
:1038D000000340F2F462C2F200021A6007F1080726
:1038E000BD4680BD80B400AFBD4680BC704700BF00
:1038F00080B582B000AF786040F26463C2F200032A
:103900001B687A685A6040F23C73C2F200031B687D
:103910007A689A4210D240F20C73C2F200031A681D
:1039200040F26463C2F200031B6803F10403104613
:10393000194601F07BF81DE040F20873C2F2000363
:103940001A6840F26463C2F200031B6803F10403C7
:103950001046194601F06AF840F25403C2F200031F
:103960001B687A689A4205D240F25403C2F20003FF
:103970007A681A6007F10807BD4680BD80B584B03B
:1039800000AF03463960FB804FF0400001F0E8FED5
:103990000346FB60FB68002B23D03B68002B07D15C
:1039A000FB884FEA8303184601F0DAFE034600E085
:1039B0003B68FA681363FB681B6B002B06D1F86841
:1039C00001F01AFF4FF00003FB600AE0FB681A6B7E
:1039D000FB884FEA830310464FF0A5011A4603F017
:1039E00073F9FB68184607F11007BD4680BD00BF9C
:1039F00080B584B000AF78607B68DB68FB607B6873
:103A0000DB68FB6013E0FB681B681A7840F26073A8
:103A1000C2F200031B789A4205D1FB681B68184666
:103A200000F00EF807E0FB6803F10403FB60FB689D
:103A30001B68002BE7D107F11007BD4680BD00BF12
:103A400080B584B000AF78607B68DB68FB602BE0FA
:103A5000FB689B6898470346012B21D1FB68DB6814
:103A6000002B02D0FB68DB689847FB681A7840F2AD
:103A70006073C2F200031B789A4211D040F2607367
:103A8000C2F200031A7840F26173C2F200031A70A6
:103A9000FB681A7840F26073C2F200031A7007E004
:103AA000FB6803F11003FB60FB689B68002BCFD120
:103AB00007F11007BD4680BD90B585B000AF7860B6
:103AC0007B68FB60FFF726FD0346BB6000F0BAF899
:103AD00040F27073C2F200031B6803F1010240F26E
:103AE0007073C2F200031A6041F6BA33C2F20003E7
:103AF0001B78012B25D140F26473C2F200031B68CE
:103B0000184602F03DF803461A4640F27C73C2F2B2
:103B100000031A7040F26473C2F200031B68184677
:103B2000464902F0F7FE03461A4640F27473C2F2A9
:103B300000031A6041F6BA33C2F200034FF00002EC
:103B40001A7041F6BB33C2F200031B78012B25D15A
:103B500040F26873C2F200031B68184602F032F8A4
:103B600003461A4640F27D73C2F200031A7040F217
:103B70006873C2F200031B681846304902F0CAFE9F
:103B800003461A4640F27873C2F200031A6041F607
:103B9000BB33C2F200034FF000021A7000F090FD38
:103BA000024640F26C73C2F200031A6040F26C737A
:103BB000C2F200031B684FF0010214461846204968
:103BC00002F09CFF0346002B02D14FF000031C467D
:103BD000E3B2002B07D040F27E73C2F200034FF035
:103BE00001021A7006E040F27E73C2F200034FF049
:103BF00000021A7040F27C73C2F200031B78012BA2
:103C000006D040F27D73C2F200031B78012B07D16E
:103C100040F27F73C2F200034FF001021A7006E017
:103C200040F27F73C2F200034FF000021A7007F1F6
:103C300008031846F968FFF741FA49E700006842AF
:103C40000000A04080B500AF01F0E0FD80BD00BFE6
:103C500080B483B000AF78607B68042B0CD14EF643
:103C60002453CEF200034EF62452CEF20002126824
:103C700042F480321A6051E07B68052B0CD14EF67D
:103C80002453CEF200034EF62452CEF20002126804
:103C900042F400321A6041E07B68062B0CD14EF6EC
:103CA0002453CEF200034EF62452CEF200021268E4
:103CB00042F480221A6031E07B680F2B0CD14EF267
:103CC0001003CEF200034EF21002CEF20002126890
:103CD00042F002021A6021E07B680F2B0FD97B684B
:103CE0002F2B0CD84FF46143CEF200037A68A2F177
:103CF00010024FF0010101FA02F21A600EE07B6837
:103D00002F2B0BD94EF20413CEF200037A68A2F1E6
:103D100030024FF0010101FA02F21A6007F10C07BC
:103D2000BD4680BC704700BF80B582B000AF7860F0
:103D3000396040F28073C2F2000303F0704240F237
:103D40008073C2F2000323F07F4323F470034FEA31
:103D5000431342EA030343F000731B68002B5BD05C
:103D600040F28073C2F2000303F0704240F28073AD
:103D7000C2F2000323F07F4323F470034FEA43139E
:103D800042EA030343F0007343F004031B68002B73
:103D90003ED000BF4FF40040C4F2000000F074FFBA
:103DA0000346002BF6D14FF48040C4F200004FF0E0
:103DB00040014FF00002FEF7CFFE40F28073C2F2E6
:103DC000000303F0704240F28073C2F2000323F05C
:103DD0007F4323F470034FEA431342EA030343F0A3
:103DE000007343F004034FF000021A6010E07B6898
:103DF0001B787A6802F101027A604FF40040C4F245
:103E00000000194600F028FF3B6803F1FF333B60D8
:103E10003B68002BEBD100E000BF07F10807BD466F
:103E200080BD00BF80B582B000AF7860396040F2DD
:103E30008073C2F2000303F0704240F28073C2F25A
:103E4000000323F07F4323F470034FEA431342EA55
:103E5000030343F000731B68002B5BD040F28073B8
:103E6000C2F2000303F0704240F28073C2F200031A
:103E700023F07F4323F470034FEA431342EA030322
:103E800043F0007343F004031B68002B3ED100BFD6
:103E90004FF40040C4F2000000F0F6FE0346002B91
:103EA000F6D14FF48040C4F200004FF040014FF0D3
:103EB0004002FEF751FE40F28073C2F2000303F0AD
:103EC000704240F28073C2F2000323F07F4323F478
:103ED00070034FEA431342EA030343F0007343F0D5
:103EE00004034FF001021A6010E07B681B787A68C7
:103EF00002F101027A604FF40040C4F2000019465A
:103F000000F0AAFE3B6803F1FF333B603B68002BE7
:103F1000EBD100E000BF07F10807BD4680BD00BF40
:103F200080B582B000AF40F28473C2F200034FF05C
:103F300000021A6040F28473C2F2000303F104032A
:103F40004FF000021A604DF20800C0F200004FF07E
:103F50000301FFF7E9FE4DF20C00C0F200004FF044
:103F60000301FFF7E1FE4CF6D050C0F200004FF025
:103F70000201FFF7D9FE4FF000037B6016E04FF01F
:103F800000033B600BE040F28470C2F200004FF08F
:103F90000801FFF747FF3B6803F110033B603B68F4
:103FA0007F2BF0D97B6803F101037B607B685F2B7B
:103FB000E5D907F10807BD4680BD00BF80B588B0D0
:103FC00000AFF860B9607A60FB7040F28473C2F2AF
:103FD00000034FF015021A70BB684FEA5303DAB2C0
:103FE00040F28473C2F200035A7040F28473C2F24A
:103FF00000034FF03F029A7040F28470C2F200005A
:104000004FF00301FFF790FE40F28473C2F2000309
:104010004FF075021A707B68DAB240F28473C2F214
:1040200000035A707B68DBB203F10703DAB240F297
:104030008473C2F200039A7040F28470C2F20000EE
:104040004FF00301FFF770FE4CF6CC50C0F20000B9
:104050004FF00201FFF768FE94E0FB681B7803F065
:104060007F03FB75FB6803F10103FB60FB7D1F2BE6
:1040700003D84FF00003FB7503E0FB7DA3F12003A1
:10408000FB754FF00003FB6179E04FF00003BB616B
:104090005FE040F28473C2F20003BA699B184FF0EC
:1040A00000021A70F97D4CF6D452C0F200020B46A1
:1040B0004FEA83035B18F9695B18D3181B781A461B
:1040C000BB6942FA03F303F00103DBB2002B0AD011
:1040D000FB784FEA0313DAB240F28473C2F20003B2
:1040E000B9695B181A70FB69032B2ED8F97DFB693F
:1040F00003F101004CF6D452C0F200020B464FEA25
:1041000083035B181B18D3181B781A46BB6942FA45
:1041100003F303F00103DBB2002B16D040F28473EB
:10412000C2F20003BA699B181B78DAB2FB7803F07D
:104130000F03DBB242EA0303DBB2DAB240F284736C
:10414000C2F20003B9695B181A70BB6903F101037D
:10415000BB61BB69072B9CD940F28470C2F200009E
:104160004FF00801FFF75EFEBB6803F10203BB607E
:10417000BB68802B0CD0FB6903F10203FB61FB6978
:10418000052B82D9FB681B78002B7FF466AF00E01B
:1041900000BF07F12007BD4680BD00BF80B584B0D9
:1041A00000AFF860B9607A603B6040F28473C2F29D
:1041B00000034FF015021A70BB684FEA5303DAB2DE
:1041C00040F28473C2F200035A70BA683B68D31895
:1041D000A3F102034FEA5303DAB240F28473C2F24E
:1041E00000039A7040F28470C2F200004FF00301A5
:1041F000FFF79AFD40F28473C2F200034FF075029C
:104200001A707B68DAB240F28473C2F200035A700B
:104210007B68DAB2BB69DBB2D318DBB203F1FF33E0
:10422000DAB240F28473C2F200039A7040F28470F2
:10423000C2F200004FF00301FFF776FD4CF6D050BC
:10424000C0F200004FF00201FFF76EFD0CE03B688A
:104250004FEA5303F8681946FFF7E4FD3B684FEA5D
:104260005303FA68D318FB60BB69002B0CBF002313
:104270000123DBB2BA6902F1FF32BA61002BE6D149
:1042800007F11007BD4680BD80B584B002AF7860ED
:104290004FF40040C4F2000000F0CAFCFEF73EF804
:1042A00003467A6800924FF0080201924FF40040F2
:1042B000C4F2000019464FF003024FF0000300F073
:1042C00049FC4FF48040C4F200004FF00801FEF7B3
:1042D000C1FC4FF48040C4F200004FF008014FF0E1
:1042E00004024FF00A03FEF7C9FA4FF40040C4F28B
:1042F000000000F089FC40F28073C2F2000303F07A
:10430000704240F28073C2F2000323F07F4323F433
:1043100070034FEA431342EA030343F000734FF084
:1043200001021A6007F10807BD4680BD80B584B060
:1043300000AF78604FF01000C1F20000FDF776FE8C
:104340004FF00100C2F20000FDF770FE4FF00100D7
:10435000C2F20000FDF76AFE4FF48040C4F2000094
:104360004FF02C01FEF776FC4FF48040C4F20000C1
:104370004FF02C014FF004024FF00A03FEF77EFAD3
:104380004FF48040C4F200004FF0C001FEF72EFC55
:104390004FF48040C4F200004FF0C0014FF004021F
:1043A0004FF00803FEF76AFA4FF48040C4F20000B1
:1043B0004FF0C0014FF0C002FEF7CEFB40F2807319
:1043C000C2F2000303F0704240F28073C2F20003B5
:1043D00023F07F4323F470034FEA431342EA0303BD
:1043E00043F0007343F004034FF001021A60786851
:1043F000FFF74AFFFFF794FD4FF00003FB6021E059
:10440000FB6803F101024CF6B473C0F20003D2184A
:104410004CF6B473C0F20003F9685B181B7803F123
:10442000FF3310461946FFF77FFC4CF6B473C0F219
:104430000003FA689B181B781A46FB68D31803F12F
:104440000103FB60FB684E2BDAD907F11007BD466C
:1044500080BD00BF80B500AF4FF02000C2F2000069
:10446000FDF7E4FD4FF4A040C4F202004FF002015A
:10447000FEF7A2FB4FF4A040C4F202004FF002018D
:104480004FF001024FF00A03FEF7F8F94FF02E004B
:10449000FFF7DEFB4FF4A040C4F202004FF0020130
:1044A0004FF00402FEF780F94FF4A040C4F202007E
:1044B0004FF00201FEF7FAFA4FF01000C2F20000CE
:1044C000FDF7B4FD4FF48040C4F202004FF0040148
:1044D000FEF772FB4FF48040C4F202004FF004017B
:1044E0004FF001024FF00A03FEF7C8F94FF4804085
:1044F000C4F202004FF00801FEF75EFB4FF480406B
:10450000C4F202004FF008014FF001024FF00A031D
:10451000FEF7B4F94FF01400FFF79AFB4FF4804018
:10452000C4F202004FF00C014FF00402FEF73CF918
:104530004FF48040C4F202004FF00C01FEF7B6FACF
:1045400080BD00BF684620F007018D4681B585B06B
:1045500000AF4FF48040C4F202004FF00101FEF7BB
:10456000BBFA78607B6803F00103DBB2002B28D034
:104570004FF48043C4F20203FB604FF00103FB726F
:1045800041F6C033C2F200034FF001021A7041F647
:10459000C133C2F200034FF000021A7041F65843D3
:1045A000C2F200031B681846FEF740FE0346012BCB
:1045B00007D141F65843C2F200031B681846FEF7C4
:1045C0005DFE7B6803F00203002B15D04FF480439F
:1045D000C4F20203FB604FF00203FB7241F6C133E9
:1045E000C2F200034FF001021A7041F6C033C2F26A
:1045F00000034FF000021A707B6803F00403002BE5
:104600000ED04FF48043C4F20203FB604FF004036A
:10461000FB7241F6C233C2F200034FF001021A707E
:104620007B6803F00803002B0ED04FF48043C4F2E4
:104630000203FB604FF00803FB7241F6C333C2F282
:1046400000034FF001021A70FB7AF8681946FEF772
:104650005DFA07F11407BD46BDE881408546704705
:10466000684620F007018D4681B585B000AF4FF454
:10467000A040C4F202004FF00101FEF72DFA78606D
:104680007B6803F00203002B0ED04FF4A043C4F26A
:104690000203FB604FF00203FB7241F6C433C2F227
:1046A00000034FF001021A70FB7AF8681946FEF712
:1046B0002DFA07F11407BD46BDE8814085467047D5
:1046C00080B500AF4FF40040C4F203004FF0030187
:1046D0004FF000024FF0610300F096FB4FF40040F2
:1046E000C4F203004FF0030100F056FC00BF4FF48A
:1046F0000040C4F203004FF003014FF0000200F04D
:10470000D9FA0346002BF2D04FF40040C4F2030064
:104710004FF0030141F62C72C2F2000200F00AFCD5
:104720004FF40040C4F203004FF0030100F002FB1D
:1047300041F62C73C2F200031B68184601F0C8FB57
:1047400002460B46104619460BA3D3E9002301F09D
:1047500035FC02460B461046194601F0C9FE0246DA
:1047600040F28C73C2F200031A6040F28C73C2F202
:1047700000031B68184680BD051450400105843FA6
:1047800080B500AF4FF40040C4F203004FF00301C6
:104790004FF000024FF0620300F036FB4FF4004090
:1047A000C4F203004FF0030100F0F6FB00BF4FF42A
:1047B0000040C4F203004FF003014FF0000200F08C
:1047C00079FA0346002BF2D04FF40040C4F2030004
:1047D0004FF0030141F63072C2F2000200F0AAFB72
:1047E0004FF40040C4F203004FF0030100F0A2FABE
:1047F00041F63073C2F200031B68184601F068FBF3
:1048000002460B46104619460BA3D3E9002301F0DC
:10481000D5FB02460B461046194601F069FE0246DA
:1048200040F28C73C2F200031A6040F28C73C2F241
:1048300000031B68184680BD051450400105843FE5
:1048400080B500AF4FF40040C4F203004FF0030105
:104850004FF000024FF0630300F0D6FA4FF400402F
:10486000C4F203004FF0030100F096FB00BF4FF4C9
:104870000040C4F203004FF003014FF0000200F0CB
:1048800019FA0346002BF2D04FF40040C4F20300A3
:104890004FF0030141F63472C2F2000200F04AFB0D
:1048A0004FF40040C4F203004FF0030100F042FA5D
:1048B00041F63473C2F200031B68184601F008FB8E
:1048C00002460B46104619460BA3D3E9002301F01C
:1048D00075FB02460B461046194601F009FE0246DA
:1048E00040F29073C2F200031A6040F29073C2F279
:1048F00000031B68184680BD051450400105843F25
:1049000080B582B000AF4DF26023C0F200037B603F
:1049100040F20003C2F200033B600BE07B681A68C0
:104920003B681A603B6803F104033B607B6803F15A
:1049300004037B603A6840F20C63C2F200039A42BF
:10494000ECD3084808494FF000028842B8BF40F84D
:10495000042BFADBFCF7CEF9FCF746FF07F108075A
:10496000BD4680BD100600204424002080B400AF66
:10497000FEE700BF80B483B000AF78607B6803F1CE
:1049800008031A467B685A607B684FF0FF329A60D2
:104990007B6803F108031A467B68DA607B6803F1E1
:1049A00008031A467B681A617B684FF000021A60A0
:1049B00007F10C07BD4680BC704700BF80B483B0D0
:1049C00000AF78607B684FF000021A6107F10C07B6
:1049D000BD4680BC704700BF80B485B000AF786032
:1049E00039607B685B68FB60FB685B681A463B6804
:1049F0005A607B685A683B689A60FB685B683A68F3
:104A00009A603A68FB685A603A687B685A603B680B
:104A10007A681A617B681B6803F101027B681A607F
:104A200007F11407BD4680BC704700BF80B485B055
:104A300000AF786039603B681B68BB60BB68B3F14E
:104A4000FF3F03D17B681B69FB600EE07B6803F1CD
:104A50000803FB6002E0FB685B68FB60FB685B6867
:104A60001B681A46BB689A42F5D9FB685B681A4610
:104A70003B685A603B685B683A689A603B68FA68D2
:104A80009A603A68FB685A603B687A681A617B688A
:104A90001B6803F101027B681A6007F11407BD4629
:104AA00080BC704780B485B000AF78607B685B687D
:104AB0007A6892689A607B689B687A6852685A60E4
:104AC0007B681B69FB60FB685A687B689A4203D16C
:104AD0007B689A68FB685A607B684FF000021A6135
:104AE000FB681B6803F1FF32FB681A6007F11407CB
:104AF000BD4680BC704700BF80B485B000AF786011
:104B000040F29473C2F200031B68002B08D142F6F6
:104B10004802C2F2000240F29473C2F200031A602B
:104B200040F29473C2F200031B68FB6040F294737E
:104B3000C2F200031A687B68D21840F29473C2F282
:104B400000031A60FB68184607F11407BD4680BCD5
:104B5000704700BF80B48BB000AFF860B9607A6076
:104B60003B603B68022B02D14FF0080301E04FF09D
:104B700000033B623B68002B02D14FF0000301E0D1
:104B80004FF004033A6A42EA03033B62FB6803F115
:104B900004033A6A1A60BA683B6BB2FBF3F3FB6139
:104BA0004FF000037B627B6A03F102037B62FA69C8
:104BB0007B6AB2FBF3F303F1FF33BB61BB69FF2BED
:104BC000F1D8FB6803F110037A6A1A607B684FEA38
:104BD00083137B617B6803F030037B60BB694FEA22
:104BE00003227B691A437B681A437B6B03F1FF3313
:104BF00042EA03033B62FB683A6A1A6007F12C073A
:104C0000BD4680BC704700BF80B483B000AF786001
:104C10007B6803F104037A6802F10402126842F02F
:104C200002021A6007F10C07BD4680BC704700BF46
:104C300080B483B000AF78607B6803F104037A68C6
:104C400002F10402126822F002021A6007F10C0756
:104C5000BD4680BC704700BF80B483B000AF7860B1
:104C6000396000BF7B6803F10C031B6803F002038B
:104C7000002BF7D07B6803F108033A681A6007F14C
:104C80000C07BD4680BC704780B483B000AF78602D
:104C90007B6803F10C031B6803F01003002B0CBFAF
:104CA00000230123DBB2184607F10C07BD4680BC88
:104CB000704700BF80B487B000AFF860B96013469A
:104CC000FB71FB79002B0CD0FB6803F10C031A6815
:104CD000BB684FF0011101FA03F302EA03037B61A1
:104CE00021E0FB6803F104031A68BB684FF001017F
:104CF00001FA03F343F4803302EA03037B617B6927
:104D000003F48033002B0ED07B6943F470237B6166
:104D1000BB684FF4803202FA03F36FEA03037A6947
:104D200002EA03037B617B69184607F11C07BD4655
:104D300080BC704780B483B000AF786039607B6816
:104D400003F10C033A684FF0010101FA02F21A6014
:104D500007F10C07BD4680BC704700BF80B483B02C
:104D600000AF786039607B687A6811683A684FF004
:104D7000010000FA02F241EA02021A6007F10C0790
:104D8000BD4680BC704700BF80B485B000AFF860FE
:104D9000B9607A603B60BB684FEA8303BB60FB6825
:104DA00003F11403FA6802F114021168BA684FF0B3
:104DB0000F0000FA02F26FEA020211407A6802F074
:104DC0000F00BA6800FA02F241EA02021A60FB68B8
:104DD00003F12003FA6802F120021168BA684FF06B
:104DE0000F0000FA02F26FEA020211403A6802F084
:104DF0000300BA6800FA02F241EA02021A6007F1FF
:104E00001407BD4680BC704780B487B000AFF8601F
:104E1000B9607A603B60BB6803F102034FEA431359
:104E2000FA68D318FB607B684FEA83037B60FB68FA
:104E3000FA6811687A684FF00F0000FA02F26FEA20
:104E4000020211403A6802F00F007A6800FA02F29A
:104E500041EA02021A60FB6803F10403FA6802F1F6
:104E6000040211687A684FF00F0000FA02F26FEA4C
:104E7000020211403A6802F0F0024FEA12107A681A
:104E800000FA02F241EA02021A603B6803F470235E
:104E9000002B34D0FB6803F114031B687B617B6833
:104EA0004FF00F0202FA03F36FEA03037A6902EA92
:104EB00003037B613B6803F4E0234FEA13427B6802
:104EC00002FA03F37A6942EA03037B61FB6803F1A8
:104ED00014037A691A60FB6803F110031B687B6195
:104EE0007B684FF0010202FA03F37A6942EA030396
:104EF0007B61FB6803F110037A691A6014E0FB68B8
:104F000003F110031B687B617B684FF0010202FA1A
:104F100003F36FEA03037A6902EA03037B61FB6828
:104F200003F110037A691A6007F11C07BD4680BCC3
:104F3000704700BF80B487B000AFF860B9607A6096
:104F4000BB6803F102034FEA4313FA68D318FB600E
:104F50004FF000037B610DE0FB6803F108031A6862
:104F60007B681A607B6803F104037B607B6903F153
:104F700001037B61FB6803F10C031B6803F480737E
:104F8000002B02D17B69072BE6D97B69184607F114
:104F90001C07BD4680BC704780B483B000AF78600A
:104FA00039607B6803F128033A684FF0010101FA88
:104FB00002F21A6007F10C07BD4680BC704700BFC3
:104FC00080B485B000AFF860B9607A60FB68A3F187
:104FD0000403FB60FB684FF080721A60FB68A3F16A
:104FE0000403FB60BA68FB681A60FB68A3F1040362
:104FF000FB60FB684FF000021A60FB68A3F114032A
:10500000FB607A68FB681A60FB68A3F12003FB6011
:10501000FB68184607F11407BD4680BC704700BF07
:10502000064B19680868B0E8F00F80F309884FF064
:10503000000080F311884EF00D0E704764060020CA
:1050400003480068006880F3088862B600DF00BF8C
:1050500008ED00E080B500AF4EF62053CEF200031D
:105060004EF62052CEF20002126842F460021A603C
:105070004EF62053CEF200034EF62052CEF200023E
:10508000126842F060421A6000F09EF840F2580345
:10509000C2F200034FF000021A60FFF7D1FF4FF099
:1050A0000003184680BD00BF80B400AF4EF6045325
:1050B000CEF200034FF080521A60BD4680BC7047AC
:1050C00080B400AF4FF0A00080F3118840F2580385
:1050D000C2F200031B6803F1010240F25803C2F25E
:1050E00000031A60BD4680BC704700BF80B400AFAB
:1050F00040F25803C2F200031B6803F1FF3240F292
:105100005803C2F200031A6040F25803C2F20003CF
:105110001B68002B03D14FF0000080F31188BD46BF
:1051200080BC7047EFF309800C4B1A6820E9F00F40
:1051300010602DE908404FF0A00080F31188FEF7C1
:10514000D9FA4FF0000080F31188BDE808401968D3
:105150000868B0E8F00F80F3098870476406002003
:1051600080B582B000AF40F21463C2F200031B6846
:1051700003F1010240F21463C2F200031A6041F627
:10518000BC33C2F200031B6803F1010241F6BC33D9
:10519000C2F200031A604EF60453CEF200034FF041
:1051A00080521A604FF000037B604FF0A00080F344
:1051B0001188FEF7C3F94FF0000080F3118807F162
:1051C0000807BD4680BD00BF80B400AF4EF2140397
:1051D000CEF2000341F63F721A604EF21003CEF297
:1051E00000034FF007021A60BD4680BC704700BF45
:1051F00080B584B000AF786039604FF4A010FDF73F
:105200004FFA4FF01010FCF711FF7B68052B00F2EE
:10521000B18001A252F823F0315200006752000021
:105220009D520000D3520000095300003F5300007C
:105230004FF02000C2F20000FCF7F8FE4FF4A0404F
:10524000C4F202004FF00101FDF7EAFC4FF0400309
:10525000FB60FB684FF40040C4F2020019463A6854
:10526000FCF7ECF886E04FF04000C2F20000FCF7DB
:10527000DDFE4FF4C040C4F202004FF00201FDF722
:10528000CFFC4FF04003FB60FB684FF40040C4F2DA
:10529000020019463A68FCF7D1F86BE04FF00200C3
:1052A000C2F20000FCF7C2FE4FF4A040C4F20000BE
:1052B0004FF00101FDF7B4FC4FF08003FB60FB6889
:1052C0004FF40040C4F2020019463A68FCF7B6F801
:1052D00050E04FF00200C2F20000FCF7A7FE4FF4CE
:1052E000A040C4F200004FF00201FDF799FC4FF01E
:1052F0008003FB60FB684FF40040C4F202001946D3
:105300003A68FCF79BF835E04FF01000C2F200005D
:10531000FCF78CFE4FF48040C4F202004FF0010114
:10532000FDF77EFC4FF0C003FB60FB684FF40040CC
:10533000C4F2020019463A68FCF780F81AE04FF010
:105340001000C2F20000FCF771FE4FF48040C4F27E
:1053500002004FF00201FDF763FC4FF0C003FB6059
:10536000FB684FF40040C4F2020019463A68FCF7AB
:1053700065F800BFFB684FF40040C4F20200194614
:105380004FF00202FCF720F8FB684FF40040C4F233
:1053900002001946FCF776F807F11007BD4680BDFC
:1053A00090B585B000AFF860B9607A6040F25C03F8
:1053B000C2F20003BA6853F82240786801F09EF9FF
:1053C00003461846F96801F0F1F90346184601F062
:1053D000B3FB03464FF40040C4F2020021461A46D4
:1053E000FCF764F840F27403C2F20003BA6853F8A1
:1053F00022304FF40040C4F2020019464FF001027F
:10540000FCF78AF807F11407BD4690BD80B584B05B
:1054100000AF78607B68FB60FEF77CF80346BB60FA
:10542000FDF732FC00F04EF940F21C63C2F20003BB
:105430001B681846FDF7B2FC40F22063C2F200037D
:105440001B68012B01D1FDF717FD40F21C63C2F26E
:1054500000031B68002B17D14DF21000C0F20000B2
:105460004FF00301FCF742FC4DF21000C0F20000C7
:105470004FF00401FCF73AFC4DF21C00C0F20000B2
:105480004FF00501FCF732FC40F25063C2F200031A
:105490001B68184600F03EFD02460B4642F23820DB
:1054A000C2F200004DF22C01C0F2000101F088FCB4
:1054B00042F23820C2F200004FF00701FCF716FC60
:1054C00040F25C63C2F200031B68184600F022FD44
:1054D00002460B4642F23810C2F200004DF238018B
:1054E000C0F2000101F06CFC42F23810C2F2000080
:1054F0004FF00A01FCF7FAFB40F25463C2F20003DA
:105500001B68184600F006FD02460B4642F2B82022
:10551000C2F200004DF24401C0F2000101F050FC63
:1055200042F2B820C2F200004FF00801FCF7DEFBA7
:1055300040F24863C2F200031B68184600F0EAFC20
:1055400002460B4642F23800C2F200004DF2500112
:10555000C0F2000101F034FC42F23800C2F2000057
:105560004FF00501FCF7C2FB40F25863C2F20003A2
:105570001B68184600F0CEFC02460B4641F6B87098
:10558000C2F200004DF25C01C0F2000101F018FC13
:1055900041F6B870C2F200004FF00901FCF7A6FB1B
:1055A00040F24C63C2F200031B68184600F0B2FCE4
:1055B00002460B4642F2B800C2F200004DF268010A
:1055C000C0F2000101F0FCFB42F2B800C2F20000A0
:1055D0004FF00601FCF78AFB40F26C73C2F2000345
:1055E0001B68184600F096FC02460B4642F2B810C3
:1055F000C2F200004DF27401C0F2000101F0E0FBC4
:1056000042F2B810C2F200004FF00B01FCF76EFB43
:1056100040F27F73C2F200031B78002B07D140F2E7
:105620009873C2F200034FF000021A6029E040F2C2
:105630007C73C2F200031B78012B06D140F29873F1
:10564000C2F200034FF001021A6040F27D73C2F211
:1056500000031B78012B06D140F29873C2F20003BD
:105660004FF002021A6040F27E73C2F200031B7810
:10567000012B06D140F29873C2F200034FF00302EF
:105680001A6040F29873C2F200031B6841F638704A
:10569000C2F200004DF28001C0F200011A4601F092
:1056A0008FFB41F63870C2F200004FF00C01FCF79E
:1056B0001DFBFCF747FB07F108031846F968FDF7E7
:1056C000FDFCB1E680B582B000AF44F24020C0F2EC
:1056D0000F00FEF72BFE4FF000037B602CE04FF035
:1056E00000033B6012E042F23833C2F200037A68F2
:1056F0004FF0160101FB02F13A688A189B184FF02F
:1057000020021A703B6803F101033B603B68142BD5
:10571000E9DD42F23833C2F200037A684FF0160135
:1057200001FB02F29B1803F115034FF000021A70FF
:105730007B6803F101037B607B680B2BCFDD07F1F6
:105740000807BD4680BD00BF80B400AF4EF218030D
:10575000CEF200031B681846BD4680BC704700BFF0
:1057600080B584B000AF78604FF00003FB607B68C9
:1057700003F00703002B05D07B6823F0070303F138
:1057800008037B60FDF70AFE41F6A033C2F2000376
:105790001A687B68D21841F2FF339A4224D841F646
:1057A000A033C2F200031A687B68D21841F6A03316
:1057B000C2F200031B689A4216D941F6A033C2F226
:1057C00000031A6840F2A073C2F20003D318FB6012
:1057D00041F6A033C2F200031A687B68D21841F682
:1057E000A033C2F200031A60FDF7EAFDFB68184619
:1057F00007F11007BD4680BD80B483B000AF78606C
:1058000007F10C07BD4680BC704700BF80B582B071
:1058100000AFFCF783FD024648F21F53C5F2EB13BD
:10582000A3FB02134FEA53137B604FF00300796828
:10583000FFF7DEFC10484FF003017A68FFF7B0FD78
:105840004FF002004FF00401FBF76EF84FF002003A
:105850004FF00401FBF71CF94FF003004FF0040177
:10586000FBF762F84FF003004FF00401FBF710F96B
:1058700007F10807BD4680BD6F12833900000000A4
:10588000684620F007018D46B1B585B000AF4FF4F2
:10589000A040C4F200004FF00101FDF71DF9B8600F
:1058A000BB6803F01003002B00F091804FF0100351
:1058B000FB73FB7B4FF4A040C4F200001946FDF7D8
:1058C00037F903467B607B6803F01F037B607B68CE
:1058D000102B16D1FBF778FF03461A4641F6A83382
:1058E000C2F200031A6041F6BC33C2F200034FF06B
:1058F00000021A6041F6B833C2F200034FF0010211
:105900001A707B68002B62D141F6B833C2F20003F3
:105910001B78012B5BD1FBF757FF03461A4641F674
:10592000AC33C2F200031A6041F6A833C2F200039E
:105930001A6841F6AC33C2F200031B68D31A18464A
:1059400000F0D6FA04460D4641F6BC33C2F200031D
:105950001B68184600F0CCFA02460B461046194662
:1059600023A3D3E9002300F029FB02460B4620467F
:10597000294600F071F902460B46104619461EA34F
:10598000D3E9002300F01AFB02460B4610461946E5
:1059900017A3D3E9002300F03BFC02460B46104658
:1059A000194600F0A5FD024640F26473C2F20003FE
:1059B0001A6041F6B833C2F200034FF000021A70C9
:1059C00041F6BA33C2F200034FF001021A70FB7BBA
:1059D0004FF4A040C4F200001946FDF797F807F114
:1059E0001407BD46BDE8B14085467047AFF300805F
:1059F000000000000040BF400000000000408F4059
:105A0000684620F007018D46B1B585B000AF4FF470
:105A1000C040C4F200004FF00101FDF75DF8B8602E
:105A2000BB6803F01003002B00F091804FF01003CF
:105A3000FB73FB7B4FF4C040C4F200001946FDF736
:105A400077F803467B607B6803F0FF037B607B682D
:105A5000102B16D1FBF7B8FE03461A4641F6B033B9
:105A6000C2F200031A6041F6BC33C2F200034FF0E9
:105A700000021A6041F6B933C2F200034FF001028E
:105A80001A707B68002B62D141F6B933C2F2000371
:105A90001B78012B5BD1FBF797FE03461A4641F6B4
:105AA000B433C2F200031A6041F6B033C2F200030D
:105AB0001A6841F6B433C2F200031B68D31A1846C1
:105AC00000F016FA04460D4641F6BC33C2F200035C
:105AD0001B68184600F00CFA02460B4610461946A1
