:100000003C1D00203D2D0000A92D0000A92D000061
:10001000A92D0000A92D0000A92D0000000000005E
:10002000000000000000000000000000513100004E
:10003000A92D0000000000005532000091320000A0
:10004000A92D0000A92D0000F93A0000793900001F
:10005000A92D0000A92D0000A92D0000A92D000048
:10006000A92D0000A92D0000A92D0000A92D000038
:10007000A92D0000A92D0000A92D0000A92D000028
:10008000A92D0000A92D0000A92D0000A92D000018
:10009000A92D0000A92D0000A92D0000A92D000008
:1000A000A92D0000A92D0000A92D0000A92D0000F8
:1000B000A92D0000A92D0000A92D0000A92D0000E8
:1000C000A92D0000A92D0000A92D0000A92D0000D8
:1000D000A92D0000A92D0000A92D0000A92D0000C8
:1000E000A92D0000A92D0000A92D0000A92D0000B8
:1000F000A92D0000A92D0000A92D0000A92D0000A8
:1001000080B584B000AF78607B68FB6001F084FF4D
:100110000346BB6040F2E053C2F200031B6803F1E8
:10012000010240F2E053C2F200031A6007F1080333
:100130001846F96801F022FEECE700BF80B586B0F2
:1001400000AF786039603B68072B33D801A252F8C2
:1001500023F000BF750100007D0100008501000053
:100160008D010000950100009D010000A501000027
:10017000AD0100004FF00103FB731BE04FF00203E1
:10018000FB7317E04FF00403FB7313E04FF0080319
:10019000FB730FE04FF01003FB730BE04FF02003F5
:1001A000FB7307E04FF04003FB7303E04FF0800365
:1001B000FB7300BF7B6803F1FF33062B5DD801A200
:1001C00052F823F0E1010000F70100000D020000E9
:1001D00023020000390200004F0200006502000007
:1001E0004FF00103C2F200033B614FF48043C4F2BD
:1001F00000037B6141E04FF00203C2F200033B6168
:100200004FF4A043C4F200037B6136E04FF00403D7
:10021000C2F200033B614FF4C043C4F200037B61B0
:100220002BE04FF00803C2F200033B614FF4E043C0
:10023000C4F200037B6120E04FF01003C2F2000320
:100240003B614FF48043C4F202037B6115E04FF041
:100250002003C2F200033B614FF4A043C4F2020347
:100260007B610AE04FF04003C2F200033B614FF4B0
:10027000C043C4F202037B6100BF386900F0BCFEDA
:10028000FB7B7869194601F03BFCFB7B78691946DA
:100290004FF001024FF00C0301F0AEFA07F118071E
:1002A000BD4680BD80B586B000AF786039603B68E0
:1002B000072B33D801A252F823F000BFDD02000063
:1002C000E5020000ED020000F5020000FD02000062
:1002D000050300000D030000150300004FF00103AB
:1002E000FB731BE04FF00203FB7317E04FF00403B6
:1002F000FB7313E04FF00803FB730FE04FF01003A4
:10030000FB730BE04FF02003FB7307E04FF040035B
:10031000FB7303E04FF08003FB7300BF7B6803F1C6
:10032000FF33062B4FD801A252F823F049030000F7
:100330005B0300006D0300007F03000091030000D9
:10034000A3030000B50300004FF010033B614FF41E
:100350008043C4F200037B6135E04FF011033B6141
:100360004FF4A043C4F200037B612CE04FF0120372
:100370003B614FF4C043C4F200037B6123E04FF0C4
:1003800013033B614FF4E043C4F200037B611AE0C6
:100390004FF014033B614FF48043C4F202037B61CE
:1003A00011E04FF02E033B614FF4A043C4F202036F
:1003B0007B6108E04FF02F033B614FF4C043C4F270
:1003C00002037B6100BF386902F02CF9FB7B78697E
:1003D00019464FF0010201F0A5F9FB7B7869194637
:1003E00001F022FB07F11807BD4680BD80B584B03F
:1003F00000AF42F6D223C0F28E03BB6042F6100378
:10040000C0F280037B604FF46043C4F20F0342F6F6
:100410001002C0F280721A674FF46043C4F20F03F7
:1004200043F6D122C0F28E721A664FF46043C4F2D2
:100430000F0342F6D222C0F28E021A664FF46043D6
:10044000C4F20F0342F61002C0F280021A674FF0A6
:100450000003FB6003E0FB6803F10103FB60FA6843
:1004600040F2E7339A42F6D94FF46043C4F20F03E7
:1004700042F6D222C0F28E021A664FF46043C4F2F2
:100480000F0342F61002C0F280021A674FF0000319
:10049000FB6003E0FB6803F10103FB60FA6840F2D4
:1004A000E7339A42F6D94FF46043C4F20F0342F6A1
:1004B000D222C0F28E021A664FF46043C4F20F03D8
:1004C00042F6D222C0F28E021A664FF46043C4F2A2
:1004D0000F0342F61002C0F280021A674FF00003C9
:1004E000FB6003E0FB6803F10103FB60FA6842F282
:1004F0000F739A42F6D94FF46043C4F20F031B6E98
:10050000BB604FF46043C4F20F031B6F7B607B68DA
:10051000002B56DA7B6803F40063002B14D0BB6811
:100520004FEA931303F00F027B684FEA131303F0B3
:1005300007031046194600F075F8024640F2000322
:10054000C2F200031A6008E040F20003C2F20003A6
:100550004FF44242C0F6EB321A60BB6803F48003EA
:10056000002B5AD07B6803F40063002B13D040F2B9
:100570000003C2F200031A687B684FEAD35303F00A
:100580003F0303F10103B2FBF3F240F20003C2F2B6
:1005900000031A6041E040F20003C2F200031A684F
:1005A0007B684FEAD35303F03F0303F10103B2FB2F
:1005B000F3F34FEA530240F20003C2F200031A6061
:1005C0002BE0BB684FEA931303F00F02BB684FEABE
:1005D000131303F003031046194600F023F80246F4
:1005E00040F20003C2F200031A60BB6803F4800308
:1005F000002B12D040F20003C2F200031A68BB685D
:100600004FEAD35303F00F0303F10103B2FBF3F2FC
:1006100040F20003C2F200031A6007F11007BD4662
:1006200080BD00BF80B485B000AF786039604FF402
:10063000D853C0F2B703FB603B68032B00F29880ED
:1006400001A252F823F000BF590600004F07000036
:100650005B070000670700007B680F2B00F28780B4
:1006600001A252F823F000BFA9060000B506000061
:10067000BD060000C9060000D1060000DD0600002E
:10068000E5060000F1060000F90600000107000081
:100690000D070000190700002507000031070000C2
:1006A000390700004507000044F24023C0F20F0361
:1006B000FB604BE04FF4E113FB6047E048F28043FE
:1006C000C0F21E03FB6041E04FF41613FB603DE0F7
:1006D00049F69963C0F23603FB6037E04FF46113CB
:1006E000FB6033E04FF41063C0F23D03FB602DE08C
:1006F0004FF47A13FB6029E04FF49603FB6025E08A
:1007000044F64033C0F24C03FB601FE04FF400534B
:10071000C0F24E03FB6019E048F68053C0F25B0361
:10072000FB6013E04FF44043C0F25D03FB600DE05B
:100730004FF4E103FB6009E04FF49053C0F27A03F9
:10074000FB6003E04FF4FA03FB6000BF10E04FF4DE
:10075000D853C0F2B703FB600AE04CF2C063C0F2AA
:100760002D03FB6004E047F23053FB6000E000BF64
:10077000FB68184607F11407BD4680BC704700BFF0
:10078000F0B58DB000AF41F27873C2F20003D3E947
:10079000000141F27873C2F20003D3E906234FF05F
:1007A000010603F0F5FE0346002B02D14FF00003D3
:1007B0001E46FE73FB7B002B10D041F27873C2F211
:1007C0000003D3E90223C7E9082341F27873C2F298
:1007D0000003D3E90423C7E90A230FE041F2787349
:1007E000C2F20003D3E90823C7E9082341F2787372
:1007F000C2F20003D3E90A23C7E90A23FB7B002BDB
:1008000008D041F27873C2F20003D3E90023C7E9AC
:10081000042307E041F27873C2F20003D3E9062310
:10082000C7E90423FB7B002B1AD0D7E904014FF062
:1008300000024FF07E5303F5E00303F065FA024631
:100840000B461046194640F21003C2F20003D3E9EA
:10085000002303F00DFC02460B46C7E906231EE009
:10086000D7E904014FF000024FF07E5303F5E00397
:1008700003F04AFA02460B461046194640F21003AE
:10088000C2F20003D3E90023144683F00045224658
:100890002B4603F0EDFB02460B46C7E90623D7E9DA
:1008A0000801D7E90A2303F02FFA02460B46104647
:1008B000194640F21803C2F20003D3E9002303F003
:1008C000D7FB02460B46C7E90023D7E90801D7E961
:1008D0000A2303F035FE0346002B07D141F278735B
:1008E000C2F2000393F83030002B14D041F2607351
:1008F000C2F200034FF000004FF00001C3E9000115
:1009000041F26073C2F200034FF000004FF00001AB
:10091000C3E90201AFE0D7E90601D7E9002303F0FC
:10092000F5F902460B46C7E904234FF001031C46C4
:10093000D7E904014FF000024FF0804303F5101394
:1009400003F01CFE0346002B02D14FF000031C46AF
:10095000E3B2002B0CD041F26073C2F200034FF0FF
:1009600000004FF0804101F51011C3E900012AE0B9
:100970004FF001031C46D7E904014FF000024FF08D
:10098000404303F5101303F0EFFD0346002B02D1A3
:100990004FF000031C46E3B2002B0CD041F2607311
:1009A000C2F200034FF000004FF0404101F510117A
:1009B000C3E9000107E041F26073C2F20003D7E926
:1009C0000401C3E90001D7E90001D7E9062303F0D8
:1009D0009BF902460B46C7E904234FF001031C466E
:1009E000D7E904014FF000024FF0804303F51013E4
:1009F00003F0C4FD0346002B02D14FF000031C4658
:100A0000E3B2002B0CD041F26073C2F200034FF04E
:100A100000004FF0804101F51011C3E902012AE006
:100A20004FF001031C46D7E904014FF000024FF0DC
:100A3000404303F5101303F097FD0346002B02D14A
:100A40004FF000031C46E3B2002B0CD041F2607360
:100A5000C2F200034FF000004FF0404101F51011C9
:100A6000C3E9020107E041F26073C2F20003D7E973
:100A70000401C3E9020107F13407BD46F0BD00BF20
:100A800080B500AF4AF28853C0F200031B684FF0F4
:100A900000021A6041F27870C2F200004FF00001CB
:100AA0004FF0380204F06AF941F26070C2F20000BF
:100AB0004FF000014FF0100204F060F980BD00BF5C
:100AC00080B485B000AFF860B9607A60BA68FB683E
:100AD000D318BB60BA68BB6819684FF00103CFF642
:100AE000F87301EA030379680B4313607B6803F032
:100AF0000203002B0CD0BB6803F120034FF0B002BF
:100B00001A60BB6803F124034FF430621A600BE0F3
:100B1000BB6803F120034FF08C021A60BB6803F13D
:100B2000240340F60C021A6007F11407BD4680BC8E
:100B3000704700BF80B485B000AFF860B9607A60DC
:100B4000BA68FB68D318BB60BB681B6803F002037C
:100B5000002B07D0BB6803F110037A684FEA5202FA
:100B60001A6006E0BB6803F110037A6802F1FF32F5
:100B70001A6007F11407BD4680BC704780B483B08B
:100B800000AF786039607A683B68D31879683A6852
:100B90008A18126842F001021A6007F10C07BD467C
:100BA00080BC704780B487B000AFF860B9607A60ED
:100BB000BB6823F03F02FB68D3187B617B691B682D
:100BC00003F00203002B03D07B684FEA53037B60E2
:100BD0007B6903F110031B683B613A697B68D31A98
:100BE0003B61BB6803F00103DBB2002B05D07B69DE
:100BF00003F11C033A691A6004E07B6903F11803EE
:100C00003A691A6007F11C07BD4680BC704700BFF7
:100C100080B485B000AFF860B9601346FB71FB7912
:100C2000012B0BD1FB6803F10803FA6802F10802FB
:100C30001168BA6841EA02021A600CE0FB6803F12D
:100C40000803FA6802F108021168BA686FEA020242
:100C500001EA02021A6007F11407BD4680BC704722
:100C600080B584B000AF78607B68FB6001F0D4F998
:100C70000346BB6000F014F840F20063C2F20003C8
:100C80001B6803F1010240F20063C2F200031A6024
:100C900007F108031846F96801F070F8EAE700BFA9
:100CA00080B500AF40F20463C2F200031B78002B52
:100CB0000AD04AF28853C0F200031A684AF28C53F1
:100CC000C0F200031360ECE040F20463C2F20003E0
:100CD0004FF001021A7041F27873C2F200034FF034
:100CE00000004FF07E5101F5E001C3E9000141F23F
:100CF0007873C2F200034FF000004FF0804101F51D
:100D00000021C3E9020141F27873C2F200034FF0FF
:100D100000004FF0804101F58021C3E9040141F258
:100D20007873C2F200034FF000004FF00001C3E9F6
:100D3000060141F27873C2F200034FF000004FF059
:100D40000001C3E9080141F27873C2F200034FF0D9
:100D500000004FF00001C3E90A0140F2F263C2F261
:100D600000031A7841F27873C2F2000383F830204E
:100D7000FFF706FD41F26073C2F20003D3E9000100
:100D800040F2E853C2F20003C3E9000141F260738C
:100D9000C2F20003D3E9020140F2F053C2F20003B1
:100DA000C3E9000140F20463C2F200034FF0000205
:100DB0001A7040F2E853C2F20003D3E90023104650
:100DC000194639A3D3E9002303F052F902460B4632
:100DD0001046194636A3D3E9002302F097FF0246D6
:100DE0000B461046194603F0DDFB024640F2F8536D
:100DF000C2F200031A6040F2F053C2F20003D3E9DA
:100E00000023104619462CA3D3E9002303F030F940
:100E100002460B461046194625A3D3E9002302F0EB
:100E200075FF02460B461046194603F0BBFB02460F
:100E300040F2FC53C2F200031A6040F22003C2F2F7
:100E400000031B684FF00400194602F05DFA40F2FF
:100E50002003C2F200031B684FF00500194602F0A0
:100E600053FA40F2F853C2F200031A6840F220032A
:100E7000C2F200031B6810464FF004011A4602F04C
:100E80001BFB40F2FC53C2F200031A6840F220033D
:100E9000C2F200031B6810464FF005011A4602F02B
:100EA0000BFB80BDAFF30080FCA9F1D24D6250BFB7
:100EB000333333333333B33FFCA9F1D24D62503F68
:100EC00080B582B000AF4FF000037B6002F0B8FC49
:100ED00078607B68184607F10807BD4680BD00BFF3
:100EE00080B584B004AF4FF46E50C0F2807000F053
:100EF000B3F800F071F8FFF7C3FD4AF29453C0F263
:100F000000034FF0030200924FF0000201924FF0F5
:100F1000000202924FF00002039240F66140C0F2DC
:100F2000000019464FF0C8024FF0320300F050FEA7
:100F30004AF2A453C0F200034FF0020200924FF0B5
:100F4000000201924FF0000202924FF00002039261
:100F500040F20110C0F2000019464FF0C8024FF4F1
:100F6000FA6300F035FE4AF2BC53C0F200034FF0C2
:100F7000040200924FF0000201924FF00002029230
:100F80004FF00002039242F2E940C0F2000019461D
:100F90004FF0C8024FF0640300F01AFE4AF2CC533F
:100FA000C0F200034FF0010200924FF000020192E4
:100FB0004FF0000202924FF00002039243F22550DC
:100FC000C0F2000019464FF0C8024FF0C80300F00D
:100FD000FFFD00F02BFFFEE780B500AF4FF00400EF
:100FE00044F6206102F090F94FF0050044F62061CC
:100FF00002F08AF980BD00BF80B483B000AF786092
:101000007B684FEA13724AF2F853C0F2000353F8B8
:1010100022301A467B684FEA13714AF2F853C0F245
:10102000000353F8213019687B684FEA03434FEA05
:101030001343786800F4F8104FEA104003FA00F305
:1010400041EA0303136007F10C07BD4680BC7047FB
:101050000138FDD1704700BF80B586B000AF786021
:101060004FF46043C4F20F031B6803F0E043002B0E
:101070000DD04FF46043C4F20F031A684FF0000321
:10108000C7F2FF0302EA0303B3F1805F03D17B6879
:10109000002BC0F223814EF26003C4F20F031B68E1
:1010A0003B614EF27003C4F20F031B68FB603B69A7
:1010B00043F400633B613B6923F480033B61FB68BD
:1010C00043F40063FB604EF26003C4F20F033A691D
:1010D0001A604EF27003C4F20F03FA681A603B699B
:1010E00003F00203002B04D07B6803F00203002B03
:1010F0000AD03B6903F00103DBB2002B2FD07B68E1
:1011000003F00103002B2AD17B6863F003033A69E3
:1011100002EA03033B614EF26003C4F20F033A6933
:101120001A60FB68002B09DAFB6803F07003302BB0
:101130000CD0FB6803F07003702B07D0FB68002B0A
:1011400009DB3B6903F03003302B04D14FF48050AE
:10115000FFF77EFF03E04FF40020FFF779FF3B69C4
:1011600023F45E5323F070033B617A6843F2F0731B
:1011700002EA03033A6942EA03033B61FA684DF667
:101180008F73C7F6FF7302EA0303FB607A6842F2CB
:101190003003C8F2000302EA0303FA6842EA0303D9
:1011A000FB607B6803F008034FEAC303FA6842EA76
:1011B0000303FB604EF25803C4F20F034FF04002EA
:1011C0001A60FB68002B0CDA4EF27003C4F20F03B6
:1011D000FA681A604EF26003C4F20F033A691A60AB
:1011E0000BE04EF26003C4F20F033A691A604EF24C
:1011F0007003C4F20F03FA681A604FF01000FFF793
:1012000027FF3B6923F0F86323F003033B617A680F
:101210004FF00303C0F2C07302EA03033A6942EAE3
:1012200003033B61FB6823F0FC53FB607B6803F026
:10123000FC53FA6842EA0303FB607B6803F08043D7
:10124000002B13D03B6943F480033B61FB6823F41C
:101250008003FB607A684FF00003C4F2400302EAA7
:101260000303FA6842EA0303FB6003E0FB6823F030
:101270008043FB607B6803F40063002B1DD14FF4B7
:1012800000437B610CE04EF25003C4F20F031B6875
:1012900003F04003002B07D17B6903F1FF337B612F
:1012A0007B69002BEFD100E000BF3B6923F40063B2
:1012B0003B61FB6823F40063FB604EF26003C4F201
:1012C0000F033A691A604EF27003C4F20F03FA6812
:1012D0001A604FF01000FFF7BBFE00E000BF07F1FF
:1012E0001807BD4680BD00BF80B485B000AF4EF288
:1012F0006003C4F20F031B68FB604EF27003C4F27C
:101300000F031B687B607B68002B03DA7B6803F0AC
:10131000700302E0FB6803F03003202B7FD0202B0A
:1013200004D8002B0CD0102B17D0E6E0602B00F077
:10133000DC80702B00F0DD80302B00F0D280DCE010
:10134000FB6803F4F8634FEA93124AF21C63C0F29D
:10135000000353F82230BB60D2E04FF46043C4F284
:101360000F031B6803F0E043002B0DD04FF46043E4
:10137000C4F20F031A684FF00003C7F2FF0302EA3A
:101380000303B3F1805F05D14EF2C013C0F2E40352
:10139000BB6043E04FF46043C4F20F031A684FF0A0
:1013A0000003C7F2FF0302EA03034FF00002C1F299
:1013B000010293420AD14FF46043C4F20F031B6849
:1013C0004FEA03434FEA1343022B1BD04FF4604311
:1013D000C4F20F031A684FF00003C7F2FF0302EADA
:1013E00003034FF00002C1F20302934210D14FF405
:1013F0006043C4F20F031B684FEA03434FEA1343F1
:10140000002B05D14FF4D853C0F2B703BB6005E001
:101410004FF41053C0F2F403BB6071E070E04FF47E
:101420006043C4F20F031B6803F0E043002B0DD0B0
:101430004FF46043C4F20F031A684FF00003C7F281
:10144000FF0302EA0303B3F1805F05D143F67003A3
:10145000C0F23903BB6043E04FF46043C4F20F03B2
:101460001A684FF00003C7F2FF0302EA03034FF0CC
:101470000002C1F2010293420AD14FF46043C4F268
:101480000F031B684FEA03434FEA1343022B1BD0A1
:101490004FF46043C4F20F031A684FF00003C7F221
:1014A000FF0302EA03034FF00002C1F2030293427A
:1014B00010D14FF46043C4F20F031B684FEA03439B
:1014C0004FEA1343002B05D14CF2C063C0F22D0349
:1014D000BB6005E04FF41063C0F23D03BB600FE05A
:1014E0000EE047F23053BB600AE04FF48003BB606C
:1014F00006E04FF40043BB6002E04FF00003AEE0B3
:101500007B68002B04DA7B6803F40063002B07D0B0
:101510007B68002B60DBFB6803F40063002B5BD16E
:101520004EF26403C4F20F031B683B604FF4604348
:10153000C4F20F031B6803F0E043002B0DD04FF4FF
:101540006043C4F20F031A684FF00003C7F2FF03B1
:1015500002EA0303B3F1805F14D13A6843F6E07303
:1015600002EA03034FEA531303F10203BA6802FBD2
:1015700003F23B6803F01F0303F10203B2FBF3F332
:10158000BB6013E03A6843F6E07302EA03034FEAF4
:101590005313BA6802FB03F23B6803F01F0303F125
:1015A00001034FEA4303B2FBF3F3BB603B6803F470
:1015B0008043002B03D0BB684FEA5303BB603B68FA
:1015C00003F40043002B03D0BB684FEA9303BB60D6
:1015D000FB6843F48003FB60FB6803F48003002B8B
:1015E0003CD07B68002B2EDA7B6803F08043002B15
:1015F0001DD07B68002B04DA7B6803F40063002BAA
:1016000007D07B68002B12DBFB6803F40063002B20
:101610000DD1BB684FEA43027B6803F0FE534FEAEB
:10162000935303F10103B2FBF3F3BB6016E07B6855
:1016300003F0FC534FEAD35303F10103BA68B2FB42
:10164000F3F3BB600AE0FB6803F0F0634FEAD353A7
:1016500003F10103BA68B2FBF3F3BB60BB68184641
:1016600007F11407BD4680BC704700BF80B483B04B
:1016700000AF78604EF26003C4F20F034EF26002D6
:10168000C4F20F02126822F4F0117A6841EA0202F1
:101690001A6007F10C07BD4680BC704780B485B066
:1016A00000AFF8600B467A60FB72FB6803F580635D
:1016B0001A467B6803F00103DBB2002B07D0FB68FE
:1016C00003F580631968FB7A41EA030308E0FB68CD
:1016D00003F580631968FB7A6FEA030301EA0303E9
:1016E0001360FB6803F584631A467B6803F002030A
:1016F000002B07D0FB6803F584631968FB7A41EA85
:10170000030308E0FB6803F584631968FB7A6FEA5A
:10171000030301EA0303136007F11407BD4680BC0D
:10172000704700BF80B485B000AFF8600B467A60A8
:10173000FB72FB6803F581631A467B6803F00103C3
:10174000DBB2002B07D0FB6803F581631968FB7AD5
:1017500041EA030308E0FB6803F581631968FB7A3B
:101760006FEA030301EA03031360FB6803F5806378
:1017700003F104031A467B6803F00203002B09D02F
:10178000FB6803F5806303F104031968FB7A41EAFF
:1017900003030AE0FB6803F5806303F1040319689F
:1017A000FB7A6FEA030301EA03031360FB6803F5A6
:1017B000806303F10C031A467B6803F00403002BDB
:1017C00009D0FB6803F5806303F10C031968FB7A09
:1017D00041EA03030AE0FB6803F5806303F10C03AD
:1017E0001968FB7A6FEA030301EA0303136007F148
:1017F0001407BD4680BC704780B485B000AFF86068
:101800007A603B600B46FB72FB6803F5A0631A46E7
:101810007B6803F00103DBB2002B07D0FB6803F504
:10182000A0631968FB7A41EA030308E0FB6803F54B
:10183000A0631968FB7A6FEA030301EA03031360EC
:10184000FB6803F5A06303F104031A467B6803F009
:101850000203002B09D0FB6803F5A06303F1040326
:101860001968FB7A41EA03030AE0FB6803F5A06309
:1018700003F104031968FB7A6FEA030301EA030327
:101880001360FB6803F5A1631A467B6803F0040349
:10189000002B07D0FB6803F5A1631968FB7A41EAC6
:1018A000030308E0FB6803F5A1631968FB7A6FEA9C
:1018B000030301EA03031360FB6803F5A3631A46FD
:1018C0007B6803F00803002B07D0FB6803F5A363D4
:1018D0001968FB7A41EA030308E0FB6803F5A36398
:1018E0001968FB7A6FEA030301EA03031360FB68DC
:1018F00003F5A06303F10C031A463B6803F00103F0
:10190000DBB2002B09D0FB6803F5A06303F10C03E5
:101910001968FB7A41EA03030AE0FB6803F5A06358
:1019200003F10C031968FB7A6FEA030301EA03036E
:101930001360FB6803F5A2631A463B6803F00203D9
:10194000002B07D0FB6803F5A2631968FB7A41EA14
:10195000030308E0FB6803F5A2631968FB7A6FEAEA
:10196000030301EA03031360FB6803F5A26303F1B9
:1019700004031A463B6803F00403002B09D0FB68FC
:1019800003F5A26303F104031968FB7A41EA030338
:101990000AE0FB6803F5A26303F104031968FB7A0C
:1019A0006FEA030301EA03031360FB6803F5A26314
:1019B00003F10C031A463B6803F00803002B09D01F
:1019C000FB6803F5A26303F10C031968FB7A41EA93
:1019D00003030AE0FB6803F5A26303F10C03196833
:1019E000FB7A6FEA030301EA03031360FB6803F564
:1019F000A5631A463B68002B07D1FB6803F5A56376
:101A00001968FB7A41EA030308E0FB6803F5A56364
:101A10001968FB7A6FEA030301EA0303136007F115
:101A20001407BD4680BC704780B483B000AF7860B7
:101A30000B46FB707B6803F582637A6802F582626D
:101A40001168FA7841EA02021A6007F10C07BD46F4
:101A500080BC704780B483B000AF78600B46FB70E9
:101A6000FB78002B04D07B6803F583631B6805E0DB
:101A70007B6803F5826303F104031B68184607F1D2
:101A80000C07BD4680BC704780B483B000AF78605F
:101A90000B46FB707B6803F5826303F10C03FA7855
:101AA0001A6007F10C07BD4680BC704780B483B054
:101AB00000AF78600B46FB70FB784FEA83031A4651
:101AC0007B68D3181B68184607F10C07BD4680BC1D
:101AD000704700BF80B483B000AF786013460A46F9
:101AE000FA70BB70FB784FEA83031A467B68D31801
:101AF000BA781A6007F10C07BD4680BC704700BF7A
:101B000080B582B000AF78600B46FB70FB787868D8
:101B100019464FF00002FFF7C1FDFB7878681946BF
:101B20004FF001024FF00803FFF766FE07F10807C8
:101B3000BD4680BD80B582B000AF78600B46FB70BB
:101B4000FB78786819464FF00102FFF7A7FDFB7894
:101B5000786819464FF001024FF00803FFF74CFE7A
:101B600007F10807BD4680BD80B582B000AF786040
:101B70000B46FB70FB78786819464FF00202FFF7BE
:101B80008DFDFB78786819464FF001024FF008038D
:101B9000FFF732FE07F10807BD4680BD80B582B071
:101BA00000AF78600B46FB70FB78786819464FF001
:101BB0000202FFF773FDFB78786819464FF00102C7
:101BC0004FF00803FFF718FE07F10807BD4680BD78
:101BD00080B58AB002AFF860B9603B601346FB8005
:101BE000FB881846396B00F045FCB861BB69002BD7
:101BF00000F0A680BB691A6BFB8803F1FF334FEA44
:101C00008303D3187B617B6923F007037B61FB8827
:101C10000093B869B968BA6A7B6B00F05DFB7869BC
:101C2000F9683A6801F064FA03461A46BB691A601B
:101C3000FB6A002B02D0FB6ABA691A6001F0D8FA7D
:101C400040F2B463C2F200031B6803F1010240F2E8
:101C5000B463C2F200031A6040F20863C2F20003E8
:101C60001B68002B0FD140F20863C2F20003BA696F
:101C70001A6040F2B463C2F200031B68012B18D152
:101C800000F066FB15E040F2C463C2F200031B687B
:101C9000002B0ED140F20863C2F200031B68DA6A1F
:101CA000BB6A9A4205D840F20863C2F20003BA69DF
:101CB0001A60BB69DA6A40F2BC63C2F200031B68B7
:101CC0009A4206D9BB69DA6A40F2BC63C2F20003E9
:101CD0001A6040F2D863C2F200031B6803F10102EC
:101CE00040F2D863C2F200031A60BB69DA6A40F2BC
:101CF000C063C2F200031B689A4206D9BB69DA6A64
:101D000040F2C063C2F200031A60BB69DA6A13468C
:101D10004FEA83039B184FEA83031A4640F20C6391
:101D2000C2F20003D218BB6903F10403104619463E
:101D300001F070F84FF00103FB6101F06FFA02E06F
:101D40004FF0FF33FB61FB69012B11D140F2C463FB
:101D5000C2F200031B68002B0AD040F20863C2F2F3
:101D600000031B68DA6ABB6A9A4201D201F034FAB6
:101D7000FB69184607F12007BD4680BD80B586B0D7
:101D800000AF786039604FF000037B6100F088F8A5
:101D90007B681A683B68D3183B617B681A6840F21D
:101DA000B863C2F200031B689A4210D97B681A68B4
:101DB0003B699A421BD940F2B863C2F200031B6828
:101DC0003A699A4213D94FF001037B610FE07B68B7
:101DD0001A683B699A4207D840F2B863C2F200031E
:101DE0001B683A699A4202D94FF001037B617B6814
:101DF0003A691A607B69002B0CD040F20863C2F28A
:101E000000031B6803F10403184601F069F8386900
:101E100000F0EAFA00F056F8F860FB68002B01D1F8
:101E200001F0DAF907F11807BD4680BD80B586B02C
:101E300004AF4AF27863C0F200034FF00002009250
:101E40004FF0000201924FF0000202924FF00002A8
:101E5000039242F2C920C0F2000019464FF064021A
:101E60004FF00003FFF7B4FE78607B68012B13D1BD
:101E70004FF0A00080F3118840F2C463C2F2000367
:101E80004FF001021A6040F2B863C2F200034FF053
:101E900000021A6001F076F907F10807BD4680BD1F
:101EA00080B400AF40F2C863C2F200031B6803F1C4
:101EB000010240F2C863C2F200031A60BD4680BC52
:101EC000704700BF90B583B000AF4FF000037B6058
:101ED00001F08EF940F2C863C2F200031B6803F1FF
:101EE000FF3240F2C863C2F200031A6040F2C863D6
:101EF000C2F200031B68002B40F0868040F2B463FE
:101F0000C2F200031B68002B7ED04FF000033B6041
:101F10003DE040F2A063C2F20003DB68DB681C46D0
:101F200004F11803184600F0DBFF04F1040318461F
:101F300000F0D6FFE26A40F2C063C2F200031B6801
:101F40009A4205D9E26A40F2C063C2F200031A6005
:101F5000E26A13464FEA83039B184FEA83031A464B
:101F600040F20C63C2F20003D21804F104031046DD
:101F7000194600F04FFFE26A40F20863C2F2000324
:101F80001B68DB6A9A4202D34FF001033B6040F2C8
:101F9000A063C2F200031B68002BBAD140F2CC63ED
:101FA000C2F200031B68002B18D00DE000F048F8C7
:101FB00040F2CC63C2F200031B6803F1FF3240F22F
:101FC000CC63C2F200031A6040F2CC63C2F2000399
:101FD0001B68002BEAD14FF001033B603B68012BEB
:101FE00006D040F2D063C2F200031B68012B0BD174
:101FF0004FF001037B6040F2D063C2F200034FF068
:1020000000021A6001F0E8F801F008F97B68184650
:1020100007F10C07BD4690BD80B582B000AF01F05E
:10202000E7F840F2B863C2F200031B687B6001F07E
:10203000F5F87B68184607F10807BD4680BD00BF6C
:1020400080B584B000AF40F2C863C2F200031B68E1
:10205000002B40F0C08040F2B863C2F200031B685E
:1020600003F1010240F2B863C2F200031A6040F2C9
:10207000B863C2F200031B68002B40D140F29863A2
:10208000C2F200031B68FB6040F29C63C2F20003D3
:102090001A6840F29863C2F200031A6040F29C632F
:1020A000C2F20003FA681A6040F2D463C2F200037D
:1020B0001B6803F1010240F2D463C2F200031A600C
:1020C00040F29863C2F200031B681B68002B07D123
:1020D00040F22403C2F200034FF0FF321A600EE018
:1020E00040F29863C2F200031B68DB68DB68BB60E8
:1020F000BB685A6840F22403C2F200031A6040F23F
:10210000B863C2F200031A6840F22403C2F200036B
:102110001B689A426BD340F29863C2F200031B68BB
:102120001B68002B07D140F22403C2F200034FF0DA
:10213000FF321A605BE040F29863C2F200031B6852
:10214000DB68DB68BB60BB685B687B6040F2B863E0
:10215000C2F200031A687B689A4206D240F2240356
:10216000C2F200037A681A6041E0BB6803F104031D
:10217000184600F0B5FEBB689B6A002B05D0BB6813
:1021800003F11803184600F0ABFEBB68DA6A40F2B0
:10219000C063C2F200031B689A4206D9BB68DA6AC0
:1021A00040F2C063C2F200031A60BB68DA6A1346E9
:1021B0004FEA83039B184FEA83031A4640F20C63ED
:1021C000C2F20003D218BB6803F10403104619469B
:1021D00000F020FE9FE740F2CC63C2F200031B68D0
:1021E00003F1010240F2CC63C2F200031A6007F16E
:1021F0001007BD4680BD00BF80B483B000AF40F281
:10220000C863C2F200031B68002B14D040F2D063F5
:10221000C2F200034FF001021A604FE040F2C063C7
:10222000C2F200031B6803F1FF3240F2C063C2F246
:1022300000031A6000E000BF40F2C063C2F2000376
:102240001A6813464FEA83039B184FEA83031A4622
:1022500040F20C63C2F20003D3181B68002BDDD0E0
:1022600040F2C063C2F200031A6813464FEA8303C8
:102270009B184FEA83031A4640F20C63C2F2000334
:10228000D3187B607B685B685B681A467B685A6022
:102290007B685A687B6803F108039A4205D17B6822
:1022A0005B685B681A467B685A607B685B68DB68C2
:1022B0001A4640F20863C2F200031A6007F10C07E5
:1022C000BD4680BC704700BF80B582B000AF78606B
:1022D00000F084F8FCE700BF80B584B000AFF86080
:1022E000B9607A603B60FB6803F134031A46BB684F
:1022F000104619464FF00C0202F014FEFB684FF036
:10230000000283F83F207B68042B02D94FF00403BE
:102310007B60FB687A68DA62FB6803F104031846A5
:1023200000F06AFDFB6803F11803184600F064FD35
:10233000FB68FA681A617B68C3F10502FB689A6161
:10234000FB68FA685A6207F11007BD4680BD00BFFE
:1023500080B582B000AF4FF000037B6013E07A6875
:1023600013464FEA83039B184FEA83031A4640F251
:102370000C63C2F20003D318184600F019FD7B6805
:1023800003F101037B607B68042BE8D940F27060A5
:10239000C2F2000000F00CFD40F28460C2F20000C6
:1023A00000F006FD40F2A060C2F2000000F000FD67
:1023B00040F29863C2F2000340F27062C2F200027F
:1023C0001A6040F29C63C2F2000340F28462C2F2DF
:1023D00000021A6007F10807BD4680BD80B400AF57
:1023E000BD4680BC704700BF80B582B000AF78604A
:1023F00040F20863C2F200031B687A685A6040F238
:10240000B863C2F200031B687A689A4210D240F2A5
:102410009C63C2F200031A6840F20863C2F2000330
:102420001B6803F104031046194600F01DFD1DE072
:1024300040F29863C2F200031A6840F20863C2F2E5
:1024400000031B6803F104031046194600F00CFD5D
:1024500040F22403C2F200031B687A689A4205D254
:1024600040F22403C2F200037A681A6007F10807F9
:10247000BD4680BD80B584B000AF03463960FB80A7
:102480004FF0400001F0E8F90346FB60FB68002BC9
:1024900023D03B68002B07D1FB884FEA8303184603
:1024A00001F0DAF9034600E03B68FA681363FB6861
:1024B0001B6B002B06D1F86801F01AFA4FF00003ED
:1024C000FB600AE0FB681A6BFB884FEA8303104647
:1024D0004FF0A5011A4602F051FCFB68184607F1BF
:1024E0001007BD4680BD00BF80B584B000AF7860E6
:1024F0007B68FB60FFF790FD0346BB6000F08CF843
:1025000040F2E463C2F200031B6803F1010240F2EF
:10251000E463C2F200031A6041F22273C2F20003C4
:102520001B78012B25D140F2DC63C2F200031B684B
:10253000184601F0A1FB03461A4640F2F063C2F2CE
:1025400000031A7040F2DC63C2F200031B681846F5
:10255000304902F039FA03461A4640F2E863C2F203
:1025600000031A6041F22273C2F200034FF000022E
:102570001A7041F22373C2F200031B78012B25D19C
:1025800040F2E063C2F200031B68184601F096FBBC
:1025900003461A4640F2F163C2F200031A7040F299
:1025A000E063C2F200031B6818461A4902F00CFAF5
:1025B00003461A4640F2EC63C2F200031A6041F28D
:1025C0002373C2F200034FF000021A7040F2F0636E
:1025D000C2F200031B78012B06D040F2F163C2F275
:1025E00000031B78012B07D140F2F263C2F2000313
:1025F0004FF001021A7006E040F2F263C2F20003EB
:102600004FF000021A7007F108031846F968FFF747
:10261000B5FB75E70000684280B500AF01F072F9C4
:1026200080BD00BF80B483B000AF78607B68042BAE
:102630000CD14EF62453CEF200034EF62452CEF2C5
:102640000002126842F480321A6051E07B68052B68
:102650000CD14EF62453CEF200034EF62452CEF2A5
:102660000002126842F400321A6041E07B68062BD7
:102670000CD14EF62453CEF200034EF62452CEF285
:102680000002126842F480221A6031E07B680F2B4E
:102690000CD14EF21003CEF200034EF21002CEF235
:1026A0000002126842F002021A6021E07B680F2BE0
:1026B0000FD97B682F2B0CD84FF46143CEF2000367
:1026C0007A68A2F110024FF0010101FA02F21A60D9
:1026D0000EE07B682F2B0BD94EF20413CEF20003D1
:1026E0007A68A2F130024FF0010101FA02F21A6099
:1026F00007F10C07BD4680BC704700BF80B582B0B3
:1027000000AF7860396040F2F463C2F2000303F076
:10271000704240F2F463C2F2000323F07F4323F4DB
:1027200070034FEA431342EA030343F000731B684C
:10273000002B5BD040F2F463C2F2000303F070425E
:1027400040F2F463C2F2000323F07F4323F47003EA
:102750004FEA431342EA030343F0007343F00403D8
:102760001B68002B3ED000BF4FF40040C4F20000B5
:1027700000F0A8FC0346002BF6D14FF48040C4F2D1
:1027800000004FF040014FF00002FFF7A3F940F2C4
:10279000F463C2F2000303F0704240F2F463C2F249
:1027A000000323F07F4323F470034FEA431342EA0C
:1027B000030343F0007343F004034FF000021A6078
:1027C00010E07B681B787A6802F101027A604FF4AE
:1027D0000040C4F20000194600F05CFC3B6803F1C5
:1027E000FF333B603B68002BEBD100E000BF07F1FB
:1027F0000807BD4680BD00BF80B582B000AF7860DD
:10280000396040F2F463C2F2000303F0704240F218
:10281000F463C2F2000323F07F4323F470034FEA12
:10282000431342EA030343F000731B68002B5BD0A1
:1028300040F2F463C2F2000303F0704240F2F4632A
:10284000C2F2000323F07F4323F470034FEA4313E3
:1028500042EA030343F0007343F004031B68002BB8
:102860003ED100BF4FF40040C4F2000000F02AFC4B
:102870000346002BF6D14FF48040C4F200004FF025
:1028800040014FF04002FFF725F940F2F463C2F235
:10289000000303F0704240F2F463C2F2000323F03D
:1028A0007F4323F470034FEA431342EA030343F0E8
:1028B000007343F004034FF001021A6010E07B68DC
:1028C0001B787A6802F101027A604FF40040C4F28A
:1028D0000000194600F0DEFB3B6803F1FF333B606C
:1028E0003B68002BEBD100E000BF07F10807BD46B5
:1028F00080BD00BF80B582B000AF40F2F863C2F285
:1029000000034FF000021A6040F2F863C2F20003C5
:1029100003F104034FF000021A604AF6BC00C0F253
:1029200000004FF00301FFF7E9FE4AF6C000C0F2D5
:1029300000004FF00301FFF7E1FE4AF28460C0F2AD
:1029400000004FF00201FFF7D9FE4FF000037B605B
:1029500016E04FF000033B600BE040F2F860C2F27B
:1029600000004FF00801FFF747FF3B6803F1100339
:102970003B603B687F2BF0D97B6803F101037B60F0
:102980007B685F2BE5D907F10807BD4680BD00BF16
:1029900080B588B000AFF860B9607A60FB7040F233
:1029A000F863C2F200034FF015021A70BB684FEAD9
:1029B0005303DAB240F2F863C2F200035A7040F2F5
:1029C000F863C2F200034FF03F029A7040F2F860E1
:1029D000C2F200004FF00301FFF790FE40F2F863EF
:1029E000C2F200034FF075021A707B68DAB240F24F
:1029F000F863C2F200035A707B68DBB203F107038D
:102A0000DAB240F2F863C2F200039A7040F2F86062
:102A1000C2F200004FF00301FFF770FE4AF280603F
:102A2000C0F200004FF00201FFF768FE94E0FB687F
:102A30001B7803F07F03FB75FB6803F10103FB6068
:102A4000FB7D1F2B03D84FF00003FB7503E0FB7DDC
:102A5000A3F12003FB754FF00003FB6179E04FF019
:102A60000003BB615FE040F2F863C2F20003BA69A1
:102A70009B184FF000021A70F97D4AF28862C0F28A
:102A800000020B464FEA83035B18F9695B18D31801
:102A90001B781A46BB6942FA03F303F00103DBB269
:102AA000002B0AD0FB784FEA0313DAB240F2F86346
:102AB000C2F20003B9695B181A70FB69032B2ED8A8
:102AC000F97DFB6903F101004AF28862C0F200025D
:102AD0000B464FEA83035B181B18D3181B781A4662
:102AE000BB6942FA03F303F00103DBB2002B16D0FB
:102AF00040F2F863C2F20003BA699B181B78DAB29D
:102B0000FB7803F00F03DBB242EA0303DBB2DAB275
:102B100040F2F863C2F20003B9695B181A70BB692E
:102B200003F10103BB61BB69072B9CD940F2F8603C
:102B3000C2F200004FF00801FFF75EFEBB6803F130
:102B40000203BB60BB68802B0CD0FB6903F102035E
:102B5000FB61FB69052B82D9FB681B78002B7FF496
:102B600066AF00E000BF07F12007BD4680BD00BF93
:102B700080B584B002AF78604FF40040C4F200002A
:102B800000F074FAFEF7B0FB03467A6800924FF04B
:102B9000080201924FF40040C4F2000019464FF0C1
:102BA00003024FF0000300F0F3F94FF48040C4F249
:102BB00000004FF00801FEF7F1FF4FF48040C4F22F
:102BC00000004FF008014FF004024FF00A03FEF737
:102BD00013FE4FF40040C4F2000000F033FA40F25C
:102BE000F463C2F2000303F0704240F2F463C2F2F5
:102BF000000323F07F4323F470034FEA431342EAB8
:102C0000030343F000734FF001021A6007F1080755
:102C1000BD4680BD80B584B000AF78604FF0100035
:102C2000C1F20000FEF7E8F94FF00100C2F2000027
:102C3000FEF7E2F94FF00100C2F20000FEF7DCF906
:102C40004FF48040C4F200004FF02C01FEF7A6FFC5
:102C50004FF48040C4F200004FF02C014FF004020A
:102C60004FF00A03FEF7C8FD4FF48040C4F20000A5
:102C70004FF0C001FEF75EFF4FF48040C4F2000049
:102C80004FF0C0014FF004024FF00803FEF7B4FD0F
:102C90004FF48040C4F200004FF0C0014FF0C0027A
:102CA000FEF718FF40F2F463C2F2000303F0704233
:102CB00040F2F463C2F2000323F07F4323F4700375
:102CC0004FEA431342EA030343F0007343F0040363
:102CD0004FF001021A607868FFF74AFFFFF70AFE1B
:102CE0004FF00003FB6021E0FB6803F101024AF6AC
:102CF0006803C0F20003D2184AF66803C0F200036A
:102D0000F9685B181B7803F1FF3310461946FFF78B
:102D1000F5FC4AF66803C0F20003FA689B181B78BA
:102D20001A46FB68D31803F10103FB60FB684E2BC6
:102D3000DAD907F11007BD4680BD00BF80B582B06B
:102D400000AF4AF61033C0F200037B6040F200038C
:102D5000C2F200033B600BE07B681A683B681A60B4
:102D60003B6803F104033B607B6803F104037B6071
:102D70003A6840F2DC53C2F200039A42ECD30848AE
:102D800008494FF000028842B8BF40F8042BFADB34
:102D9000FDF72CFBFEF7A4F807F10807BD4680BD40
:102DA000E00500203C19002080B400AFFEE700BF22
:102DB00080B483B000AF78607B6803F108031A46E3
:102DC0007B685A607B684FF0FF329A607B6803F142
:102DD00008031A467B68DA607B6803F108031A4629
:102DE0007B681A617B684FF000021A6007F10C07DC
:102DF000BD4680BC704700BF80B483B000AF786030
:102E00007B684FF000021A6107F10C07BD4680BCD9
:102E1000704700BF80B485B000AF786039607B68D0
:102E20005B68FB60FB685B681A463B685A607B68BE
:102E30005A683B689A60FB685B683A689A603A68CF
:102E4000FB685A603A687B685A603B687A681A6126
:102E50007B681B6803F101027B681A6007F11407A5
:102E6000BD4680BC704700BF80B485B000AF7860BD
:102E700039603B681B68BB60BB68B3F1FF3F03D19F
:102E80007B681B69FB600EE07B6803F10803FB6055
:102E900002E0FB685B68FB60FB685B681B681A46C6
:102EA000BB689A42F5D9FB685B681A463B685A6072
:102EB0003B685B683A689A603B68FA689A603A686F
:102EC000FB685A603B687A681A617B681B6803F18B
:102ED00001027B681A6007F11407BD4680BC704789
:102EE00080B485B000AF78607B685B687A68926870
:102EF0009A607B689B687A6852685A607B681B6935
:102F0000FB60FB685A687B689A4203D17B689A68C9
:102F1000FB685A607B684FF000021A61FB681B680F
:102F200003F1FF32FB681A6007F11407BD4680BC4D
:102F3000704700BF80B485B000AF786040F2007386
:102F4000C2F200031B68002B08D141F64052C2F2C6
:102F5000000240F20073C2F200031A6040F20073F4
:102F6000C2F200031B68FB6040F20073C2F2000370
:102F70001A687B68D21840F20073C2F200031A602C
:102F8000FB68184607F11407BD4680BC704700BFB8
:102F900080B48BB000AFF860B9607A603B603B688A
:102FA000022B02D14FF0080301E04FF000033B6217
:102FB0003B68002B02D14FF0000301E04FF0040307
:102FC0003A6A42EA03033B62FB6803F104033A6A8C
:102FD0001A60BA683B6BB2FBF3F3FB614FF000037E
:102FE0007B627B6A03F102037B62FA697B6AB2FB54
:102FF000F3F303F1FF33BB61BB69FF2BF1D8FB682F
:1030000003F110037A6A1A607B684FEA83137B61CD
:103010007B6803F030037B60BB694FEA03227B6966
:103020001A437B681A437B6B03F1FF3342EA0303C5
:103030003B62FB683A6A1A6007F12C07BD4680BC08
:10304000704700BF80B483B000AF78607B6803F145
:1030500004037A6802F10402126842F002021A6064
:1030600007F10C07BD4680BC704700BF80B483B039
:1030700000AF78607B6803F104037A6802F1040210
:10308000126822F002021A6007F10C07BD4680BCEC
:10309000704700BF80B483B000AF7860396000BF74
:1030A0007B6803F10C031B6803F00203002BF7D0CD
:1030B0007B6803F108033A681A6007F10C07BD4604
:1030C00080BC704780B483B000AF78607B6803F148
:1030D0000C031B6803F01003002B0CBF002301231B
:1030E000DBB2184607F10C07BD4680BC704700BF35
:1030F00080B485B000AFF860B9607A60FB68A3F176
:103100000403FB60FB684FF080721A60FB68A3F158
:103110000403FB60BA68FB681A60FB68A3F1040350
:10312000FB60FB684FF000021A60FB68A3F1140318
:10313000FB607A68FB681A60FB68A3F12003FB6000
:10314000FB68184607F11407BD4680BC704700BFF6
:10315000064B19680868B0E8F00F80F309884FF053
:10316000000080F311884EF00D0E70470806002015
:1031700003480068006880F3088862B600DF00BF7B
:1031800008ED00E080B500AF4EF62053CEF200030C
:103190004EF62052CEF20002126842F460021A602B
:1031A0004EF62053CEF200034EF62052CEF200022D
:1031B000126842F060421A6000F092F840F2280370
:1031C000C2F200034FF000021A60FFF7D1FF4FF088
:1031D0000003184680BD00BF80B400AF4EF6045314
:1031E000CEF200034FF080521A60BD4680BC70479B
:1031F00080B400AF4FF0A00080F3118840F22803A4
:10320000C2F200031B6803F1010240F22803C2F27C
:1032100000031A60BD4680BC704700BF80B400AF99
:1032200040F22803C2F200031B6803F1FF3240F2B0
:103230002803C2F200031A6040F22803C2F200031E
:103240001B68002B03D14FF0000080F31188BD46AE
:1032500080BC7047EFF309800C4B1A6820E9F00F2F
:1032600010602DE908404FF0A00080F31188FEF7B0
:10327000C3FF4FF0000080F31188BDE808401968D3
:103280000868B0E8F00F80F309887047080600204E
:1032900080B582B000AF41F22473C2F200031B6814
:1032A00003F1010241F22473C2F200031A604EF6E8
:1032B0000453CEF200034FF080521A604FF0000327
:1032C0007B604FF0A00080F31188FEF7B9FE4FF04D
:1032D000000080F3118807F10807BD4680BD00BFDC
:1032E00080B400AF4EF21403CEF2000341F63F72F9
:1032F0001A604EF21003CEF200034FF007021A607C
:10330000BD4680BC704700BF80B584B000AF786018
:1033100039604FF4A010FEF7A9F94FF01010FDF737
:103320006BFE7B68052B00F2B18001A252F823F0FE
:10333000493300007F330000B5330000EB33000059
:1033400021340000573400004FF02000C2F200008A
:10335000FDF752FE4FF4A040C4F202004FF001010D
:10336000FEF702FC4FF04003FB60FB684FF40040A7
:10337000C4F2020019463A68FDF7DCFB86E04FF024
:103380004000C2F20000FDF737FE4FF4C040C4F227
:1033900002004FF00201FEF7E7FB4FF04003FB6035
:1033A000FB684FF40040C4F2020019463A68FDF78A
:1033B000C1FB6BE04FF00200C2F20000FDF71CFE03
:1033C0004FF4A040C4F200004FF00101FEF7CCFB27
:1033D0004FF08003FB60FB684FF40040C4F2020032
:1033E00019463A68FDF7A6FB50E04FF00200C2F222
:1033F0000000FDF701FE4FF4A040C4F200004FF0C2
:103400000201FEF7B1FB4FF08003FB60FB684FF455
:103410000040C4F2020019463A68FDF78BFB35E024
:103420004FF01000C2F20000FDF7E6FD4FF48040BF
:10343000C4F202004FF00101FEF796FB4FF0C0030B
:10344000FB60FB684FF40040C4F2020019463A6882
:10345000FDF770FB1AE04FF01000C2F20000FDF71C
:10346000CBFD4FF48040C4F202004FF00201FEF7A2
:103470007BFB4FF0C003FB60FB684FF40040C4F2DD
:10348000020019463A68FDF755FB00BFFB684FF490
:103490000040C4F2020019464FF00202FDF710FB93
:1034A000FB684FF40040C4F202001946FDF766FBCA
:1034B00007F11007BD4680BD90B585B000AFF8603C
:1034C000B9607A6040F22C03C2F20003BA6853F884
:1034D0002240786801F06CF903461846F96801F05B
:1034E000BFF90346184601F081FB03464FF4004044
:1034F000C4F2020021461A46FDF754FB40F2440391
:10350000C2F20003BA6853F822304FF40040C4F20C
:10351000020019464FF00102FDF77AFB07F114078C
:10352000BD4690BD80B584B000AF78607B68FB601D
:10353000FEF772FD0346BB6000F040F94FF001005A
:103540004FF001014AF6C402C0F2000200F0E2F8B6
:1035500040F2F063C2F200031B7841F2B070C2F295
:1035600000004AF6D001C0F200011A4601F082FCC8
:103570004FF001004FF0020141F2B072C2F20002BE
:1035800000F0C8F840F2E863C2F200031B68184676
:1035900000F01AFD02460B4641F2B070C2F2000084
:1035A0004AF6E001C0F2000101F064FC4FF00100B6
:1035B0004FF0030141F2B072C2F2000200F0AAF82B
:1035C00040F2F163C2F200031B7841F2B070C2F224
:1035D00000004AF6F001C0F200011A4601F04AFC70
:1035E0004FF001004FF0050141F2B072C2F200024B
:1035F00000F090F840F2EC63C2F200031B6818463A
:1036000000F0E2FC02460B4641F2B070C2F200004C
:103610004AF6E001C0F2000101F02CFC4FF001007D
:103620004FF0060141F2B072C2F2000200F072F8EF
:1036300040F2F263C2F200031B7841F2B070C2F2B2
:1036400000004AF60011C0F200011A4601F012FC17
:103650004FF001004FF0070141F2B072C2F20002D8
:1036600000F058F840F2E053C2F200031B6841F248
:10367000B070C2F200004AF60C11C0F200011A4606
:1036800001F0F8FB4FF001004FF0090141F2B07278
:10369000C2F2000200F03EF840F20063C2F2000302
:1036A0001B6841F2B070C2F200004AF61C11C0F271
:1036B00000011A4601F0DEFB4FF001004FF00A0155
:1036C00041F2B072C2F2000200F024F840F2E4636A
:1036D000C2F200031B6841F2B070C2F200004AF669
:1036E0002C11C0F200011A4601F0C4FB4FF001009A
:1036F0004FF00B0141F2B072C2F2000200F00AF882
:1037000000F034F807F108031846F968FEF736FBB5
:103710001EE700BF80B586B000AFF860B9607A6080
:10372000786801F0CFFB03467B61FB68C3F11502AB
:103730007B699A4203DAFB68C3F115037B6141F6AA
:103740003003C2F20003BA684FF0160101FB02F128
:10375000FA688A189A187B69104679681A4601F047
:10376000E1FB07F11807BD4680BD00BF80B582B000
:1037700000AF4FF000037B6018E041F63003C2F267
:1037800000037A684FF0160101FB02F29A187B6879
:103790004FEAC30310464FF000011A464FF00F03E3
:1037A000FFF7F6F87B6803F101037B607B680B2B66
:1037B000E3DD07F10807BD4680BD00BF80B582B0DC
:1037C00000AF44F24020C0F20F00FFF723FA4FF0A1
:1037D00000037B602CE04FF000033B6012E041F6F9
:1037E0003003C2F200037A684FF0160101FB02F1C8
:1037F0003A688A189B184FF020021A703B6803F150
:1038000001033B603B68142BE9DD41F63003C2F253
:1038100000037A684FF0160101FB02F29B1803F1D6
:1038200015034FF000021A707B6803F101037B60FF
:103830007B680B2BCFDD07F10807BD4680BD00BFBD
:1038400080B400AF4EF21803CEF200031B68184696
:10385000BD4680BC704700BF80B584B000AF7860C3
:103860004FF00003FB607B6803F00703002B05D0DB
:103870007B6823F0070303F108037B60FEF710FB6E
:1038800041F20873C2F200031A687B68D21840F64E
:10389000FF739A4224D841F20873C2F200031A68F7
:1038A0007B68D21841F20873C2F200031B689A4287
:1038B00016D941F20873C2F200031A6840F2087385
:1038C000C2F20003D318FB6041F20873C2F2000396
:1038D0001A687B68D21841F20873C2F200031A60BA
:1038E000FEF7F0FAFB68184607F11007BD4680BDE9
:1038F00080B483B000AF786007F10C07BD4680BC90
:10390000704700BF80B582B000AFFDF7EDFC024606
:1039100048F21F53C5F2EB13A3FB02134FEA5313F4
:103920007B604FF003007968FFF7EEFC10484FF022
:1039300003017A68FFF7C0FD4FF004004FF0040167
:10394000FCF7FCFB4FF004004FF00401FCF7AAFC6D
:103950004FF003004FF00701FCF7F0FB4FF00300BE
:103960004FF00701FCF79EFC07F10807BD4680BD3C
:103970006F12833900000000684620F007018D4671
:10398000B1B585B000AF4FF4E040C4F200004FF095
:103990000101FEF75FF8B860BB6803F01003002B6D
:1039A00000F091804FF01003FB73FB7B4FF4E0407D
:1039B000C4F200001946FEF779F803467B607B6885
:1039C00003F01F037B607B68102B16D1FDF778FA9C
:1039D00003461A4641F21073C2F200031A6041F224
:1039E0002473C2F200034FF000021A6041F2207308
:1039F000C2F200034FF001021A707B68002B62D103
:103A000041F22073C2F200031B78012B5BD1FDF75A
:103A100057FA03461A4641F21473C2F200031A60C1
:103A200041F21073C2F200031A6841F21473C2F239
:103A300000031B68D31A184600F0B4FA04460D467A
:103A400041F22473C2F200031B68184600F0AAFA80
:103A500002460B461046194623A3D3E9002300F083
:103A600007FB02460B462046294600F04FF9024666
:103A70000B46104619461EA3D3E9002300F0F8FABE
:103A800002460B461046194617A3D3E9002300F05F
:103A900019FC02460B461046194600F083FD02460B
:103AA00040F2DC63C2F200031A6041F22073C2F2FA
:103AB00000034FF000021A7041F22273C2F20003B9
:103AC0004FF001021A70FB7B4FF4E040C4F200009B
:103AD0001946FDF7D9FF07F11407BD46BDE8B1400F
:103AE00085467047AFF30080000000000040BF40F3
:103AF0000000000000408F40684620F007018D461E
:103B0000B1B585B000AF4FF4C040C4F200004FF033
:103B10000101FDF79FFFB860BB6803F08003002B35
:103B200000F091804FF08003FB73FB7B4FF4C040AB
:103B3000C4F200001946FDF7B9FF03467B607B68BD
:103B400003F0FF037B607B68802B16D1FDF7B8F98B
:103B500003461A4641F21873C2F200031A6041F29A
:103B60002473C2F200034FF000021A6041F2217385
:103B7000C2F200034FF001021A707B68002B62D181
:103B800041F22173C2F200031B78012B5BD1FDF7D8
:103B900097F903461A4641F21C73C2F200031A60F9
:103BA00041F21873C2F200031A6841F21C73C2F2A8
:103BB00000031B68D31A184600F0F4F904460D46BA
:103BC00041F22473C2F200031B68184600F0EAF9C0
:103BD00002460B461046194623A3D3E9002300F002
:103BE00047FA02460B462046294600F08FF8024667
:103BF0000B46104619461EA3D3E9002300F038FAFD
:103C000002460B461046194617A3D3E9002300F0DD
:103C100059FB02460B461046194600F0C3FC02460B
:103C200040F2E063C2F200031A6041F22173C2F273
:103C300000034FF000021A7041F22373C2F2000336
:103C40004FF001021A70FB7B4FF4C040C4F2000039
:103C50001946FDF719FF07F11407BD46BDE8B1404D
:103C600085467047AFF30080000000000040BF4071
:103C70000000000000408F4090B585B000AF786034
:103C80004FF00003FB734FF001031C4678680A49AC
:103C900000F084FF0346002B02D14FF000031C46C6
:103CA000E3B2002B02D04FF00103FB73FB7B1846FD
:103CB00007F11407BD4690BD0040354590B585B06D
:103CC00000AF78604FF00003FB734FF001031C4618
:103CD00078680A4900F080FF0346002B02D14FF0BC
:103CE00000031C46E3B2002B02D04FF00103FB732C
:103CF000FB7B184607F11407BD4690BD0000CB437F
:103D000081F0004102E000BF83F0004330B54FEA8C
:103D100041044FEA430594EA050F08BF90EA020FF9
:103D20001FBF54EA000C55EA020C7FEA645C7FEA8C
:103D3000655C00F0E2804FEA5454D4EB5555B8BFAF
:103D40006D420CDD2C4480EA020281EA030382EA20
:103D5000000083EA010180EA020281EA0303362DB2
:103D600088BF30BD11F0004F4FEA01314FF4801C85
:103D70004CEA113102D0404261EB410113F0004F97
:103D80004FEA03334CEA133302D0524263EB43034E
:103D900094EA050F00F0A780A4F10104D5F1200EEC
:103DA0000DDB02FA0EFC22FA05F2801841F1000147
:103DB00003FA0EF2801843FA05F359410EE0A5F11B
:103DC00020050EF1200E012A03FA0EFC28BF4CF04C
:103DD000020C43FA05F3C01851EBE37101F0004502
:103DE00007D54FF0000EDCF1000C7EEB00006EEB0F
:103DF0000101B1F5801F1BD3B1F5001F0CD3490899
:103E00005FEA30004FEA3C0C04F101044FEA4452EF
:103E100012F5800F80F09A80BCF1004F08BF5FEA76
:103E2000500C50F1000041EB045141EA050130BD56
:103E30005FEA4C0C404141EB010111F4801FA4F1F9
:103E40000104E9D191F0000F04BF01460020B1FA4E
:103E500081F308BF2033A3F10B03B3F120020CDA86
:103E60000C3208DD02F1140CC2F10C0201FA0CF064
:103E700021FA02F10CE002F11402D8BFC2F1200CC9
:103E800001FA02F120FA0CFCDCBF41EA0C0190407F
:103E9000E41AA2BF01EB0451294330BD6FEA0404C8
:103EA0001F3C1CDA0C340EDC04F11404C4F12002B3
:103EB00020FA04F001FA02F340EA030021FA04F3C5
:103EC00045EA030130BDC4F10C04C4F1200220FA1C
:103ED00002F001FA04F340EA0300294630BD21FA5A
:103EE00004F0294630BD94F0000F83F4801306BF20
:103EF00081F480110134013D4EE77FEA645C18BF14
:103F00007FEA655C29D094EA050F08BF90EA020FAA
:103F100005D054EA000C04BF1946104630BD91EAA2
:103F2000030F1EBF0021002030BD5FEA545C05D1A5
:103F30004000494128BF41F0004130BD14F58004E4
:103F40003CBF01F5801130BD01F0004545F0FE4158
:103F500041F470014FF0000030BD7FEA645C1ABF8D
:103F6000194610467FEA655C1CBF0B46024650EAC4
:103F7000013406BF52EA033591EA030F41F40021F0
:103F800030BD00BF90F0000F04BF0021704730B576
:103F90004FF4806404F132044FF000054FF000014B
:103FA00050E700BF90F0000F04BF0021704730B50C
:103FB0004FF4806404F1320410F0004548BF4042E1
:103FC0004FF000013EE700BF42004FEAE2014FEA36
:103FD00031014FEA02701FBF12F07F4393F07F4F11
:103FE00081F06051704792F0000F14BF93F07F4F43
:103FF000704730B54FF4607401F0004521F0004186
:1040000020E700BF50EA010208BF704730B54FF00B
:1040100000050AE050EA010208BF704730B511F010
:10402000004502D5404261EB41014FF4806404F148
:1040300032045FEA915C3FF4DCAE4FF003025FEACA
:10404000DC0C18BF03325FEADC0C18BF033202EB52
:10405000DC02C2F1200300FA03FC20FA02F001FAAC
:1040600003FE40EA0E0021FA02F11444C1E600BF4B
:1040700070B54FF0FF0C4CF4E06C1CEA11541DBFFE
:104080001CEA135594EA0C0F95EA0C0F00F0DEF8C9
:104090002C4481EA030621EA4C5123EA4C5350EAAE
:1040A000013518BF52EA033541F4801143F48013FF
:1040B00038D0A0FB02CE4FF00005E1FB02E506F090
:1040C0000042E0FB03E54FF00006E1FB03569CF0E5
:1040D000000F18BF4EF0010EA4F1FF04B6F5007FEB
:1040E00064F5407404D25FEA4E0E6D4146EB06065D
:1040F00042EAC62141EA55514FEAC52040EA5E50E6
:104100004FEACE2EB4F1FD0C88BFBCF5E06F1ED88F
:10411000BEF1004F08BF5FEA500E50F1000041EBC6
:10412000045170BD06F0004646EA010140EA020073
:1041300081EA0301B4EB5C04C2BFD4EB0C0541EA95
:10414000045170BD41F480114FF0000E013C00F3AA
:10415000AB8014F1360FDEBF002001F0004170BDCE
:10416000C4F10004203C35DA0C341BDC04F11404E7
:10417000C4F1200500FA05F320FA04F001FA05F273
:1041800040EA020001F0004221F0004110EBD37040
:1041900021FA04F642EB06015EEA430E08BF20EA6C
:1041A000D37070BDC4F10C04C4F1200500FA04F30F
:1041B00020FA05F001FA04F240EA020001F00041A1
:1041C00010EBD37041F100015EEA430E08BF20EA14
:1041D000D37070BDC4F1200500FA05F24EEA020E5C
:1041E00020FA04F301FA05F243EA020321FA04F08B
:1041F00001F0004121FA04F220EA020000EBD37042
:104200005EEA430E08BF20EAD37070BD94F0000F41
:104210000FD101F00046400041EB010111F4801F75
:1042200008BF013CF7D041EA060195F0000F18BF26
:10423000704703F00046520043EB030313F4801F62
:1042400008BF013DF7D043EA0603704794EA0C0F1C
:104250000CEA135518BF95EA0C0F0CD050EA410632
:1042600018BF52EA4306D1D181EA030101F00041AF
:104270004FF0000070BD50EA410606BF10461946D7
:1042800052EA430619D094EA0C0F02D150EA0136E3
:1042900013D195EA0C0F05D152EA03361CBF104624
:1042A00019460AD181EA030101F0004141F0FE41C3
:1042B00041F470014FF0000070BD41F0FE4141F447
:1042C000780170BD70B54FF0FF0C4CF4E06C1CEA47
:1042D00011541DBF1CEA135594EA0C0F95EA0C0FFC
:1042E00000F0A7F8A4EB050481EA030E52EA0335B7
:1042F0004FEA013100F088804FEA03334FF08055D8
:1043000045EA131343EA12634FEA022245EA111504
:1043100045EA10654FEA00260EF000419D4208BFB5
:10432000964244F1FD0404F5407402D25B084FEA62
:104330003202B61A65EB03055B084FEA32024FF40E
:1043400080104FF4002CB6EB020E75EB030E22BF6B
:10435000B61A754640EA0C005B084FEA3202B6EB2B
:10436000020E75EB030E22BFB61A754640EA5C00DA
:104370005B084FEA3202B6EB020E75EB030E22BF6A
:10438000B61A754640EA9C005B084FEA3202B6EB6B
:10439000020E75EB030E22BFB61A754640EADC002A
:1043A00055EA060E18D04FEA051545EA16754FEA8C
:1043B00006164FEAC30343EA52734FEAC2025FEAAA
:1043C0001C1CC0D111F4801F0BD141EA00014FF039
:1043D00000004FF0004CB6E711F4801F04BF01430A
:1043E0000020B4F1FD0C88BFBCF5E06F3FF6AFAE26
:1043F000B5EB030C04BFB6EB020C5FEA500C50F1B6
:10440000000041EB045170BD0EF0004E4EEA113138
:1044100014EB5C04C2BFD4EB0C0541EA045170BD3F
:1044200041F480114FF0000E013C90E645EA060E83
:104430008DE60CEA135594EA0C0F08BF95EA0C0FB1
:104440003FF43BAF94EA0C0F0AD150EA01347FF4F9
:1044500034AF95EA0C0F7FF425AF104619462CE7D0
:1044600095EA0C0F06D152EA03353FF4FDAE104633
:10447000194622E750EA410618BF52EA43067FF484
:10448000C5AE50EA41047FF40DAF52EA43057FF414
:10449000EBAE12E74FF0FF3C06E000BF4FF0010C1F
:1044A00002E000BF4FF0010C4DF804CD4FEA410C83
:1044B0007FEA6C5C4FEA430C18BF7FEA6C5C1BD050
:1044C00001B050EA410C0CBF52EA430C91EA030FD1
:1044D00002BF90EA020F0020704710F1000F91EA2E
:1044E000030F58BF994208BF90422CBFD8176FEAFC
:1044F000E37040F0010070474FEA410C7FEA6C5CCA
:1045000002D150EA013C07D14FEA430C7FEA6C5CD0
:10451000D6D152EA033CD3D05DF8040B704700BFFC
:104520008446104662468C461946634600E000BF4A
:1045300001B5FFF7B7FF002848BF10F1000F01BD1C
:104540004DF808EDFFF7F4FF0CBF012000205DF8E7
:1045500008FB00BF4DF808EDFFF7EAFF34BF01206C
:1045600000205DF808FB00BF4DF808EDFFF7E0FF05
:1045700094BF012000205DF808FB00BF4DF808ED56
:10458000FFF7CEFF94BF012000205DF808FB00BFBD
:104590004DF808EDFFF7C4FF34BF012000205DF89F
:1045A00008FB00BF4FEA4102B2F1E04324BFB3F57C
:1045B000001CDCF1FE5C0DD901F0004C4FEAC0029A
:1045C0004CEA5070B2F1004F40EB830008BF20F07E
:1045D0000100704711F0804F21D113F13872BCBF38
:1045E00001F00040704741F480114FEA5252C2F18D
:1045F0001802C2F1200C10FA0CF320FA02F018BFD6
:1046000040F001004FEAC1234FEAD32303FA0CFC28
:1046100040EA0C0023FA02F34FEA4303CCE77FEAB7
:10462000625307D150EA01331EBF4FF0FE4040F401
:104630004000704701F0004040F0FE4040F40000B0
:10464000704700BF80F0004002E000BF81F00041F1
:1046500042001FBF5FEA410392EA030F7FEA226C28
:104660007FEA236C6AD04FEA1262D2EB1363C1BFB8
:10467000D218414048404140B8BF5B42192B88BF27
:10468000704710F0004F40F4000020F07F4018BF4A
:10469000404211F0004F41F4000121F07F4118BF6A
:1046A000494292EA030F3FD0A2F1010241FA03FC12
:1046B00010EB0C00C3F1200301FA03F100F00043FA
:1046C00002D5494260EB4000B0F5000F13D3B0F1C2
:1046D000807F06D340084FEA310102F10102FE2A31
:1046E00051D2B1F1004F40EBC25008BF20F00100A1
:1046F00040EA03007047490040EB000010F4000F4F
:10470000A2F10102EDD1B0FA80FCACF1080CB2EBE1
:104710000C0200FA0CF0AABF00EBC2505242184340
:10472000BCBFD0401843704792F0000F81F40001E5
:1047300006BF80F400000132013BB5E74FEA4103B8
:104740007FEA226C18BF7FEA236C21D092EA030F24
:1047500004D092F0000F08BF0846704790EA010F9E
:104760001CBF0020704712F07F4F04D1400028BFCB
:1047700040F00040704712F100723CBF00F50000AD
:10478000704700F0004343F0FE4040F400007047E3
:104790007FEA226216BF08467FEA2363014642028F
:1047A00006BF5FEA412390EA010F40F480007047A2
:1047B0004FF0000304E000BF10F0004348BF404248
:1047C0005FEA000C08BF704743F0964301464FF084
:1047D00000001CE050EA010208BF70474FF00003E0
:1047E0000AE000BF50EA010208BF704711F0004321
:1047F00002D5404261EB41015FEA010C02BF8446F1
:104800000146002043F0B64308BFA3F18053A3F54F
:104810000003BCFA8CF2083AA3EBC25310DB01FA96
:1048200002FC634400FA02FCC2F12002BCF1004F1A
:1048300020FA02F243EB020008BF20F001007047AB
:1048400002F1200201FA02FCC2F1200250EA4C00FF
:1048500021FA02F243EB020008BF20EADC70704745
:104860004FF0FF0C1CEAD0521EBF1CEAD15392EA53
:104870000C0F93EA0C0F6FD01A4480EA010C40022F
:1048800018BF5FEA41211ED04FF0006343EA501089
:1048900043EA5111A0FB01310CF00040B1F5000FCB
:1048A0003EBF490041EAD3715B0040EA010062F17A
:1048B0007F02FD2A1DD8B3F1004F40EBC25008BF64
:1048C00020F00100704790F0000F0CF0004C08BF82
:1048D00049024CEA502040EA51207F3AC2BFD2F14F
:1048E000FF0340EAC250704740F400004FF000035D
:1048F000013A5DDC12F1190FDCBF00F00040704797
:10490000C2F10002410021FA02F1C2F1200200FAD4
:1049100002FC5FEA310040F1000053EA4C0308BF9B
:1049200020EADC70704792F0000F00F0004C02BFEC
:10493000400010F4000F013AF9D040EA0C0093F067
:10494000000F01F0004C02BF490011F4000F013BC1
:10495000F9D041EA0C018FE70CEAD15392EA0C0F2F
:1049600018BF93EA0C0F0AD030F0004C18BF31F09A
:10497000004CD8D180EA010000F00040704790F070
:10498000000F17BF90F0004F084691F0000F91F014
:10499000004F14D092EA0C0F01D142020FD193EADA
:1049A0000C0F03D14B0218BF084608D180EA010062
:1049B00000F0004040F0FE4040F40000704740F03E
:1049C000FE4040F4400070474FF0FF0C1CEAD0520C
:1049D0001EBF1CEAD15392EA0C0F93EA0C0F69D068
:1049E000A2EB030280EA010C49024FEA402037D0D3
:1049F0004FF0805343EA111143EA10130CF00040CA
:104A00008B4238BF5B0042F17D024FF4000C8B42B9
:104A100024BF5B1A40EA0C00B3EB510F24BFA3EB99
:104A2000510340EA5C00B3EB910F24BFA3EB910369
:104A300040EA9C00B3EBD10F24BFA3EBD10340EAC3
:104A4000DC001B0118BF5FEA1C1CE0D1FD2A3FF609
:104A500050AF8B4240EBC25008BF20F001007047BE
:104A60000CF0004C4CEA50207F32C2BFD2F1FF0361
:104A700040EAC250704740F400004FF00003013A92
:104A800037E792F0000F00F0004C02BF400010F436
:104A9000000F013AF9D040EA0C0093F0000F01F04A
:104AA000004C02BF490011F4000F013BF9D041EA6C
:104AB0000C0195E70CEAD15392EA0C0F08D142029F
:104AC0007FF47DAF93EA0C0F7FF470AF084676E772
:104AD00093EA0C0F04D14B023FF44CAF08466EE74B
:104AE00030F0004C18BF31F0004CCAD130F0004219
:104AF0007FF45CAF31F000437FF43CAF5FE700BF71
:104B00004FF0FF3C06E000BF4FF0010C02E000BF99
:104B10004FF0010C4DF804CD4FEA40024FEA41033B
:104B20007FEA226C18BF7FEA236C11D001B052EAF1
:104B3000530C18BF90EA010F58BFB2EB030088BFB7
:104B4000C81738BF6FEAE17018BF40F00100704726
:104B50007FEA226C02D15FEA402C05D17FEA236C08
:104B6000E4D15FEA412CE1D05DF8040B704700BF4F
:104B7000844608466146FFE70FB5FFF7C9FF0028E6
:104B800048BF10F1000F0FBD4DF808EDFFF7F4FF1F
:104B90000CBF012000205DF808FB00BF4DF808EDB8
:104BA000FFF7EAFF34BF012000205DF808FB00BFDB
:104BB0004DF808EDFFF7E0FF94BF012000205DF8FD
:104BC00008FB00BF4DF808EDFFF7D2FF94BF0120AE
:104BD00000205DF808FB00BF4DF808EDFFF7C8FFA7
:104BE00034BF012000205DF808FB00BF42000ED258
:104BF000B2F1FE4F0BD34FF09E03B3EB126209D418
:104C00004FEA002343F0004323FA02F070474FF0CD
:104C10000000704712F1610F01D1420202D14FF042
:104C2000FF3070474FF00000704700BF032A2DE9A6
:104C3000F00109D82AB10023CC5CC454013393425B
:104C4000FAD1BDE8F00170470B468218014603E037
:104C50002478013301F8014B11F0030F1C46F7D102
:104C600013F003055DD06E42C5F1040CED009B59B5
:104C70004FEACC0C08E00434A7593B4607FA0CF77E
:104C800048EA070741F8047B571A23FA05F8032F6F
:104C9000F1DC03E014F8013B01F8013B8A42F9D84A
:104CA000CFE753F8404C41F8404C53F83C4C41F8A6
:104CB0003C4C53F8384C41F8384C53F8344C41F8DC
:104CC000344C53F8304C41F8304C53F82C4C41F8EC
:104CD0002C4C53F8284C41F8284C53F8244C41F8FC
:104CE000244C53F8204C41F8204C53F81C4C41F80C
:104CF0001C4C53F8184C41F8184C53F8144C41F81C
:104D0000144C53F8104C41F8104C53F80C4C41F82B
:104D10000C4C53F8084C41F8084C53F8044C41F83B
:104D2000044C561A1D460C46403340313F2EB8DC29
:104D30002B460FE053F8101C44F8101C53F80C1CC1
:104D400044F80C1C53F8081C44F8081C53F8041CC5
:104D500044F8041C161B1D4610330F2E214604F187
:104D60001004E7DC2B4602E0246841F8044B551A96
:104D70001C46032D03F10403F6DC8FE7032AC9B2B6
:104D800070B408D82AB10346121803F8011B9342E5
:104D9000FBD170BC70478218044601E004F8011B87
:104DA00014F0030FFAD14FF0013303FB01F31FE0BE
:104DB00044F8403C44F83C3C44F8383C44F8343C2B
:104DC00044F8303C44F82C3C44F8283C44F8243C5B
:104DD00044F8203C44F81C3C44F8183C44F8143C8B
:104DE00044F8103C44F80C3C44F8083C44F8043CBB
:104DF000161B254640343F2EDADC2C4607E044F8EB
:104E0000103C44F80C3C44F8083C44F8043C161BA5
:104E1000254610340F2EF2DC01E045F8043B541B0C
:104E2000032CFADC01E005F8011B9542FBD3B0E747
:104E30000CB44FF4027370B59CB020AC0E46ADF8C4
:104E4000103001A954F8042B4FF0FF33ADF81230A5
:104E50006FF00045234601960596039506951B9431
:104E600000F09EF8019B00221A701CB0BDE8704053
:104E700002B070470EB440F25C03F0B59CB021ACB8
:104E8000C2F20003064601A954F8042B6FF0004556
:104E900018684FF402772346019605964FF0FF36C7
:104EA000ADF81070ADF81260039506951B9400F0F4
:104EB00077F8019B00221A701CB0BDE8F04003B0E7
:104EC000704700BF20F0030110F00300C0F10000A4
:104ED00051F8043B00F1040C4FEACC0C6FF00002D7
:104EE0001CBF22FA0CF213434FF0010C4CEA0C2CBD
:104EF0004CEA0C4CA3EB0C0222EA030212EACC129D
:104F000004BF51F8043B0430F4D013F0FF0F1FBF6F
:104F1000013013F47F4F013013F47F0F18BF0130BD
:104F2000704700BF41EA000313F0030F034670B45B
:104F300014BF00250125032A94BF002505F00105B3
:104F40000C460646CDB9B2B10D783446531E04F86E
:104F5000015B55B1B21C73B111F8015F1446013BFE
:104F600002F8015C0132002DF5D123B10022013B92
:104F700004F8012BFBD170BC7047214654F8045B48
:104F8000A5F1013626EA050616F0803F05D1043A60
:104F900043F8045B032A2146EFD81E46D3E700BF3F
:104FA0002DE9F04FC5B0144612930C91119002F008
:104FB00063FB00681990FFF785FF1C900C988389AC
:104FC00013F0800F03D00369002B01F084810DF1F1
:104FD0007C0A002356460DF1F7010E9309941A93AB
:104FE0001B9317931D930F930791CDF8E4A03B9368
:104FF0003A93099A1378B3F1250218BF0122002BC6
:105000000CBF002302F00103002B00F0BD80099BC0
:105010005A1C174601323B78191E18BF0121252B57
:105020000CBF002301F00103002BF2D1099CB7EB68
:10503000040810D03A9C099801343B9D072CC6F80F
:105040000480306045443A943B9500F381800836F3
:105050000F9941440F913B78002B00F081807C1C1C
:10506000002200230D928DF80F31202509942B2169
:105070007B784FF0FF37089222460132A3F12000DF
:10508000582800F21D83DFE810F02E031B031B03DA
:1050900037031B031B031B031B031B031B03C80357
:1050A00081001B035D0085001B039F00A500A50078
:1050B000A500A500A500A500A500A500A5001B034F
:1050C0001B031B031B031B031B031B031B031B03F0
:1050D0001B03B70042021B0342021B031B031B03FB
:1050E0001B0380021B031B0386021B031B031B0302
:1050F0001B031B03A4021B031B03B3021B031B03A1
:105100001B031B031B031B031B031B031B031B03AF
:1051100055033D034202420242024F033D031B037B
:105120001B030C031B039B0369037F03DE021B03AA
:10513000E4021B03AC031B031B03D3030D9B129060
:105140005B420D93089C44F004040894137894E7A0
:10515000119839AA0C9903F08FFB40B9564677E7AE
:105160003B9B23B1119839AA0C9903F085FB0C994C
:105170000F9A8B8913F0400F18BF4FF0FF320F9238
:105180000F9845B0BDE8F08F099F64E78DF80F11C7
:10519000137872E712F8013B2A2B01F00B82A3F17E
:1051A0003000092801F2C1811446002714F8013BA0
:1051B00007EB870700EB4707A3F1300009282246D9
:1051C000F4D947EAE77759E7089B43F0800308934F
:1051D000137852E714460020A3F1300814F8013B7D
:1051E00000EB8000A3F1300C2246BCF1090F08EB64
:1051F0004000F1D90D9041E70992089A169342F0C8
:1052000010020892089B13F0200F00F08282129C7B
:10521000E31D23F0070303F108001290D3E90045D2
:10522000002C75F10002C0F2CE8554EA05034FF060
:1052300001030CBF00220122002FA2BF089921F018
:1052400080010891002F18BF42F00102002A00F0EF
:10525000AD83012B00F0FF84022B00F0DF840DF101
:10526000BC0B0BF12703EA084FEAD40848EA45785B
:1052700004F00704114604F130020D46444654EA96
:1052800005009C461A7003F1FF33ECD10899CDF864
:105290004CC011F0010F40F088850BF1280BCCEBCE
:1052A0000B0210929DF80F210020109C1597BC4214
:1052B000B8BF3C4618900A9412B10A9801300A907F
:1052C000089911F0020B02D00A9B02330A93089C42
:1052D00014F08404149440F0CD820D980A99471A72
:1052E000002F40F3C782102F41F379803B9D4AF68F
:1052F0003C183A9CC0F2000829464FF0100922469B
:105300000C9D4446DDF8448002E0103F102F1BDD69
:1053100001323460C6F8049010310836072A3A92F8
:1053200006F108033B91F0DD4046294639AA56466E
:1053300003F0A2FA0AF1080300287FF418AF103F27
:105340003B99102F3A9AE3DCA0460D4614460134EF
:10535000C6F80080072C77603D443A943B9500F3F3
:105360007E829DF80F211E466AB13A9C43AB0333FF
:10537000336001340123072C73601D443A943B953C
:1053800000F3E9830836BBF1000F0CD03A9C43AB25
:105390003360022301347360072C1D443A943B951B
:1053A00000F3CE830836149A802A00F010831599F2
:1053B00010980F1A002F40F35B83102F40F3EC85F9
:1053C0003A9C2A46DFF8988A4FF0100B23460C9D32
:1053D0004446DDF8448002E0103F102F1BDD01330E
:1053E0003460C6F804B010320836072B3A9306F141
:1053F00008093B92F0DD4046294639AA0AF108091E
:1054000003F03AFA564600287FF4B1AE103F3B9ABB
:10541000102F3A9BE3DCA04615461C460134C6F823
:105420000080072C77603D443A943B9500F37D83E0
:10543000089A12F4807F40F04E823A9C109B01340F
:105440001398072C1D44C9F80430C9F800003B9597
:105450003A9400F3358209F10809089C14F0040F0E
:1054600046D00D980A99461A002E41DD102E41F3C0
:105470000B803A9C4AF63C18C0F2000810272346DD
:10548000DDF830B04446DDF8448002E0103E102ED6
:1054900019DD01331035072BC9F80040C9F8047035
:1054A00009F108093A933B95F0DD4046594639AA7F
:1054B000D14603F0E1F900287FF459AE103E3B9D40
:1054C000102E3A9BE5DCA0461C460134C9F800804A
:1054D000072CC9F8046035443A943B9508DD1198CF
:1054E00039AA0C9903F0C8F900287FF440AE3B9D1F
:1054F0000F9A0A9C0D9B9C42ACBF1219D2180F92B6
:10550000002D40F00383002056463A9071E508993B
:105510001D46099211F0080F169300F08784129A25
:10552000D31D23F0070303F10804129418681A909E
:105530005B681B931A981B9903F054F8012840F0FC
:1055400050841A98002200231B99FFF703F80028C3
:1055500040F02E879DF80F2103204AF660134AF68B
:105560005C110A901698C0F20001C0F200030024FA
:105570004728D8BF0B4608991393032321F08001D5
:10558000159408911093189496E6089C44F008042A
:105590000894137871E50899099241F01001089177
:1055A000089A169312F0200300F0DF80129BDA1D98
:1055B000002322F0070202F108041294D2E9004508
:1055C00054EA05000CBF0022012200208DF80F01D3
:1055D00032E6089C099244F0100408940898169347
:1055E00010F0200F00F0048112990123CA1DE0E79A
:1055F00009924AF66C11089AC0F20001169312F053
:10560000200F179100F02081129CE31D23F0070367
:1056100003F108001290D3E9004554EA0502089B03
:105620000CBF00220122134200F069831698302338
:10563000089901228DF80C31022341F002018DF806
:105640000D010891C1E7089840F0200008901378F8
:1056500013E509920021129A16938DF80F11141D6B
:1056600013681393002B00F0FD86002FC0F2A7866D
:10567000139800213A4602F0DDFA002800F04A872C
:10568000139BC01A1090B84240F3F584002027EA1B
:10569000E77115900A919DF80F21129410971890B8
:1056A0000AE613786C2B0BBF089B089C43F0200381
:1056B00044F010040ABF0893089412F8013FDCE498
:1056C00009921693002B3FF44BAD002201218DF877
:1056D000BC302FAC00230A9110918DF80F31159238
:1056E00018921394ECE59DF80F31002B40F09B834A
:1056F0008DF80F511378C0E4089840F0010008902D
:105700001378BAE41693089B099213F0200F7FF4E4
:105710007EAD089911F0100F00F0A483129A14685E
:1057200004321292E5177BE5089840F0400008909B
:105730001378A2E416930121129B00200992002203
:105740001C1D0A911B68129410912FA98DF80F014E
:105750001592189213918DF8BC30B1E50992089A10
:10576000169312F020037FF421AF089911F0100274
:1057700000F09283129C226804340025129414468F
:10578000003A18BF012220E7129B7821089C0025CF
:1057900009924AF680101A6844F00204043308940F
:1057A000129314463023003A8DF80C3118BF0122B1
:1057B000C0F200008DF80D1117900223169104E736
:1057C0000899099211F0200F00F05983129A0F9C4A
:1057D000129811682246E31704301290C1E90023A1
:1057E00007E40898099210F0200F16937FF4FCAE9E
:1057F000089911F0100F40F09182089810F0400FB6
:1058000000F08C821299012300250A88043112913C
:105810001446003A18BF0122D7E6129B129C1B685F
:10582000201D002B0D93FFF689AC1378129024E411
:1058300009924AF68010089AC0F20000169312F0FE
:10584000200F17907FF4E0AE089911F0100F00F0D0
:10585000FA82129A0025146804321292DDE6119839
:1058600039AA0C9903F008F800287FF480AC9DF861
:105870000F2156463B9D77E5089A12F0010F40F044
:10588000FD803A9C0135139A01230134C9F8043094
:10589000072CC9F800203B953A9400F3338509F1B1
:1058A000080B0BF108091D9B0134072C1D44CBF894
:1058B00004303EABCBF800303B953A947FF7CDAD4A
:1058C000119839AA0C9902F0D7FF00287FF44FAC49
:1058D000D1463B9DC1E51699652940F3CB801A98C6
:1058E000002200231B99FEF72BFE002800F03E81CA
:1058F0003A9C4AF69C13C0F20003C9F80030013408
:105900000123072CC9F804301D443A943B95D8BFB5
:1059100009F1080900F34783429B0E9A934204DB86
:10592000089B13F0010F3FF498AD3A9C1C9801348A
:105930001999072C0544C9F80400D8BF09F10803D8
:10594000C9F800103B953A9400F3BD830E9A561E99
:10595000002E40F31E83102E40F301863A9C102740
:10596000DFF8FC842246DDF830B04446DDF84480A0
:1059700003E0103E102E40F3C48101321C605F60D2
:1059800010350833072A3A9203F108093B95F0DDF8
:105990004046594639AA0AF1080902F06DFF5346FC
:1059A00000287FF4E4AB3B9D3A9AE2E7002B40F0FD
:1059B000B780089C14F0010F00F02B8101203023E8
:1059C0000DF1E30110908DF8E33013916AE40D9B23
:1059D0000A9C1F1B002F7FF7EAAC102F40F388852D
:1059E0003A9C3346DFF878844FF010092246DDF800
:1059F00030B04446DDF8448002E0103F102F1BDD3C
:105A000001321C60C3F8049010350833072A3A921B
:105A100003F108063B95F0DD4046594639AA0AF1E4
:105A2000080602F029FF534600287FF4A0AB103F80
:105A30003B9D102F3A9AE3DCA04614460134C3F88C
:105A40000080072C5F603D443A943B957FF7AFACF4
:105A5000119839AA0C9902F00FFF00287FF487AB48
:105A60001599564610983B9D0F1A002F3FF7A5AC8D
:105A7000B146DDE40E9901297FF7FEAE3A9C01356F
:105A8000139B0134C9F800300123072CC9F80430F6
:105A9000D8BF09F108093B953A94D8BF09F1080627
:105AA00000F3418101341C991998072C0D44D8BF8B
:105AB00006F1080BC9F80410C9F800003A943B95A8
:105AC00000F33F811A98002200231B99FEF738FD4E
:105AD000002840F0CE800E9B013413985A1E72604D
