:100000003C280020B14800001D4900001D490000A7
:100010001D4900001D4900001D49000000000000AE
:10002000000000000000000000000000D14F0000B0
:100030001D49000000000000D550000011510000D3
:100040001D49000031580000B1590000D90B0000D3
:10005000B54500001D4900001D4900001D49000074
:100060001D4900001D4900001D4900001D490000F8
:100070001D4900001D4900001D4900001D490000E8
:100080001D4900001D4900001D4900001D490000D8
:100090001D4900001D4900001D4900001D490000C8
:1000A0001D4900001D4900001D4900001D490000B8
:1000B0001D4900001D490000D14600001D490000F7
:1000C0001D4900001D4900001D4900001D49000098
:1000D0001D4900001D4900001D4900001D49000088
:1000E0001D4900001D4900001D4900001D49000078
:1000F0001D4900001D4900001D4900001D49000068
:1001000080B582B000AF00F059FB0346FB71FB796C
:10011000184607F10807BD4680BD00BF80B500AF97
:1001200001F062FB024641F60043C2F200031A608E
:1001300041F6FC33C2F200031A6841F60043C2F2F2
:1001400000031B68D21A40F21463C2F200031B685A
:100150004FF4FA5101FB03F3D2184FF67F43C0F27C
:100160000A039A4202D84FF0010301E04FF0000366
:10017000184680BD80B582B000AF00F01FFB03467B
:10018000FB7101F031FB024641F60043C2F200036D
:100190001A6041F6FC33C2F200031A6841F60043CC
:1001A000C2F200031B68D21A40F21463C2F20003C9
:1001B0001B684FF4FA5101FB03F3D2184FF680434A
:1001C000C0F20A039A421CD941F6FC33C2F2000382
:1001D0001A6841F60043C2F200031B68D21A40F2CB
:1001E0001463C2F200031B684FF4FA5101FB03F3DE
:1001F000D2184BF69F33C0F20D039A4201D8FB7917
:1002000001E04FF00003184607F10807BD4680BD26
:1002100080B500AF01F0E8FA024641F60043C2F2B1
:1002200000031A6041F6FC33C2F200031A6841F67B
:100230000043C2F200031B68D21A40F21463C2F2F8
:1002400000031B684FF4FA5101FB03F3D21843F289
:100250007F13C0F217039A4202D84FF0010301E066
:100260004FF00003184680BD80B582B000AF00F0AB
:10027000A5FA0346FB7101F0B7FA024641F60043C6
:10028000C2F200031A6041F6FC33C2F200031A689E
:1002900041F60043C2F200031B68D21A40F2146315
:1002A000C2F200031B684FF4FA5101FB03F3D218AA
:1002B0004FF44653C0F217039A421CD941F6FC335F
:1002C000C2F200031A6841F60043C2F200031B6841
:1002D000D21A40F21463C2F200031B684FF4FA51C1
:1002E00001FB03F3D21847F23F73C0F21B039A429B
:1002F00001D8FB7901E04FF00003184607F1080729
:10030000BD4680BD80B582B000AF00F06FFA0346F5
:10031000FB71FB79184607F10807BD4680BD00BF99
:1003200080B582B000AF00F061FA0346FB7101F0C6
:100330005BFA024641F60043C2F200031A6041F63E
:10034000FC33C2F200031A6841F60043C2F2000314
:100350001B68D21A40F21463C2F200031B684FF408
:10036000FA5101FB03F3D2184FF68043C0F20A039F
:100370009A421CD941F6FC33C2F200031A6841F6D6
:100380000043C2F200031B68D21A40F21463C2F2A7
:1003900000031B684FF4FA5101FB03F3D2184BF62C
:1003A0009F33C0F20D039A4201D8FB7901E04FF070
:1003B0000003184607F10807BD4680BD80B582B02E
:1003C00000AF00F013FA0346FB7101F00DFA02468C
:1003D00041F60043C2F200031A6041F6FC33C2F258
:1003E00000031A6841F60043C2F200031B68D21AE8
:1003F00040F21463C2F200031B684FF4FA5101FB90
:1004000003F3D2184FF44653C0F217039A421CD993
:1004100041F6FC33C2F200031A6841F60043C2F20F
:1004200000031B68D21A40F21463C2F200031B6877
:100430004FF4FA5101FB03F3D21847F23F73C0F2B5
:100440001B039A4201D8FB7901E04FF000031846E4
:1004500007F10807BD4680BD80B483B000AF41F608
:10046000C233C2F200031B78FB7141F6C233C2F201
:1004700000034FF000021A70FB79184607F10C07D1
:10048000BD4680BC704700BF80B483B000AF41F66A
:10049000C333C2F200031B78FB7141F6C333C2F2CF
:1004A00000034FF000021A70FB79184607F10C07A1
:1004B000BD4680BC704700BF80B500AF40F21C63F2
:1004C000C2F200034FF001021A6000F045F900F09B
:1004D00069F980BD80B500AF40F21C63C2F2000331
:1004E0004FF002021A6000F037F900F04FF980BDBA
:1004F00080B500AF40F21C63C2F200034FF003026C
:100500001A6000F029F900F041F980BD80B500AF14
:1005100040F21C63C2F200034FF004021A6000F0C4
:100520001BF900F03FF980BD80B500AF40F21C63BD
:10053000C2F200034FF00A021A6000F00DF900F059
:1005400031F980BD80B500AF40F21C63C2F20003F8
:100550004FF007021A6000F0FFF800F023F980BDA9
:1005600080B500AF40F21C63C2F200034FF00802F6
:100570001A6000F0F1F800F009F980BD80B500AF15
:1005800040F21C63C2F200034FF009021A6000F04F
:10059000E3F800F0FBF880BD80B500AF40F22063C7
:1005A000C2F200034FF000021A6040F21C63C2F274
:1005B00000034FF006021A6040F21863C2F2000313
:1005C0004FF001021A704FF4A040C4F202004FF045
:1005D00001014FF0010202F0CFFA80BD80B500AFFB
:1005E00040F21C63C2F200034FF000021A6040F2B6
:1005F0001863C2F200034FF000021A704FF4A040DB
:10060000C4F202004FF001014FF0000202F0B4FA10
:1006100041F65843C2F200031B68184602F0B6FDCB
:1006200080BD00BF80B500AF01F0DEF8024641F6A4
:100630000043C2F200031A6041F6FC33C2F2000329
:100640001A6841F60043C2F200031B68D21A40F256
:100650001463C2F200031B684FF4FA5101FB03F369
:10066000D2184BF6A033C0F20D039A4202D94FF0D4
:10067000010301E04FF00003184680BD80B500AFD4
:1006800001F0B2F8024641F60043C2F200031A60DC
:1006900041F6FC33C2F200031A6841F60043C2F28D
:1006A00000031B68D21A40F21463C2F200031B68F5
:1006B0004FF4FA5101FB03F3D21847F24073C0F232
:1006C0001B039A4202D94FF0010301E04FF00003EF
:1006D000184680BD80B500AF40F22063C2F200032F
:1006E0004FF000021A6040F21C63C2F200034FF0A8
:1006F00000021A6041F65843C2F200031B68184614
:1007000002F044FD80BD00BF80B400AF41F6C133AC
:10071000C2F200034FF000021A7041F6C033C2F279
:1007200000034FF000021A70BD4680BC704700BF46
:1007300080B400AF40F21C63C2F200034FF0050228
:100740001A6040F22063C2F200034FF001021A6007
:10075000BD4680BC704700BF80B500AF01F044F8D3
:10076000024641F6FC33C2F200031A6040F2146301
:10077000C2F200034FF000021A6002F0DBFE0246F4
:1007800041F60443C2F200031A6080BD80B500AF99
:1007900041F60440C2F200004FF0BF0102F09EFC9F
:1007A00080BD00BF80B500AF41F60440C2F200003A
:1007B0004FF05B0102F092FC80BD00BF80B483B0BB
:1007C00000AF41F6C033C2F200031B78FB7141F663
:1007D000C033C2F200034FF000021A70FB791846D2
:1007E00007F10C07BD4680BC704700BF80B483B0E2
:1007F00000AF41F6C133C2F200031B78FB7141F632
:10080000C133C2F200034FF000021A70FB791846A0
:1008100007F10C07BD4680BC704700BF80B400AF35
:1008200040F21863C2F200031B781846BD4680BC34
:10083000704700BF80B500AF4FF4C040C4F2020063
:100840004FF001014FF0000202F096F94FF4C04062
:10085000C4F200004FF020014FF0000202F08CF9CA
:100860004FF4C040C4F200004FF080014FF000028E
:1008700002F082F903F05CFF024640F25463C2F2D8
:1008800000031A6003F0B4FF024640F24863C2F26C
:1008900000031A604FF4C040C4F200004FF0200182
:1008A0004FF0200202F068F903F042FF024640F2E6
:1008B0005863C2F200031A6003F09AFF024640F246
:1008C0004C63C2F200031A604FF4C040C4F200004F
:1008D0004FF020014FF0000202F04EF94FF4C040FB
:1008E000C4F200004FF080014FF0800202F044F9A2
:1008F00003F01EFF024640F25C63C2F200031A607E
:1009000003F076FF024640F25063C2F200031A6021
:100910004FF4C040C4F202004FF001014FF0010259
:1009200002F02AF980BD00BF80B586B000AF7860C4
:1009300039603B68072B33D801A252F823F000BF7F
:1009400061090000690900007109000079090000CF
:10095000810900008909000091090000990900003F
:100960004FF00103FB731BE04FF00203FB7317E032
:100970004FF00403FB7313E04FF00803FB730FE029
:100980004FF01003FB730BE04FF02003FB7307E005
:100990004FF04003FB7303E04FF08003FB7300BF95
:1009A0007B6803F1FF33062B5DD801A252F823F0D8
:1009B000CD090000E3090000F90900000F0A00005A
:1009C000250A00003B0A0000510A00004FF0010315
:1009D000C2F200033B614FF48043C4F200037B6129
:1009E00041E04FF00203C2F200033B614FF4A04329
:1009F000C4F200037B6136E04FF00403C2F200034F
:100A00003B614FF4C043C4F200037B612BE04FF025
:100A10000803C2F200033B614FF4E043C4F2000359
:100A20007B6120E04FF01003C2F200033B614FF402
:100A30008043C4F202037B6115E04FF02003C2F251
:100A400000033B614FF4A043C4F202037B610AE060
:100A50004FF04003C2F200033B614FF4C043C4F2C5
:100A600002037B6100BF386901F0F0FAFB7B786913
:100A7000194602F0B1F8FB7B786919464FF0010284
:100A80004FF00C0301F00AFF07F11807BD4680BDC7
:100A900080B586B000AF786039603B68072B33D8EB
:100AA00001A252F823F000BFC90A0000D10A0000D9
:100AB000D90A0000E10A0000E90A0000F10A00007A
:100AC000F90A0000010B00004FF00103FB731BE06B
:100AD0004FF00203FB7317E04FF00403FB7313E0C6
:100AE0004FF00803FB730FE04FF01003FB730BE0B4
:100AF0004FF02003FB7307E04FF04003FB7303E06C
:100B00004FF08003FB7300BF7B6803F1FF33062BBC
:100B10004FD801A252F823F0350B0000470B00001C
:100B2000590B00006B0B00007D0B00008F0B0000C9
:100B3000A10B00004FF010033B614FF48043C4F25F
:100B400000037B6135E04FF011033B614FF4A0439C
:100B5000C4F200037B612CE04FF012033B614FF4C1
:100B6000C043C4F200037B6123E04FF013033B61F9
:100B70004FF4E043C4F200037B611AE04FF014032A
:100B80003B614FF48043C4F202037B6111E04FF0FC
:100B90002E033B614FF4A043C4F202037B6108E0E3
:100BA0004FF02F033B614FF4C043C4F202037B615B
:100BB00000BF386903F084F8FB7B786919464FF071
:100BC000010201F001FEFB7B7869194601F07EFF0E
:100BD00007F11807BD4680BD684620F007018D4625
:100BE00081B587B000AF4FF4E040C4F200004FF091
:100BF000010101F081FFF860FB6803F04003002B66
:100C000033D04FF4E043C4F200037B614FF0400364
:100C1000FB74FB7C7869194601F09AFF0346BB60C0
:100C2000BB68402B1AD141F6C033C2F200034FF02B
:100C300001021A7041F65843C2F200031B681846BD
:100C400002F004FB0346012B0FD141F65843C2F2D8
:100C500000031B68184602F021FB06E041F6C13391
:100C6000C2F200034FF001021A70FB6803F0800328
:100C7000002B33D04FF4E043C4F200037B614FF00C
:100C80008003FB74FB7C7869194601F061FF034621
:100C90007B607B68802B1AD141F6C033C2F200031F
:100CA0004FF001021A7041F65843C2F200031B686C
:100CB000184602F0CBFA0346012B0FD141F65843F8
:100CC000C2F200031B68184602F0E8FA06E041F69B
:100CD000C133C2F200034FF001021A70FB7C786945
:100CE000194601F023FF07F11C07BD46BDE881400E
:100CF0008546704780B584B000AF42F6D223C0F27B
:100D00008E03BB6042F61003C0F280037B604FF499
:100D10006043C4F20F0342F61002C0F280721A67F9
:100D20004FF46043C4F20F0343F6D122C0F28E7237
:100D30001A664FF46043C4F20F0342F6D222C0F2A7
:100D40008E021A664FF46043C4F20F0342F610029B
:100D5000C0F280021A674FF00003FB6003E0FB68FB
:100D600003F10103FB60FA6840F2E7339A42F6D9D7
:100D70004FF46043C4F20F0342F6D222C0F28E0257
:100D80001A664FF46043C4F20F0342F61002C0F239
:100D900080021A674FF00003FB6003E0FB6803F179
:100DA0000103FB60FA6840F2E7339A42F6D94FF448
:100DB0006043C4F20F0342F6D222C0F28E021A66DA
:100DC0004FF46043C4F20F0342F6D222C0F28E0207
:100DD0001A664FF46043C4F20F0342F61002C0F2E9
:100DE00080021A674FF00003FB6003E0FB6803F129
:100DF0000103FB60FA6842F20F739A42F6D94FF48E
:100E00006043C4F20F031B6EBB604FF46043C4F237
:100E10000F031B6F7B607B68002B56DA7B6803F443
:100E20000063002B14D0BB684FEA931303F00F024A
:100E30007B684FEA131303F007031046194600F0CE
:100E400075F8024640F23003C2F200031A6008E06F
:100E500040F23003C2F200034FF44242C0F6EB32DC
:100E60001A60BB6803F48003002B5AD07B6803F43C
:100E70000063002B13D040F23003C2F200031A6863
:100E80007B684FEAD35303F03F0303F10103B2FB46
:100E9000F3F240F23003C2F200031A6041E040F284
:100EA0003003C2F200031A687B684FEAD35303F0A1
:100EB0003F0303F10103B2FBF3F34FEA530240F2A5
:100EC0003003C2F200031A602BE0BB684FEA9313B1
:100ED00003F00F02BB684FEA131303F0030310463D
:100EE000194600F023F8024640F23003C2F2000334
:100EF0001A60BB6803F48003002B12D040F2300369
:100F0000C2F200031A68BB684FEAD35303F00F0321
:100F100003F10103B2FBF3F240F23003C2F200032B
:100F20001A6007F11007BD4680BD00BF80B485B0D0
:100F300000AF786039604FF4D853C0F2B703FB605C
:100F40003B68032B00F2988001A252F823F000BF07
:100F5000610F000057100000631000006F100000C8
:100F60007B680F2B00F2878001A252F823F000BFAC
:100F7000B10F0000BD0F0000C50F0000D10F000031
:100F8000D90F0000E50F0000ED0F0000F90F000081
:100F900001100000091000001510000021100000D1
:100FA0002D10000039100000411000004D1000000D
:100FB00044F24023C0F20F03FB604BE04FF4E11317
:100FC000FB6047E048F28043C0F21E03FB6041E053
:100FD0004FF41613FB603DE049F69963C0F2360307
:100FE000FB6037E04FF46113FB6033E04FF41063B4
:100FF000C0F23D03FB602DE04FF47A13FB6029E063
:101000004FF49603FB6025E044F64033C0F24C03F6
:10101000FB601FE04FF40053C0F24E03FB6019E089
:1010200048F68053C0F25B03FB6013E04FF440438B
:10103000C0F25D03FB600DE04FF4E103FB6009E0EB
:101040004FF49053C0F27A03FB6003E04FF4FA03CD
:10105000FB6000BF10E04FF4D853C0F2B703FB6051
:101060000AE04CF2C063C0F22D03FB6004E047F2DB
:101070003053FB6000E000BFFB68184607F114071F
:10108000BD4680BC704700BFF0B58DB000AF41F6E3
:101090002043C2F20003D3E9000141F62043C2F22B
:1010A0000003D3E906234FF0010605F0EFF90346EC
:1010B000002B02D14FF000031E46FE73FB7B002B7A
:1010C00010D041F62043C2F20003D3E90223C7E95E
:1010D000082341F62043C2F20003D3E90423C7E901
:1010E0000A230FE041F62043C2F20003D3E90823AC
:1010F000C7E9082341F62043C2F20003D3E90A23DB
:10110000C7E90A23FB7B002B08D041F62043C2F23B
:101110000003D3E90023C7E9042307E041F6204395
:10112000C2F20003D3E90623C7E90423FB7B002BAB
:101130001AD0D7E904014FF000024FF07E5303F5B7
:10114000E00304F05FFD02460B461046194640F2EC
:101150004003C2F20003D3E9002304F007FF024674
:101160000B46C7E906231EE0D7E904014FF0000251
:101170004FF07E5303F5E00304F044FD02460B46B6
:101180001046194640F24003C2F20003D3E900239F
:10119000144683F0004522462B4604F0E7FE024643
:1011A0000B46C7E90623D7E90801D7E90A2304F06B
:1011B00029FD02460B461046194640F24803C2F28A
:1011C0000003D3E9002304F0D1FE02460B46C7E931
:1011D0000023D7E90801D7E90A2305F02FF90346D0
:1011E000002B07D141F62043C2F2000393F83030C0
:1011F000002B14D041F60843C2F200034FF0000068
:101200004FF00001C3E9000141F60843C2F20003B8
:101210004FF000004FF00001C3E90201AFE0D7E951
:101220000601D7E9002304F0EFFC02460B46C7E9AC
:1012300004234FF001031C46D7E904014FF00002DC
:101240004FF0804303F5101305F016F90346002B09
:1012500002D14FF000031C46E3B2002B0CD041F644
:101260000843C2F200034FF000004FF0804101F547
:101270001011C3E900012AE04FF001031C46D7E931
:1012800004014FF000024FF0404303F5101305F046
:10129000E9F80346002B02D14FF000031C46E3B2ED
:1012A000002B0CD041F60843C2F200034FF00000BF
:1012B0004FF0404101F51011C3E9000107E041F68C
:1012C0000843C2F20003D7E90401C3E90001D7E9EA
:1012D0000001D7E9062304F095FC02460B46C7E956
:1012E00004234FF001031C46D7E904014FF000022C
:1012F0004FF0804303F5101305F0BEF80346002BB2
:1013000002D14FF000031C46E3B2002B0CD041F693
:101310000843C2F200034FF000004FF0804101F596
:101320001011C3E902012AE04FF001031C46D7E97E
:1013300004014FF000024FF0404303F5101305F095
:1013400091F80346002B02D14FF000031C46E3B294
:10135000002B0CD041F60843C2F200034FF000000E
:101360004FF0404101F51011C3E9020107E041F6D9
:101370000843C2F20003D7E90401C3E9020107F1FF
:101380003407BD46F0BD00BF80B500AF4CF6C823A2
:10139000C0F200031B684FF000021A6041F62040C3
:1013A000C2F200004FF000014FF0380205F064FC7B
:1013B00041F60840C2F200004FF000014FF0100269
:1013C00005F05AFC80BD00BF80B485B000AFF86066
:1013D000B9607A60BA68FB68D318BB60BA68BB684A
:1013E00019684FF00103CFF6F87301EA0303796837
:1013F0000B4313607B6803F00203002B0CD0BB6827
:1014000003F120034FF0B0021A60BB6803F124031C
:101410004FF430621A600BE0BB6803F120034FF019
:101420008C021A60BB6803F1240340F60C021A60B8
:1014300007F11407BD4680BC704700BF80B485B07B
:1014400000AFF860B9607A60BA68FB68D318BB6017
:10145000BB681B6803F00203002B07D0BB6803F1D5
:1014600010037A684FEA52021A6006E0BB6803F183
:1014700010037A6802F1FF321A6007F11407BD46C3
:1014800080BC704780B483B000AF786039607A6800
:101490003B68D31879683A688A18126842F00102EA
:1014A0001A6007F10C07BD4680BC704780B487B056
:1014B00000AFF860B9607A60BB6823F03F02FB6858
:1014C000D3187B617B691B6803F00203002B03D0F8
:1014D0007B684FEA53037B607B6903F110031B6851
:1014E0003B613A697B68D31A3B61BB6803F0010337
:1014F000DBB2002B05D07B6903F11C033A691A604B
:1015000004E07B6903F118033A691A6007F11C07CC
:10151000BD4680BC704700BF80B485B000AFF860A6
:10152000B9601346FB71FB79012B0BD1FB6803F10A
:101530000803FA6802F108021168BA6841EA020277
:101540001A600CE0FB6803F10803FA6802F1080274
:101550001168BA686FEA020201EA02021A6007F132
:101560001407BD4680BC704780B584B000AF78607A
:101570007B68FB6001F0DEFF0346BB6000F014F8FF
:1015800040F24063C2F200031B6803F1010240F223
:101590004063C2F200031A6007F108031846F968B5
:1015A00001F09CFDEAE700BF80B500AF40F2446364
:1015B000C2F200031B78002B0AD04CF6C823C0F2FD
:1015C00000031A684CF6CC23C0F200031360FEE05F
:1015D00040F24463C2F200034FF001021A7040F27D
:1015E0005463C2F200031B68184604F06BFC41F61A
:1015F0002043C2F20003C3E9000140F25063C2F28B
:1016000000031B68184604F05DFC41F62043C2F25B
:101610000003C3E9020140F25C63C2F200031B68ED
:10162000184604F04FFC41F62043C2F20003C3E920
:10163000040140F25863C2F200031B68184604F02C
:1016400041FC41F62043C2F20003C3E9060140F227
:101650004C63C2F200031B68184604F033FC41F6E9
:101660002043C2F20003C3E9080140F24863C2F21A
:1016700000031B68184604F025FC41F62043C2F223
:101680000003C3E90A0140F27F73C2F200031A7833
:1016900041F62043C2F2000383F83020FFF7F4FC48
:1016A00041F60843C2F20003D3E9000140F2286387
:1016B000C2F20003C3E9000141F60843C2F200038D
:1016C000D3E9020140F23063C2F20003C3E9000132
:1016D00040F24463C2F200034FF000021A7040F27D
:1016E0002863C2F20003D3E900231046194638A349
:1016F000D3E9002304F03AFC02460B461046194693
:1017000035A3D3E9002304F07FFA02460B461046C6
:10171000194604F0C5FE024640F23863C2F20003E7
:101720001A6040F23063C2F20003D3E9002310468E
:1017300019462BA3D3E9002304F018FC02460B46FC
:101740001046194624A3D3E9002304F05DFA0246AB
:101750000B461046194604F0A3FE024640F23C63D5
:10176000C2F200031A6040F25003C2F200031B6889
:101770004FF00400194603F013FD40F25003C2F28B
:1017800000031B684FF00500194603F009FD40F205
:101790003863C2F200031A6840F25003C2F2000339
:1017A0001B6810464FF004011A4603F0D1FD40F2C9
:1017B0003C63C2F200031A6840F25003C2F2000315
:1017C0001B6810464FF005011A4603F0C1FD80BDAD
:1017D000FCA9F1D24D62503F333333333333B33F3F
:1017E000FCA9F1D24D6250BF80B582B000AF4FF07E
:1017F00000037B6003F080FF78607B68184607F188
:101800000807BD4680BD00BF80B584B004AF04F0BA
:10181000D3F900F02FF9FFF7B7FD02F053FE4FF0B8
:101820000800C2F2000000F011FC4FF004004FF07D
:101830000601FFF779F84FF004004FF00701FFF7BA
:1018400073F84FF02000C2F2000000F0FFFB4FF4ED
:10185000A040C4F202004FF0010101F0D7F94FF4AB
:10186000A040C4F202004FF001014FF0000201F06D
:1018700083F94FF00400C2F2000000F0E7FB4FF4E0
:10188000C040C4F200004FF0200101F0BFF94FF456
:10189000C040C4F200004FF0800101F0B7F94FF4EE
:1018A000C040C4F200004FF0A0014FF001024FF021
:1018B0000C0300F0F3FF4FF4C040C4F200004FF0FF
:1018C00020014FF0000201F057F94FF4C040C4F27C
:1018D00000004FF080014FF0000201F04DF94FF091
:1018E0004000C2F2000000F0B1FB4FF4C040C4F26F
:1018F00002004FF0010101F089F94FF4C040C4F239
:1019000002004FF001014FF0000201F035F94FF0F5
:101910000100C0F2100000F099FB4FF0000000F051
:10192000E7FE4FF48040C4F202004FF0800101F066
:1019300039F94FF48040C4F202004FF0400101F049
:1019400031F94FF40040C4F203004FF003014FF0AF
:1019500000024FF0000303F0EFF94FF40040C4F22F
:1019600003004FF0030103F0D1F94FF004004FF0F2
:101970000601FFF78DF84FF004004FF00701FFF765
:1019800087F84CF6D423C0F200034FF00202009215
:1019900041F65842C2F2000201924FF00002029258
:1019A0004FF00002039245F6CD30C0F20000194618
:1019B0004FF0C8024FF0320301F0BAFA4CF6F023B0
:1019C000C0F200034FF0030200924FF000020192B8
:1019D0004FF0000202924FF00002039241F2695070
:1019E000C0F2000019464FF0C8024FF0320301F078
:1019F0009FFA4CF60033C0F200034FF0040200924D
:101A00004FF0000201924FF0000202924FF00002EC
:101A1000039243F6D920C0F2000019464FF0C802E5
:101A20004FF0640301F084FA4CF61033C0F2000367
:101A30004FF0010200924FF0000201924FF00002BD
:101A400002924FF00002039245F2BD30C0F2000056
:101A500019464FF0C8024FF4FA7301F069FA41F6E3
:101A60005843C2F200031B68184601F08FFB01F0D7
:101A70006BFCFEE780B500AF4FF0040044F6206138
:101A800003F08EFB4FF0050044F6206103F088FB65
:101A900080BD00BF80B582B000AF4FF000037B6017
:101AA00001F03CFA4FF000037B6071E041F65C42CC
:101AB000C2F2000279680B464FEAC3035B184FEA93
:101AC0008303D3187A681A6041F65C42C2F20002BE
:101AD00079680B464FEAC3035B184FEA8303D318B8
:101AE00003F104037A681A6041F65C42C2F2000214
:101AF00079680B464FEAC3035B184FEA8303D31898
:101B000003F108037A681A6041F65C42C2F20002EF
:101B100079680B464FEAC3035B184FEA8303D31877
:101B200003F114037A681A6041F65C42C2F20002C3
:101B300079680B464FEAC3035B184FEA8303D31857
:101B400003F118037A681A60786841F65C42C2F2C1
:101B5000000279680B464FEAC3035B184FEA830320
:101B6000D31803F11C03186041F65C42C2F2000274
:101B700079680B464FEAC3035B184FEA8303D31817
:101B800003F120037A681A607B6803F101037B602C
:101B90007B68132B8ADD07F10807BD4680BD00BFB7
:101BA00080B485B000AFF860B9607A6040F26063DD
:101BB000C2F200031B68132B00F39D8040F26063A8
:101BC000C2F20003196840F26063C2F200031868B1
:101BD00041F65C42C2F200020B464FEAC3035B18B7
:101BE0004FEA8303D318186040F26063C2F2000327
:101BF000196841F65C42C2F200020B464FEAC30389
:101C00005B184FEA8303D31803F11C03FA681A60C8
:101C100040F26063C2F20003196841F65C42C2F20E
:101C200000020B464FEAC3035B184FEA8303D31845
:101C300003F120034FF001021A6040F26063C2F228
:101C40000003196841F65C42C2F200020B464FEAFB
:101C5000C3035B184FEA8303D31803F10403BA6884
:101C60001A6040F26063C2F20003196841F65C42F8
:101C7000C2F200020B464FEAC3035B184FEA83032C
:101C8000D31803F108037A681A6040F26063C2F265
:101C90000003196841F65C42C2F200020B464FEAAB
:101CA000C3035B184FEA8303D31803F114034FF007
:101CB00000021A6040F26063C2F20003196841F644
:101CC0005C42C2F200020B464FEAC3035B184FEAC4
:101CD0008303D31803F118034FF000021A6040F297
:101CE0006063C2F200031B6803F1010240F260630B
:101CF000C2F200031A6040F26063C2F200031B6884
:101D0000184607F11407BD4680BC704780B483B005
:101D100000AF7860396041F65C42C2F20002396877
:101D20000B464FEAC3035B184FEA8303D31803F152
:101D30001C037A681A6041F65C42C2F200023968FC
:101D40000B464FEAC3035B184FEA8303D31803F132
:101D500020034FF001021A6007F10C07BD4680BC5A
:101D6000704700BFF0B58FB002AF4FF00003FB62C9
:101D70004FF000037B624FF00003BB624FF00003A3
:101D8000FB6255E141F65C42C2F20002F96A0B4681
:101D90004FEAC3035B184FEA8303D31803F10C0324
:101DA000186841F65C42C2F20002F96A0B464FEA3B
:101DB000C3035B184FEA8303D31803F104031B68C2
:101DC000984220D141F65C42C2F20002F96A0B4609
:101DD0004FEAC3035B184FEA8303D31803F11003E0
:101DE000186841F65C42C2F20002F96A0B464FEAFB
:101DF000C3035B184FEA8303D31803F108031B687E
:101E0000984200F0118141F65C42C2F20002F96A88
:101E10000B464FEAC3035B184FEA8303D31803F161
:101E200020031B68012B62D141F65C42C2F2000222
:101E3000F96A0B464FEAC3035B184FEA8303D318D2
:101E400003F11C031B68184604F0BAFF03467B62CB
:101E50004FF00003BB620AE007F10402BB6AD3182B
:101E60004FF020021A70BB6A03F10103BB62BA6A29
:101E70007B6A9A42F0DB07F10402BB6AD3184FF089
:101E800000021A7041F65C42C2F20002F96A0B4687
:101E90004FEAC3035B184FEA8303D31803F11C0313
:101EA000186841F65C42C2F20002F96A0B464FEA3A
:101EB000C3035B184FEA8303D31803F104031B68C1
:101EC0001C4641F65C42C2F20002F96A0B464FEA38
:101ED000C3035B184FEA8303D31803F108031B689D
:101EE00021461A464FF00F0300F0F2FF9CE041F646
:101EF0005C42C2F20002F96A0B464FEAC3035B1868
:101F00004FEA8303D31803F10C031B681E4641F606
:101F10005C42C2F20002F96A0B464FEAC3035B1847
:101F20004FEA8303D31803F110031B681D4641F6E3
:101F30005C42C2F20002F96A0B464FEAC3035B1827
:101F40004FEA8303D31803F114031B681C4641F6C0
:101F50005C42C2F20002F96A0B464FEAC3035B1807
:101F60004FEA8303D31803F118031B6800934CF660
:101F70005C30C0F2000031462A46234600F0BAFF2A
:101F800041F65C42C2F20002F96A0B464FEAC30313
:101F90005B184FEA8303D31803F11C03186841F65A
:101FA0005C42C2F20002F96A0B464FEAC3035B18B7
:101FB0004FEA8303D31803F104031B681E4641F65E
:101FC0005C42C2F20002F96A0B464FEAC3035B1897
:101FD0004FEA8303D31803F108031B681D4641F63B
:101FE0005C42C2F20002F96A0B464FEAC3035B1877
:101FF0004FEA8303D31803F114031B681C4641F610
:102000005C42C2F20002F96A0B464FEAC3035B1856
:102010004FEA8303D31803F118031B68009331467A
:102020002A46234600F066FFFB6A03F10103FB62C8
:1020300040F26063C2F200031B68FA6A9A42FFF63C
:10204000A1AE07F13407BD46F0BD00BF80B483B038
:1020500000AF78607B684FEA13724CF6B433C0F27D
:10206000000353F822301A467B684FEA13714CF68E
:10207000B433C0F2000353F8213019687B684FEA8B
:1020800003434FEA1343786800F4F8104FEA104016
:1020900003FA00F341EA0303136007F10C07BD469E
:1020A00080BC70470138FDD1704700BF80B586B055
:1020B00000AF78604FF46043C4F20F031B6803F075
:1020C000E043002B0DD04FF46043C4F20F031A68B5
:1020D0004FF00003C7F2FF0302EA0303B3F1805F8E
:1020E00003D17B68002BC0F223814EF26003C4F25F
:1020F0000F031B683B614EF27003C4F20F031B68B1
:10210000FB603B6943F400633B613B6923F480035C
:102110003B61FB6843F40063FB604EF26003C4F272
:102120000F033A691A604EF27003C4F20F03FA68A3
:102130001A603B6903F00203002B04D07B6803F0B4
:102140000203002B0AD03B6903F00103DBB2002B32
:102150002FD07B6803F00103002B2AD17B6863F04A
:1021600003033A6902EA03033B614EF26003C4F2DF
:102170000F033A691A60FB68002B09DAFB6803F069
:102180007003302B0CD0FB6803F07003702B07D06A
:10219000FB68002B09DB3B6903F03003302B04D1D3
:1021A0004FF48050FFF77EFF03E04FF40020FFF76D
:1021B00079FF3B6923F45E5323F070033B617A6837
:1021C00043F2F07302EA03033A6942EA03033B6114
:1021D000FA684DF68F73C7F6FF7302EA0303FB60DC
:1021E0007A6842F23003C8F2000302EA0303FA6895
:1021F00042EA0303FB607B6803F008034FEAC30372
:10220000FA6842EA0303FB604EF25803C4F20F037C
:102210004FF040021A60FB68002B0CDA4EF270039C
:10222000C4F20F03FA681A604EF26003C4F20F039F
:102230003A691A600BE04EF26003C4F20F033A6988
:102240001A604EF27003C4F20F03FA681A604FF07E
:102250001000FFF727FF3B6923F0F86323F0030327
:102260003B617A684FF00303C0F2C07302EA0303D4
:102270003A6942EA03033B61FB6823F0FC53FB60CD
:102280007B6803F0FC53FA6842EA0303FB607B6857
:1022900003F08043002B13D03B6943F480033B6180
:1022A000FB6823F48003FB607A684FF00003C4F2FC
:1022B000400302EA0303FA6842EA0303FB6003E017
:1022C000FB6823F08043FB607B6803F40063002B12
:1022D0001DD14FF400437B610CE04EF25003C4F279
:1022E0000F031B6803F04003002B07D17B6903F148
:1022F000FF337B617B69002BEFD100E000BF3B69BE
:1023000023F400633B61FB6823F40063FB604EF23F
:102310006003C4F20F033A691A604EF27003C4F20C
:102320000F03FA681A604FF01000FFF7BBFE00E0E1
:1023300000BF07F11807BD4680BD00BF80B485B05F
:1023400000AF4EF26003C4F20F031B68FB604EF255
:102350007003C4F20F031B687B607B68002B03DAF9
:102360007B6803F0700302E0FB6803F03003202B6E
:102370007FD0202B04D8002B0CD0102B17D0E6E0F8
:10238000602B00F0DC80702B00F0DD80302B00F043
:10239000D280DCE0FB6803F4F8634FEA93124CF65A
:1023A000D833C0F2000353F82230BB60D2E04FF4C0
:1023B0006043C4F20F031B6803F0E043002B0DD011
:1023C0004FF46043C4F20F031A684FF00003C7F2E2
:1023D000FF0302EA0303B3F1805F05D14EF2C0139D
:1023E000C0F2E403BB6043E04FF46043C4F20F0368
:1023F0001A684FF00003C7F2FF0302EA03034FF02D
:102400000002C1F2010293420AD14FF46043C4F2C8
:102410000F031B684FEA03434FEA1343022B1BD001
:102420004FF46043C4F20F031A684FF00003C7F281
:10243000FF0302EA03034FF00002C1F203029342DA
:1024400010D14FF46043C4F20F031B684FEA0343FB
:102450004FEA1343002B05D14FF4D853C0F2B70312
:10246000BB6005E04FF41053C0F2F403BB6071E0B1
:1024700070E04FF46043C4F20F031B6803F0E043C5
:10248000002B0DD04FF46043C4F20F031A684FF0D5
:102490000003C7F2FF0302EA0303B3F1805F05D133
:1024A00043F67003C0F23903BB6043E04FF460436E
:1024B000C4F20F031A684FF00003C7F2FF0302EAE9
:1024C00003034FF00002C1F2010293420AD14FF41C
:1024D0006043C4F20F031B684FEA03434FEA134300
:1024E000022B1BD04FF46043C4F20F031A684FF065
:1024F0000003C7F2FF0302EA03034FF00002C1F238
:102500000302934210D14FF46043C4F20F031B68DF
:102510004FEA03434FEA1343002B05D14CF2C0634B
:10252000C0F22D03BB6005E04FF41063C0F23D0321
:10253000BB600FE00EE047F23053BB600AE04FF49F
:102540008003BB6006E04FF40043BB6002E04FF045
:102550000003AEE07B68002B04DA7B6803F40063C1
:10256000002B07D07B68002B60DBFB6803F4006363
:10257000002B5BD14EF26403C4F20F031B683B6077
:102580004FF46043C4F20F031B6803F0E043002BD9
:102590000DD04FF46043C4F20F031A684FF00003EC
:1025A000C7F2FF0302EA0303B3F1805F14D13A6874
:1025B00043F6E07302EA03034FEA531303F1020305
:1025C000BA6802FB03F23B6803F01F0303F1020346
:1025D000B2FBF3F3BB6013E03A6843F6E07302EA40
:1025E00003034FEA5313BA6802FB03F23B6803F09C
:1025F0001F0303F101034FEA4303B2FBF3F3BB6094
:102600003B6803F48043002B03D0BB684FEA5303BD
:10261000BB603B6803F40043002B03D0BB684FEA68
:102620009303BB60FB6843F48003FB60FB6803F427
:102630008003002B3CD07B68002B2EDA7B6803F0F4
:102640008043002B1DD07B68002B04DA7B6803F4E9
:102650000063002B07D07B68002B12DBFB6803F4C0
:102660000063002B0DD1BB684FEA43027B6803F087
:10267000FE534FEA935303F10103B2FBF3F3BB6044
:1026800016E07B6803F0FC534FEAD35303F10103D8
:10269000BA68B2FBF3F3BB600AE0FB6803F0F063D7
:1026A0004FEAD35303F10103BA68B2FBF3F3BB6003
:1026B000BB68184607F11407BD4680BC704700BFD1
:1026C00080B483B000AF78604EF26003C4F20F03B1
:1026D0004EF26002C4F20F02126822F4F0117A681E
:1026E00041EA02021A6007F10C07BD4680BC704740
:1026F00080B483B000AF78604FF46143C4F20F033D
:102700004FF46142C4F20F02126822F470617A68D9
:1027100041EA02021A604EF21013C4F20F034EF2A5
:102720001012C4F20F02126822F470617A6841EA52
:1027300002021A6007F10C07BD4680BC704700BF5B
:1027400080B485B000AFF8600B467A60FB72FB681E
:1027500003F580631A467B6803F00103DBB2002BAC
:1027600007D0FB6803F580631968FB7A41EA03032D
:1027700008E0FB6803F580631968FB7A6FEA0303DE
:1027800001EA03031360FB6803F584631A467B6860
:1027900003F00203002B07D0FB6803F5846319687C
:1027A000FB7A41EA030308E0FB6803F584631968D8
:1027B000FB7A6FEA030301EA0303136007F11407CE
:1027C000BD4680BC704700BF80B485B000AFF860E4
:1027D0000B467A60FB72FB6803F581631A467B68DF
:1027E00003F00103DBB2002B07D0FB6803F5816324
:1027F0001968FB7A41EA030308E0FB6803F581638B
:102800001968FB7A6FEA030301EA03031360FB68AC
:1028100003F5806303F104031A467B6803F00203A7
:10282000002B09D0FB6803F5806303F104031968EA
:10283000FB7A41EA03030AE0FB6803F5806303F1D6
:1028400004031968FB7A6FEA030301EA03031360C8
:10285000FB6803F5806303F10C031A467B6803F001
:102860000403002B09D0FB6803F5806303F10C031C
:102870001968FB7A41EA03030AE0FB6803F5806309
:1028800003F10C031968FB7A6FEA030301EA0303FF
:10289000136007F11407BD4680BC704780B485B053
:1028A00000AFF8607A603B600B46FB72FB6803F593
:1028B000A0631A467B6803F00103DBB2002B07D04C
:1028C000FB6803F5A0631968FB7A41EA030308E09B
:1028D000FB6803F5A0631968FB7A6FEA030301EA5A
:1028E00003031360FB6803F5A06303F104031A46B6
:1028F0007B6803F00203002B09D0FB6803F5A0639B
:1029000003F104031968FB7A41EA03030AE0FB6858
:1029100003F5A06303F104031968FB7A6FEA03036C
:1029200001EA03031360FB6803F5A1631A467B68A1
:1029300003F00403002B07D0FB6803F5A1631968BB
:10294000FB7A41EA030308E0FB6803F5A163196819
:10295000FB7A6FEA030301EA03031360FB6803F5E4
:10296000A3631A467B6803F00803002B07D0FB68BB
:1029700003F5A3631968FB7A41EA030308E0FB68E7
:1029800003F5A3631968FB7A6FEA030301EA030303
:102990001360FB6803F5A06303F10C031A463B6860
:1029A00003F00103DBB2002B09D0FB6803F5A06341
:1029B00003F10C031968FB7A41EA03030AE0FB68A0
:1029C00003F5A06303F10C031968FB7A6FEA0303B4
:1029D00001EA03031360FB6803F5A2631A463B6830
:1029E00003F00203002B07D0FB6803F5A26319680C
:1029F000FB7A41EA030308E0FB6803F5A263196868
:102A0000FB7A6FEA030301EA03031360FB6803F533
:102A1000A26303F104031A463B6803F00403002B8E
:102A200009D0FB6803F5A26303F104031968FB7A7C
:102A300041EA03030AE0FB6803F5A26303F1040320
:102A40001968FB7A6FEA030301EA03031360FB686A
:102A500003F5A26303F10C031A463B6803F0080375
:102A6000002B09D0FB6803F5A26303F10C0319687E
:102A7000FB7A41EA03030AE0FB6803F5A26303F172
:102A80000C031968FB7A6FEA030301EA030313607E
:102A9000FB6803F5A5631A463B68002B07D1FB686A
:102AA00003F5A5631968FB7A41EA030308E0FB68B4
:102AB00003F5A5631968FB7A6FEA030301EA0303D0
:102AC000136007F11407BD4680BC704780B483B023
:102AD00000AF78600B46FB707B6803F582637A6811
:102AE00002F582621168FA7841EA02021A6007F17F
:102AF0000C07BD4680BC704780B483B000AF7860DF
:102B00000B46FB70FB78002B04D07B6803F58363D6
:102B10001B6805E07B6803F5826303F104031B680F
:102B2000184607F10C07BD4680BC704780B483B0DF
:102B300000AF78600B46FB707B6803F5826303F19E
:102B40000C03FA781A6007F10C07BD4680BC704789
:102B500080B483B000AF78600B46FB70FB784FEA1F
:102B600083031A467B68D3181B68184607F10C07C5
:102B7000BD4680BC704700BF80B483B000AF7860B2
:102B800013460A46FA70BB70FB784FEA83031A4675
:102B90007B68D318BA781A6007F10C07BD4680BC71
:102BA000704700BF80B582B000AF78600B46FB7005
:102BB000FB78786819464FF00002FFF7C1FDFB78FB
:102BC000786819464FF001024FF00003FFF766FEE8
:102BD00007F10807BD4680BD80B582B000AF7860C0
:102BE0000B46FB70FB78786819464FF00002FFF740
:102BF000A7FDFB78786819464FF001024FF00803F3
:102C0000FFF74CFE07F10807BD4680BD80B582B0D6
:102C100000AF78600B46FB70FB78786819464FF080
:102C20000102FFF78DFDFB78786819464FF001022D
:102C30004FF00803FFF732FE07F10807BD4680BDDD
:102C400080B582B000AF78600B46FB70FB78786887
:102C500019464FF00202FFF773FDFB7878681946BA
:102C60004FF001024FF00803FFF718FE07F10807C5
:102C7000BD4680BD80B582B000AF78600B46FB706A
:102C8000FB78786819464FF00202FFF759FDFB7890
:102C9000786819464FF001024FF00803FFF7FEFD78
:102CA00007F10807BD4680BD80B500AFFEF7F2FE14
:102CB0004CF63440C0F200004FF019014FF0010211
:102CC000FEF76EFF4CF64040C0F200004FF00101ED
:102CD0004FF00A02FEF764FF4CF64440C0F20000D9
:102CE0004FF001014FF01402FEF75AFF4CF644403A
:102CF000C0F200004FF001014FF01E02FEF750FF3E
:102D00004CF64440C0F200004FF001014FF02802A1
:102D1000FEF746FF4CF64840C0F200004FF00101BC
:102D20004FF03202FEF73CFF4CF64840C0F2000084
:102D30004FF001014FF03C02FEF732FF4CF64840E5
:102D4000C0F200004FF001014FF04602FEF728FFED
:102D50004CF65040C0F200004FF041014FF03202FB
:102D6000FEF71EFF4CF65040C0F200004FF041014C
:102D70004FF03C02FEF714FF4CF65040C0F200004A
:102D80004FF041014FF04602FEF70AFF4CF650406B
:102D9000C0F200004FF001014FF05002FEF700FFBB
:102DA0004CF65040C0F200004FF041014FF050028D
:102DB000FEF7F6FEFEF7D6FF80BD00BF80B584B0FB
:102DC00000AF78607B680A2B5AD801A252F823F032
:102DD000FD2D0000092E0000152E0000212E000000
:102DE0002D2E0000392E0000452E0000512E00002F
:102DF0005D2E0000692E0000752E00004CF6584331
:102E0000C0F20003FB603BE04CF66C43C0F20003F1
:102E1000FB6035E04CF68043C0F20003FB602FE01E
:102E20004CF69443C0F20003FB6029E04CF6A84343
:102E3000C0F20003FB6023E04CF6BC43C0F2000389
:102E4000FB601DE04CF6CC43C0F20003FB6017E0D2
:102E50004CF6DC43C0F20003FB6011E04CF6F0439B
:102E6000C0F20003FB600BE04CF60453C0F2000319
:102E7000FB6005E04CF61853C0F20003FB6000BF96
:102E8000F8684FF00101FEF741FFFEF76BFF07F115
:102E90001007BD4680BD00BF80B500AF4CF62C507A
:102EA000C0F200004FF00201FEF730FF4CF6445034
:102EB000C0F200004FF00301FEF728FF4CF65C5013
:102EC000C0F200004FF00401FEF720FF80BD00BFFC
:102ED00080B584B000AFF860B9607A60FB70FB78B1
:102EE000F868B9687A6801F0A1F807F11007BD46E3
:102EF00080BD00BF80B586B002AFF860B9607A606F
:102F00003B60BB690093F868B9687A683B6801F078
:102F10007DF907F11007BD4680BD00BF80B500AF49
:102F200044F24020C0F20F0001F038FA80BD00BF2B
:102F300080B58AB002AFF860B9603B601346FB8091
:102F4000FB881846396B00F029FDB861BB69002B7E
:102F500000F0A680BB691A6BFB8803F1FF334FEAD0
:102F60008303D3187B617B6923F007037B61FB88B4
:102F70000093B869B968BA6A7B6B00F03BFC78696A
:102F8000F9683A6801F0F4FF03461A46BB691A6013
:102F9000FB6A002B02D0FB6ABA691A6002F068F87B
:102FA00040F23873C2F200031B6803F1010240F2E1
:102FB0003873C2F200031A6040F26463C2F2000385
:102FC0001B68002B0FD140F26463C2F20003BA69A0
:102FD0001A6040F23873C2F200031B68012B18D14B
:102FE00000F044FC15E040F24873C2F200031B6895
:102FF000002B0ED140F26463C2F200031B68DA6A50
:10300000BB6A9A4205D840F26463C2F20003BA690F
:103010001A60BB69DA6A40F24073C2F200031B68AF
:103020009A4206D9BB69DA6A40F24073C2F20003E1
:103030001A6040F25C73C2F200031B6803F10102E4
:1030400040F25C73C2F200031A60BB69DA6A40F2B4
:103050004473C2F200031B689A4206D9BB69DA6A5C
:1030600040F24473C2F200031A60BB69DA6A134685
:103070004FEA83039B184FEA83031A4640F26863C2
:10308000C2F20003D218BB6903F1040310461946CB
:1030900001F07AFC4FF00103FB6101F0FFFF02E059
:1030A0004FF0FF33FB61FB69012B11D140F24873F4
:1030B000C2F200031B68002B0AD040F26463C2F224
:1030C00000031B68DA6ABB6A9A4201D201F0C4FFAE
:1030D000FB69184607F12007BD4680BD80B586B064
:1030E00000AF786039604FF000037B6100F066F953
:1030F0007B681A683B68D3183B617B681A6840F2AA
:103100003C73C2F200031B689A4210D97B681A68AC
:103110003B699A421BD940F23C73C2F200031B6820
:103120003A699A4213D94FF001037B610FE07B6843
:103130001A683B699A4207D840F23C73C2F2000316
:103140001B683A699A4202D94FF001037B617B68A0
:103150003A691A607B69002B0CD040F26463C2F2BA
:1031600000031B6803F10403184601F073FC38697F
:1031700000F0CEFB00F034F9F860FB68002B01D1C1
:1031800001F06AFF07F11807BD4680BD80B584B025
:1031900000AF786001F06CFF40F26463C2F200039C
:1031A0001B687A689A4202D14FF000037B607B680B
:1031B000002B05D140F26463C2F200031B6800E0FB
:1031C0007B68FB60FB6803F10403184601F042FCD6
:1031D000FB689B6A002B05D0FB6803F118031846B7
:1031E00001F038FCFB6803F1040340F22470C2F2E2
:1031F0000000194601F0C8FB01F050FF7B68002B6E
:1032000020D140F24873C2F200031B68002B02D0A9
:1032100001F022FF16E040F22473C2F200031B68A3
:103220001A4640F23873C2F200031B689A4207D173
:1032300040F26463C2F200034FF000021A6001E042
:1032400000F068FA07F11007BD4680BD80B485B074
:1032500000AF78604FF00003FB607B68BB60BB6829
:103260005A6940F22473C2F200039A420ED1BB683D
:103270009A6A40F21073C2F200039A4206D0BB6809
:103280009B6A002B02D14FF00103FB60FB681846DC
:1032900007F11407BD4680BC704700BF80B584B0FD
:1032A00000AF78607B68FB60FB68002B48D040F281
:1032B0006463C2F200031B68FA689A4240D001F0CE
:1032C000D7FEF868FFF7C2FF0346012B36D1FB6833
:1032D00003F10403184601F0BDFBFB68DA6A40F213
:1032E0004473C2F200031B689A4206D9FB68DA6A8B
:1032F00040F24473C2F200031A60FB68DA6A1346B4
:103300004FEA83039B184FEA83031A4640F268632F
:10331000C2F20003D218FB6803F1040310461946F9
:1033200001F032FBFB68DA6A40F26463C2F2000328
:103330001B68DB6A9A4201D301F08EFE01F0AEFEFB
:1033400007F11007BD4680BD80B586B004AF4CF6CE
:103350007453C0F200034FF0000200924FF00002DD
:1033600001924FF0000202924FF00002039243F2EA
:10337000E570C0F2000019464FF064024FF0000300
:10338000FFF7D6FD78607B68012B13D14FF0A000CA
:1033900080F3118840F24873C2F200034FF001023B
:1033A0001A6040F23C73C2F200034FF000021A6050
:1033B00001F028FE07F10807BD4680BD80B400AFCC
:1033C00040F24C73C2F200031B6803F1010240F2A9
:1033D0004C73C2F200031A60BD4680BC704700BF48
:1033E00090B583B000AF4FF000037B6001F040FE6A
:1033F00040F24C73C2F200031B6803F1FF3240F24B
:103400004C73C2F200031A6040F24C73C2F2000324
:103410001B68002B40F0868040F23873C2F2000334
:103420001B68002B7ED04FF000033B603DE040F274
:103430001073C2F20003DB68DB681C4604F118035A
:10344000184601F007FB04F10403184601F002FBE3
:10345000E26A40F24473C2F200031B689A4205D943
:10346000E26A40F24473C2F200031A60E26A134651
:103470004FEA83039B184FEA83031A4640F26863BE
:10348000C2F20003D21804F104031046194601F0F9
:103490007BFAE26A40F26463C2F200031B68DB6AF3
:1034A0009A4202D34FF001033B6040F21073C2F224
:1034B00000031B68002BBAD140F25073C2F2000324
:1034C0001B68002B18D00DE000F048F840F2507354
:1034D000C2F200031B6803F1FF3240F25073C2F2E4
:1034E00000031A6040F25073C2F200031B68002B05
:1034F000EAD14FF001033B603B68012B06D040F25C
:103500005473C2F200031B68012B0BD14FF001036F
:103510007B6040F25473C2F200034FF000021A6065
:1035200001F09AFD01F0BAFD7B68184607F10C071F
:10353000BD4690BD80B582B000AF01F099FD40F26C
:103540003C73C2F200031B687B6001F0A7FD7B683F
:10355000184607F10807BD4680BD00BF80B584B09E
:1035600000AF40F24C73C2F200031B68002B40F026
:10357000C08040F23C73C2F200031B6803F10102F9
:1035800040F23C73C2F200031A6040F23C73C2F294
:1035900000031B68002B40D140F20873C2F2000305
:1035A0001B68FB6040F20C73C2F200031A6840F221
:1035B0000873C2F200031A6040F20C73C2F20003F7
:1035C000FA681A6040F25873C2F200031B6803F1F4
:1035D000010240F25873C2F200031A6040F208730D
:1035E000C2F200031B681B68002B07D140F2540392
:1035F000C2F200034FF0FF321A600EE040F208738F
:10360000C2F200031B68DB68DB68BB60BB685A68FA
:1036100040F25403C2F200031A6040F23C73C2F25B
:1036200000031A6840F25403C2F200031B689A4276
:103630006BD340F20873C2F200031B681B68002BB7
:1036400007D140F25403C2F200034FF0FF321A6078
:103650005BE040F20873C2F200031B68DB68DB68C2
:10366000BB60BB685B687B6040F23C73C2F20003E6
:103670001A687B689A4206D240F25403C2F20003F1
:103680007A681A6041E0BB6803F10403184601F050
:10369000E1F9BB689B6A002B05D0BB6803F11803F6
:1036A000184601F0D7F9BB68DA6A40F24473C2F2F7
:1036B00000031B689A4206D9BB68DA6A40F2447379
:1036C000C2F200031A60BB68DA6A13464FEA83034A
:1036D0009B184FEA83031A4640F26863C2F2000364
:1036E000D218BB6803F104031046194601F04CF9E7
:1036F0009FE740F25073C2F200031B6803F101021E
:1037000040F25073C2F200031A6007F11007BD4681
:1037100080BD00BF80B483B000AF40F24C73C2F2F2
:1037200000031B68002B14D040F25473C2F2000354
:103730004FF001021A604FE040F24473C2F20003FE
:103740001B6803F1FF3240F24473C2F200031A60B7
:1037500000E000BF40F24473C2F200031A6813464F
:103760004FEA83039B184FEA83031A4640F26863CB
:10377000C2F20003D3181B68002BDDD040F2447363
:10378000C2F200031A6813464FEA83039B184FEAFC
:1037900083031A4640F26863C2F20003D3187B60C9
:1037A0007B685B685B681A467B685A607B685A680E
:1037B0007B6803F108039A4205D17B685B685B680C
:1037C0001A467B685A607B685B68DB681A4640F281
:1037D0006463C2F200031A6007F10C07BD4680BCA7
:1037E000704700BF80B582B000AF786000F08AF803
:1037F000FCE700BF80B584B000AFF860B9607A60C4
:103800003B60FB6803F134031A46BB681046194657
:103810004FF00C0203F004FBFB684FF0000283F84A
:103820003F207B68052B02D94FF005037B60FB68C6
:103830007A68DA62FB6803F10403184601F096F82F
:10384000FB6803F11803184601F090F8FB68FA686A
:103850001A617B68C3F10602FB689A61FB68FA682B
:103860005A6207F11007BD4680BD00BF80B582B027
:1038700000AF4FF000037B6013E07A6813464FEA15
:1038800083039B184FEA83031A4640F26863C2F22F
:103890000003D318184601F045F87B6803F10103D3
:1038A0007B607B68052BE8D940F2E060C2F2000043
:1038B00001F038F840F2F460C2F2000001F032F892
:1038C00040F21070C2F2000001F02CF840F22470B7
:1038D000C2F2000001F026F840F20873C2F20003C1
:1038E00040F2E062C2F200021A6040F20C73C2F2CF
:1038F000000340F2F462C2F200021A6007F1080706
:10390000BD4680BD80B400AFBD4680BC704700BFDF
:1039100080B582B000AF786040F26463C2F2000309
:103920001B687A685A6040F23C73C2F200031B685D
:103930007A689A4210D240F20C73C2F200031A68FD
:1039400040F26463C2F200031B6803F104031046F3
:10395000194601F043F81DE040F20873C2F200037B
:103960001A6840F26463C2F200031B6803F10403A7
:103970001046194601F032F840F25403C2F2000337
:103980001B687A689A4205D240F25403C2F20003DF
:103990007A681A6007F10807BD4680BD80B584B01B
:1039A00000AF03463960FB804FF0400001F0B0FEED
:1039B0000346FB60FB68002B23D03B68002B07D13C
:1039C000FB884FEA8303184601F0A2FE034600E09D
:1039D0003B68FA681363FB681B6B002B06D1F86821
:1039E00001F0E2FE4FF00003FB600AE0FB681A6B97
:1039F000FB884FEA830310464FF0A5011A4603F0F7
:103A00003BF9FB68184607F11007BD4680BD00BFB3
:103A100080B584B000AF78607B68DB68FB607B6852
:103A2000DB68FB6013E0FB681B681A7840F2607388
:103A3000C2F200031B789A4205D1FB681B68184646
:103A400000F00EF807E0FB6803F10403FB60FB687D
:103A50001B68002BE7D107F11007BD4680BD00BFF2
:103A600080B584B000AF78607B68DB68FB602BE0DA
:103A7000FB689B6898470346012B21D1FB68DB68F4
:103A8000002B02D0FB68DB689847FB681A7840F28D
:103A90006073C2F200031B789A4211D040F2607347
:103AA000C2F200031A7840F26173C2F200031A7086
:103AB000FB681A7840F26073C2F200031A7007E0E4
:103AC000FB6803F11003FB60FB689B68002BCFD100
:103AD00007F11007BD4680BD90B585B000AF786096
:103AE0007B68FB60FFF726FD0346BB6000F0E2F851
:103AF00040F27073C2F200031B6803F1010240F24E
:103B00007073C2F200031A6041F6BA33C2F20003C6
:103B10001B78012B25D140F26473C2F200031B68AD
:103B2000184602F005F803461A4640F27C73C2F2CA
:103B300000031A7040F26473C2F200031B68184657
:103B40005A4902F0BFFE03461A4640F27473C2F2AD
:103B500000031A6041F6BA33C2F200034FF00002CC
:103B60001A7041F6BB33C2F200031B78012B25D13A
:103B700040F26873C2F200031B68184601F0FAFFB6
:103B800003461A4640F27D73C2F200031A7040F2F7
:103B90006873C2F200031B681846444902F092FEA3
:103BA00003461A4640F27873C2F200031A6041F6E7
:103BB000BB33C2F200034FF000021A704FF4C04052
:103BC000C4F202004FF001014FF00002FEF7D4FFF3
:103BD0004FF4C040C4F200004FF020014FF000024B
:103BE000FEF7CAFF4FF4C040C4F200004FF080015E
:103BF0004FF00002FEF7C0FF00F09AFD024640F2CF
:103C00006C73C2F200031A6040F26C73C2F20003DC
:103C10001B684FF0010214461846254902F046FF82
:103C20000346002B02D14FF000031C46E3B2002BE9
:103C300007D040F27E73C2F200034FF001021A7007
:103C400006E040F27E73C2F200034FF000021A70E9
:103C50004FF4C040C4F202004FF001014FF00102E6
:103C6000FEF78AFF40F27C73C2F200031B78012B3F
:103C700006D040F27D73C2F200031B78012B07D1FE
:103C800040F27F73C2F200034FF001021A7006E0A7
:103C900040F27F73C2F200034FF000021A7007F186
:103CA00008031846F968FFF719FA21E7000068428F
:103CB0000000A04080B500AF01F080FD80BD00BFD6
:103CC00080B483B000AF78607B68042B0CD14EF6D3
:103CD0002453CEF200034EF62452CEF200021268B4
:103CE00042F480321A6051E07B68052B0CD14EF60D
:103CF0002453CEF200034EF62452CEF20002126894
:103D000042F400321A6041E07B68062B0CD14EF67B
:103D10002453CEF200034EF62452CEF20002126873
:103D200042F480221A6031E07B680F2B0CD14EF2F6
:103D30001003CEF200034EF21002CEF2000212681F
:103D400042F002021A6021E07B680F2B0FD97B68DA
:103D50002F2B0CD84FF46143CEF200037A68A2F106
:103D600010024FF0010101FA02F21A600EE07B68C6
:103D70002F2B0BD94EF20413CEF200037A68A2F176
:103D800030024FF0010101FA02F21A6007F10C074C
:103D9000BD4680BC704700BF80B582B000AF786080
:103DA000396040F28073C2F2000303F0704240F2C7
:103DB0008073C2F2000323F07F4323F470034FEAC1
:103DC000431342EA030343F000731B68002B5BD0EC
:103DD00040F28073C2F2000303F0704240F280733D
:103DE000C2F2000323F07F4323F470034FEA43132E
:103DF00042EA030343F0007343F004031B68002B03
:103E00003ED000BF4FF40040C4F2000000F014FFA9
:103E10000346002BF6D14FF48040C4F200004FF06F
:103E200040014FF00002FEF7A7FE40F28073C2F29D
:103E3000000303F0704240F28073C2F2000323F0EB
:103E40007F4323F470034FEA431342EA030343F032
:103E5000007343F004034FF000021A6010E07B6827
:103E60001B787A6802F101027A604FF40040C4F2D4
:103E70000000194600F0C8FE3B6803F1FF333B60C9
:103E80003B68002BEBD100E000BF07F10807BD46FF
:103E900080BD00BF80B582B000AF7860396040F26D
:103EA0008073C2F2000303F0704240F28073C2F2EA
:103EB000000323F07F4323F470034FEA431342EAE5
:103EC000030343F000731B68002B5BD040F2807348
:103ED000C2F2000303F0704240F28073C2F20003AA
:103EE00023F07F4323F470034FEA431342EA0303B2
:103EF00043F0007343F004031B68002B3ED100BF66
:103F00004FF40040C4F2000000F096FE0346002B80
:103F1000F6D14FF48040C4F200004FF040014FF062
:103F20004002FEF729FE40F28073C2F2000303F064
:103F3000704240F28073C2F2000323F07F4323F407
:103F400070034FEA431342EA030343F0007343F064
:103F500004034FF001021A6010E07B681B787A6856
:103F600002F101027A604FF40040C4F200001946E9
:103F700000F04AFE3B6803F1FF333B603B68002BD7
:103F8000EBD100E000BF07F10807BD4680BD00BFD0
:103F900080B582B000AF40F28473C2F200034FF0EC
:103FA00000021A6040F28473C2F2000303F10403BA
:103FB0004FF000021A604CF6B870C0F200004FF0EB
:103FC0000301FFF7E9FE4CF6BC70C0F200004FF0B1
:103FD0000301FFF7E1FE4CF68050C0F200004FF005
:103FE0000201FFF7D9FE4FF000037B6016E04FF0AF
:103FF00000033B600BE040F28470C2F200004FF01F
:104000000801FFF747FF3B6803F110033B603B6883
:104010007F2BF0D97B6803F101037B607B685F2B0A
:10402000E5D907F10807BD4680BD00BF80B588B05F
:1040300000AFF860B9607A60FB7040F28473C2F23E
:1040400000034FF015021A70BB684FEA5303DAB24F
:1040500040F28473C2F200035A7040F28473C2F2D9
:1040600000034FF03F029A7040F28470C2F20000E9
:104070004FF00301FFF790FE40F28473C2F2000399
:104080004FF075021A707B68DAB240F28473C2F2A4
:1040900000035A707B68DBB203F10703DAB240F227
:1040A0008473C2F200039A7040F28470C2F200007E
:1040B0004FF00301FFF770FE4CF67C50C0F2000099
:1040C0004FF00201FFF768FE94E0FB681B7803F0F5
:1040D0007F03FB75FB6803F10103FB60FB7D1F2B76
:1040E00003D84FF00003FB7503E0FB7DA3F1200331
:1040F000FB754FF00003FB6179E04FF00003BB61FB
:104100005FE040F28473C2F20003BA699B184FF07B
:1041100000021A70F97D4CF68452C0F200020B4680
:104120004FEA83035B18F9695B18D3181B781A46AA
:10413000BB6942FA03F303F00103DBB2002B0AD0A0
:10414000FB784FEA0313DAB240F28473C2F2000341
:10415000B9695B181A70FB69032B2ED8F97DFB69CE
:1041600003F101004CF68452C0F200020B464FEA04
:1041700083035B181B18D3181B781A46BB6942FAD5
:1041800003F303F00103DBB2002B16D040F284737B
:10419000C2F20003BA699B181B78DAB2FB7803F00D
:1041A0000F03DBB242EA0303DBB2DAB240F28473FC
:1041B000C2F20003B9695B181A70BB6903F101030D
:1041C000BB61BB69072B9CD940F28470C2F200002E
:1041D0004FF00801FFF75EFEBB6803F10203BB600E
:1041E000BB68802B0CD0FB6903F10203FB61FB6908
:1041F000052B82D9FB681B78002B7FF466AF00E0AB
:1042000000BF07F12007BD4680BD00BF80B584B068
:1042100000AFF860B9607A603B6040F28473C2F22C
:1042200000034FF015021A70BB684FEA5303DAB26D
:1042300040F28473C2F200035A70BA683B68D31824
:10424000A3F102034FEA5303DAB240F28473C2F2DD
:1042500000039A7040F28470C2F200004FF0030134
:10426000FFF79AFD40F28473C2F200034FF075022B
:104270001A707B68DAB240F28473C2F200035A709B
:104280007B68DAB2BB69DBB2D318DBB203F1FF3370
:10429000DAB240F28473C2F200039A7040F2847082
:1042A000C2F200004FF00301FFF776FD4CF680509C
:1042B000C0F200004FF00201FFF76EFD0CE03B681A
:1042C0004FEA5303F8681946FFF7E4FD3B684FEAED
:1042D0005303FA68D318FB60BB69002B0CBF0023A3
:1042E0000123DBB2BA6902F1FF32BA61002BE6D1D9
:1042F00007F11007BD4680BD80B584B002AF78607D
:104300004FF40040C4F2000000F06AFCFEF716F81B
:1043100003467A6800924FF0080201924FF4004081
:10432000C4F2000019464FF003024FF0000300F002
:10433000E9FB4FF48040C4F200004FF00801FEF7A3
:1043400099FC4FF48040C4F200004FF008014FF098
:1043500004024FF00A03FEF7A1FA4FF40040C4F242
:10436000000000F029FC40F28073C2F2000303F069
:10437000704240F28073C2F2000323F07F4323F4C3
:1043800070034FEA431342EA030343F000734FF014
:1043900001021A6007F10807BD4680BD80B584B0F0
:1043A00000AF78604FF01000C1F20000FDF74EFE44
:1043B0004FF00100C2F20000FDF748FE4FF001008F
:1043C000C2F20000FDF742FE4FF48040C4F200004C
:1043D0004FF02C01FEF74EFC4FF48040C4F2000079
:1043E0004FF02C014FF004024FF00A03FEF756FA8B
:1043F0004FF48040C4F200004FF0C001FEF706FC0D
:104400004FF48040C4F200004FF0C0014FF00402AE
:104410004FF00803FEF742FA4FF48040C4F2000068
:104420004FF0C0014FF0C002FEF7A6FB40F28073D0
:10443000C2F2000303F0704240F28073C2F2000344
:1044400023F07F4323F470034FEA431342EA03034C
:1044500043F0007343F004034FF001021A607868E0
:10446000FFF74AFFFFF794FD4FF00003FB6021E0E8
:10447000FB6803F101024CF66473C0F20003D2182A
:104480004CF66473C0F20003F9685B181B7803F103
:10449000FF3310461946FFF77FFC4CF66473C0F2F9
:1044A0000003FA689B181B781A46FB68D31803F1BF
:1044B0000103FB60FB684E2BDAD907F11007BD46FC
:1044C00080BD00BF80B500AF4FF02000C2F20000F9
:1044D000FDF7BCFD4FF4A040C4F202004FF0020112
:1044E000FEF77AFB4FF4A040C4F202004FF0020145
:1044F0004FF001024FF00A03FEF7D0F94FF02E0003
:10450000FFF7DEFB4FF4A040C4F202004FF00201BF
:104510004FF00402FEF758F94FF4A040C4F2020035
:104520004FF00201FEF7D2FA4FF01000C2F2000085
:10453000FDF78CFD4FF48040C4F202004FF00401FF
:10454000FEF74AFB4FF48040C4F202004FF0040132
:104550004FF001024FF00A03FEF7A0F94FF480403C
:10456000C4F202004FF00801FEF736FB4FF4804022
:10457000C4F202004FF008014FF001024FF00A03AD
:10458000FEF78CF94FF01400FFF79AFB4FF48040D0
:10459000C4F202004FF00C014FF00402FEF714F9D0
:1045A0004FF48040C4F202004FF00C01FEF78EFA87
:1045B00080BD00BF684620F007018D4681B585B0FB
:1045C00000AF4FF48040C4F202004FF00101FEF74B
:1045D00093FA78607B6803F00103DBB2002B28D0EC
:1045E0004FF48043C4F20203FB604FF00103FB72FF
:1045F00041F6C033C2F200034FF001021A7041F6D7
:10460000C133C2F200034FF000021A7041F6584362
:10461000C2F200031B681846FEF718FE0346012B82
:1046200007D141F65843C2F200031B681846FEF753
:1046300035FE7B6803F00203002B15D04FF4804356
:10464000C4F20203FB604FF00203FB7241F6C13378
:10465000C2F200034FF001021A7041F6C033C2F2F9
:1046600000034FF000021A707B6803F00403002B74
:104670000ED04FF48043C4F20203FB604FF00403FA
:10468000FB7241F6C233C2F200034FF001021A700E
:104690007B6803F00803002B0ED04FF48043C4F274
:1046A0000203FB604FF00803FB7241F6C333C2F212
:1046B00000034FF001021A70FB7AF8681946FEF702
:1046C00035FA07F11407BD46BDE8814085467047BD
:1046D000684620F007018D4681B585B000AF4FF4E4
:1046E000A040C4F202004FF00101FEF705FA786025
:1046F0007B6803F00203002B0ED04FF4A043C4F2FA
:104700000203FB604FF00203FB7241F6C433C2F2B6
:1047100000034FF001021A70FB7AF8681946FEF7A1
:1047200005FA07F11407BD46BDE88140854670478C
:1047300080B500AF4FF40040C4F203004FF0030116
:104740004FF000024FF0620300F036FB4FF40040E0
:10475000C4F203004FF0030100F0F6FB00BF4FF47A
:104760000040C4F203004FF003014FF0000200F0DC
:1047700079FA0346002BF2D04FF40040C4F2030054
:104780004FF0030141F62C72C2F2000200F0AAFBC6
:104790004FF40040C4F203004FF0030100F0A2FA0E
:1047A00041F62C73C2F200031B68184601F068FB47
:1047B00002460B46104619460BA3D3E9002301F02D
:1047C000D5FB02460B461046194601F069FE02462B
:1047D00040F28C73C2F200031A6040F28C73C2F292
:1047E00000031B68184680BD051450400105843F36
:1047F00080B500AF4FF40040C4F203004FF0030156
:104800004FF000024FF0630300F0D6FA4FF400407F
:10481000C4F203004FF0030100F096FB00BF4FF419
:104820000040C4F203004FF003014FF0000200F01B
:1048300019FA0346002BF2D04FF40040C4F20300F3
:104840004FF0030141F63072C2F2000200F04AFB61
:104850004FF40040C4F203004FF0030100F042FAAD
:1048600041F63073C2F200031B68184601F008FBE2
:1048700002460B46104619460BA3D3E9002301F06C
:1048800075FB02460B461046194601F009FE02462A
:1048900040F29073C2F200031A6040F29073C2F2C9
:1048A00000031B68184680BD051450400105843F75
:1048B00080B582B000AF4DF21023C0F200037B60E0
:1048C00040F20003C2F200033B600BE07B681A6811
:1048D0003B681A603B6803F104033B607B6803F1AB
:1048E00004037B603A6840F20C63C2F200039A4210
:1048F000ECD3084808494FF000028842B8BF40F89E
:10490000042BFADBFCF7F6F9FCF77EFF07F108074A
:10491000BD4680BD100600204024002080B400AFBA
:10492000FEE700BF80B483B000AF78607B6803F11E
:1049300008031A467B685A607B684FF0FF329A6022
:104940007B6803F108031A467B68DA607B6803F131
:1049500008031A467B681A617B684FF000021A60F0
:1049600007F10C07BD4680BC704700BF80B483B020
:1049700000AF78607B684FF000021A6107F10C0706
:10498000BD4680BC704700BF80B485B000AF786082
:1049900039607B685B68FB60FB685B681A463B6854
:1049A0005A607B685A683B689A60FB685B683A6843
:1049B0009A603A68FB685A603A687B685A603B685C
:1049C0007A681A617B681B6803F101027B681A60D0
:1049D00007F11407BD4680BC704700BF80B485B0A6
:1049E00000AF786039603B681B68BB60BB68B3F19F
:1049F000FF3F03D17B681B69FB600EE07B6803F11E
:104A00000803FB6002E0FB685B68FB60FB685B68B7
:104A10001B681A46BB689A42F5D9FB685B681A4660
:104A20003B685A603B685B683A689A603B68FA6822
:104A30009A603A68FB685A603B687A681A617B68DA
:104A40001B6803F101027B681A6007F11407BD4679
:104A500080BC704780B485B000AF78607B685B68CD
:104A60007A6892689A607B689B687A6852685A6034
:104A70007B681B69FB60FB685A687B689A4203D1BC
:104A80007B689A68FB685A607B684FF000021A6185
:104A9000FB681B6803F1FF32FB681A6007F114071B
:104AA000BD4680BC704700BF80B485B000AF786061
:104AB00040F29473C2F200031B68002B08D142F647
:104AC0004002C2F2000240F29473C2F200031A6084
:104AD00040F29473C2F200031B68FB6040F29473CF
:104AE000C2F200031A687B68D21840F29473C2F2D3
:104AF00000031A60FB68184607F11407BD4680BC26
:104B0000704700BF80B48BB000AFF860B9607A60C6
:104B10003B603B68022B02D14FF0080301E04FF0ED
:104B200000033B623B68002B02D14FF0000301E021
:104B30004FF004033A6A42EA03033B62FB6803F165
:104B400004033A6A1A60BA683B6BB2FBF3F3FB6189
:104B50004FF000037B627B6A03F102037B62FA6918
:104B60007B6AB2FBF3F303F1FF33BB61BB69FF2B3D
:104B7000F1D8FB6803F110037A6A1A607B684FEA88
:104B800083137B617B6803F030037B60BB694FEA72
:104B900003227B691A437B681A437B6B03F1FF3363
:104BA00042EA03033B62FB683A6A1A6007F12C078A
:104BB000BD4680BC704700BF80B483B000AF786052
:104BC0007B6803F104037A6802F10402126842F080
:104BD00002021A6007F10C07BD4680BC704700BF97
:104BE00080B483B000AF78607B6803F104037A6817
:104BF00002F10402126822F002021A6007F10C07A7
:104C0000BD4680BC704700BF80B483B000AF786001
:104C1000396000BF7B6803F10C031B6803F00203DB
:104C2000002BF7D07B6803F108033A681A6007F19C
:104C30000C07BD4680BC704780B483B000AF78607D
:104C40007B6803F10C031B6803F01003002B0CBFFF
:104C500000230123DBB2184607F10C07BD4680BCD8
:104C6000704700BF80B487B000AFF860B9601346EA
:104C7000FB71FB79002B0CD0FB6803F10C031A6865
:104C8000BB684FF0011101FA03F302EA03037B61F1
:104C900021E0FB6803F104031A68BB684FF00101CF
:104CA00001FA03F343F4803302EA03037B617B6977
:104CB00003F48033002B0ED07B6943F470237B61B7
:104CC000BB684FF4803202FA03F36FEA03037A6998
:104CD00002EA03037B617B69184607F11C07BD46A6
:104CE00080BC704780B483B000AF786039607B6867
:104CF00003F10C033A684FF0010101FA02F21A6065
:104D000007F10C07BD4680BC704700BF80B483B07C
:104D100000AF786039607B687A6811683A684FF054
:104D2000010000FA02F241EA02021A6007F10C07E0
:104D3000BD4680BC704700BF80B485B000AFF8604E
:104D4000B9607A603B60BB684FEA8303BB60FB6875
:104D500003F11403FA6802F114021168BA684FF003
:104D60000F0000FA02F26FEA020211407A6802F0C4
:104D70000F00BA6800FA02F241EA02021A60FB6808
:104D800003F12003FA6802F120021168BA684FF0BB
:104D90000F0000FA02F26FEA020211403A6802F0D4
:104DA0000300BA6800FA02F241EA02021A6007F14F
:104DB0001407BD4680BC704780B487B000AFF86070
:104DC000B9607A603B60BB6803F102034FEA4313AA
:104DD000FA68D318FB607B684FEA83037B60FB684B
:104DE000FA6811687A684FF00F0000FA02F26FEA71
:104DF000020211403A6802F00F007A6800FA02F2EB
:104E000041EA02021A60FB6803F10403FA6802F146
:104E1000040211687A684FF00F0000FA02F26FEA9C
:104E2000020211403A6802F0F0024FEA12107A686A
:104E300000FA02F241EA02021A603B6803F47023AE
:104E4000002B34D0FB6803F114031B687B617B6883
:104E50004FF00F0202FA03F36FEA03037A6902EAE2
:104E600003037B613B6803F4E0234FEA13427B6852
:104E700002FA03F37A6942EA03037B61FB6803F1F8
:104E800014037A691A60FB6803F110031B687B61E5
:104E90007B684FF0010202FA03F37A6942EA0303E6
:104EA0007B61FB6803F110037A691A6014E0FB6808
:104EB00003F110031B687B617B684FF0010202FA6B
:104EC00003F36FEA03037A6902EA03037B61FB6879
:104ED00003F110037A691A6007F11C07BD4680BC14
:104EE000704700BF80B487B000AFF860B9607A60E7
:104EF000BB6803F102034FEA4313FA68D318FB605F
:104F00004FF000037B610DE0FB6803F108031A68B2
:104F10007B681A607B6803F104037B607B6903F1A3
:104F200001037B61FB6803F10C031B6803F48073CE
:104F3000002B02D17B69072BE6D97B69184607F164
:104F40001C07BD4680BC704780B483B000AF78605A
:104F500039607B6803F128033A684FF0010101FAD8
:104F600002F21A6007F10C07BD4680BC704700BF13
:104F700080B485B000AFF860B9607A60FB68A3F1D7
:104F80000403FB60FB684FF080721A60FB68A3F1BA
:104F90000403FB60BA68FB681A60FB68A3F10403B2
:104FA000FB60FB684FF000021A60FB68A3F114037A
:104FB000FB607A68FB681A60FB68A3F12003FB6062
:104FC000FB68184607F11407BD4680BC704700BF58
:104FD000064B19680868B0E8F00F80F309884FF0B5
:104FE000000080F311884EF00D0E7047640600201B
:104FF00003480068006880F3088862B600DF00BFDD
:1050000008ED00E080B500AF4EF62053CEF200036D
:105010004EF62052CEF20002126842F460021A608C
:105020004EF62053CEF200034EF62052CEF200028E
:10503000126842F060421A6000F09EF840F2580395
:10504000C2F200034FF000021A60FFF7D1FF4FF0E9
:105050000003184680BD00BF80B400AF4EF6045375
:10506000CEF200034FF080521A60BD4680BC7047FC
:1050700080B400AF4FF0A00080F3118840F25803D5
:10508000C2F200031B6803F1010240F25803C2F2AE
:1050900000031A60BD4680BC704700BF80B400AFFB
:1050A00040F25803C2F200031B6803F1FF3240F2E2
:1050B0005803C2F200031A6040F25803C2F2000320
:1050C0001B68002B03D14FF0000080F31188BD4610
:1050D00080BC7047EFF309800C4B1A6820E9F00F91
:1050E00010602DE908404FF0A00080F31188FEF712
:1050F00011FB4FF0000080F31188BDE808401968EB
:105100000868B0E8F00F80F3098870476406002053
:1051100080B582B000AF40F21463C2F200031B6896
:1051200003F1010240F21463C2F200031A6041F677
:10513000BC33C2F200031B6803F1010241F6BC3329
:10514000C2F200031A604EF60453CEF200034FF091
:1051500080521A604FF000037B604FF0A00080F394
:105160001188FEF7FBF94FF0000080F3118807F17A
:105170000807BD4680BD00BF80B400AF4EF21403E7
:10518000CEF2000341F63F721A604EF21003CEF2E7
:1051900000034FF007021A60BD4680BC704700BF95
:1051A00080B584B000AF786039604FF4A010FDF78F
:1051B00087FA4FF01010FCF749FF7B68052B00F2CF
:1051C000B18001A252F823F0E15100001752000013
:1051D0004D52000083520000B9520000EF5200000F
:1051E0004FF02000C2F20000FCF730FF4FF4A04067
:1051F000C4F202004FF00101FDF722FD4FF0400321
:10520000FB60FB684FF40040C4F2020019463A68A4
:10521000FCF714F986E04FF04000C2F20000FCF702
:1052200015FF4FF4C040C4F202004FF00201FDF739
:1052300007FD4FF04003FB60FB684FF40040C4F2F1
:10524000020019463A68FCF7F9F86BE04FF00200EB
:10525000C2F20000FCF7FAFE4FF4A040C4F20000D6
:105260004FF00101FDF7ECFC4FF08003FB60FB68A1
:105270004FF40040C4F2020019463A68FCF7DEF829
:1052800050E04FF00200C2F20000FCF7DFFE4FF4E6
:10529000A040C4F200004FF00201FDF7D1FC4FF036
:1052A0008003FB60FB684FF40040C4F20200194623
:1052B0003A68FCF7C3F835E04FF01000C2F2000086
:1052C000FCF7C4FE4FF48040C4F202004FF001012D
:1052D000FDF7B6FC4FF0C003FB60FB684FF40040E5
:1052E000C4F2020019463A68FCF7A8F81AE04FF039
:1052F0001000C2F20000FCF7A9FE4FF48040C4F297
:1053000002004FF00201FDF79BFC4FF0C003FB6071
:10531000FB684FF40040C4F2020019463A68FCF7FB
:105320008DF800BFFB684FF40040C4F2020019463C
:105330004FF00202FCF748F8FB684FF40040C4F25B
:1053400002001946FCF79EF807F11007BD4680BD24
:1053500090B585B000AFF860B9607A6040F25C0348
:10536000C2F20003BA6853F82240786801F09EF94F
:1053700003461846F96801F0F1F90346184601F0B2
:10538000B3FB03464FF40040C4F2020021461A4624
:10539000FCF78CF840F27403C2F20003BA6853F8C9
:1053A00022304FF40040C4F2020019464FF00102CF
:1053B000FCF7B2F807F11407BD4690BD80B584B084
:1053C00000AF78607B68FB60FEF7B4F80346BB6013
:1053D000FDF76AFC00F04EF940F21C63C2F20003D4
:1053E0001B681846FDF7EAFC40F22063C2F2000396
:1053F0001B68012B01D1FDF74FFD40F21C63C2F287
:1054000000031B68002B17D14CF6C070C0F20000DF
:105410004FF00301FCF77AFC4CF6C070C0F20000BC
:105420004FF00401FCF772FC4CF6CC70C0F20000A7
:105430004FF00501FCF76AFC40F25063C2F2000332
:105440001B68184600F03EFD02460B4642F234202F
:10545000C2F200004CF6DC71C0F2000101F088FCE1
:1054600042F23420C2F200004FF00701FCF74EFC7C
:1054700040F25C63C2F200031B68184600F022FD94
:1054800002460B4642F23410C2F200004CF6E871BC
:10549000C0F2000101F06CFC42F23410C2F20000D4
:1054A0004FF00A01FCF732FC40F25463C2F20003F1
:1054B0001B68184600F006FD02460B4642F2B42077
:1054C000C2F200004CF6F471C0F2000101F050FC91
:1054D00042F2B420C2F200004FF00801FCF716FCC3
:1054E00040F24863C2F200031B68184600F0EAFC71
:1054F00002460B4642F23400C2F200004DF20001B7
:10550000C0F2000101F034FC42F23400C2F20000AB
:105510004FF00501FCF7FAFB40F25863C2F20003BA
:105520001B68184600F0CEFC02460B4641F6B470EC
:10553000C2F200004DF20C01C0F2000101F018FCB3
:1055400041F6B470C2F200004FF00901FCF7DEFB37
:1055500040F24C63C2F200031B68184600F0B2FC34
:1055600002460B4642F2B400C2F200004DF21801AE
:10557000C0F2000101F0FCFB42F2B400C2F20000F4
:105580004FF00601FCF7C2FB40F26C73C2F200035D
:105590001B68184600F096FC02460B4642F2B41017
:1055A000C2F200004DF22401C0F2000101F0E0FB64
:1055B00042F2B410C2F200004FF00B01FCF7A6FB60
:1055C00040F27F73C2F200031B78002B07D140F238
:1055D0009873C2F200034FF000021A6029E040F213
:1055E0007C73C2F200031B78012B06D140F2987342
:1055F000C2F200034FF001021A6040F27D73C2F262
:1056000000031B78012B06D140F29873C2F200030D
:105610004FF002021A6040F27E73C2F200031B7860
:10562000012B06D140F29873C2F200034FF003023F
:105630001A6040F29873C2F200031B6841F634709E
:10564000C2F200004DF23001C0F200011A4601F032
:105650008FFB41F63470C2F200004FF00C01FCF7F2
:1056600055FBFCF77FFB07F108031846F968FDF7C7
:1056700035FDB1E680B582B000AF44F24020C0F203
:105680000F00FEF78BFE4FF000037B602CE04FF025
:1056900000033B6012E042F23433C2F200037A6846
:1056A0004FF0160101FB02F13A688A189B184FF07F
:1056B00020021A703B6803F101033B603B68142B26
:1056C000E9DD42F23433C2F200037A684FF016018A
:1056D00001FB02F29B1803F115034FF000021A7050
:1056E0007B6803F101037B607B680B2BCFDD07F147
:1056F0000807BD4680BD00BF80B400AF4EF218035E
:10570000CEF200031B681846BD4680BC704700BF40
:1057100080B584B000AF78604FF00003FB607B6819
:1057200003F00703002B05D07B6823F0070303F188
:1057300008037B60FDF742FE41F6A033C2F200038E
:105740001A687B68D21841F2FF339A4224D841F696
:10575000A033C2F200031A687B68D21841F6A03366
:10576000C2F200031B689A4216D941F6A033C2F276
:1057700000031A6840F2A073C2F20003D318FB6062
:1057800041F6A033C2F200031A687B68D21841F6D2
:10579000A033C2F200031A60FDF722FEFB68184630
:1057A00007F11007BD4680BD80B483B000AF7860BC
:1057B00007F10C07BD4680BC704700BF80B582B0C2
:1057C00000AFFCF7BBFD024648F21F53C5F2EB13D6
:1057D000A3FB02134FEA53137B604FF00300796879
:1057E000FFF7DEFC10484FF003017A68FFF7B0FDC9
:1057F0004FF002004FF00401FBF796F84FF0020063
:105800004FF00401FBF744F94FF003004FF004019F
:10581000FBF78AF84FF003004FF00401FBF738F96B
:1058200007F10807BD4680BD6F12833900000000F4
:10583000684620F007018D46B1B585B000AF4FF442
:10584000A040C4F200004FF00101FDF755F9B86027
:10585000BB6803F01003002B00F091804FF01003A1
:10586000FB73FB7B4FF4A040C4F200001946FDF728
:105870006FF903467B607B6803F01F037B607B68E6
:10588000102B16D1FBF7B0FF03461A4641F6A8339A
:10589000C2F200031A6041F6BC33C2F200034FF0BB
:1058A00000021A6041F6B833C2F200034FF0010261
:1058B0001A707B68002B62D141F6B833C2F2000344
:1058C0001B78012B5BD1FBF78FFF03461A4641F68D
:1058D000AC33C2F200031A6041F6A833C2F20003EF
:1058E0001A6841F6AC33C2F200031B68D31A18469B
:1058F00000F0D6FA04460D4641F6BC33C2F200036E
:105900001B68184600F0CCFA02460B4610461946B2
:1059100023A3D3E9002300F029FB02460B462046CF
:10592000294600F071F902460B46104619461EA39F
:10593000D3E9002300F01AFB02460B461046194635
:1059400017A3D3E9002300F03BFC02460B461046A8
:10595000194600F0A5FD024640F26473C2F200034E
:105960001A6041F6B833C2F200034FF000021A7019
:1059700041F6BA33C2F200034FF001021A70FB7B0A
:105980004FF4A040C4F200001946FDF7CFF807F12C
:105990001407BD46BDE8B14085467047AFF30080AF
:1059A000000000000040BF400000000000408F40A9
:1059B000684620F007018D46B1B585B000AF4FF4C1
:1059C000C040C4F200004FF00101FDF795F8B86047
:1059D000BB6803F01003002B00F091804FF0100320
:1059E000FB73FB7B4FF4C040C4F200001946FDF787
:1059F000AFF803467B607B6803F0FF037B607B6846
:105A0000102B16D1FBF7F0FE03461A4641F6B033D1
:105A1000C2F200031A6041F6BC33C2F200034FF039
:105A200000021A6041F6B933C2F200034FF00102DE
:105A30001A707B68002B62D141F6B933C2F20003C1
:105A40001B78012B5BD1FBF7CFFE03461A4641F6CC
:105A5000B433C2F200031A6041F6B033C2F200035D
:105A60001A6841F6B433C2F200031B68D31A184611
:105A700000F016FA04460D4641F6BC33C2F20003AC
:105A80001B68184600F00CFA02460B4610461946F1
:105A900023A3D3E9002300F069FA02460B4620460F
:105AA000294600F0B1F802460B46104619461EA3DF
:105AB000D3E9002300F05AFA02460B461046194675
:105AC00017A3D3E9002300F07BFB02460B461046E8
:105AD000194600F0E5FC024640F26873C2F200038A
